{
	"contracts/SVTLotteryNew.sol": {
		"SVTLottery": {
			"abi": [
				{
					"inputs": [],
					"stateMutability": "nonpayable",
					"type": "constructor"
				},
				{
					"inputs": [
						{
							"internalType": "address",
							"name": "have",
							"type": "address"
						},
						{
							"internalType": "address",
							"name": "want",
							"type": "address"
						}
					],
					"name": "OnlyCoordinatorCanFulfill",
					"type": "error"
				},
				{
					"anonymous": false,
					"inputs": [
						{
							"indexed": true,
							"internalType": "address",
							"name": "from",
							"type": "address"
						},
						{
							"indexed": true,
							"internalType": "address",
							"name": "to",
							"type": "address"
						}
					],
					"name": "OwnershipTransferRequested",
					"type": "event"
				},
				{
					"anonymous": false,
					"inputs": [
						{
							"indexed": true,
							"internalType": "address",
							"name": "from",
							"type": "address"
						},
						{
							"indexed": true,
							"internalType": "address",
							"name": "to",
							"type": "address"
						}
					],
					"name": "OwnershipTransferred",
					"type": "event"
				},
				{
					"inputs": [],
					"name": "SLTAddress",
					"outputs": [
						{
							"internalType": "address",
							"name": "",
							"type": "address"
						}
					],
					"stateMutability": "view",
					"type": "function"
				},
				{
					"inputs": [],
					"name": "SLTAirdropAmount",
					"outputs": [
						{
							"internalType": "uint16",
							"name": "",
							"type": "uint16"
						}
					],
					"stateMutability": "view",
					"type": "function"
				},
				{
					"inputs": [],
					"name": "acceptOwnership",
					"outputs": [],
					"stateMutability": "nonpayable",
					"type": "function"
				},
				{
					"inputs": [
						{
							"internalType": "address",
							"name": "",
							"type": "address"
						}
					],
					"name": "addressToAidropClaimed",
					"outputs": [
						{
							"internalType": "bool",
							"name": "",
							"type": "bool"
						}
					],
					"stateMutability": "view",
					"type": "function"
				},
				{
					"inputs": [
						{
							"internalType": "address",
							"name": "",
							"type": "address"
						}
					],
					"name": "addressToAmountContributed",
					"outputs": [
						{
							"internalType": "uint256",
							"name": "",
							"type": "uint256"
						}
					],
					"stateMutability": "view",
					"type": "function"
				},
				{
					"inputs": [
						{
							"internalType": "address",
							"name": "",
							"type": "address"
						}
					],
					"name": "addressToRequestId",
					"outputs": [
						{
							"internalType": "uint256",
							"name": "",
							"type": "uint256"
						}
					],
					"stateMutability": "view",
					"type": "function"
				},
				{
					"inputs": [
						{
							"internalType": "address",
							"name": "",
							"type": "address"
						}
					],
					"name": "addressToTotalFundsAtTimeOfContribution",
					"outputs": [
						{
							"internalType": "uint256",
							"name": "",
							"type": "uint256"
						}
					],
					"stateMutability": "view",
					"type": "function"
				},
				{
					"inputs": [],
					"name": "claimAirdropSLT",
					"outputs": [],
					"stateMutability": "nonpayable",
					"type": "function"
				},
				{
					"inputs": [
						{
							"internalType": "uint256",
							"name": "_SLTTokenAmount",
							"type": "uint256"
						}
					],
					"name": "contribute",
					"outputs": [],
					"stateMutability": "nonpayable",
					"type": "function"
				},
				{
					"inputs": [
						{
							"internalType": "uint256",
							"name": "",
							"type": "uint256"
						}
					],
					"name": "contributors",
					"outputs": [
						{
							"internalType": "address",
							"name": "",
							"type": "address"
						}
					],
					"stateMutability": "view",
					"type": "function"
				},
				{
					"inputs": [],
					"name": "getFinalResult",
					"outputs": [],
					"stateMutability": "nonpayable",
					"type": "function"
				},
				{
					"inputs": [],
					"name": "getFinalResultValue",
					"outputs": [
						{
							"internalType": "uint256",
							"name": "SLTAmountWon",
							"type": "uint256"
						}
					],
					"stateMutability": "view",
					"type": "function"
				},
				{
					"inputs": [
						{
							"internalType": "uint256",
							"name": "_requestId",
							"type": "uint256"
						}
					],
					"name": "getRandomNumber",
					"outputs": [
						{
							"internalType": "uint256",
							"name": "",
							"type": "uint256"
						}
					],
					"stateMutability": "view",
					"type": "function"
				},
				{
					"inputs": [],
					"name": "getWithdrawalAmount",
					"outputs": [
						{
							"internalType": "uint256",
							"name": "contributionSLTTokenAmountAfterCharge",
							"type": "uint256"
						},
						{
							"internalType": "uint256",
							"name": "indexOfContributor",
							"type": "uint256"
						}
					],
					"stateMutability": "view",
					"type": "function"
				},
				{
					"inputs": [],
					"name": "owner",
					"outputs": [
						{
							"internalType": "address",
							"name": "",
							"type": "address"
						}
					],
					"stateMutability": "view",
					"type": "function"
				},
				{
					"inputs": [],
					"name": "percentageCharge",
					"outputs": [
						{
							"internalType": "uint8",
							"name": "",
							"type": "uint8"
						}
					],
					"stateMutability": "view",
					"type": "function"
				},
				{
					"inputs": [
						{
							"internalType": "uint256",
							"name": "_sltAmountToStake",
							"type": "uint256"
						}
					],
					"name": "playLottery",
					"outputs": [],
					"stateMutability": "nonpayable",
					"type": "function"
				},
				{
					"inputs": [
						{
							"internalType": "uint256",
							"name": "requestId",
							"type": "uint256"
						},
						{
							"internalType": "uint256[]",
							"name": "randomWords",
							"type": "uint256[]"
						}
					],
					"name": "rawFulfillRandomWords",
					"outputs": [],
					"stateMutability": "nonpayable",
					"type": "function"
				},
				{
					"inputs": [
						{
							"internalType": "uint256",
							"name": "",
							"type": "uint256"
						}
					],
					"name": "s_requests",
					"outputs": [
						{
							"internalType": "bool",
							"name": "fulfilled",
							"type": "bool"
						},
						{
							"internalType": "bool",
							"name": "exists",
							"type": "bool"
						}
					],
					"stateMutability": "view",
					"type": "function"
				},
				{
					"inputs": [],
					"name": "totalAirdrop",
					"outputs": [
						{
							"internalType": "uint32",
							"name": "",
							"type": "uint32"
						}
					],
					"stateMutability": "view",
					"type": "function"
				},
				{
					"inputs": [],
					"name": "totalAirdropSent",
					"outputs": [
						{
							"internalType": "uint32",
							"name": "",
							"type": "uint32"
						}
					],
					"stateMutability": "view",
					"type": "function"
				},
				{
					"inputs": [
						{
							"internalType": "address",
							"name": "to",
							"type": "address"
						}
					],
					"name": "transferOwnership",
					"outputs": [],
					"stateMutability": "nonpayable",
					"type": "function"
				},
				{
					"inputs": [
						{
							"internalType": "uint8",
							"name": "_percentage",
							"type": "uint8"
						}
					],
					"name": "updatePercentage",
					"outputs": [],
					"stateMutability": "nonpayable",
					"type": "function"
				},
				{
					"inputs": [
						{
							"internalType": "uint16",
							"name": "_prizeMultipler",
							"type": "uint16"
						}
					],
					"name": "updatePrizeMultipler",
					"outputs": [],
					"stateMutability": "nonpayable",
					"type": "function"
				},
				{
					"inputs": [
						{
							"internalType": "uint16",
							"name": "_newTokenAmount",
							"type": "uint16"
						}
					],
					"name": "updateSLTAirdropAmount",
					"outputs": [],
					"stateMutability": "nonpayable",
					"type": "function"
				},
				{
					"inputs": [
						{
							"internalType": "uint16",
							"name": "_SLTAirdropLimit",
							"type": "uint16"
						}
					],
					"name": "updateSLTAirdropLimit",
					"outputs": [],
					"stateMutability": "nonpayable",
					"type": "function"
				},
				{
					"inputs": [],
					"name": "withdrawContribution",
					"outputs": [],
					"stateMutability": "nonpayable",
					"type": "function"
				}
			],
			"devdoc": {
				"kind": "dev",
				"methods": {},
				"version": 1
			},
			"evm": {
				"assembly": "    /* \"contracts/SVTLotteryNew.sol\":443:10663  contract SVTLottery is VRFConsumerBaseV2, ConfirmedOwner {... */\n  mstore(0x40, 0xa0)\n    /* \"contracts/SVTLotteryNew.sol\":703:709  100000 */\n  0x0186a0\n    /* \"contracts/SVTLotteryNew.sol\":669:709  uint32 private callbackGasLimit = 100000 */\n  0x02\n  exp(0x0100, 0x14)\n  dup2\n  sload\n  dup2\n  0xffffffff\n  mul\n  not\n  and\n  swap1\n  dup4\n  0xffffffff\n  and\n  mul\n  or\n  swap1\n  sstore\n  pop\n    /* \"contracts/SVTLotteryNew.sol\":753:754  3 */\n  0x03\n    /* \"contracts/SVTLotteryNew.sol\":716:754  uint8 private requestConfirmations = 3 */\n  0x02\n  exp(0x0100, 0x18)\n  dup2\n  sload\n  dup2\n  0xff\n  mul\n  not\n  and\n  swap1\n  dup4\n  0xff\n  and\n  mul\n  or\n  swap1\n  sstore\n  pop\n    /* \"contracts/SVTLotteryNew.sol\":786:787  1 */\n  0x01\n    /* \"contracts/SVTLotteryNew.sol\":761:787  uint8 private numWords = 1 */\n  0x02\n  exp(0x0100, 0x19)\n  dup2\n  sload\n  dup2\n  0xff\n  mul\n  not\n  and\n  swap1\n  dup4\n  0xff\n  and\n  mul\n  or\n  swap1\n  sstore\n  pop\n    /* \"contracts/SVTLotteryNew.sol\":828:831  181 */\n  0xb5\n    /* \"contracts/SVTLotteryNew.sol\":794:831  uint64 private s_subscriptionId = 181 */\n  0x03\n  exp(0x0100, 0x00)\n  dup2\n  sload\n  dup2\n  0xffffffffffffffff\n  mul\n  not\n  and\n  swap1\n  dup4\n  0xffffffffffffffff\n  and\n  mul\n  or\n  swap1\n  sstore\n  pop\n    /* \"contracts/SVTLotteryNew.sol\":856:922  0x72d2b016bb5b62912afea355ebf33b91319f828738b111b723b78696b9847b63 */\n  0x72d2b016bb5b62912afea355ebf33b91319f828738b111b723b78696b9847b63\n    /* \"contracts/SVTLotteryNew.sol\":838:922  bytes32 keyHash = 0x72d2b016bb5b62912afea355ebf33b91319f828738b111b723b78696b9847b63 */\n  0x00\n  shl\n  0x04\n  sstore\n    /* \"contracts/SVTLotteryNew.sol\":951:993  0x41034678D6C633D8a95c75e1138A360a28bA15d1 */\n  0x41034678d6c633d8a95c75e1138a360a28ba15d1\n    /* \"contracts/SVTLotteryNew.sol\":929:993  address Coordinator = 0x41034678D6C633D8a95c75e1138A360a28bA15d1 */\n  0x05\n  exp(0x0100, 0x00)\n  dup2\n  sload\n  dup2\n  0xffffffffffffffffffffffffffffffffffffffff\n  mul\n  not\n  and\n  swap1\n  dup4\n  0xffffffffffffffffffffffffffffffffffffffff\n  and\n  mul\n  or\n  swap1\n  sstore\n  pop\n    /* \"contracts/SVTLotteryNew.sol\":1034:1036  25 */\n  0x19\n    /* \"contracts/SVTLotteryNew.sol\":1002:1036  uint8 public percentageCharge = 25 */\n  0x05\n  exp(0x0100, 0x14)\n  dup2\n  sload\n  dup2\n  0xff\n  mul\n  not\n  and\n  swap1\n  dup4\n  0xff\n  and\n  mul\n  or\n  swap1\n  sstore\n  pop\n    /* \"contracts/SVTLotteryNew.sol\":1078:1079  0 */\n  0x00\n    /* \"contracts/SVTLotteryNew.sol\":1045:1079  uint32 public totalAirdropSent = 0 */\n  0x05\n  exp(0x0100, 0x15)\n  dup2\n  sload\n  dup2\n  0xffffffff\n  mul\n  not\n  and\n  swap1\n  dup4\n  0xffffffff\n  and\n  mul\n  or\n  swap1\n  sstore\n  pop\n    /* \"contracts/SVTLotteryNew.sol\":1115:1121  100000 */\n  0x0186a0\n    /* \"contracts/SVTLotteryNew.sol\":1086:1121  uint32 public totalAirdrop = 100000 */\n  0x05\n  exp(0x0100, 0x19)\n  dup2\n  sload\n  dup2\n  0xffffffff\n  mul\n  not\n  and\n  swap1\n  dup4\n  0xffffffff\n  and\n  mul\n  or\n  swap1\n  sstore\n  pop\n    /* \"contracts/SVTLotteryNew.sol\":1163:1165  50 */\n  0x32\n    /* \"contracts/SVTLotteryNew.sol\":1130:1165  uint16 public SLTAirdropAmount = 50 */\n  0x05\n  exp(0x0100, 0x1d)\n  dup2\n  sload\n  dup2\n  0xffff\n  mul\n  not\n  and\n  swap1\n  dup4\n  0xffff\n  and\n  mul\n  or\n  swap1\n  sstore\n  pop\n    /* \"contracts/SVTLotteryNew.sol\":1204:1210  10**18 */\n  0x0de0b6b3a7640000\n    /* \"contracts/SVTLotteryNew.sol\":1174:1210  uint256 private tenEighteen = 10**18 */\n  0x06\n  sstore\n    /* \"contracts/SVTLotteryNew.sol\":1244:1249  10**8 */\n  0x05f5e100\n    /* \"contracts/SVTLotteryNew.sol\":1217:1249  uint256 private tenEight = 10**8 */\n  0x07\n  sstore\n    /* \"contracts/SVTLotteryNew.sol\":1281:1287  10**10 */\n  0x02540be400\n    /* \"contracts/SVTLotteryNew.sol\":1256:1287  uint256 private tenTen = 10**10 */\n  0x08\n  sstore\n    /* \"contracts/SVTLotteryNew.sol\":1325:1328  100 */\n  0x64\n    /* \"contracts/SVTLotteryNew.sol\":1294:1328  uint8 private hundredPercent = 100 */\n  0x09\n  exp(0x0100, 0x00)\n  dup2\n  sload\n  dup2\n  0xff\n  mul\n  not\n  and\n  swap1\n  dup4\n  0xff\n  and\n  mul\n  or\n  swap1\n  sstore\n  pop\n    /* \"contracts/SVTLotteryNew.sol\":1363:1364  0 */\n  0x00\n    /* \"contracts/SVTLotteryNew.sol\":1337:1364  uint8 private zeroValue = 0 */\n  0x09\n  exp(0x0100, 0x01)\n  dup2\n  sload\n  dup2\n  0xff\n  mul\n  not\n  and\n  swap1\n  dup4\n  0xff\n  and\n  mul\n  or\n  swap1\n  sstore\n  pop\n    /* \"contracts/SVTLotteryNew.sol\":1373:1525  bool[] private potentialToWin = [... */\n  mload(0x40)\n  dup1\n  0x01e0\n  add\n  0x40\n  mstore\n  dup1\n    /* \"contracts/SVTLotteryNew.sol\":1416:1421  false */\n  0x00\n    /* \"contracts/SVTLotteryNew.sol\":1373:1525  bool[] private potentialToWin = [... */\n  iszero\n  iszero\n  iszero\n  iszero\n  dup2\n  mstore\n  0x20\n  add\n    /* \"contracts/SVTLotteryNew.sol\":1423:1428  false */\n  0x00\n    /* \"contracts/SVTLotteryNew.sol\":1373:1525  bool[] private potentialToWin = [... */\n  iszero\n  iszero\n  iszero\n  iszero\n  dup2\n  mstore\n  0x20\n  add\n    /* \"contracts/SVTLotteryNew.sol\":1430:1435  false */\n  0x00\n    /* \"contracts/SVTLotteryNew.sol\":1373:1525  bool[] private potentialToWin = [... */\n  iszero\n  iszero\n  iszero\n  iszero\n  dup2\n  mstore\n  0x20\n  add\n    /* \"contracts/SVTLotteryNew.sol\":1437:1442  false */\n  0x00\n    /* \"contracts/SVTLotteryNew.sol\":1373:1525  bool[] private potentialToWin = [... */\n  iszero\n  iszero\n  iszero\n  iszero\n  dup2\n  mstore\n  0x20\n  add\n    /* \"contracts/SVTLotteryNew.sol\":1444:1449  false */\n  0x00\n    /* \"contracts/SVTLotteryNew.sol\":1373:1525  bool[] private potentialToWin = [... */\n  iszero\n  iszero\n  iszero\n  iszero\n  dup2\n  mstore\n  0x20\n  add\n    /* \"contracts/SVTLotteryNew.sol\":1451:1456  false */\n  0x00\n    /* \"contracts/SVTLotteryNew.sol\":1373:1525  bool[] private potentialToWin = [... */\n  iszero\n  iszero\n  iszero\n  iszero\n  dup2\n  mstore\n  0x20\n  add\n    /* \"contracts/SVTLotteryNew.sol\":1458:1463  false */\n  0x00\n    /* \"contracts/SVTLotteryNew.sol\":1373:1525  bool[] private potentialToWin = [... */\n  iszero\n  iszero\n  iszero\n  iszero\n  dup2\n  mstore\n  0x20\n  add\n    /* \"contracts/SVTLotteryNew.sol\":1465:1469  true */\n  0x01\n    /* \"contracts/SVTLotteryNew.sol\":1373:1525  bool[] private potentialToWin = [... */\n  iszero\n  iszero\n  iszero\n  iszero\n  dup2\n  mstore\n  0x20\n  add\n    /* \"contracts/SVTLotteryNew.sol\":1471:1476  false */\n  0x00\n    /* \"contracts/SVTLotteryNew.sol\":1373:1525  bool[] private potentialToWin = [... */\n  iszero\n  iszero\n  iszero\n  iszero\n  dup2\n  mstore\n  0x20\n  add\n    /* \"contracts/SVTLotteryNew.sol\":1478:1483  false */\n  0x00\n    /* \"contracts/SVTLotteryNew.sol\":1373:1525  bool[] private potentialToWin = [... */\n  iszero\n  iszero\n  iszero\n  iszero\n  dup2\n  mstore\n  0x20\n  add\n    /* \"contracts/SVTLotteryNew.sol\":1485:1490  false */\n  0x00\n    /* \"contracts/SVTLotteryNew.sol\":1373:1525  bool[] private potentialToWin = [... */\n  iszero\n  iszero\n  iszero\n  iszero\n  dup2\n  mstore\n  0x20\n  add\n    /* \"contracts/SVTLotteryNew.sol\":1492:1497  false */\n  0x00\n    /* \"contracts/SVTLotteryNew.sol\":1373:1525  bool[] private potentialToWin = [... */\n  iszero\n  iszero\n  iszero\n  iszero\n  dup2\n  mstore\n  0x20\n  add\n    /* \"contracts/SVTLotteryNew.sol\":1499:1504  false */\n  0x00\n    /* \"contracts/SVTLotteryNew.sol\":1373:1525  bool[] private potentialToWin = [... */\n  iszero\n  iszero\n  iszero\n  iszero\n  dup2\n  mstore\n  0x20\n  add\n    /* \"contracts/SVTLotteryNew.sol\":1506:1511  false */\n  0x00\n    /* \"contracts/SVTLotteryNew.sol\":1373:1525  bool[] private potentialToWin = [... */\n  iszero\n  iszero\n  iszero\n  iszero\n  dup2\n  mstore\n  0x20\n  add\n    /* \"contracts/SVTLotteryNew.sol\":1513:1518  false */\n  0x00\n    /* \"contracts/SVTLotteryNew.sol\":1373:1525  bool[] private potentialToWin = [... */\n  iszero\n  iszero\n  iszero\n  iszero\n  dup2\n  mstore\n  pop\n  0x0a\n  swap1\n  0x0f\n  tag_1\n  swap3\n  swap2\n  swap1\n  tag_2\n  jump\t// in\ntag_1:\n  pop\n    /* \"contracts/SVTLotteryNew.sol\":1565:1567  10 */\n  0x0a\n    /* \"contracts/SVTLotteryNew.sol\":1532:1567  uint256 private prizeMultipler = 10 */\n  0x0b\n  sstore\n    /* \"contracts/SVTLotteryNew.sol\":1604:1646  0x42B5bcE9095aeC6E605991cA6dE23330C43b124D */\n  0x42b5bce9095aec6e605991ca6de23330c43b124d\n    /* \"contracts/SVTLotteryNew.sol\":1576:1646  address public SLTAddress = 0x42B5bcE9095aeC6E605991cA6dE23330C43b124D */\n  0x0c\n  exp(0x0100, 0x00)\n  dup2\n  sload\n  dup2\n  0xffffffffffffffffffffffffffffffffffffffff\n  mul\n  not\n  and\n  swap1\n  dup4\n  0xffffffffffffffffffffffffffffffffffffffff\n  and\n  mul\n  or\n  swap1\n  sstore\n  pop\n    /* \"contracts/SVTLotteryNew.sol\":2266:2276  SLTAddress */\n  0x0c\n  0x00\n  swap1\n  sload\n  swap1\n  0x0100\n  exp\n  swap1\n  div\n  0xffffffffffffffffffffffffffffffffffffffff\n  and\n    /* \"contracts/SVTLotteryNew.sol\":2238:2277  IERC20 private SLT = IERC20(SLTAddress) */\n  0x16\n  exp(0x0100, 0x00)\n  dup2\n  sload\n  dup2\n  0xffffffffffffffffffffffffffffffffffffffff\n  mul\n  not\n  and\n  swap1\n  dup4\n  0xffffffffffffffffffffffffffffffffffffffff\n  and\n  mul\n  or\n  swap1\n  sstore\n  pop\n    /* \"contracts/SVTLotteryNew.sol\":4283:4466  constructor()... */\n  callvalue\n  dup1\n  iszero\n  tag_3\n  jumpi\n  0x00\n  dup1\n  revert\ntag_3:\n  pop\n    /* \"contracts/SVTLotteryNew.sol\":4317:4327  msg.sender */\n  caller\n    /* \"@chainlink/contracts@0.8.0/src/v0.8/shared/access/ConfirmedOwner.sol\":327:335  newOwner */\n  dup1\n    /* \"@chainlink/contracts@0.8.0/src/v0.8/shared/access/ConfirmedOwner.sol\":345:346  0 */\n  0x00\n    /* \"contracts/SVTLotteryNew.sol\":4352:4363  Coordinator */\n  0x05\n  0x00\n  swap1\n  sload\n  swap1\n  0x0100\n  exp\n  swap1\n  div\n  0xffffffffffffffffffffffffffffffffffffffff\n  and\n    /* \"@chainlink/contracts@0.8.0/src/v0.8/vrf/VRFConsumerBaseV2.sol\":5616:5631  _vrfCoordinator */\n  dup1\n    /* \"@chainlink/contracts@0.8.0/src/v0.8/vrf/VRFConsumerBaseV2.sol\":5599:5631  vrfCoordinator = _vrfCoordinator */\n  0xffffffffffffffffffffffffffffffffffffffff\n  and\n  0x80\n  dup2\n  0xffffffffffffffffffffffffffffffffffffffff\n  and\n  dup2\n  mstore\n  pop\n  pop\n    /* \"@chainlink/contracts@0.8.0/src/v0.8/vrf/VRFConsumerBaseV2.sol\":5556:5636  constructor(address _vrfCoordinator) {... */\n  pop\n    /* \"@chainlink/contracts@0.8.0/src/v0.8/shared/access/ConfirmedOwnerWithProposal.sol\":557:558  0 */\n  0x00\n    /* \"@chainlink/contracts@0.8.0/src/v0.8/shared/access/ConfirmedOwnerWithProposal.sol\":537:559  newOwner != address(0) */\n  0xffffffffffffffffffffffffffffffffffffffff\n  and\n    /* \"@chainlink/contracts@0.8.0/src/v0.8/shared/access/ConfirmedOwnerWithProposal.sol\":537:545  newOwner */\n  dup3\n    /* \"@chainlink/contracts@0.8.0/src/v0.8/shared/access/ConfirmedOwnerWithProposal.sol\":537:559  newOwner != address(0) */\n  0xffffffffffffffffffffffffffffffffffffffff\n  and\n  sub\n    /* \"@chainlink/contracts@0.8.0/src/v0.8/shared/access/ConfirmedOwnerWithProposal.sol\":529:588  require(newOwner != address(0), \"Cannot set owner to zero\") */\n  tag_10\n  jumpi\n  mload(0x40)\n  0x08c379a000000000000000000000000000000000000000000000000000000000\n  dup2\n  mstore\n  0x04\n  add\n  tag_11\n  swap1\n  tag_12\n  jump\t// in\ntag_11:\n  mload(0x40)\n  dup1\n  swap2\n  sub\n  swap1\n  revert\ntag_10:\n    /* \"@chainlink/contracts@0.8.0/src/v0.8/shared/access/ConfirmedOwnerWithProposal.sol\":605:613  newOwner */\n  dup2\n    /* \"@chainlink/contracts@0.8.0/src/v0.8/shared/access/ConfirmedOwnerWithProposal.sol\":595:602  s_owner */\n  0x00\n  dup1\n    /* \"@chainlink/contracts@0.8.0/src/v0.8/shared/access/ConfirmedOwnerWithProposal.sol\":595:613  s_owner = newOwner */\n  0x0100\n  exp\n  dup2\n  sload\n  dup2\n  0xffffffffffffffffffffffffffffffffffffffff\n  mul\n  not\n  and\n  swap1\n  dup4\n  0xffffffffffffffffffffffffffffffffffffffff\n  and\n  mul\n  or\n  swap1\n  sstore\n  pop\n    /* \"@chainlink/contracts@0.8.0/src/v0.8/shared/access/ConfirmedOwnerWithProposal.sol\":647:648  0 */\n  0x00\n    /* \"@chainlink/contracts@0.8.0/src/v0.8/shared/access/ConfirmedOwnerWithProposal.sol\":623:649  pendingOwner != address(0) */\n  0xffffffffffffffffffffffffffffffffffffffff\n  and\n    /* \"@chainlink/contracts@0.8.0/src/v0.8/shared/access/ConfirmedOwnerWithProposal.sol\":623:635  pendingOwner */\n  dup2\n    /* \"@chainlink/contracts@0.8.0/src/v0.8/shared/access/ConfirmedOwnerWithProposal.sol\":623:649  pendingOwner != address(0) */\n  0xffffffffffffffffffffffffffffffffffffffff\n  and\n  eq\n    /* \"@chainlink/contracts@0.8.0/src/v0.8/shared/access/ConfirmedOwnerWithProposal.sol\":619:698  if (pendingOwner != address(0)) {... */\n  tag_13\n  jumpi\n    /* \"@chainlink/contracts@0.8.0/src/v0.8/shared/access/ConfirmedOwnerWithProposal.sol\":659:691  _transferOwnership(pendingOwner) */\n  tag_14\n    /* \"@chainlink/contracts@0.8.0/src/v0.8/shared/access/ConfirmedOwnerWithProposal.sol\":678:690  pendingOwner */\n  dup2\n    /* \"@chainlink/contracts@0.8.0/src/v0.8/shared/access/ConfirmedOwnerWithProposal.sol\":659:677  _transferOwnership */\n  shl(0x20, tag_15)\n    /* \"@chainlink/contracts@0.8.0/src/v0.8/shared/access/ConfirmedOwnerWithProposal.sol\":659:691  _transferOwnership(pendingOwner) */\n  0x20\n  shr\n  jump\t// in\ntag_14:\n    /* \"@chainlink/contracts@0.8.0/src/v0.8/shared/access/ConfirmedOwnerWithProposal.sol\":619:698  if (pendingOwner != address(0)) {... */\ntag_13:\n    /* \"@chainlink/contracts@0.8.0/src/v0.8/shared/access/ConfirmedOwnerWithProposal.sol\":471:702  constructor(address newOwner, address pendingOwner) {... */\n  pop\n  pop\n    /* \"@chainlink/contracts@0.8.0/src/v0.8/shared/access/ConfirmedOwner.sol\":270:351  constructor(address newOwner) ConfirmedOwnerWithProposal(newOwner, address(0)) {} */\n  pop\n    /* \"contracts/SVTLotteryNew.sol\":4436:4447  Coordinator */\n  0x05\n  0x00\n  swap1\n  sload\n  swap1\n  0x0100\n  exp\n  swap1\n  div\n  0xffffffffffffffffffffffffffffffffffffffff\n  and\n    /* \"contracts/SVTLotteryNew.sol\":4382:4393  COORDINATOR */\n  0x02\n  0x00\n    /* \"contracts/SVTLotteryNew.sol\":4382:4458  COORDINATOR = VRFCoordinatorV2Interface(... */\n  0x0100\n  exp\n  dup2\n  sload\n  dup2\n  0xffffffffffffffffffffffffffffffffffffffff\n  mul\n  not\n  and\n  swap1\n  dup4\n  0xffffffffffffffffffffffffffffffffffffffff\n  and\n  mul\n  or\n  swap1\n  sstore\n  pop\n    /* \"contracts/SVTLotteryNew.sol\":443:10663  contract SVTLottery is VRFConsumerBaseV2, ConfirmedOwner {... */\n  jump(tag_18)\n    /* \"@chainlink/contracts@0.8.0/src/v0.8/shared/access/ConfirmedOwnerWithProposal.sol\":1482:1670  function _transferOwnership(address to) private {... */\ntag_15:\n    /* \"@chainlink/contracts@0.8.0/src/v0.8/shared/access/ConfirmedOwnerWithProposal.sol\":1550:1560  msg.sender */\n  caller\n    /* \"@chainlink/contracts@0.8.0/src/v0.8/shared/access/ConfirmedOwnerWithProposal.sol\":1544:1560  to != msg.sender */\n  0xffffffffffffffffffffffffffffffffffffffff\n  and\n    /* \"@chainlink/contracts@0.8.0/src/v0.8/shared/access/ConfirmedOwnerWithProposal.sol\":1544:1546  to */\n  dup2\n    /* \"@chainlink/contracts@0.8.0/src/v0.8/shared/access/ConfirmedOwnerWithProposal.sol\":1544:1560  to != msg.sender */\n  0xffffffffffffffffffffffffffffffffffffffff\n  and\n  sub\n    /* \"@chainlink/contracts@0.8.0/src/v0.8/shared/access/ConfirmedOwnerWithProposal.sol\":1536:1588  require(to != msg.sender, \"Cannot transfer to self\") */\n  tag_20\n  jumpi\n  mload(0x40)\n  0x08c379a000000000000000000000000000000000000000000000000000000000\n  dup2\n  mstore\n  0x04\n  add\n  tag_21\n  swap1\n  tag_22\n  jump\t// in\ntag_21:\n  mload(0x40)\n  dup1\n  swap2\n  sub\n  swap1\n  revert\ntag_20:\n    /* \"@chainlink/contracts@0.8.0/src/v0.8/shared/access/ConfirmedOwnerWithProposal.sol\":1612:1614  to */\n  dup1\n    /* \"@chainlink/contracts@0.8.0/src/v0.8/shared/access/ConfirmedOwnerWithProposal.sol\":1595:1609  s_pendingOwner */\n  0x01\n  0x00\n    /* \"@chainlink/contracts@0.8.0/src/v0.8/shared/access/ConfirmedOwnerWithProposal.sol\":1595:1614  s_pendingOwner = to */\n  0x0100\n  exp\n  dup2\n  sload\n  dup2\n  0xffffffffffffffffffffffffffffffffffffffff\n  mul\n  not\n  and\n  swap1\n  dup4\n  0xffffffffffffffffffffffffffffffffffffffff\n  and\n  mul\n  or\n  swap1\n  sstore\n  pop\n    /* \"@chainlink/contracts@0.8.0/src/v0.8/shared/access/ConfirmedOwnerWithProposal.sol\":1662:1664  to */\n  dup1\n    /* \"@chainlink/contracts@0.8.0/src/v0.8/shared/access/ConfirmedOwnerWithProposal.sol\":1626:1665  OwnershipTransferRequested(s_owner, to) */\n  0xffffffffffffffffffffffffffffffffffffffff\n  and\n    /* \"@chainlink/contracts@0.8.0/src/v0.8/shared/access/ConfirmedOwnerWithProposal.sol\":1653:1660  s_owner */\n  0x00\n  dup1\n  sload\n  swap1\n  0x0100\n  exp\n  swap1\n  div\n  0xffffffffffffffffffffffffffffffffffffffff\n  and\n    /* \"@chainlink/contracts@0.8.0/src/v0.8/shared/access/ConfirmedOwnerWithProposal.sol\":1626:1665  OwnershipTransferRequested(s_owner, to) */\n  0xffffffffffffffffffffffffffffffffffffffff\n  and\n  0xed8889f560326eb138920d842192f0eb3dd22b4f139c87a2c57538e05bae1278\n  mload(0x40)\n  mload(0x40)\n  dup1\n  swap2\n  sub\n  swap1\n  log3\n    /* \"@chainlink/contracts@0.8.0/src/v0.8/shared/access/ConfirmedOwnerWithProposal.sol\":1482:1670  function _transferOwnership(address to) private {... */\n  pop\n  jump\t// out\n    /* \"contracts/SVTLotteryNew.sol\":443:10663  contract SVTLottery is VRFConsumerBaseV2, ConfirmedOwner {... */\ntag_2:\n  dup3\n  dup1\n  sload\n  dup3\n  dup3\n  sstore\n  swap1\n  0x00\n  mstore\n  keccak256(0x00, 0x20)\n  swap1\n  0x1f\n  add\n  0x20\n  swap1\n  div\n  dup2\n  add\n  swap3\n  dup3\n  iszero\n  tag_23\n  jumpi\n  swap2\n  0x20\n  mul\n  dup3\n  add\n  0x00\ntag_24:\n  dup4\n  dup3\n  gt\n  iszero\n  tag_25\n  jumpi\n  dup4\n  mload\n  dup4\n  dup3\n  0x0100\n  exp\n  dup2\n  sload\n  dup2\n  0xff\n  mul\n  not\n  and\n  swap1\n  dup4\n  iszero\n  iszero\n  mul\n  or\n  swap1\n  sstore\n  pop\n  swap3\n  0x20\n  add\n  swap3\n  0x01\n  add\n  0x20\n  dup2\n  0x00\n  add\n  div\n  swap3\n  dup4\n  add\n  swap3\n  0x01\n  sub\n  mul\n  jump(tag_24)\ntag_25:\n  dup1\n  iszero\n  tag_26\n  jumpi\n  dup3\n  dup2\n  0x0100\n  exp\n  dup2\n  sload\n  swap1\n  0xff\n  mul\n  not\n  and\n  swap1\n  sstore\n  0x01\n  add\n  0x20\n  dup2\n  0x00\n  add\n  div\n  swap3\n  dup4\n  add\n  swap3\n  0x01\n  sub\n  mul\n  jump(tag_25)\ntag_26:\n  pop\ntag_23:\n  pop\n  swap1\n  pop\n  tag_27\n  swap2\n  swap1\n  tag_28\n  jump\t// in\ntag_27:\n  pop\n  swap1\n  jump\t// out\ntag_28:\ntag_29:\n  dup1\n  dup3\n  gt\n  iszero\n  tag_30\n  jumpi\n  0x00\n  dup2\n  0x00\n  swap1\n  sstore\n  pop\n  0x01\n  add\n  jump(tag_29)\ntag_30:\n  pop\n  swap1\n  jump\t// out\n    /* \"#utility.yul\":7:176   */\ntag_31:\n    /* \"#utility.yul\":91:102   */\n  0x00\n    /* \"#utility.yul\":125:131   */\n  dup3\n    /* \"#utility.yul\":120:123   */\n  dup3\n    /* \"#utility.yul\":113:132   */\n  mstore\n    /* \"#utility.yul\":165:169   */\n  0x20\n    /* \"#utility.yul\":160:163   */\n  dup3\n    /* \"#utility.yul\":156:170   */\n  add\n    /* \"#utility.yul\":141:170   */\n  swap1\n  pop\n    /* \"#utility.yul\":7:176   */\n  swap3\n  swap2\n  pop\n  pop\n  jump\t// out\n    /* \"#utility.yul\":182:356   */\ntag_32:\n    /* \"#utility.yul\":322:348   */\n  0x43616e6e6f7420736574206f776e657220746f207a65726f0000000000000000\n    /* \"#utility.yul\":318:319   */\n  0x00\n    /* \"#utility.yul\":310:316   */\n  dup3\n    /* \"#utility.yul\":306:320   */\n  add\n    /* \"#utility.yul\":299:349   */\n  mstore\n    /* \"#utility.yul\":182:356   */\n  pop\n  jump\t// out\n    /* \"#utility.yul\":362:728   */\ntag_33:\n    /* \"#utility.yul\":504:507   */\n  0x00\n    /* \"#utility.yul\":525:592   */\n  tag_40\n    /* \"#utility.yul\":589:591   */\n  0x18\n    /* \"#utility.yul\":584:587   */\n  dup4\n    /* \"#utility.yul\":525:592   */\n  tag_31\n  jump\t// in\ntag_40:\n    /* \"#utility.yul\":518:592   */\n  swap2\n  pop\n    /* \"#utility.yul\":601:694   */\n  tag_41\n    /* \"#utility.yul\":690:693   */\n  dup3\n    /* \"#utility.yul\":601:694   */\n  tag_32\n  jump\t// in\ntag_41:\n    /* \"#utility.yul\":719:721   */\n  0x20\n    /* \"#utility.yul\":714:717   */\n  dup3\n    /* \"#utility.yul\":710:722   */\n  add\n    /* \"#utility.yul\":703:722   */\n  swap1\n  pop\n    /* \"#utility.yul\":362:728   */\n  swap2\n  swap1\n  pop\n  jump\t// out\n    /* \"#utility.yul\":734:1153   */\ntag_12:\n    /* \"#utility.yul\":900:904   */\n  0x00\n    /* \"#utility.yul\":938:940   */\n  0x20\n    /* \"#utility.yul\":927:936   */\n  dup3\n    /* \"#utility.yul\":923:941   */\n  add\n    /* \"#utility.yul\":915:941   */\n  swap1\n  pop\n    /* \"#utility.yul\":987:996   */\n  dup2\n    /* \"#utility.yul\":981:985   */\n  dup2\n    /* \"#utility.yul\":977:997   */\n  sub\n    /* \"#utility.yul\":973:974   */\n  0x00\n    /* \"#utility.yul\":962:971   */\n  dup4\n    /* \"#utility.yul\":958:975   */\n  add\n    /* \"#utility.yul\":951:998   */\n  mstore\n    /* \"#utility.yul\":1015:1146   */\n  tag_43\n    /* \"#utility.yul\":1141:1145   */\n  dup2\n    /* \"#utility.yul\":1015:1146   */\n  tag_33\n  jump\t// in\ntag_43:\n    /* \"#utility.yul\":1007:1146   */\n  swap1\n  pop\n    /* \"#utility.yul\":734:1153   */\n  swap2\n  swap1\n  pop\n  jump\t// out\n    /* \"#utility.yul\":1159:1332   */\ntag_34:\n    /* \"#utility.yul\":1299:1324   */\n  0x43616e6e6f74207472616e7366657220746f2073656c66000000000000000000\n    /* \"#utility.yul\":1295:1296   */\n  0x00\n    /* \"#utility.yul\":1287:1293   */\n  dup3\n    /* \"#utility.yul\":1283:1297   */\n  add\n    /* \"#utility.yul\":1276:1325   */\n  mstore\n    /* \"#utility.yul\":1159:1332   */\n  pop\n  jump\t// out\n    /* \"#utility.yul\":1338:1704   */\ntag_35:\n    /* \"#utility.yul\":1480:1483   */\n  0x00\n    /* \"#utility.yul\":1501:1568   */\n  tag_46\n    /* \"#utility.yul\":1565:1567   */\n  0x17\n    /* \"#utility.yul\":1560:1563   */\n  dup4\n    /* \"#utility.yul\":1501:1568   */\n  tag_31\n  jump\t// in\ntag_46:\n    /* \"#utility.yul\":1494:1568   */\n  swap2\n  pop\n    /* \"#utility.yul\":1577:1670   */\n  tag_47\n    /* \"#utility.yul\":1666:1669   */\n  dup3\n    /* \"#utility.yul\":1577:1670   */\n  tag_34\n  jump\t// in\ntag_47:\n    /* \"#utility.yul\":1695:1697   */\n  0x20\n    /* \"#utility.yul\":1690:1693   */\n  dup3\n    /* \"#utility.yul\":1686:1698   */\n  add\n    /* \"#utility.yul\":1679:1698   */\n  swap1\n  pop\n    /* \"#utility.yul\":1338:1704   */\n  swap2\n  swap1\n  pop\n  jump\t// out\n    /* \"#utility.yul\":1710:2129   */\ntag_22:\n    /* \"#utility.yul\":1876:1880   */\n  0x00\n    /* \"#utility.yul\":1914:1916   */\n  0x20\n    /* \"#utility.yul\":1903:1912   */\n  dup3\n    /* \"#utility.yul\":1899:1917   */\n  add\n    /* \"#utility.yul\":1891:1917   */\n  swap1\n  pop\n    /* \"#utility.yul\":1963:1972   */\n  dup2\n    /* \"#utility.yul\":1957:1961   */\n  dup2\n    /* \"#utility.yul\":1953:1973   */\n  sub\n    /* \"#utility.yul\":1949:1950   */\n  0x00\n    /* \"#utility.yul\":1938:1947   */\n  dup4\n    /* \"#utility.yul\":1934:1951   */\n  add\n    /* \"#utility.yul\":1927:1974   */\n  mstore\n    /* \"#utility.yul\":1991:2122   */\n  tag_49\n    /* \"#utility.yul\":2117:2121   */\n  dup2\n    /* \"#utility.yul\":1991:2122   */\n  tag_35\n  jump\t// in\ntag_49:\n    /* \"#utility.yul\":1983:2122   */\n  swap1\n  pop\n    /* \"#utility.yul\":1710:2129   */\n  swap2\n  swap1\n  pop\n  jump\t// out\n    /* \"contracts/SVTLotteryNew.sol\":443:10663  contract SVTLottery is VRFConsumerBaseV2, ConfirmedOwner {... */\ntag_18:\n  mload(0x80)\n  codecopy(0x00, dataOffset(sub_0), dataSize(sub_0))\n  0x00\n  assignImmutable(\"0x064aab4cf973af3102587bae83caeab28cf75517d40727c9b952f0d14fb521fa\")\n  return(0x00, dataSize(sub_0))\nstop\n\nsub_0: assembly {\n        /* \"contracts/SVTLotteryNew.sol\":443:10663  contract SVTLottery is VRFConsumerBaseV2, ConfirmedOwner {... */\n      mstore(0x40, 0x80)\n      callvalue\n      dup1\n      iszero\n      tag_1\n      jumpi\n      0x00\n      dup1\n      revert\n    tag_1:\n      pop\n      jumpi(tag_2, lt(calldatasize, 0x04))\n      shr(0xe0, calldataload(0x00))\n      dup1\n      0x8da5cb5b\n      gt\n      tag_30\n      jumpi\n      dup1\n      0xc24611e3\n      gt\n      tag_31\n      jumpi\n      dup1\n      0xdbd27a1e\n      gt\n      tag_32\n      jumpi\n      dup1\n      0xdbd27a1e\n      eq\n      tag_26\n      jumpi\n      dup1\n      0xe33fe993\n      eq\n      tag_27\n      jumpi\n      dup1\n      0xf2fde38b\n      eq\n      tag_28\n      jumpi\n      dup1\n      0xfae899b2\n      eq\n      tag_29\n      jumpi\n      jump(tag_2)\n    tag_32:\n      dup1\n      0xc24611e3\n      eq\n      tag_23\n      jumpi\n      dup1\n      0xcaa7d83a\n      eq\n      tag_24\n      jumpi\n      dup1\n      0xd25d049a\n      eq\n      tag_25\n      jumpi\n      jump(tag_2)\n    tag_31:\n      dup1\n      0xaaf836ff\n      gt\n      tag_33\n      jumpi\n      dup1\n      0xaaf836ff\n      eq\n      tag_19\n      jumpi\n      dup1\n      0xb37217a4\n      eq\n      tag_20\n      jumpi\n      dup1\n      0xbd306f20\n      eq\n      tag_21\n      jumpi\n      dup1\n      0xc1cbbca7\n      eq\n      tag_22\n      jumpi\n      jump(tag_2)\n    tag_33:\n      dup1\n      0x8da5cb5b\n      eq\n      tag_16\n      jumpi\n      dup1\n      0x8f69d52c\n      eq\n      tag_17\n      jumpi\n      dup1\n      0xa168fa89\n      eq\n      tag_18\n      jumpi\n      jump(tag_2)\n    tag_30:\n      dup1\n      0x3cb5d100\n      gt\n      tag_34\n      jumpi\n      dup1\n      0x5ce97dbb\n      gt\n      tag_35\n      jumpi\n      dup1\n      0x5ce97dbb\n      eq\n      tag_12\n      jumpi\n      dup1\n      0x6af3e87d\n      eq\n      tag_13\n      jumpi\n      dup1\n      0x7316a662\n      eq\n      tag_14\n      jumpi\n      dup1\n      0x79ba5097\n      eq\n      tag_15\n      jumpi\n      jump(tag_2)\n    tag_35:\n      dup1\n      0x3cb5d100\n      eq\n      tag_9\n      jumpi\n      dup1\n      0x5017efb6\n      eq\n      tag_10\n      jumpi\n      dup1\n      0x5c7cdc75\n      eq\n      tag_11\n      jumpi\n      jump(tag_2)\n    tag_34:\n      dup1\n      0x02d92032\n      eq\n      tag_3\n      jumpi\n      dup1\n      0x03ddcab8\n      eq\n      tag_4\n      jumpi\n      dup1\n      0x0d616d20\n      eq\n      tag_5\n      jumpi\n      dup1\n      0x14a7b7c3\n      eq\n      tag_6\n      jumpi\n      dup1\n      0x1fe543e3\n      eq\n      tag_7\n      jumpi\n      dup1\n      0x3c6e5310\n      eq\n      tag_8\n      jumpi\n    tag_2:\n      0x00\n      dup1\n      revert\n        /* \"contracts/SVTLotteryNew.sol\":1045:1079  uint32 public totalAirdropSent = 0 */\n    tag_3:\n      tag_36\n      tag_37\n      jump\t// in\n    tag_36:\n      mload(0x40)\n      tag_38\n      swap2\n      swap1\n      tag_39\n      jump\t// in\n    tag_38:\n      mload(0x40)\n      dup1\n      swap2\n      sub\n      swap1\n      return\n        /* \"contracts/SVTLotteryNew.sol\":7466:7907  function playLottery(uint256 _sltAmountToStake)... */\n    tag_4:\n      tag_40\n      0x04\n      dup1\n      calldatasize\n      sub\n      dup2\n      add\n      swap1\n      tag_41\n      swap2\n      swap1\n      tag_42\n      jump\t// in\n    tag_41:\n      tag_43\n      jump\t// in\n    tag_40:\n      stop\n        /* \"contracts/SVTLotteryNew.sol\":6713:7313  function withdrawContribution()... */\n    tag_5:\n      tag_44\n      tag_45\n      jump\t// in\n    tag_44:\n      stop\n        /* \"contracts/SVTLotteryNew.sol\":10194:10342  function updateSLTAirdropLimit(uint16 _SLTAirdropLimit)... */\n    tag_6:\n      tag_46\n      0x04\n      dup1\n      calldatasize\n      sub\n      dup2\n      add\n      swap1\n      tag_47\n      swap2\n      swap1\n      tag_48\n      jump\t// in\n    tag_47:\n      tag_49\n      jump\t// in\n    tag_46:\n      stop\n        /* \"@chainlink/contracts@0.8.0/src/v0.8/vrf/VRFConsumerBaseV2.sol\":6618:6874  function rawFulfillRandomWords(uint256 requestId, uint256[] memory randomWords) external {... */\n    tag_7:\n      tag_50\n      0x04\n      dup1\n      calldatasize\n      sub\n      dup2\n      add\n      swap1\n      tag_51\n      swap2\n      swap1\n      tag_52\n      jump\t// in\n    tag_51:\n      tag_53\n      jump\t// in\n    tag_50:\n      stop\n        /* \"contracts/SVTLotteryNew.sol\":9463:9766  function getFinalResult()... */\n    tag_8:\n      tag_54\n      tag_55\n      jump\t// in\n    tag_54:\n      stop\n        /* \"contracts/SVTLotteryNew.sol\":1655:1684  address[] public contributors */\n    tag_9:\n      tag_56\n      0x04\n      dup1\n      calldatasize\n      sub\n      dup2\n      add\n      swap1\n      tag_57\n      swap2\n      swap1\n      tag_42\n      jump\t// in\n    tag_57:\n      tag_58\n      jump\t// in\n    tag_56:\n      mload(0x40)\n      tag_59\n      swap2\n      swap1\n      tag_60\n      jump\t// in\n    tag_59:\n      mload(0x40)\n      dup1\n      swap2\n      sub\n      swap1\n      return\n        /* \"contracts/SVTLotteryNew.sol\":1951:2005  mapping (address => uint256) public addressToRequestId */\n    tag_10:\n      tag_61\n      0x04\n      dup1\n      calldatasize\n      sub\n      dup2\n      add\n      swap1\n      tag_62\n      swap2\n      swap1\n      tag_63\n      jump\t// in\n    tag_62:\n      tag_64\n      jump\t// in\n    tag_61:\n      mload(0x40)\n      tag_65\n      swap2\n      swap1\n      tag_66\n      jump\t// in\n    tag_65:\n      mload(0x40)\n      dup1\n      swap2\n      sub\n      swap1\n      return\n        /* \"contracts/SVTLotteryNew.sol\":10350:10501  function updateSLTAirdropAmount(uint16 _newTokenAmount)... */\n    tag_11:\n      tag_67\n      0x04\n      dup1\n      calldatasize\n      sub\n      dup2\n      add\n      swap1\n      tag_68\n      swap2\n      swap1\n      tag_48\n      jump\t// in\n    tag_68:\n      tag_69\n      jump\t// in\n    tag_67:\n      stop\n        /* \"contracts/SVTLotteryNew.sol\":1086:1121  uint32 public totalAirdrop = 100000 */\n    tag_12:\n      tag_70\n      tag_71\n      jump\t// in\n    tag_70:\n      mload(0x40)\n      tag_72\n      swap2\n      swap1\n      tag_39\n      jump\t// in\n    tag_72:\n      mload(0x40)\n      dup1\n      swap2\n      sub\n      swap1\n      return\n        /* \"contracts/SVTLotteryNew.sol\":10513:10660  function updatePrizeMultipler(uint16 _prizeMultipler)... */\n    tag_13:\n      tag_73\n      0x04\n      dup1\n      calldatasize\n      sub\n      dup2\n      add\n      swap1\n      tag_74\n      swap2\n      swap1\n      tag_48\n      jump\t// in\n    tag_74:\n      tag_75\n      jump\t// in\n    tag_73:\n      stop\n        /* \"contracts/SVTLotteryNew.sol\":2087:2162  mapping (address => uint256) public addressToTotalFundsAtTimeOfContribution */\n    tag_14:\n      tag_76\n      0x04\n      dup1\n      calldatasize\n      sub\n      dup2\n      add\n      swap1\n      tag_77\n      swap2\n      swap1\n      tag_63\n      jump\t// in\n    tag_77:\n      tag_78\n      jump\t// in\n    tag_76:\n      mload(0x40)\n      tag_79\n      swap2\n      swap1\n      tag_66\n      jump\t// in\n    tag_79:\n      mload(0x40)\n      dup1\n      swap2\n      sub\n      swap1\n      return\n        /* \"@chainlink/contracts@0.8.0/src/v0.8/shared/access/ConfirmedOwnerWithProposal.sol\":1001:1266  function acceptOwnership() external override {... */\n    tag_15:\n      tag_80\n      tag_81\n      jump\t// in\n    tag_80:\n      stop\n        /* \"@chainlink/contracts@0.8.0/src/v0.8/shared/access/ConfirmedOwnerWithProposal.sol\":1317:1398  function owner() public view override returns (address) {... */\n    tag_16:\n      tag_82\n      tag_83\n      jump\t// in\n    tag_82:\n      mload(0x40)\n      tag_84\n      swap2\n      swap1\n      tag_60\n      jump\t// in\n    tag_84:\n      mload(0x40)\n      dup1\n      swap2\n      sub\n      swap1\n      return\n        /* \"contracts/SVTLotteryNew.sol\":1002:1036  uint8 public percentageCharge = 25 */\n    tag_17:\n      tag_85\n      tag_86\n      jump\t// in\n    tag_85:\n      mload(0x40)\n      tag_87\n      swap2\n      swap1\n      tag_88\n      jump\t// in\n    tag_87:\n      mload(0x40)\n      dup1\n      swap2\n      sub\n      swap1\n      return\n        /* \"contracts/SVTLotteryNew.sol\":1755:1807  mapping (uint256 => RequestStatus) public s_requests */\n    tag_18:\n      tag_89\n      0x04\n      dup1\n      calldatasize\n      sub\n      dup2\n      add\n      swap1\n      tag_90\n      swap2\n      swap1\n      tag_42\n      jump\t// in\n    tag_90:\n      tag_91\n      jump\t// in\n    tag_89:\n      mload(0x40)\n      tag_92\n      swap3\n      swap2\n      swap1\n      tag_93\n      jump\t// in\n    tag_92:\n      mload(0x40)\n      dup1\n      swap2\n      sub\n      swap1\n      return\n        /* \"contracts/SVTLotteryNew.sol\":1576:1646  address public SLTAddress = 0x42B5bcE9095aeC6E605991cA6dE23330C43b124D */\n    tag_19:\n      tag_94\n      tag_95\n      jump\t// in\n    tag_94:\n      mload(0x40)\n      tag_96\n      swap2\n      swap1\n      tag_60\n      jump\t// in\n    tag_96:\n      mload(0x40)\n      dup1\n      swap2\n      sub\n      swap1\n      return\n        /* \"contracts/SVTLotteryNew.sol\":9774:9994  function getRandomNumber(uint256 _requestId)... */\n    tag_20:\n      tag_97\n      0x04\n      dup1\n      calldatasize\n      sub\n      dup2\n      add\n      swap1\n      tag_98\n      swap2\n      swap1\n      tag_42\n      jump\t// in\n    tag_98:\n      tag_99\n      jump\t// in\n    tag_97:\n      mload(0x40)\n      tag_100\n      swap2\n      swap1\n      tag_66\n      jump\t// in\n    tag_100:\n      mload(0x40)\n      dup1\n      swap2\n      sub\n      swap1\n      return\n        /* \"contracts/SVTLotteryNew.sol\":10002:10182  function claimAirdropSLT()... */\n    tag_21:\n      tag_101\n      tag_102\n      jump\t// in\n    tag_101:\n      stop\n        /* \"contracts/SVTLotteryNew.sol\":4474:4940  function contribute(uint256 _SLTTokenAmount)... */\n    tag_22:\n      tag_103\n      0x04\n      dup1\n      calldatasize\n      sub\n      dup2\n      add\n      swap1\n      tag_104\n      swap2\n      swap1\n      tag_42\n      jump\t// in\n    tag_104:\n      tag_105\n      jump\t// in\n    tag_103:\n      stop\n        /* \"contracts/SVTLotteryNew.sol\":7321:7458  function updatePercentage(uint8 _percentage)... */\n    tag_23:\n      tag_106\n      0x04\n      dup1\n      calldatasize\n      sub\n      dup2\n      add\n      swap1\n      tag_107\n      swap2\n      swap1\n      tag_108\n      jump\t// in\n    tag_107:\n      tag_109\n      jump\t// in\n    tag_106:\n      stop\n        /* \"contracts/SVTLotteryNew.sol\":2018:2080  mapping (address => uint256) public addressToAmountContributed */\n    tag_24:\n      tag_110\n      0x04\n      dup1\n      calldatasize\n      sub\n      dup2\n      add\n      swap1\n      tag_111\n      swap2\n      swap1\n      tag_63\n      jump\t// in\n    tag_111:\n      tag_112\n      jump\t// in\n    tag_110:\n      mload(0x40)\n      tag_113\n      swap2\n      swap1\n      tag_66\n      jump\t// in\n    tag_113:\n      mload(0x40)\n      dup1\n      swap2\n      sub\n      swap1\n      return\n        /* \"contracts/SVTLotteryNew.sol\":8734:9455  function getFinalResultValue()... */\n    tag_25:\n      tag_114\n      tag_115\n      jump\t// in\n    tag_114:\n      mload(0x40)\n      tag_116\n      swap2\n      swap1\n      tag_66\n      jump\t// in\n    tag_116:\n      mload(0x40)\n      dup1\n      swap2\n      sub\n      swap1\n      return\n        /* \"contracts/SVTLotteryNew.sol\":4948:6705  function getWithdrawalAmount()... */\n    tag_26:\n      tag_117\n      tag_118\n      jump\t// in\n    tag_117:\n      mload(0x40)\n      tag_119\n      swap3\n      swap2\n      swap1\n      tag_120\n      jump\t// in\n    tag_119:\n      mload(0x40)\n      dup1\n      swap2\n      sub\n      swap1\n      return\n        /* \"contracts/SVTLotteryNew.sol\":1130:1165  uint16 public SLTAirdropAmount = 50 */\n    tag_27:\n      tag_121\n      tag_122\n      jump\t// in\n    tag_121:\n      mload(0x40)\n      tag_123\n      swap2\n      swap1\n      tag_124\n      jump\t// in\n    tag_123:\n      mload(0x40)\n      dup1\n      swap2\n      sub\n      swap1\n      return\n        /* \"@chainlink/contracts@0.8.0/src/v0.8/shared/access/ConfirmedOwnerWithProposal.sol\":811:909  function transferOwnership(address to) public override onlyOwner {... */\n    tag_28:\n      tag_125\n      0x04\n      dup1\n      calldatasize\n      sub\n      dup2\n      add\n      swap1\n      tag_126\n      swap2\n      swap1\n      tag_63\n      jump\t// in\n    tag_126:\n      tag_127\n      jump\t// in\n    tag_125:\n      stop\n        /* \"contracts/SVTLotteryNew.sol\":1887:1942  mapping (address => bool) public addressToAidropClaimed */\n    tag_29:\n      tag_128\n      0x04\n      dup1\n      calldatasize\n      sub\n      dup2\n      add\n      swap1\n      tag_129\n      swap2\n      swap1\n      tag_63\n      jump\t// in\n    tag_129:\n      tag_130\n      jump\t// in\n    tag_128:\n      mload(0x40)\n      tag_131\n      swap2\n      swap1\n      tag_132\n      jump\t// in\n    tag_131:\n      mload(0x40)\n      dup1\n      swap2\n      sub\n      swap1\n      return\n        /* \"contracts/SVTLotteryNew.sol\":1045:1079  uint32 public totalAirdropSent = 0 */\n    tag_37:\n      0x05\n      0x15\n      swap1\n      sload\n      swap1\n      0x0100\n      exp\n      swap1\n      div\n      0xffffffff\n      and\n      dup2\n      jump\t// out\n        /* \"contracts/SVTLotteryNew.sol\":7466:7907  function playLottery(uint256 _sltAmountToStake)... */\n    tag_43:\n        /* \"contracts/SVTLotteryNew.sol\":7584:7586  10 */\n      0x0a\n        /* \"contracts/SVTLotteryNew.sol\":7564:7581  _sltAmountToStake */\n      dup2\n        /* \"contracts/SVTLotteryNew.sol\":7564:7586  _sltAmountToStake * 10 */\n      tag_133\n      swap2\n      swap1\n      tag_134\n      jump\t// in\n    tag_133:\n        /* \"contracts/SVTLotteryNew.sol\":3585:3600  _amountRequired */\n      dup1\n        /* \"contracts/SVTLotteryNew.sol\":3553:3556  SLT */\n      0x16\n      0x00\n      swap1\n      sload\n      swap1\n      0x0100\n      exp\n      swap1\n      div\n      0xffffffffffffffffffffffffffffffffffffffff\n      and\n        /* \"contracts/SVTLotteryNew.sol\":3553:3566  SLT.balanceOf */\n      0xffffffffffffffffffffffffffffffffffffffff\n      and\n      0x70a08231\n        /* \"contracts/SVTLotteryNew.sol\":3575:3579  this */\n      address\n        /* \"contracts/SVTLotteryNew.sol\":3553:3581  SLT.balanceOf(address(this)) */\n      mload(0x40)\n      dup3\n      0xffffffff\n      and\n      0xe0\n      shl\n      dup2\n      mstore\n      0x04\n      add\n      tag_136\n      swap2\n      swap1\n      tag_60\n      jump\t// in\n    tag_136:\n      0x20\n      mload(0x40)\n      dup1\n      dup4\n      sub\n      dup2\n      dup7\n      gas\n      staticcall\n      iszero\n      dup1\n      iszero\n      tag_138\n      jumpi\n      returndatasize\n      0x00\n      dup1\n      returndatacopy\n      revert(0x00, returndatasize)\n    tag_138:\n      pop\n      pop\n      pop\n      pop\n      mload(0x40)\n      returndatasize\n      not(0x1f)\n      0x1f\n      dup3\n      add\n      and\n      dup3\n      add\n      dup1\n      0x40\n      mstore\n      pop\n      dup2\n      add\n      swap1\n      tag_139\n      swap2\n      swap1\n      tag_140\n      jump\t// in\n    tag_139:\n        /* \"contracts/SVTLotteryNew.sol\":3553:3600  SLT.balanceOf(address(this)) >= _amountRequired */\n      lt\n      iszero\n        /* \"contracts/SVTLotteryNew.sol\":3545:3651  require(SLT.balanceOf(address(this)) >= _amountRequired, \"Not enough SLT in contract to enable this draw\") */\n      tag_141\n      jumpi\n      mload(0x40)\n      0x08c379a000000000000000000000000000000000000000000000000000000000\n      dup2\n      mstore\n      0x04\n      add\n      tag_142\n      swap1\n      tag_143\n      jump\t// in\n    tag_142:\n      mload(0x40)\n      dup1\n      swap2\n      sub\n      swap1\n      revert\n    tag_141:\n        /* \"contracts/SVTLotteryNew.sol\":7616:7633  _sltAmountToStake */\n      dup2\n        /* \"contracts/SVTLotteryNew.sol\":2625:2632  _amount */\n      dup1\n        /* \"contracts/SVTLotteryNew.sol\":2581:2584  SLT */\n      0x16\n      0x00\n      swap1\n      sload\n      swap1\n      0x0100\n      exp\n      swap1\n      div\n      0xffffffffffffffffffffffffffffffffffffffff\n      and\n        /* \"contracts/SVTLotteryNew.sol\":2581:2594  SLT.allowance */\n      0xffffffffffffffffffffffffffffffffffffffff\n      and\n      0xdd62ed3e\n        /* \"contracts/SVTLotteryNew.sol\":2595:2605  msg.sender */\n      caller\n        /* \"contracts/SVTLotteryNew.sol\":2615:2619  this */\n      address\n        /* \"contracts/SVTLotteryNew.sol\":2581:2621  SLT.allowance(msg.sender, address(this)) */\n      mload(0x40)\n      dup4\n      0xffffffff\n      and\n      0xe0\n      shl\n      dup2\n      mstore\n      0x04\n      add\n      tag_145\n      swap3\n      swap2\n      swap1\n      tag_146\n      jump\t// in\n    tag_145:\n      0x20\n      mload(0x40)\n      dup1\n      dup4\n      sub\n      dup2\n      dup7\n      gas\n      staticcall\n      iszero\n      dup1\n      iszero\n      tag_148\n      jumpi\n      returndatasize\n      0x00\n      dup1\n      returndatacopy\n      revert(0x00, returndatasize)\n    tag_148:\n      pop\n      pop\n      pop\n      pop\n      mload(0x40)\n      returndatasize\n      not(0x1f)\n      0x1f\n      dup3\n      add\n      and\n      dup3\n      add\n      dup1\n      0x40\n      mstore\n      pop\n      dup2\n      add\n      swap1\n      tag_149\n      swap2\n      swap1\n      tag_140\n      jump\t// in\n    tag_149:\n        /* \"contracts/SVTLotteryNew.sol\":2581:2632  SLT.allowance(msg.sender, address(this)) >= _amount */\n      lt\n      iszero\n        /* \"contracts/SVTLotteryNew.sol\":2573:2663  require(SLT.allowance(msg.sender, address(this)) >= _amount, \"Insufficient SLT allowance\") */\n      tag_150\n      jumpi\n      mload(0x40)\n      0x08c379a000000000000000000000000000000000000000000000000000000000\n      dup2\n      mstore\n      0x04\n      add\n      tag_151\n      swap1\n      tag_152\n      jump\t// in\n    tag_151:\n      mload(0x40)\n      dup1\n      swap2\n      sub\n      swap1\n      revert\n    tag_150:\n        /* \"contracts/SVTLotteryNew.sol\":7651:7654  SLT */\n      0x16\n      0x00\n      swap1\n      sload\n      swap1\n      0x0100\n      exp\n      swap1\n      div\n      0xffffffffffffffffffffffffffffffffffffffff\n      and\n        /* \"contracts/SVTLotteryNew.sol\":7651:7667  SLT.transferFrom */\n      0xffffffffffffffffffffffffffffffffffffffff\n      and\n      0x23b872dd\n        /* \"contracts/SVTLotteryNew.sol\":7668:7678  msg.sender */\n      caller\n        /* \"contracts/SVTLotteryNew.sol\":7688:7692  this */\n      address\n        /* \"contracts/SVTLotteryNew.sol\":7695:7712  _sltAmountToStake */\n      dup7\n        /* \"contracts/SVTLotteryNew.sol\":7651:7713  SLT.transferFrom(msg.sender, address(this), _sltAmountToStake) */\n      mload(0x40)\n      dup5\n      0xffffffff\n      and\n      0xe0\n      shl\n      dup2\n      mstore\n      0x04\n      add\n      tag_154\n      swap4\n      swap3\n      swap2\n      swap1\n      tag_155\n      jump\t// in\n    tag_154:\n      0x20\n      mload(0x40)\n      dup1\n      dup4\n      sub\n      dup2\n      0x00\n      dup8\n      gas\n      call\n      iszero\n      dup1\n      iszero\n      tag_157\n      jumpi\n      returndatasize\n      0x00\n      dup1\n      returndatacopy\n      revert(0x00, returndatasize)\n    tag_157:\n      pop\n      pop\n      pop\n      pop\n      mload(0x40)\n      returndatasize\n      not(0x1f)\n      0x1f\n      dup3\n      add\n      and\n      dup3\n      add\n      dup1\n      0x40\n      mstore\n      pop\n      dup2\n      add\n      swap1\n      tag_158\n      swap2\n      swap1\n      tag_159\n      jump\t// in\n    tag_158:\n      pop\n        /* \"contracts/SVTLotteryNew.sol\":7767:7771  true */\n      0x01\n        /* \"contracts/SVTLotteryNew.sol\":7724:7752  addressToParticipationStatus */\n      0x10\n        /* \"contracts/SVTLotteryNew.sol\":7724:7764  addressToParticipationStatus[msg.sender] */\n      0x00\n        /* \"contracts/SVTLotteryNew.sol\":7753:7763  msg.sender */\n      caller\n        /* \"contracts/SVTLotteryNew.sol\":7724:7764  addressToParticipationStatus[msg.sender] */\n      0xffffffffffffffffffffffffffffffffffffffff\n      and\n      0xffffffffffffffffffffffffffffffffffffffff\n      and\n      dup2\n      mstore\n      0x20\n      add\n      swap1\n      dup2\n      mstore\n      0x20\n      add\n      0x00\n      keccak256\n      0x00\n        /* \"contracts/SVTLotteryNew.sol\":7724:7771  addressToParticipationStatus[msg.sender] = true */\n      0x0100\n      exp\n      dup2\n      sload\n      dup2\n      0xff\n      mul\n      not\n      and\n      swap1\n      dup4\n      iszero\n      iszero\n      mul\n      or\n      swap1\n      sstore\n      pop\n        /* \"contracts/SVTLotteryNew.sol\":7815:7835  requestRandomWords() */\n      tag_160\n        /* \"contracts/SVTLotteryNew.sol\":7815:7833  requestRandomWords */\n      tag_161\n        /* \"contracts/SVTLotteryNew.sol\":7815:7835  requestRandomWords() */\n      jump\t// in\n    tag_160:\n        /* \"contracts/SVTLotteryNew.sol\":7782:7800  addressToRequestId */\n      0x12\n        /* \"contracts/SVTLotteryNew.sol\":7782:7812  addressToRequestId[msg.sender] */\n      0x00\n        /* \"contracts/SVTLotteryNew.sol\":7801:7811  msg.sender */\n      caller\n        /* \"contracts/SVTLotteryNew.sol\":7782:7812  addressToRequestId[msg.sender] */\n      0xffffffffffffffffffffffffffffffffffffffff\n      and\n      0xffffffffffffffffffffffffffffffffffffffff\n      and\n      dup2\n      mstore\n      0x20\n      add\n      swap1\n      dup2\n      mstore\n      0x20\n      add\n      0x00\n      keccak256\n        /* \"contracts/SVTLotteryNew.sol\":7782:7835  addressToRequestId[msg.sender] = requestRandomWords() */\n      dup2\n      swap1\n      sstore\n      pop\n        /* \"contracts/SVTLotteryNew.sol\":7882:7899  _sltAmountToStake */\n      dup3\n        /* \"contracts/SVTLotteryNew.sol\":7846:7867  addressToLotteryStake */\n      0x15\n        /* \"contracts/SVTLotteryNew.sol\":7846:7879  addressToLotteryStake[msg.sender] */\n      0x00\n        /* \"contracts/SVTLotteryNew.sol\":7868:7878  msg.sender */\n      caller\n        /* \"contracts/SVTLotteryNew.sol\":7846:7879  addressToLotteryStake[msg.sender] */\n      0xffffffffffffffffffffffffffffffffffffffff\n      and\n      0xffffffffffffffffffffffffffffffffffffffff\n      and\n      dup2\n      mstore\n      0x20\n      add\n      swap1\n      dup2\n      mstore\n      0x20\n      add\n      0x00\n      keccak256\n        /* \"contracts/SVTLotteryNew.sol\":7846:7899  addressToLotteryStake[msg.sender] = _sltAmountToStake */\n      dup2\n      swap1\n      sstore\n      pop\n        /* \"contracts/SVTLotteryNew.sol\":3662:3663  _ */\n      pop\n        /* \"contracts/SVTLotteryNew.sol\":7466:7907  function playLottery(uint256 _sltAmountToStake)... */\n      pop\n      pop\n      jump\t// out\n        /* \"contracts/SVTLotteryNew.sol\":6713:7313  function withdrawContribution()... */\n    tag_45:\n        /* \"contracts/SVTLotteryNew.sol\":2330:2349  addressAccessLocked */\n      0x0e\n        /* \"contracts/SVTLotteryNew.sol\":2330:2361  addressAccessLocked[msg.sender] */\n      0x00\n        /* \"contracts/SVTLotteryNew.sol\":2350:2360  msg.sender */\n      caller\n        /* \"contracts/SVTLotteryNew.sol\":2330:2361  addressAccessLocked[msg.sender] */\n      0xffffffffffffffffffffffffffffffffffffffff\n      and\n      0xffffffffffffffffffffffffffffffffffffffff\n      and\n      dup2\n      mstore\n      0x20\n      add\n      swap1\n      dup2\n      mstore\n      0x20\n      add\n      0x00\n      keccak256\n      0x00\n      swap1\n      sload\n      swap1\n      0x0100\n      exp\n      swap1\n      div\n      0xff\n      and\n        /* \"contracts/SVTLotteryNew.sol\":2329:2361  !addressAccessLocked[msg.sender] */\n      iszero\n        /* \"contracts/SVTLotteryNew.sol\":2321:2390  require(!addressAccessLocked[msg.sender], \"Reentrancy guard: locked\") */\n      tag_163\n      jumpi\n      mload(0x40)\n      0x08c379a000000000000000000000000000000000000000000000000000000000\n      dup2\n      mstore\n      0x04\n      add\n      tag_164\n      swap1\n      tag_165\n      jump\t// in\n    tag_164:\n      mload(0x40)\n      dup1\n      swap2\n      sub\n      swap1\n      revert\n    tag_163:\n        /* \"contracts/SVTLotteryNew.sol\":2435:2439  true */\n      0x01\n        /* \"contracts/SVTLotteryNew.sol\":2401:2420  addressAccessLocked */\n      0x0e\n        /* \"contracts/SVTLotteryNew.sol\":2401:2432  addressAccessLocked[msg.sender] */\n      0x00\n        /* \"contracts/SVTLotteryNew.sol\":2421:2431  msg.sender */\n      caller\n        /* \"contracts/SVTLotteryNew.sol\":2401:2432  addressAccessLocked[msg.sender] */\n      0xffffffffffffffffffffffffffffffffffffffff\n      and\n      0xffffffffffffffffffffffffffffffffffffffff\n      and\n      dup2\n      mstore\n      0x20\n      add\n      swap1\n      dup2\n      mstore\n      0x20\n      add\n      0x00\n      keccak256\n      0x00\n        /* \"contracts/SVTLotteryNew.sol\":2401:2439  addressAccessLocked[msg.sender] = true */\n      0x0100\n      exp\n      dup2\n      sload\n      dup2\n      0xff\n      mul\n      not\n      and\n      swap1\n      dup4\n      iszero\n      iszero\n      mul\n      or\n      swap1\n      sstore\n      pop\n        /* \"contracts/SVTLotteryNew.sol\":6802:6847  uint256 contributionSLTTokenAmountAfterCharge */\n      0x00\n        /* \"contracts/SVTLotteryNew.sol\":6849:6875  uint256 indexOfContributor */\n      dup1\n        /* \"contracts/SVTLotteryNew.sol\":6879:6900  getWithdrawalAmount() */\n      tag_167\n        /* \"contracts/SVTLotteryNew.sol\":6879:6898  getWithdrawalAmount */\n      tag_118\n        /* \"contracts/SVTLotteryNew.sol\":6879:6900  getWithdrawalAmount() */\n      jump\t// in\n    tag_167:\n        /* \"contracts/SVTLotteryNew.sol\":6801:6900  (uint256 contributionSLTTokenAmountAfterCharge, uint256 indexOfContributor) = getWithdrawalAmount() */\n      swap2\n      pop\n      swap2\n      pop\n        /* \"contracts/SVTLotteryNew.sol\":6954:6955  0 */\n      0x00\n        /* \"contracts/SVTLotteryNew.sol\":6914:6951  contributionSLTTokenAmountAfterCharge */\n      dup3\n        /* \"contracts/SVTLotteryNew.sol\":6914:6955  contributionSLTTokenAmountAfterCharge > 0 */\n      gt\n        /* \"contracts/SVTLotteryNew.sol\":6911:7232  if(contributionSLTTokenAmountAfterCharge > 0) {... */\n      iszero\n      tag_168\n      jumpi\n        /* \"contracts/SVTLotteryNew.sol\":7007:7019  contributors */\n      0x0d\n        /* \"contracts/SVTLotteryNew.sol\":7042:7043  1 */\n      0x01\n        /* \"contracts/SVTLotteryNew.sol\":7020:7032  contributors */\n      0x0d\n        /* \"contracts/SVTLotteryNew.sol\":7020:7039  contributors.length */\n      dup1\n      sload\n      swap1\n      pop\n        /* \"contracts/SVTLotteryNew.sol\":7020:7043  contributors.length - 1 */\n      tag_169\n      swap2\n      swap1\n      tag_170\n      jump\t// in\n    tag_169:\n        /* \"contracts/SVTLotteryNew.sol\":7007:7044  contributors[contributors.length - 1] */\n      dup2\n      sload\n      dup2\n      lt\n      tag_171\n      jumpi\n      tag_172\n      tag_173\n      jump\t// in\n    tag_172:\n    tag_171:\n      swap1\n      0x00\n      mstore\n      keccak256(0x00, 0x20)\n      add\n      0x00\n      swap1\n      sload\n      swap1\n      0x0100\n      exp\n      swap1\n      div\n      0xffffffffffffffffffffffffffffffffffffffff\n      and\n        /* \"contracts/SVTLotteryNew.sol\":6972:6984  contributors */\n      0x0d\n        /* \"contracts/SVTLotteryNew.sol\":6985:7003  indexOfContributor */\n      dup3\n        /* \"contracts/SVTLotteryNew.sol\":6972:7004  contributors[indexOfContributor] */\n      dup2\n      sload\n      dup2\n      lt\n      tag_175\n      jumpi\n      tag_176\n      tag_173\n      jump\t// in\n    tag_176:\n    tag_175:\n      swap1\n      0x00\n      mstore\n      keccak256(0x00, 0x20)\n      add\n      0x00\n        /* \"contracts/SVTLotteryNew.sol\":6972:7044  contributors[indexOfContributor] = contributors[contributors.length - 1] */\n      0x0100\n      exp\n      dup2\n      sload\n      dup2\n      0xffffffffffffffffffffffffffffffffffffffff\n      mul\n      not\n      and\n      swap1\n      dup4\n      0xffffffffffffffffffffffffffffffffffffffff\n      and\n      mul\n      or\n      swap1\n      sstore\n      pop\n        /* \"contracts/SVTLotteryNew.sol\":7059:7071  contributors */\n      0x0d\n        /* \"contracts/SVTLotteryNew.sol\":7059:7077  contributors.pop() */\n      dup1\n      sload\n      dup1\n      tag_178\n      jumpi\n      tag_179\n      tag_180\n      jump\t// in\n    tag_179:\n    tag_178:\n      0x01\n      swap1\n      sub\n      dup2\n      dup2\n      swap1\n      0x00\n      mstore\n      keccak256(0x00, 0x20)\n      add\n      exp(0x0100, 0x00)\n      dup2\n      sload\n      swap1\n      0xffffffffffffffffffffffffffffffffffffffff\n      mul\n      not\n      and\n      swap1\n      sstore\n      swap1\n      sstore\n        /* \"contracts/SVTLotteryNew.sol\":7133:7142  zeroValue */\n      0x09\n      0x01\n      swap1\n      sload\n      swap1\n      0x0100\n      exp\n      swap1\n      div\n      0xff\n      and\n        /* \"contracts/SVTLotteryNew.sol\":7092:7142  addressToAmountContributed[msg.sender] = zeroValue */\n      0xff\n      and\n        /* \"contracts/SVTLotteryNew.sol\":7092:7118  addressToAmountContributed */\n      0x13\n        /* \"contracts/SVTLotteryNew.sol\":7092:7130  addressToAmountContributed[msg.sender] */\n      0x00\n        /* \"contracts/SVTLotteryNew.sol\":7119:7129  msg.sender */\n      caller\n        /* \"contracts/SVTLotteryNew.sol\":7092:7130  addressToAmountContributed[msg.sender] */\n      0xffffffffffffffffffffffffffffffffffffffff\n      and\n      0xffffffffffffffffffffffffffffffffffffffff\n      and\n      dup2\n      mstore\n      0x20\n      add\n      swap1\n      dup2\n      mstore\n      0x20\n      add\n      0x00\n      keccak256\n        /* \"contracts/SVTLotteryNew.sol\":7092:7142  addressToAmountContributed[msg.sender] = zeroValue */\n      dup2\n      swap1\n      sstore\n      pop\n        /* \"contracts/SVTLotteryNew.sol\":7211:7220  zeroValue */\n      0x09\n      0x01\n      swap1\n      sload\n      swap1\n      0x0100\n      exp\n      swap1\n      div\n      0xff\n      and\n        /* \"contracts/SVTLotteryNew.sol\":7157:7220  addressToTotalFundsAtTimeOfContribution[msg.sender] = zeroValue */\n      0xff\n      and\n        /* \"contracts/SVTLotteryNew.sol\":7157:7196  addressToTotalFundsAtTimeOfContribution */\n      0x14\n        /* \"contracts/SVTLotteryNew.sol\":7157:7208  addressToTotalFundsAtTimeOfContribution[msg.sender] */\n      0x00\n        /* \"contracts/SVTLotteryNew.sol\":7197:7207  msg.sender */\n      caller\n        /* \"contracts/SVTLotteryNew.sol\":7157:7208  addressToTotalFundsAtTimeOfContribution[msg.sender] */\n      0xffffffffffffffffffffffffffffffffffffffff\n      and\n      0xffffffffffffffffffffffffffffffffffffffff\n      and\n      dup2\n      mstore\n      0x20\n      add\n      swap1\n      dup2\n      mstore\n      0x20\n      add\n      0x00\n      keccak256\n        /* \"contracts/SVTLotteryNew.sol\":7157:7220  addressToTotalFundsAtTimeOfContribution[msg.sender] = zeroValue */\n      dup2\n      swap1\n      sstore\n      pop\n        /* \"contracts/SVTLotteryNew.sol\":6911:7232  if(contributionSLTTokenAmountAfterCharge > 0) {... */\n    tag_168:\n        /* \"contracts/SVTLotteryNew.sol\":7242:7245  SLT */\n      0x16\n      0x00\n      swap1\n      sload\n      swap1\n      0x0100\n      exp\n      swap1\n      div\n      0xffffffffffffffffffffffffffffffffffffffff\n      and\n        /* \"contracts/SVTLotteryNew.sol\":7242:7254  SLT.transfer */\n      0xffffffffffffffffffffffffffffffffffffffff\n      and\n      0xa9059cbb\n        /* \"contracts/SVTLotteryNew.sol\":7255:7265  msg.sender */\n      caller\n        /* \"contracts/SVTLotteryNew.sol\":7267:7304  contributionSLTTokenAmountAfterCharge */\n      dup5\n        /* \"contracts/SVTLotteryNew.sol\":7242:7305  SLT.transfer(msg.sender, contributionSLTTokenAmountAfterCharge) */\n      mload(0x40)\n      dup4\n      0xffffffff\n      and\n      0xe0\n      shl\n      dup2\n      mstore\n      0x04\n      add\n      tag_182\n      swap3\n      swap2\n      swap1\n      tag_183\n      jump\t// in\n    tag_182:\n      0x20\n      mload(0x40)\n      dup1\n      dup4\n      sub\n      dup2\n      0x00\n      dup8\n      gas\n      call\n      iszero\n      dup1\n      iszero\n      tag_185\n      jumpi\n      returndatasize\n      0x00\n      dup1\n      returndatacopy\n      revert(0x00, returndatasize)\n    tag_185:\n      pop\n      pop\n      pop\n      pop\n      mload(0x40)\n      returndatasize\n      not(0x1f)\n      0x1f\n      dup3\n      add\n      and\n      dup3\n      add\n      dup1\n      0x40\n      mstore\n      pop\n      dup2\n      add\n      swap1\n      tag_186\n      swap2\n      swap1\n      tag_159\n      jump\t// in\n    tag_186:\n      pop\n        /* \"contracts/SVTLotteryNew.sol\":6790:7313  {... */\n      pop\n      pop\n        /* \"contracts/SVTLotteryNew.sol\":2496:2501  false */\n      0x00\n        /* \"contracts/SVTLotteryNew.sol\":2462:2481  addressAccessLocked */\n      0x0e\n        /* \"contracts/SVTLotteryNew.sol\":2462:2493  addressAccessLocked[msg.sender] */\n      0x00\n        /* \"contracts/SVTLotteryNew.sol\":2482:2492  msg.sender */\n      caller\n        /* \"contracts/SVTLotteryNew.sol\":2462:2493  addressAccessLocked[msg.sender] */\n      0xffffffffffffffffffffffffffffffffffffffff\n      and\n      0xffffffffffffffffffffffffffffffffffffffff\n      and\n      dup2\n      mstore\n      0x20\n      add\n      swap1\n      dup2\n      mstore\n      0x20\n      add\n      0x00\n      keccak256\n      0x00\n        /* \"contracts/SVTLotteryNew.sol\":2462:2501  addressAccessLocked[msg.sender] = false */\n      0x0100\n      exp\n      dup2\n      sload\n      dup2\n      0xff\n      mul\n      not\n      and\n      swap1\n      dup4\n      iszero\n      iszero\n      mul\n      or\n      swap1\n      sstore\n      pop\n        /* \"contracts/SVTLotteryNew.sol\":6713:7313  function withdrawContribution()... */\n      jump\t// out\n        /* \"contracts/SVTLotteryNew.sol\":10194:10342  function updateSLTAirdropLimit(uint16 _SLTAirdropLimit)... */\n    tag_49:\n        /* \"@chainlink/contracts@0.8.0/src/v0.8/shared/access/ConfirmedOwnerWithProposal.sol\":1941:1961  _validateOwnership() */\n      tag_188\n        /* \"@chainlink/contracts@0.8.0/src/v0.8/shared/access/ConfirmedOwnerWithProposal.sol\":1941:1959  _validateOwnership */\n      tag_189\n        /* \"@chainlink/contracts@0.8.0/src/v0.8/shared/access/ConfirmedOwnerWithProposal.sol\":1941:1961  _validateOwnership() */\n      jump\t// in\n    tag_188:\n        /* \"contracts/SVTLotteryNew.sol\":10318:10334  _SLTAirdropLimit */\n      dup1\n        /* \"contracts/SVTLotteryNew.sol\":10303:10334  totalAirdrop = _SLTAirdropLimit */\n      0xffff\n      and\n        /* \"contracts/SVTLotteryNew.sol\":10303:10315  totalAirdrop */\n      0x05\n      0x19\n        /* \"contracts/SVTLotteryNew.sol\":10303:10334  totalAirdrop = _SLTAirdropLimit */\n      0x0100\n      exp\n      dup2\n      sload\n      dup2\n      0xffffffff\n      mul\n      not\n      and\n      swap1\n      dup4\n      0xffffffff\n      and\n      mul\n      or\n      swap1\n      sstore\n      pop\n        /* \"contracts/SVTLotteryNew.sol\":10194:10342  function updateSLTAirdropLimit(uint16 _SLTAirdropLimit)... */\n      pop\n      jump\t// out\n        /* \"@chainlink/contracts@0.8.0/src/v0.8/vrf/VRFConsumerBaseV2.sol\":6618:6874  function rawFulfillRandomWords(uint256 requestId, uint256[] memory randomWords) external {... */\n    tag_53:\n        /* \"@chainlink/contracts@0.8.0/src/v0.8/vrf/VRFConsumerBaseV2.sol\":6731:6745  vrfCoordinator */\n      immutable(\"0x064aab4cf973af3102587bae83caeab28cf75517d40727c9b952f0d14fb521fa\")\n        /* \"@chainlink/contracts@0.8.0/src/v0.8/vrf/VRFConsumerBaseV2.sol\":6717:6745  msg.sender != vrfCoordinator */\n      0xffffffffffffffffffffffffffffffffffffffff\n      and\n        /* \"@chainlink/contracts@0.8.0/src/v0.8/vrf/VRFConsumerBaseV2.sol\":6717:6727  msg.sender */\n      caller\n        /* \"@chainlink/contracts@0.8.0/src/v0.8/vrf/VRFConsumerBaseV2.sol\":6717:6745  msg.sender != vrfCoordinator */\n      0xffffffffffffffffffffffffffffffffffffffff\n      and\n      eq\n        /* \"@chainlink/contracts@0.8.0/src/v0.8/vrf/VRFConsumerBaseV2.sol\":6713:6822  if (msg.sender != vrfCoordinator) {... */\n      tag_192\n      jumpi\n        /* \"@chainlink/contracts@0.8.0/src/v0.8/vrf/VRFConsumerBaseV2.sol\":6788:6798  msg.sender */\n      caller\n        /* \"@chainlink/contracts@0.8.0/src/v0.8/vrf/VRFConsumerBaseV2.sol\":6800:6814  vrfCoordinator */\n      immutable(\"0x064aab4cf973af3102587bae83caeab28cf75517d40727c9b952f0d14fb521fa\")\n        /* \"@chainlink/contracts@0.8.0/src/v0.8/vrf/VRFConsumerBaseV2.sol\":6762:6815  OnlyCoordinatorCanFulfill(msg.sender, vrfCoordinator) */\n      mload(0x40)\n      0x1cf993f400000000000000000000000000000000000000000000000000000000\n      dup2\n      mstore\n      0x04\n      add\n      tag_193\n      swap3\n      swap2\n      swap1\n      tag_146\n      jump\t// in\n    tag_193:\n      mload(0x40)\n      dup1\n      swap2\n      sub\n      swap1\n      revert\n        /* \"@chainlink/contracts@0.8.0/src/v0.8/vrf/VRFConsumerBaseV2.sol\":6713:6822  if (msg.sender != vrfCoordinator) {... */\n    tag_192:\n        /* \"@chainlink/contracts@0.8.0/src/v0.8/vrf/VRFConsumerBaseV2.sol\":6827:6869  fulfillRandomWords(requestId, randomWords) */\n      tag_194\n        /* \"@chainlink/contracts@0.8.0/src/v0.8/vrf/VRFConsumerBaseV2.sol\":6846:6855  requestId */\n      dup3\n        /* \"@chainlink/contracts@0.8.0/src/v0.8/vrf/VRFConsumerBaseV2.sol\":6857:6868  randomWords */\n      dup3\n        /* \"@chainlink/contracts@0.8.0/src/v0.8/vrf/VRFConsumerBaseV2.sol\":6827:6845  fulfillRandomWords */\n      tag_195\n        /* \"@chainlink/contracts@0.8.0/src/v0.8/vrf/VRFConsumerBaseV2.sol\":6827:6869  fulfillRandomWords(requestId, randomWords) */\n      jump\t// in\n    tag_194:\n        /* \"@chainlink/contracts@0.8.0/src/v0.8/vrf/VRFConsumerBaseV2.sol\":6618:6874  function rawFulfillRandomWords(uint256 requestId, uint256[] memory randomWords) external {... */\n      pop\n      pop\n      jump\t// out\n        /* \"contracts/SVTLotteryNew.sol\":9463:9766  function getFinalResult()... */\n    tag_55:\n        /* \"contracts/SVTLotteryNew.sol\":9521:9544  uint256 SLTAmountToSend */\n      0x00\n        /* \"contracts/SVTLotteryNew.sol\":9547:9568  getFinalResultValue() */\n      tag_197\n        /* \"contracts/SVTLotteryNew.sol\":9547:9566  getFinalResultValue */\n      tag_115\n        /* \"contracts/SVTLotteryNew.sol\":9547:9568  getFinalResultValue() */\n      jump\t// in\n    tag_197:\n        /* \"contracts/SVTLotteryNew.sol\":9521:9568  uint256 SLTAmountToSend = getFinalResultValue() */\n      swap1\n      pop\n        /* \"contracts/SVTLotteryNew.sol\":9605:9606  0 */\n      0x00\n        /* \"contracts/SVTLotteryNew.sol\":9587:9602  SLTAmountToSend */\n      dup2\n        /* \"contracts/SVTLotteryNew.sol\":9587:9606  SLTAmountToSend > 0 */\n      gt\n        /* \"contracts/SVTLotteryNew.sol\":9579:9650  require(SLTAmountToSend > 0, \"You did not win. Better luck next time!\") */\n      tag_198\n      jumpi\n      mload(0x40)\n      0x08c379a000000000000000000000000000000000000000000000000000000000\n      dup2\n      mstore\n      0x04\n      add\n      tag_199\n      swap1\n      tag_200\n      jump\t// in\n    tag_199:\n      mload(0x40)\n      dup1\n      swap2\n      sub\n      swap1\n      revert\n    tag_198:\n        /* \"contracts/SVTLotteryNew.sol\":9661:9664  SLT */\n      0x16\n      0x00\n      swap1\n      sload\n      swap1\n      0x0100\n      exp\n      swap1\n      div\n      0xffffffffffffffffffffffffffffffffffffffff\n      and\n        /* \"contracts/SVTLotteryNew.sol\":9661:9673  SLT.transfer */\n      0xffffffffffffffffffffffffffffffffffffffff\n      and\n      0xa9059cbb\n        /* \"contracts/SVTLotteryNew.sol\":9674:9684  msg.sender */\n      caller\n        /* \"contracts/SVTLotteryNew.sol\":9686:9701  SLTAmountToSend */\n      dup4\n        /* \"contracts/SVTLotteryNew.sol\":9661:9702  SLT.transfer(msg.sender, SLTAmountToSend) */\n      mload(0x40)\n      dup4\n      0xffffffff\n      and\n      0xe0\n      shl\n      dup2\n      mstore\n      0x04\n      add\n      tag_201\n      swap3\n      swap2\n      swap1\n      tag_183\n      jump\t// in\n    tag_201:\n      0x20\n      mload(0x40)\n      dup1\n      dup4\n      sub\n      dup2\n      0x00\n      dup8\n      gas\n      call\n      iszero\n      dup1\n      iszero\n      tag_203\n      jumpi\n      returndatasize\n      0x00\n      dup1\n      returndatacopy\n      revert(0x00, returndatasize)\n    tag_203:\n      pop\n      pop\n      pop\n      pop\n      mload(0x40)\n      returndatasize\n      not(0x1f)\n      0x1f\n      dup3\n      add\n      and\n      dup3\n      add\n      dup1\n      0x40\n      mstore\n      pop\n      dup2\n      add\n      swap1\n      tag_204\n      swap2\n      swap1\n      tag_159\n      jump\t// in\n    tag_204:\n      pop\n        /* \"contracts/SVTLotteryNew.sol\":9749:9758  zeroValue */\n      0x09\n      0x01\n      swap1\n      sload\n      swap1\n      0x0100\n      exp\n      swap1\n      div\n      0xff\n      and\n        /* \"contracts/SVTLotteryNew.sol\":9713:9758  addressToLotteryStake[msg.sender] = zeroValue */\n      0xff\n      and\n        /* \"contracts/SVTLotteryNew.sol\":9713:9734  addressToLotteryStake */\n      0x15\n        /* \"contracts/SVTLotteryNew.sol\":9713:9746  addressToLotteryStake[msg.sender] */\n      0x00\n        /* \"contracts/SVTLotteryNew.sol\":9735:9745  msg.sender */\n      caller\n        /* \"contracts/SVTLotteryNew.sol\":9713:9746  addressToLotteryStake[msg.sender] */\n      0xffffffffffffffffffffffffffffffffffffffff\n      and\n      0xffffffffffffffffffffffffffffffffffffffff\n      and\n      dup2\n      mstore\n      0x20\n      add\n      swap1\n      dup2\n      mstore\n      0x20\n      add\n      0x00\n      keccak256\n        /* \"contracts/SVTLotteryNew.sol\":9713:9758  addressToLotteryStake[msg.sender] = zeroValue */\n      dup2\n      swap1\n      sstore\n      pop\n        /* \"contracts/SVTLotteryNew.sol\":9510:9766  {... */\n      pop\n        /* \"contracts/SVTLotteryNew.sol\":9463:9766  function getFinalResult()... */\n      jump\t// out\n        /* \"contracts/SVTLotteryNew.sol\":1655:1684  address[] public contributors */\n    tag_58:\n      0x0d\n      dup2\n      dup2\n      sload\n      dup2\n      lt\n      tag_205\n      jumpi\n      0x00\n      dup1\n      revert\n    tag_205:\n      swap1\n      0x00\n      mstore\n      keccak256(0x00, 0x20)\n      add\n      0x00\n      swap2\n      pop\n      sload\n      swap1\n      0x0100\n      exp\n      swap1\n      div\n      0xffffffffffffffffffffffffffffffffffffffff\n      and\n      dup2\n      jump\t// out\n        /* \"contracts/SVTLotteryNew.sol\":1951:2005  mapping (address => uint256) public addressToRequestId */\n    tag_64:\n      mstore(0x20, 0x12)\n      dup1\n      0x00\n      mstore\n      keccak256(0x00, 0x40)\n      0x00\n      swap2\n      pop\n      swap1\n      pop\n      sload\n      dup2\n      jump\t// out\n        /* \"contracts/SVTLotteryNew.sol\":10350:10501  function updateSLTAirdropAmount(uint16 _newTokenAmount)... */\n    tag_69:\n        /* \"@chainlink/contracts@0.8.0/src/v0.8/shared/access/ConfirmedOwnerWithProposal.sol\":1941:1961  _validateOwnership() */\n      tag_208\n        /* \"@chainlink/contracts@0.8.0/src/v0.8/shared/access/ConfirmedOwnerWithProposal.sol\":1941:1959  _validateOwnership */\n      tag_189\n        /* \"@chainlink/contracts@0.8.0/src/v0.8/shared/access/ConfirmedOwnerWithProposal.sol\":1941:1961  _validateOwnership() */\n      jump\t// in\n    tag_208:\n        /* \"contracts/SVTLotteryNew.sol\":10478:10493  _newTokenAmount */\n      dup1\n        /* \"contracts/SVTLotteryNew.sol\":10459:10475  SLTAirdropAmount */\n      0x05\n      0x1d\n        /* \"contracts/SVTLotteryNew.sol\":10459:10493  SLTAirdropAmount = _newTokenAmount */\n      0x0100\n      exp\n      dup2\n      sload\n      dup2\n      0xffff\n      mul\n      not\n      and\n      swap1\n      dup4\n      0xffff\n      and\n      mul\n      or\n      swap1\n      sstore\n      pop\n        /* \"contracts/SVTLotteryNew.sol\":10350:10501  function updateSLTAirdropAmount(uint16 _newTokenAmount)... */\n      pop\n      jump\t// out\n        /* \"contracts/SVTLotteryNew.sol\":1086:1121  uint32 public totalAirdrop = 100000 */\n    tag_71:\n      0x05\n      0x19\n      swap1\n      sload\n      swap1\n      0x0100\n      exp\n      swap1\n      div\n      0xffffffff\n      and\n      dup2\n      jump\t// out\n        /* \"contracts/SVTLotteryNew.sol\":10513:10660  function updatePrizeMultipler(uint16 _prizeMultipler)... */\n    tag_75:\n        /* \"@chainlink/contracts@0.8.0/src/v0.8/shared/access/ConfirmedOwnerWithProposal.sol\":1941:1961  _validateOwnership() */\n      tag_211\n        /* \"@chainlink/contracts@0.8.0/src/v0.8/shared/access/ConfirmedOwnerWithProposal.sol\":1941:1959  _validateOwnership */\n      tag_189\n        /* \"@chainlink/contracts@0.8.0/src/v0.8/shared/access/ConfirmedOwnerWithProposal.sol\":1941:1961  _validateOwnership() */\n      jump\t// in\n    tag_211:\n        /* \"contracts/SVTLotteryNew.sol\":10637:10652  _prizeMultipler */\n      dup1\n        /* \"contracts/SVTLotteryNew.sol\":10620:10652  prizeMultipler = _prizeMultipler */\n      0xffff\n      and\n        /* \"contracts/SVTLotteryNew.sol\":10620:10634  prizeMultipler */\n      0x0b\n        /* \"contracts/SVTLotteryNew.sol\":10620:10652  prizeMultipler = _prizeMultipler */\n      dup2\n      swap1\n      sstore\n      pop\n        /* \"contracts/SVTLotteryNew.sol\":10513:10660  function updatePrizeMultipler(uint16 _prizeMultipler)... */\n      pop\n      jump\t// out\n        /* \"contracts/SVTLotteryNew.sol\":2087:2162  mapping (address => uint256) public addressToTotalFundsAtTimeOfContribution */\n    tag_78:\n      mstore(0x20, 0x14)\n      dup1\n      0x00\n      mstore\n      keccak256(0x00, 0x40)\n      0x00\n      swap2\n      pop\n      swap1\n      pop\n      sload\n      dup2\n      jump\t// out\n        /* \"@chainlink/contracts@0.8.0/src/v0.8/shared/access/ConfirmedOwnerWithProposal.sol\":1001:1266  function acceptOwnership() external override {... */\n    tag_81:\n        /* \"@chainlink/contracts@0.8.0/src/v0.8/shared/access/ConfirmedOwnerWithProposal.sol\":1074:1088  s_pendingOwner */\n      0x01\n      0x00\n      swap1\n      sload\n      swap1\n      0x0100\n      exp\n      swap1\n      div\n      0xffffffffffffffffffffffffffffffffffffffff\n      and\n        /* \"@chainlink/contracts@0.8.0/src/v0.8/shared/access/ConfirmedOwnerWithProposal.sol\":1060:1088  msg.sender == s_pendingOwner */\n      0xffffffffffffffffffffffffffffffffffffffff\n      and\n        /* \"@chainlink/contracts@0.8.0/src/v0.8/shared/access/ConfirmedOwnerWithProposal.sol\":1060:1070  msg.sender */\n      caller\n        /* \"@chainlink/contracts@0.8.0/src/v0.8/shared/access/ConfirmedOwnerWithProposal.sol\":1060:1088  msg.sender == s_pendingOwner */\n      0xffffffffffffffffffffffffffffffffffffffff\n      and\n      eq\n        /* \"@chainlink/contracts@0.8.0/src/v0.8/shared/access/ConfirmedOwnerWithProposal.sol\":1052:1115  require(msg.sender == s_pendingOwner, \"Must be proposed owner\") */\n      tag_214\n      jumpi\n      mload(0x40)\n      0x08c379a000000000000000000000000000000000000000000000000000000000\n      dup2\n      mstore\n      0x04\n      add\n      tag_215\n      swap1\n      tag_216\n      jump\t// in\n    tag_215:\n      mload(0x40)\n      dup1\n      swap2\n      sub\n      swap1\n      revert\n    tag_214:\n        /* \"@chainlink/contracts@0.8.0/src/v0.8/shared/access/ConfirmedOwnerWithProposal.sol\":1122:1138  address oldOwner */\n      0x00\n        /* \"@chainlink/contracts@0.8.0/src/v0.8/shared/access/ConfirmedOwnerWithProposal.sol\":1141:1148  s_owner */\n      dup1\n      0x00\n      swap1\n      sload\n      swap1\n      0x0100\n      exp\n      swap1\n      div\n      0xffffffffffffffffffffffffffffffffffffffff\n      and\n        /* \"@chainlink/contracts@0.8.0/src/v0.8/shared/access/ConfirmedOwnerWithProposal.sol\":1122:1148  address oldOwner = s_owner */\n      swap1\n      pop\n        /* \"@chainlink/contracts@0.8.0/src/v0.8/shared/access/ConfirmedOwnerWithProposal.sol\":1164:1174  msg.sender */\n      caller\n        /* \"@chainlink/contracts@0.8.0/src/v0.8/shared/access/ConfirmedOwnerWithProposal.sol\":1154:1161  s_owner */\n      0x00\n      dup1\n        /* \"@chainlink/contracts@0.8.0/src/v0.8/shared/access/ConfirmedOwnerWithProposal.sol\":1154:1174  s_owner = msg.sender */\n      0x0100\n      exp\n      dup2\n      sload\n      dup2\n      0xffffffffffffffffffffffffffffffffffffffff\n      mul\n      not\n      and\n      swap1\n      dup4\n      0xffffffffffffffffffffffffffffffffffffffff\n      and\n      mul\n      or\n      swap1\n      sstore\n      pop\n        /* \"@chainlink/contracts@0.8.0/src/v0.8/shared/access/ConfirmedOwnerWithProposal.sol\":1205:1206  0 */\n      0x00\n        /* \"@chainlink/contracts@0.8.0/src/v0.8/shared/access/ConfirmedOwnerWithProposal.sol\":1180:1194  s_pendingOwner */\n      0x01\n      0x00\n        /* \"@chainlink/contracts@0.8.0/src/v0.8/shared/access/ConfirmedOwnerWithProposal.sol\":1180:1207  s_pendingOwner = address(0) */\n      0x0100\n      exp\n      dup2\n      sload\n      dup2\n      0xffffffffffffffffffffffffffffffffffffffff\n      mul\n      not\n      and\n      swap1\n      dup4\n      0xffffffffffffffffffffffffffffffffffffffff\n      and\n      mul\n      or\n      swap1\n      sstore\n      pop\n        /* \"@chainlink/contracts@0.8.0/src/v0.8/shared/access/ConfirmedOwnerWithProposal.sol\":1250:1260  msg.sender */\n      caller\n        /* \"@chainlink/contracts@0.8.0/src/v0.8/shared/access/ConfirmedOwnerWithProposal.sol\":1219:1261  OwnershipTransferred(oldOwner, msg.sender) */\n      0xffffffffffffffffffffffffffffffffffffffff\n      and\n        /* \"@chainlink/contracts@0.8.0/src/v0.8/shared/access/ConfirmedOwnerWithProposal.sol\":1240:1248  oldOwner */\n      dup2\n        /* \"@chainlink/contracts@0.8.0/src/v0.8/shared/access/ConfirmedOwnerWithProposal.sol\":1219:1261  OwnershipTransferred(oldOwner, msg.sender) */\n      0xffffffffffffffffffffffffffffffffffffffff\n      and\n      0x8be0079c531659141344cd1fd0a4f28419497f9722a3daafe3b4186f6b6457e0\n      mload(0x40)\n      mload(0x40)\n      dup1\n      swap2\n      sub\n      swap1\n      log3\n        /* \"@chainlink/contracts@0.8.0/src/v0.8/shared/access/ConfirmedOwnerWithProposal.sol\":1046:1266  {... */\n      pop\n        /* \"@chainlink/contracts@0.8.0/src/v0.8/shared/access/ConfirmedOwnerWithProposal.sol\":1001:1266  function acceptOwnership() external override {... */\n      jump\t// out\n        /* \"@chainlink/contracts@0.8.0/src/v0.8/shared/access/ConfirmedOwnerWithProposal.sol\":1317:1398  function owner() public view override returns (address) {... */\n    tag_83:\n        /* \"@chainlink/contracts@0.8.0/src/v0.8/shared/access/ConfirmedOwnerWithProposal.sol\":1364:1371  address */\n      0x00\n        /* \"@chainlink/contracts@0.8.0/src/v0.8/shared/access/ConfirmedOwnerWithProposal.sol\":1386:1393  s_owner */\n      dup1\n      0x00\n      swap1\n      sload\n      swap1\n      0x0100\n      exp\n      swap1\n      div\n      0xffffffffffffffffffffffffffffffffffffffff\n      and\n        /* \"@chainlink/contracts@0.8.0/src/v0.8/shared/access/ConfirmedOwnerWithProposal.sol\":1379:1393  return s_owner */\n      swap1\n      pop\n        /* \"@chainlink/contracts@0.8.0/src/v0.8/shared/access/ConfirmedOwnerWithProposal.sol\":1317:1398  function owner() public view override returns (address) {... */\n      swap1\n      jump\t// out\n        /* \"contracts/SVTLotteryNew.sol\":1002:1036  uint8 public percentageCharge = 25 */\n    tag_86:\n      0x05\n      0x14\n      swap1\n      sload\n      swap1\n      0x0100\n      exp\n      swap1\n      div\n      0xff\n      and\n      dup2\n      jump\t// out\n        /* \"contracts/SVTLotteryNew.sol\":1755:1807  mapping (uint256 => RequestStatus) public s_requests */\n    tag_91:\n      mstore(0x20, 0x0f)\n      dup1\n      0x00\n      mstore\n      keccak256(0x00, 0x40)\n      0x00\n      swap2\n      pop\n      swap1\n      pop\n      dup1\n      0x00\n      add\n      0x00\n      swap1\n      sload\n      swap1\n      0x0100\n      exp\n      swap1\n      div\n      0xff\n      and\n      swap1\n      dup1\n      0x00\n      add\n      0x01\n      swap1\n      sload\n      swap1\n      0x0100\n      exp\n      swap1\n      div\n      0xff\n      and\n      swap1\n      pop\n      dup3\n      jump\t// out\n        /* \"contracts/SVTLotteryNew.sol\":1576:1646  address public SLTAddress = 0x42B5bcE9095aeC6E605991cA6dE23330C43b124D */\n    tag_95:\n      0x0c\n      0x00\n      swap1\n      sload\n      swap1\n      0x0100\n      exp\n      swap1\n      div\n      0xffffffffffffffffffffffffffffffffffffffff\n      and\n      dup2\n      jump\t// out\n        /* \"contracts/SVTLotteryNew.sol\":9774:9994  function getRandomNumber(uint256 _requestId)... */\n    tag_99:\n        /* \"contracts/SVTLotteryNew.sol\":9866:9873  uint256 */\n      0x00\n        /* \"contracts/SVTLotteryNew.sol\":9891:9919  RequestStatus memory request */\n      dup1\n        /* \"contracts/SVTLotteryNew.sol\":9922:9932  s_requests */\n      0x0f\n        /* \"contracts/SVTLotteryNew.sol\":9922:9944  s_requests[_requestId] */\n      0x00\n        /* \"contracts/SVTLotteryNew.sol\":9933:9943  _requestId */\n      dup5\n        /* \"contracts/SVTLotteryNew.sol\":9922:9944  s_requests[_requestId] */\n      dup2\n      mstore\n      0x20\n      add\n      swap1\n      dup2\n      mstore\n      0x20\n      add\n      0x00\n      keccak256\n        /* \"contracts/SVTLotteryNew.sol\":9891:9944  RequestStatus memory request = s_requests[_requestId] */\n      mload(0x40)\n      dup1\n      0x60\n      add\n      0x40\n      mstore\n      swap1\n      dup2\n      0x00\n      dup3\n      add\n      0x00\n      swap1\n      sload\n      swap1\n      0x0100\n      exp\n      swap1\n      div\n      0xff\n      and\n      iszero\n      iszero\n      iszero\n      iszero\n      dup2\n      mstore\n      0x20\n      add\n      0x00\n      dup3\n      add\n      0x01\n      swap1\n      sload\n      swap1\n      0x0100\n      exp\n      swap1\n      div\n      0xff\n      and\n      iszero\n      iszero\n      iszero\n      iszero\n      dup2\n      mstore\n      0x20\n      add\n      0x01\n      dup3\n      add\n      dup1\n      sload\n      dup1\n      0x20\n      mul\n      0x20\n      add\n      mload(0x40)\n      swap1\n      dup2\n      add\n      0x40\n      mstore\n      dup1\n      swap3\n      swap2\n      swap1\n      dup2\n      dup2\n      mstore\n      0x20\n      add\n      dup3\n      dup1\n      sload\n      dup1\n      iszero\n      tag_219\n      jumpi\n      0x20\n      mul\n      dup3\n      add\n      swap2\n      swap1\n      0x00\n      mstore\n      keccak256(0x00, 0x20)\n      swap1\n    tag_220:\n      dup2\n      sload\n      dup2\n      mstore\n      0x20\n      add\n      swap1\n      0x01\n      add\n      swap1\n      dup1\n      dup4\n      gt\n      tag_220\n      jumpi\n    tag_219:\n      pop\n      pop\n      pop\n      pop\n      pop\n      dup2\n      mstore\n      pop\n      pop\n      swap1\n      pop\n        /* \"contracts/SVTLotteryNew.sol\":9963:9970  request */\n      dup1\n        /* \"contracts/SVTLotteryNew.sol\":9963:9982  request.randomWords */\n      0x40\n      add\n      mload\n        /* \"contracts/SVTLotteryNew.sol\":9983:9984  0 */\n      0x00\n        /* \"contracts/SVTLotteryNew.sol\":9963:9985  request.randomWords[0] */\n      dup2\n      mload\n      dup2\n      lt\n      tag_221\n      jumpi\n      tag_222\n      tag_173\n      jump\t// in\n    tag_222:\n    tag_221:\n      0x20\n      mul\n      0x20\n      add\n      add\n      mload\n        /* \"contracts/SVTLotteryNew.sol\":9955:9986  return (request.randomWords[0]) */\n      swap2\n      pop\n      pop\n        /* \"contracts/SVTLotteryNew.sol\":9774:9994  function getRandomNumber(uint256 _requestId)... */\n      swap2\n      swap1\n      pop\n      jump\t// out\n        /* \"contracts/SVTLotteryNew.sol\":10002:10182  function claimAirdropSLT()... */\n    tag_102:\n        /* \"contracts/SVTLotteryNew.sol\":3127:3149  addressToAidropClaimed */\n      0x11\n        /* \"contracts/SVTLotteryNew.sol\":3127:3161  addressToAidropClaimed[msg.sender] */\n      0x00\n        /* \"contracts/SVTLotteryNew.sol\":3150:3160  msg.sender */\n      caller\n        /* \"contracts/SVTLotteryNew.sol\":3127:3161  addressToAidropClaimed[msg.sender] */\n      0xffffffffffffffffffffffffffffffffffffffff\n      and\n      0xffffffffffffffffffffffffffffffffffffffff\n      and\n      dup2\n      mstore\n      0x20\n      add\n      swap1\n      dup2\n      mstore\n      0x20\n      add\n      0x00\n      keccak256\n      0x00\n      swap1\n      sload\n      swap1\n      0x0100\n      exp\n      swap1\n      div\n      0xff\n      and\n        /* \"contracts/SVTLotteryNew.sol\":3126:3161  !addressToAidropClaimed[msg.sender] */\n      iszero\n        /* \"contracts/SVTLotteryNew.sol\":3118:3201  require(!addressToAidropClaimed[msg.sender], \"You have already claimed an airdrop\") */\n      tag_224\n      jumpi\n      mload(0x40)\n      0x08c379a000000000000000000000000000000000000000000000000000000000\n      dup2\n      mstore\n      0x04\n      add\n      tag_225\n      swap1\n      tag_226\n      jump\t// in\n    tag_225:\n      mload(0x40)\n      dup1\n      swap2\n      sub\n      swap1\n      revert\n    tag_224:\n        /* \"contracts/SVTLotteryNew.sol\":2762:2774  totalAirdrop */\n      0x05\n      0x19\n      swap1\n      sload\n      swap1\n      0x0100\n      exp\n      swap1\n      div\n      0xffffffff\n      and\n        /* \"contracts/SVTLotteryNew.sol\":2743:2774  totalAirdropSent < totalAirdrop */\n      0xffffffff\n      and\n        /* \"contracts/SVTLotteryNew.sol\":2743:2759  totalAirdropSent */\n      0x05\n      0x15\n      swap1\n      sload\n      swap1\n      0x0100\n      exp\n      swap1\n      div\n      0xffffffff\n      and\n        /* \"contracts/SVTLotteryNew.sol\":2743:2774  totalAirdropSent < totalAirdrop */\n      0xffffffff\n      and\n      lt\n        /* \"contracts/SVTLotteryNew.sol\":2735:2810  require(totalAirdropSent < totalAirdrop, \"Airdrop Not Available Currently\") */\n      tag_228\n      jumpi\n      mload(0x40)\n      0x08c379a000000000000000000000000000000000000000000000000000000000\n      dup2\n      mstore\n      0x04\n      add\n      tag_229\n      swap1\n      tag_230\n      jump\t// in\n    tag_229:\n      mload(0x40)\n      dup1\n      swap2\n      sub\n      swap1\n      revert\n    tag_228:\n        /* \"contracts/SVTLotteryNew.sol\":10118:10121  SLT */\n      0x16\n      0x00\n      swap1\n      sload\n      swap1\n      0x0100\n      exp\n      swap1\n      div\n      0xffffffffffffffffffffffffffffffffffffffff\n      and\n        /* \"contracts/SVTLotteryNew.sol\":10118:10130  SLT.transfer */\n      0xffffffffffffffffffffffffffffffffffffffff\n      and\n      0xa9059cbb\n        /* \"contracts/SVTLotteryNew.sol\":10131:10141  msg.sender */\n      caller\n        /* \"contracts/SVTLotteryNew.sol\":10162:10173  tenEighteen */\n      sload(0x06)\n        /* \"contracts/SVTLotteryNew.sol\":10143:10159  SLTAirdropAmount */\n      0x05\n      0x1d\n      swap1\n      sload\n      swap1\n      0x0100\n      exp\n      swap1\n      div\n      0xffff\n      and\n        /* \"contracts/SVTLotteryNew.sol\":10143:10173  SLTAirdropAmount * tenEighteen */\n      0xffff\n      and\n      tag_232\n      swap2\n      swap1\n      tag_134\n      jump\t// in\n    tag_232:\n        /* \"contracts/SVTLotteryNew.sol\":10118:10174  SLT.transfer(msg.sender, SLTAirdropAmount * tenEighteen) */\n      mload(0x40)\n      dup4\n      0xffffffff\n      and\n      0xe0\n      shl\n      dup2\n      mstore\n      0x04\n      add\n      tag_233\n      swap3\n      swap2\n      swap1\n      tag_183\n      jump\t// in\n    tag_233:\n      0x20\n      mload(0x40)\n      dup1\n      dup4\n      sub\n      dup2\n      0x00\n      dup8\n      gas\n      call\n      iszero\n      dup1\n      iszero\n      tag_235\n      jumpi\n      returndatasize\n      0x00\n      dup1\n      returndatacopy\n      revert(0x00, returndatasize)\n    tag_235:\n      pop\n      pop\n      pop\n      pop\n      mload(0x40)\n      returndatasize\n      not(0x1f)\n      0x1f\n      dup3\n      add\n      and\n      dup3\n      add\n      dup1\n      0x40\n      mstore\n      pop\n      dup2\n      add\n      swap1\n      tag_236\n      swap2\n      swap1\n      tag_159\n      jump\t// in\n    tag_236:\n      pop\n        /* \"contracts/SVTLotteryNew.sol\":2853:2869  SLTAirdropAmount */\n      0x05\n      0x1d\n      swap1\n      sload\n      swap1\n      0x0100\n      exp\n      swap1\n      div\n      0xffff\n      and\n        /* \"contracts/SVTLotteryNew.sol\":2833:2869  totalAirdropSent += SLTAirdropAmount */\n      0xffff\n      and\n        /* \"contracts/SVTLotteryNew.sol\":2833:2849  totalAirdropSent */\n      0x05\n      0x15\n        /* \"contracts/SVTLotteryNew.sol\":2833:2869  totalAirdropSent += SLTAirdropAmount */\n      dup3\n      dup3\n      dup3\n      swap1\n      sload\n      swap1\n      0x0100\n      exp\n      swap1\n      div\n      0xffffffff\n      and\n      tag_237\n      swap2\n      swap1\n      tag_238\n      jump\t// in\n    tag_237:\n      swap3\n      pop\n      0x0100\n      exp\n      dup2\n      sload\n      dup2\n      0xffffffff\n      mul\n      not\n      and\n      swap1\n      dup4\n      0xffffffff\n      and\n      mul\n      or\n      swap1\n      sstore\n      pop\n        /* \"contracts/SVTLotteryNew.sol\":3261:3265  true */\n      0x01\n        /* \"contracts/SVTLotteryNew.sol\":3224:3246  addressToAidropClaimed */\n      0x11\n        /* \"contracts/SVTLotteryNew.sol\":3224:3258  addressToAidropClaimed[msg.sender] */\n      0x00\n        /* \"contracts/SVTLotteryNew.sol\":3247:3257  msg.sender */\n      caller\n        /* \"contracts/SVTLotteryNew.sol\":3224:3258  addressToAidropClaimed[msg.sender] */\n      0xffffffffffffffffffffffffffffffffffffffff\n      and\n      0xffffffffffffffffffffffffffffffffffffffff\n      and\n      dup2\n      mstore\n      0x20\n      add\n      swap1\n      dup2\n      mstore\n      0x20\n      add\n      0x00\n      keccak256\n      0x00\n        /* \"contracts/SVTLotteryNew.sol\":3224:3265  addressToAidropClaimed[msg.sender] = true */\n      0x0100\n      exp\n      dup2\n      sload\n      dup2\n      0xff\n      mul\n      not\n      and\n      swap1\n      dup4\n      iszero\n      iszero\n      mul\n      or\n      swap1\n      sstore\n      pop\n        /* \"contracts/SVTLotteryNew.sol\":10002:10182  function claimAirdropSLT()... */\n      jump\t// out\n        /* \"contracts/SVTLotteryNew.sol\":4474:4940  function contribute(uint256 _SLTTokenAmount)... */\n    tag_105:\n        /* \"contracts/SVTLotteryNew.sol\":2330:2349  addressAccessLocked */\n      0x0e\n        /* \"contracts/SVTLotteryNew.sol\":2330:2361  addressAccessLocked[msg.sender] */\n      0x00\n        /* \"contracts/SVTLotteryNew.sol\":2350:2360  msg.sender */\n      caller\n        /* \"contracts/SVTLotteryNew.sol\":2330:2361  addressAccessLocked[msg.sender] */\n      0xffffffffffffffffffffffffffffffffffffffff\n      and\n      0xffffffffffffffffffffffffffffffffffffffff\n      and\n      dup2\n      mstore\n      0x20\n      add\n      swap1\n      dup2\n      mstore\n      0x20\n      add\n      0x00\n      keccak256\n      0x00\n      swap1\n      sload\n      swap1\n      0x0100\n      exp\n      swap1\n      div\n      0xff\n      and\n        /* \"contracts/SVTLotteryNew.sol\":2329:2361  !addressAccessLocked[msg.sender] */\n      iszero\n        /* \"contracts/SVTLotteryNew.sol\":2321:2390  require(!addressAccessLocked[msg.sender], \"Reentrancy guard: locked\") */\n      tag_240\n      jumpi\n      mload(0x40)\n      0x08c379a000000000000000000000000000000000000000000000000000000000\n      dup2\n      mstore\n      0x04\n      add\n      tag_241\n      swap1\n      tag_165\n      jump\t// in\n    tag_241:\n      mload(0x40)\n      dup1\n      swap2\n      sub\n      swap1\n      revert\n    tag_240:\n        /* \"contracts/SVTLotteryNew.sol\":2435:2439  true */\n      0x01\n        /* \"contracts/SVTLotteryNew.sol\":2401:2420  addressAccessLocked */\n      0x0e\n        /* \"contracts/SVTLotteryNew.sol\":2401:2432  addressAccessLocked[msg.sender] */\n      0x00\n        /* \"contracts/SVTLotteryNew.sol\":2421:2431  msg.sender */\n      caller\n        /* \"contracts/SVTLotteryNew.sol\":2401:2432  addressAccessLocked[msg.sender] */\n      0xffffffffffffffffffffffffffffffffffffffff\n      and\n      0xffffffffffffffffffffffffffffffffffffffff\n      and\n      dup2\n      mstore\n      0x20\n      add\n      swap1\n      dup2\n      mstore\n      0x20\n      add\n      0x00\n      keccak256\n      0x00\n        /* \"contracts/SVTLotteryNew.sol\":2401:2439  addressAccessLocked[msg.sender] = true */\n      0x0100\n      exp\n      dup2\n      sload\n      dup2\n      0xff\n      mul\n      not\n      and\n      swap1\n      dup4\n      iszero\n      iszero\n      mul\n      or\n      swap1\n      sstore\n      pop\n        /* \"contracts/SVTLotteryNew.sol\":3775:3784  zeroValue */\n      0x09\n      0x01\n      swap1\n      sload\n      swap1\n      0x0100\n      exp\n      swap1\n      div\n      0xff\n      and\n        /* \"contracts/SVTLotteryNew.sol\":3733:3784  addressToAmountContributed[msg.sender] == zeroValue */\n      0xff\n      and\n        /* \"contracts/SVTLotteryNew.sol\":3733:3759  addressToAmountContributed */\n      0x13\n        /* \"contracts/SVTLotteryNew.sol\":3733:3771  addressToAmountContributed[msg.sender] */\n      0x00\n        /* \"contracts/SVTLotteryNew.sol\":3760:3770  msg.sender */\n      caller\n        /* \"contracts/SVTLotteryNew.sol\":3733:3771  addressToAmountContributed[msg.sender] */\n      0xffffffffffffffffffffffffffffffffffffffff\n      and\n      0xffffffffffffffffffffffffffffffffffffffff\n      and\n      dup2\n      mstore\n      0x20\n      add\n      swap1\n      dup2\n      mstore\n      0x20\n      add\n      0x00\n      keccak256\n      sload\n        /* \"contracts/SVTLotteryNew.sol\":3733:3784  addressToAmountContributed[msg.sender] == zeroValue */\n      eq\n        /* \"contracts/SVTLotteryNew.sol\":3725:3815  require(addressToAmountContributed[msg.sender] == zeroValue, \"Contributor already exists\") */\n      tag_243\n      jumpi\n      mload(0x40)\n      0x08c379a000000000000000000000000000000000000000000000000000000000\n      dup2\n      mstore\n      0x04\n      add\n      tag_244\n      swap1\n      tag_245\n      jump\t// in\n    tag_244:\n      mload(0x40)\n      dup1\n      swap2\n      sub\n      swap1\n      revert\n    tag_243:\n        /* \"contracts/SVTLotteryNew.sol\":4621:4636  _SLTTokenAmount */\n      dup1\n        /* \"contracts/SVTLotteryNew.sol\":2625:2632  _amount */\n      dup1\n        /* \"contracts/SVTLotteryNew.sol\":2581:2584  SLT */\n      0x16\n      0x00\n      swap1\n      sload\n      swap1\n      0x0100\n      exp\n      swap1\n      div\n      0xffffffffffffffffffffffffffffffffffffffff\n      and\n        /* \"contracts/SVTLotteryNew.sol\":2581:2594  SLT.allowance */\n      0xffffffffffffffffffffffffffffffffffffffff\n      and\n      0xdd62ed3e\n        /* \"contracts/SVTLotteryNew.sol\":2595:2605  msg.sender */\n      caller\n        /* \"contracts/SVTLotteryNew.sol\":2615:2619  this */\n      address\n        /* \"contracts/SVTLotteryNew.sol\":2581:2621  SLT.allowance(msg.sender, address(this)) */\n      mload(0x40)\n      dup4\n      0xffffffff\n      and\n      0xe0\n      shl\n      dup2\n      mstore\n      0x04\n      add\n      tag_247\n      swap3\n      swap2\n      swap1\n      tag_146\n      jump\t// in\n    tag_247:\n      0x20\n      mload(0x40)\n      dup1\n      dup4\n      sub\n      dup2\n      dup7\n      gas\n      staticcall\n      iszero\n      dup1\n      iszero\n      tag_249\n      jumpi\n      returndatasize\n      0x00\n      dup1\n      returndatacopy\n      revert(0x00, returndatasize)\n    tag_249:\n      pop\n      pop\n      pop\n      pop\n      mload(0x40)\n      returndatasize\n      not(0x1f)\n      0x1f\n      dup3\n      add\n      and\n      dup3\n      add\n      dup1\n      0x40\n      mstore\n      pop\n      dup2\n      add\n      swap1\n      tag_250\n      swap2\n      swap1\n      tag_140\n      jump\t// in\n    tag_250:\n        /* \"contracts/SVTLotteryNew.sol\":2581:2632  SLT.allowance(msg.sender, address(this)) >= _amount */\n      lt\n      iszero\n        /* \"contracts/SVTLotteryNew.sol\":2573:2663  require(SLT.allowance(msg.sender, address(this)) >= _amount, \"Insufficient SLT allowance\") */\n      tag_251\n      jumpi\n      mload(0x40)\n      0x08c379a000000000000000000000000000000000000000000000000000000000\n      dup2\n      mstore\n      0x04\n      add\n      tag_252\n      swap1\n      tag_152\n      jump\t// in\n    tag_252:\n      mload(0x40)\n      dup1\n      swap2\n      sub\n      swap1\n      revert\n    tag_251:\n        /* \"contracts/SVTLotteryNew.sol\":4654:4657  SLT */\n      0x16\n      0x00\n      swap1\n      sload\n      swap1\n      0x0100\n      exp\n      swap1\n      div\n      0xffffffffffffffffffffffffffffffffffffffff\n      and\n        /* \"contracts/SVTLotteryNew.sol\":4654:4670  SLT.transferFrom */\n      0xffffffffffffffffffffffffffffffffffffffff\n      and\n      0x23b872dd\n        /* \"contracts/SVTLotteryNew.sol\":4671:4681  msg.sender */\n      caller\n        /* \"contracts/SVTLotteryNew.sol\":4691:4695  this */\n      address\n        /* \"contracts/SVTLotteryNew.sol\":4698:4713  _SLTTokenAmount */\n      dup6\n        /* \"contracts/SVTLotteryNew.sol\":4654:4714  SLT.transferFrom(msg.sender, address(this), _SLTTokenAmount) */\n      mload(0x40)\n      dup5\n      0xffffffff\n      and\n      0xe0\n      shl\n      dup2\n      mstore\n      0x04\n      add\n      tag_254\n      swap4\n      swap3\n      swap2\n      swap1\n      tag_155\n      jump\t// in\n    tag_254:\n      0x20\n      mload(0x40)\n      dup1\n      dup4\n      sub\n      dup2\n      0x00\n      dup8\n      gas\n      call\n      iszero\n      dup1\n      iszero\n      tag_256\n      jumpi\n      returndatasize\n      0x00\n      dup1\n      returndatacopy\n      revert(0x00, returndatasize)\n    tag_256:\n      pop\n      pop\n      pop\n      pop\n      mload(0x40)\n      returndatasize\n      not(0x1f)\n      0x1f\n      dup3\n      add\n      and\n      dup3\n      add\n      dup1\n      0x40\n      mstore\n      pop\n      dup2\n      add\n      swap1\n      tag_257\n      swap2\n      swap1\n      tag_159\n      jump\t// in\n    tag_257:\n      pop\n        /* \"contracts/SVTLotteryNew.sol\":4810:4825  _SLTTokenAmount */\n      dup2\n        /* \"contracts/SVTLotteryNew.sol\":4779:4782  SLT */\n      0x16\n      0x00\n      swap1\n      sload\n      swap1\n      0x0100\n      exp\n      swap1\n      div\n      0xffffffffffffffffffffffffffffffffffffffff\n      and\n        /* \"contracts/SVTLotteryNew.sol\":4779:4792  SLT.balanceOf */\n      0xffffffffffffffffffffffffffffffffffffffff\n      and\n      0x70a08231\n        /* \"contracts/SVTLotteryNew.sol\":4801:4805  this */\n      address\n        /* \"contracts/SVTLotteryNew.sol\":4779:4807  SLT.balanceOf(address(this)) */\n      mload(0x40)\n      dup3\n      0xffffffff\n      and\n      0xe0\n      shl\n      dup2\n      mstore\n      0x04\n      add\n      tag_258\n      swap2\n      swap1\n      tag_60\n      jump\t// in\n    tag_258:\n      0x20\n      mload(0x40)\n      dup1\n      dup4\n      sub\n      dup2\n      dup7\n      gas\n      staticcall\n      iszero\n      dup1\n      iszero\n      tag_260\n      jumpi\n      returndatasize\n      0x00\n      dup1\n      returndatacopy\n      revert(0x00, returndatasize)\n    tag_260:\n      pop\n      pop\n      pop\n      pop\n      mload(0x40)\n      returndatasize\n      not(0x1f)\n      0x1f\n      dup3\n      add\n      and\n      dup3\n      add\n      dup1\n      0x40\n      mstore\n      pop\n      dup2\n      add\n      swap1\n      tag_261\n      swap2\n      swap1\n      tag_140\n      jump\t// in\n    tag_261:\n        /* \"contracts/SVTLotteryNew.sol\":4779:4825  SLT.balanceOf(address(this)) - _SLTTokenAmount */\n      tag_262\n      swap2\n      swap1\n      tag_170\n      jump\t// in\n    tag_262:\n        /* \"contracts/SVTLotteryNew.sol\":4725:4764  addressToTotalFundsAtTimeOfContribution */\n      0x14\n        /* \"contracts/SVTLotteryNew.sol\":4725:4776  addressToTotalFundsAtTimeOfContribution[msg.sender] */\n      0x00\n        /* \"contracts/SVTLotteryNew.sol\":4765:4775  msg.sender */\n      caller\n        /* \"contracts/SVTLotteryNew.sol\":4725:4776  addressToTotalFundsAtTimeOfContribution[msg.sender] */\n      0xffffffffffffffffffffffffffffffffffffffff\n      and\n      0xffffffffffffffffffffffffffffffffffffffff\n      and\n      dup2\n      mstore\n      0x20\n      add\n      swap1\n      dup2\n      mstore\n      0x20\n      add\n      0x00\n      keccak256\n        /* \"contracts/SVTLotteryNew.sol\":4725:4825  addressToTotalFundsAtTimeOfContribution[msg.sender] = SLT.balanceOf(address(this)) - _SLTTokenAmount */\n      dup2\n      swap1\n      sstore\n      pop\n        /* \"contracts/SVTLotteryNew.sol\":4877:4892  _SLTTokenAmount */\n      dup2\n        /* \"contracts/SVTLotteryNew.sol\":4836:4862  addressToAmountContributed */\n      0x13\n        /* \"contracts/SVTLotteryNew.sol\":4836:4874  addressToAmountContributed[msg.sender] */\n      0x00\n        /* \"contracts/SVTLotteryNew.sol\":4863:4873  msg.sender */\n      caller\n        /* \"contracts/SVTLotteryNew.sol\":4836:4874  addressToAmountContributed[msg.sender] */\n      0xffffffffffffffffffffffffffffffffffffffff\n      and\n      0xffffffffffffffffffffffffffffffffffffffff\n      and\n      dup2\n      mstore\n      0x20\n      add\n      swap1\n      dup2\n      mstore\n      0x20\n      add\n      0x00\n      keccak256\n        /* \"contracts/SVTLotteryNew.sol\":4836:4892  addressToAmountContributed[msg.sender] = _SLTTokenAmount */\n      dup2\n      swap1\n      sstore\n      pop\n        /* \"contracts/SVTLotteryNew.sol\":4903:4915  contributors */\n      0x0d\n        /* \"contracts/SVTLotteryNew.sol\":4921:4931  msg.sender */\n      caller\n        /* \"contracts/SVTLotteryNew.sol\":4903:4932  contributors.push(msg.sender) */\n      swap1\n      dup1\n      0x01\n      dup2\n      sload\n      add\n      dup1\n      dup3\n      sstore\n      dup1\n      swap2\n      pop\n      pop\n      0x01\n      swap1\n      sub\n      swap1\n      0x00\n      mstore\n      keccak256(0x00, 0x20)\n      add\n      0x00\n      swap1\n      swap2\n      swap1\n      swap2\n      swap1\n      swap2\n      0x0100\n      exp\n      dup2\n      sload\n      dup2\n      0xffffffffffffffffffffffffffffffffffffffff\n      mul\n      not\n      and\n      swap1\n      dup4\n      0xffffffffffffffffffffffffffffffffffffffff\n      and\n      mul\n      or\n      swap1\n      sstore\n      pop\n        /* \"contracts/SVTLotteryNew.sol\":3826:3827  _ */\n      pop\n        /* \"contracts/SVTLotteryNew.sol\":2496:2501  false */\n      0x00\n        /* \"contracts/SVTLotteryNew.sol\":2462:2481  addressAccessLocked */\n      0x0e\n        /* \"contracts/SVTLotteryNew.sol\":2462:2493  addressAccessLocked[msg.sender] */\n      0x00\n        /* \"contracts/SVTLotteryNew.sol\":2482:2492  msg.sender */\n      caller\n        /* \"contracts/SVTLotteryNew.sol\":2462:2493  addressAccessLocked[msg.sender] */\n      0xffffffffffffffffffffffffffffffffffffffff\n      and\n      0xffffffffffffffffffffffffffffffffffffffff\n      and\n      dup2\n      mstore\n      0x20\n      add\n      swap1\n      dup2\n      mstore\n      0x20\n      add\n      0x00\n      keccak256\n      0x00\n        /* \"contracts/SVTLotteryNew.sol\":2462:2501  addressAccessLocked[msg.sender] = false */\n      0x0100\n      exp\n      dup2\n      sload\n      dup2\n      0xff\n      mul\n      not\n      and\n      swap1\n      dup4\n      iszero\n      iszero\n      mul\n      or\n      swap1\n      sstore\n      pop\n        /* \"contracts/SVTLotteryNew.sol\":4474:4940  function contribute(uint256 _SLTTokenAmount)... */\n      pop\n      jump\t// out\n        /* \"contracts/SVTLotteryNew.sol\":7321:7458  function updatePercentage(uint8 _percentage)... */\n    tag_109:\n        /* \"@chainlink/contracts@0.8.0/src/v0.8/shared/access/ConfirmedOwnerWithProposal.sol\":1941:1961  _validateOwnership() */\n      tag_265\n        /* \"@chainlink/contracts@0.8.0/src/v0.8/shared/access/ConfirmedOwnerWithProposal.sol\":1941:1959  _validateOwnership */\n      tag_189\n        /* \"@chainlink/contracts@0.8.0/src/v0.8/shared/access/ConfirmedOwnerWithProposal.sol\":1941:1961  _validateOwnership() */\n      jump\t// in\n    tag_265:\n        /* \"contracts/SVTLotteryNew.sol\":7439:7450  _percentage */\n      dup1\n        /* \"contracts/SVTLotteryNew.sol\":7420:7436  percentageCharge */\n      0x05\n      0x14\n        /* \"contracts/SVTLotteryNew.sol\":7420:7450  percentageCharge = _percentage */\n      0x0100\n      exp\n      dup2\n      sload\n      dup2\n      0xff\n      mul\n      not\n      and\n      swap1\n      dup4\n      0xff\n      and\n      mul\n      or\n      swap1\n      sstore\n      pop\n        /* \"contracts/SVTLotteryNew.sol\":7321:7458  function updatePercentage(uint8 _percentage)... */\n      pop\n      jump\t// out\n        /* \"contracts/SVTLotteryNew.sol\":2018:2080  mapping (address => uint256) public addressToAmountContributed */\n    tag_112:\n      mstore(0x20, 0x13)\n      dup1\n      0x00\n      mstore\n      keccak256(0x00, 0x40)\n      0x00\n      swap2\n      pop\n      swap1\n      pop\n      sload\n      dup2\n      jump\t// out\n        /* \"contracts/SVTLotteryNew.sol\":8734:9455  function getFinalResultValue()... */\n    tag_115:\n        /* \"contracts/SVTLotteryNew.sol\":8871:8891  uint256 SLTAmountWon */\n      0x00\n        /* \"contracts/SVTLotteryNew.sol\":3936:3940  true */\n      0x01\n        /* \"contracts/SVTLotteryNew.sol\":3892:3940  addressToParticipationStatus[msg.sender] == true */\n      iszero\n      iszero\n        /* \"contracts/SVTLotteryNew.sol\":3892:3920  addressToParticipationStatus */\n      0x10\n        /* \"contracts/SVTLotteryNew.sol\":3892:3932  addressToParticipationStatus[msg.sender] */\n      0x00\n        /* \"contracts/SVTLotteryNew.sol\":3921:3931  msg.sender */\n      caller\n        /* \"contracts/SVTLotteryNew.sol\":3892:3932  addressToParticipationStatus[msg.sender] */\n      0xffffffffffffffffffffffffffffffffffffffff\n      and\n      0xffffffffffffffffffffffffffffffffffffffff\n      and\n      dup2\n      mstore\n      0x20\n      add\n      swap1\n      dup2\n      mstore\n      0x20\n      add\n      0x00\n      keccak256\n      0x00\n      swap1\n      sload\n      swap1\n      0x0100\n      exp\n      swap1\n      div\n      0xff\n      and\n        /* \"contracts/SVTLotteryNew.sol\":3892:3940  addressToParticipationStatus[msg.sender] == true */\n      iszero\n      iszero\n      eq\n        /* \"contracts/SVTLotteryNew.sol\":3884:3977  require(addressToParticipationStatus[msg.sender] == true, \"Not a participant. Choose a draw\") */\n      tag_268\n      jumpi\n      mload(0x40)\n      0x08c379a000000000000000000000000000000000000000000000000000000000\n      dup2\n      mstore\n      0x04\n      add\n      tag_269\n      swap1\n      tag_270\n      jump\t// in\n    tag_269:\n      mload(0x40)\n      dup1\n      swap2\n      sub\n      swap1\n      revert\n    tag_268:\n        /* \"contracts/SVTLotteryNew.sol\":4109:4127  uint256 _requestId */\n      0x00\n        /* \"contracts/SVTLotteryNew.sol\":4130:4148  addressToRequestId */\n      0x12\n        /* \"contracts/SVTLotteryNew.sol\":4130:4160  addressToRequestId[msg.sender] */\n      0x00\n        /* \"contracts/SVTLotteryNew.sol\":4149:4159  msg.sender */\n      caller\n        /* \"contracts/SVTLotteryNew.sol\":4130:4160  addressToRequestId[msg.sender] */\n      0xffffffffffffffffffffffffffffffffffffffff\n      and\n      0xffffffffffffffffffffffffffffffffffffffff\n      and\n      dup2\n      mstore\n      0x20\n      add\n      swap1\n      dup2\n      mstore\n      0x20\n      add\n      0x00\n      keccak256\n      sload\n        /* \"contracts/SVTLotteryNew.sol\":4109:4160  uint256 _requestId = addressToRequestId[msg.sender] */\n      swap1\n      pop\n        /* \"contracts/SVTLotteryNew.sol\":4215:4219  true */\n      0x01\n        /* \"contracts/SVTLotteryNew.sol\":4179:4219  s_requests[_requestId].fulfilled == true */\n      iszero\n      iszero\n        /* \"contracts/SVTLotteryNew.sol\":4179:4189  s_requests */\n      0x0f\n        /* \"contracts/SVTLotteryNew.sol\":4179:4201  s_requests[_requestId] */\n      0x00\n        /* \"contracts/SVTLotteryNew.sol\":4190:4200  _requestId */\n      dup4\n        /* \"contracts/SVTLotteryNew.sol\":4179:4201  s_requests[_requestId] */\n      dup2\n      mstore\n      0x20\n      add\n      swap1\n      dup2\n      mstore\n      0x20\n      add\n      0x00\n      keccak256\n        /* \"contracts/SVTLotteryNew.sol\":4179:4211  s_requests[_requestId].fulfilled */\n      0x00\n      add\n      0x00\n      swap1\n      sload\n      swap1\n      0x0100\n      exp\n      swap1\n      div\n      0xff\n      and\n        /* \"contracts/SVTLotteryNew.sol\":4179:4219  s_requests[_requestId].fulfilled == true */\n      iszero\n      iszero\n      eq\n        /* \"contracts/SVTLotteryNew.sol\":4171:4255  require(s_requests[_requestId].fulfilled == true, \"Random Number not yet Generated\") */\n      tag_272\n      jumpi\n      mload(0x40)\n      0x08c379a000000000000000000000000000000000000000000000000000000000\n      dup2\n      mstore\n      0x04\n      add\n      tag_273\n      swap1\n      tag_274\n      jump\t// in\n    tag_273:\n      mload(0x40)\n      dup1\n      swap2\n      sub\n      swap1\n      revert\n    tag_272:\n        /* \"contracts/SVTLotteryNew.sol\":8909:8926  uint256 requestId */\n      0x00\n        /* \"contracts/SVTLotteryNew.sol\":8929:8947  addressToRequestId */\n      0x12\n        /* \"contracts/SVTLotteryNew.sol\":8929:8959  addressToRequestId[msg.sender] */\n      0x00\n        /* \"contracts/SVTLotteryNew.sol\":8948:8958  msg.sender */\n      caller\n        /* \"contracts/SVTLotteryNew.sol\":8929:8959  addressToRequestId[msg.sender] */\n      0xffffffffffffffffffffffffffffffffffffffff\n      and\n      0xffffffffffffffffffffffffffffffffffffffff\n      and\n      dup2\n      mstore\n      0x20\n      add\n      swap1\n      dup2\n      mstore\n      0x20\n      add\n      0x00\n      keccak256\n      sload\n        /* \"contracts/SVTLotteryNew.sol\":8909:8959  uint256 requestId = addressToRequestId[msg.sender] */\n      swap1\n      pop\n        /* \"contracts/SVTLotteryNew.sol\":8970:8994  uint256 realRandomNumber */\n      0x00\n        /* \"contracts/SVTLotteryNew.sol\":8997:9023  getRandomNumber(requestId) */\n      tag_276\n        /* \"contracts/SVTLotteryNew.sol\":9013:9022  requestId */\n      dup3\n        /* \"contracts/SVTLotteryNew.sol\":8997:9012  getRandomNumber */\n      tag_99\n        /* \"contracts/SVTLotteryNew.sol\":8997:9023  getRandomNumber(requestId) */\n      jump\t// in\n    tag_276:\n        /* \"contracts/SVTLotteryNew.sol\":8970:9023  uint256 realRandomNumber = getRandomNumber(requestId) */\n      swap1\n      pop\n        /* \"contracts/SVTLotteryNew.sol\":9034:9057  uint256 SLTAmountToSend */\n      0x00\n        /* \"contracts/SVTLotteryNew.sol\":9060:9069  zeroValue */\n      0x09\n      0x01\n      swap1\n      sload\n      swap1\n      0x0100\n      exp\n      swap1\n      div\n      0xff\n      and\n        /* \"contracts/SVTLotteryNew.sol\":9034:9069  uint256 SLTAmountToSend = zeroValue */\n      0xff\n      and\n      swap1\n      pop\n        /* \"contracts/SVTLotteryNew.sol\":9080:9099  uint256 stakeAmount */\n      0x00\n        /* \"contracts/SVTLotteryNew.sol\":9102:9123  addressToLotteryStake */\n      0x15\n        /* \"contracts/SVTLotteryNew.sol\":9102:9135  addressToLotteryStake[msg.sender] */\n      0x00\n        /* \"contracts/SVTLotteryNew.sol\":9124:9134  msg.sender */\n      caller\n        /* \"contracts/SVTLotteryNew.sol\":9102:9135  addressToLotteryStake[msg.sender] */\n      0xffffffffffffffffffffffffffffffffffffffff\n      and\n      0xffffffffffffffffffffffffffffffffffffffff\n      and\n      dup2\n      mstore\n      0x20\n      add\n      swap1\n      dup2\n      mstore\n      0x20\n      add\n      0x00\n      keccak256\n      sload\n        /* \"contracts/SVTLotteryNew.sol\":9080:9135  uint256 stakeAmount = addressToLotteryStake[msg.sender] */\n      swap1\n      pop\n        /* \"contracts/SVTLotteryNew.sol\":9146:9166  uint256 randomNumber */\n      0x00\n        /* \"contracts/SVTLotteryNew.sol\":9188:9202  potentialToWin */\n      0x0a\n        /* \"contracts/SVTLotteryNew.sol\":9188:9209  potentialToWin.length */\n      dup1\n      sload\n      swap1\n      pop\n        /* \"contracts/SVTLotteryNew.sol\":9169:9185  realRandomNumber */\n      dup5\n        /* \"contracts/SVTLotteryNew.sol\":9169:9209  realRandomNumber % potentialToWin.length */\n      tag_277\n      swap2\n      swap1\n      tag_278\n      jump\t// in\n    tag_277:\n        /* \"contracts/SVTLotteryNew.sol\":9146:9209  uint256 randomNumber = realRandomNumber % potentialToWin.length */\n      swap1\n      pop\n        /* \"contracts/SVTLotteryNew.sol\":9220:9231  bool status */\n      0x00\n        /* \"contracts/SVTLotteryNew.sol\":9234:9248  potentialToWin */\n      0x0a\n        /* \"contracts/SVTLotteryNew.sol\":9249:9261  randomNumber */\n      dup3\n        /* \"contracts/SVTLotteryNew.sol\":9234:9262  potentialToWin[randomNumber] */\n      dup2\n      sload\n      dup2\n      lt\n      tag_279\n      jumpi\n      tag_280\n      tag_173\n      jump\t// in\n    tag_280:\n    tag_279:\n      swap1\n      0x00\n      mstore\n      keccak256(0x00, 0x20)\n      swap1\n      0x20\n      swap2\n      dup3\n      dup3\n      div\n      add\n      swap2\n      swap1\n      mod\n      swap1\n      sload\n      swap1\n      0x0100\n      exp\n      swap1\n      div\n      0xff\n      and\n        /* \"contracts/SVTLotteryNew.sol\":9220:9262  bool status = potentialToWin[randomNumber] */\n      swap1\n      pop\n        /* \"contracts/SVTLotteryNew.sol\":9286:9291  false */\n      0x00\n        /* \"contracts/SVTLotteryNew.sol\":9276:9291  status == false */\n      iszero\n      iszero\n        /* \"contracts/SVTLotteryNew.sol\":9276:9282  status */\n      dup2\n        /* \"contracts/SVTLotteryNew.sol\":9276:9291  status == false */\n      iszero\n      iszero\n      sub\n        /* \"contracts/SVTLotteryNew.sol\":9273:9415  if(status == false){... */\n      tag_282\n      jumpi\n        /* \"contracts/SVTLotteryNew.sol\":9325:9326  0 */\n      0x00\n        /* \"contracts/SVTLotteryNew.sol\":9307:9326  SLTAmountToSend = 0 */\n      swap4\n      pop\n        /* \"contracts/SVTLotteryNew.sol\":9273:9415  if(status == false){... */\n      jump(tag_283)\n    tag_282:\n        /* \"contracts/SVTLotteryNew.sol\":9389:9403  prizeMultipler */\n      sload(0x0b)\n        /* \"contracts/SVTLotteryNew.sol\":9375:9386  stakeAmount */\n      dup4\n        /* \"contracts/SVTLotteryNew.sol\":9375:9403  stakeAmount * prizeMultipler */\n      tag_284\n      swap2\n      swap1\n      tag_134\n      jump\t// in\n    tag_284:\n        /* \"contracts/SVTLotteryNew.sol\":9357:9403  SLTAmountToSend = stakeAmount * prizeMultipler */\n      swap4\n      pop\n        /* \"contracts/SVTLotteryNew.sol\":9273:9415  if(status == false){... */\n    tag_283:\n        /* \"contracts/SVTLotteryNew.sol\":9432:9447  SLTAmountToSend */\n      dup4\n        /* \"contracts/SVTLotteryNew.sol\":9425:9447  return SLTAmountToSend */\n      swap8\n      pop\n      pop\n      pop\n      pop\n      pop\n      pop\n      pop\n        /* \"contracts/SVTLotteryNew.sol\":4098:4275  {... */\n      pop\n        /* \"contracts/SVTLotteryNew.sol\":4044:4049  false */\n      0x00\n        /* \"contracts/SVTLotteryNew.sol\":4000:4049  addressToParticipationStatus[msg.sender] == false */\n      iszero\n      iszero\n        /* \"contracts/SVTLotteryNew.sol\":4000:4028  addressToParticipationStatus */\n      0x10\n        /* \"contracts/SVTLotteryNew.sol\":4000:4040  addressToParticipationStatus[msg.sender] */\n      0x00\n        /* \"contracts/SVTLotteryNew.sol\":4029:4039  msg.sender */\n      caller\n        /* \"contracts/SVTLotteryNew.sol\":4000:4040  addressToParticipationStatus[msg.sender] */\n      0xffffffffffffffffffffffffffffffffffffffff\n      and\n      0xffffffffffffffffffffffffffffffffffffffff\n      and\n      dup2\n      mstore\n      0x20\n      add\n      swap1\n      dup2\n      mstore\n      0x20\n      add\n      0x00\n      keccak256\n      0x00\n      swap1\n      sload\n      swap1\n      0x0100\n      exp\n      swap1\n      pop\n      pop\n        /* \"contracts/SVTLotteryNew.sol\":4000:4049  addressToParticipationStatus[msg.sender] == false */\n      pop\n        /* \"contracts/SVTLotteryNew.sol\":8734:9455  function getFinalResultValue()... */\n      swap1\n      jump\t// out\n        /* \"contracts/SVTLotteryNew.sol\":4948:6705  function getWithdrawalAmount()... */\n    tag_118:\n        /* \"contracts/SVTLotteryNew.sol\":5081:5126  uint256 contributionSLTTokenAmountAfterCharge */\n      0x00\n        /* \"contracts/SVTLotteryNew.sol\":5128:5154  uint256 indexOfContributor */\n      dup1\n        /* \"contracts/SVTLotteryNew.sol\":3370:3379  zeroValue */\n      0x09\n      0x01\n      swap1\n      sload\n      swap1\n      0x0100\n      exp\n      swap1\n      div\n      0xff\n      and\n        /* \"contracts/SVTLotteryNew.sol\":3329:3379  addressToAmountContributed[msg.sender] > zeroValue */\n      0xff\n      and\n        /* \"contracts/SVTLotteryNew.sol\":3329:3355  addressToAmountContributed */\n      0x13\n        /* \"contracts/SVTLotteryNew.sol\":3329:3367  addressToAmountContributed[msg.sender] */\n      0x00\n        /* \"contracts/SVTLotteryNew.sol\":3356:3366  msg.sender */\n      caller\n        /* \"contracts/SVTLotteryNew.sol\":3329:3367  addressToAmountContributed[msg.sender] */\n      0xffffffffffffffffffffffffffffffffffffffff\n      and\n      0xffffffffffffffffffffffffffffffffffffffff\n      and\n      dup2\n      mstore\n      0x20\n      add\n      swap1\n      dup2\n      mstore\n      0x20\n      add\n      0x00\n      keccak256\n      sload\n        /* \"contracts/SVTLotteryNew.sol\":3329:3379  addressToAmountContributed[msg.sender] > zeroValue */\n      gt\n        /* \"contracts/SVTLotteryNew.sol\":3321:3449  require(addressToAmountContributed[msg.sender] > zeroValue, \"Contributor currently does not have any funds within the contract\") */\n      tag_286\n      jumpi\n      mload(0x40)\n      0x08c379a000000000000000000000000000000000000000000000000000000000\n      dup2\n      mstore\n      0x04\n      add\n      tag_287\n      swap1\n      tag_288\n      jump\t// in\n    tag_287:\n      mload(0x40)\n      dup1\n      swap2\n      sub\n      swap1\n      revert\n    tag_286:\n        /* \"contracts/SVTLotteryNew.sol\":2965:3004  addressToTotalFundsAtTimeOfContribution */\n      0x14\n        /* \"contracts/SVTLotteryNew.sol\":2965:3016  addressToTotalFundsAtTimeOfContribution[msg.sender] */\n      0x00\n        /* \"contracts/SVTLotteryNew.sol\":3005:3015  msg.sender */\n      caller\n        /* \"contracts/SVTLotteryNew.sol\":2965:3016  addressToTotalFundsAtTimeOfContribution[msg.sender] */\n      0xffffffffffffffffffffffffffffffffffffffff\n      and\n      0xffffffffffffffffffffffffffffffffffffffff\n      and\n      dup2\n      mstore\n      0x20\n      add\n      swap1\n      dup2\n      mstore\n      0x20\n      add\n      0x00\n      keccak256\n      sload\n        /* \"contracts/SVTLotteryNew.sol\":2934:2937  SLT */\n      0x16\n      0x00\n      swap1\n      sload\n      swap1\n      0x0100\n      exp\n      swap1\n      div\n      0xffffffffffffffffffffffffffffffffffffffff\n      and\n        /* \"contracts/SVTLotteryNew.sol\":2934:2947  SLT.balanceOf */\n      0xffffffffffffffffffffffffffffffffffffffff\n      and\n      0x70a08231\n        /* \"contracts/SVTLotteryNew.sol\":2956:2960  this */\n      address\n        /* \"contracts/SVTLotteryNew.sol\":2934:2962  SLT.balanceOf(address(this)) */\n      mload(0x40)\n      dup3\n      0xffffffff\n      and\n      0xe0\n      shl\n      dup2\n      mstore\n      0x04\n      add\n      tag_290\n      swap2\n      swap1\n      tag_60\n      jump\t// in\n    tag_290:\n      0x20\n      mload(0x40)\n      dup1\n      dup4\n      sub\n      dup2\n      dup7\n      gas\n      staticcall\n      iszero\n      dup1\n      iszero\n      tag_292\n      jumpi\n      returndatasize\n      0x00\n      dup1\n      returndatacopy\n      revert(0x00, returndatasize)\n    tag_292:\n      pop\n      pop\n      pop\n      pop\n      mload(0x40)\n      returndatasize\n      not(0x1f)\n      0x1f\n      dup3\n      add\n      and\n      dup3\n      add\n      dup1\n      0x40\n      mstore\n      pop\n      dup2\n      add\n      swap1\n      tag_293\n      swap2\n      swap1\n      tag_140\n      jump\t// in\n    tag_293:\n        /* \"contracts/SVTLotteryNew.sol\":2934:3016  SLT.balanceOf(address(this)) > addressToTotalFundsAtTimeOfContribution[msg.sender] */\n      gt\n        /* \"contracts/SVTLotteryNew.sol\":2926:3053  require(SLT.balanceOf(address(this)) > addressToTotalFundsAtTimeOfContribution[msg.sender], \"You are not eligible to withdraw\") */\n      tag_294\n      jumpi\n      mload(0x40)\n      0x08c379a000000000000000000000000000000000000000000000000000000000\n      dup2\n      mstore\n      0x04\n      add\n      tag_295\n      swap1\n      tag_296\n      jump\t// in\n    tag_295:\n      mload(0x40)\n      dup1\n      swap2\n      sub\n      swap1\n      revert\n    tag_294:\n        /* \"contracts/SVTLotteryNew.sol\":5172:5190  uint256 totalFunds */\n      0x00\n        /* \"contracts/SVTLotteryNew.sol\":5193:5196  SLT */\n      0x16\n      0x00\n      swap1\n      sload\n      swap1\n      0x0100\n      exp\n      swap1\n      div\n      0xffffffffffffffffffffffffffffffffffffffff\n      and\n        /* \"contracts/SVTLotteryNew.sol\":5193:5206  SLT.balanceOf */\n      0xffffffffffffffffffffffffffffffffffffffff\n      and\n      0x70a08231\n        /* \"contracts/SVTLotteryNew.sol\":5215:5219  this */\n      address\n        /* \"contracts/SVTLotteryNew.sol\":5193:5221  SLT.balanceOf(address(this)) */\n      mload(0x40)\n      dup3\n      0xffffffff\n      and\n      0xe0\n      shl\n      dup2\n      mstore\n      0x04\n      add\n      tag_298\n      swap2\n      swap1\n      tag_60\n      jump\t// in\n    tag_298:\n      0x20\n      mload(0x40)\n      dup1\n      dup4\n      sub\n      dup2\n      dup7\n      gas\n      staticcall\n      iszero\n      dup1\n      iszero\n      tag_300\n      jumpi\n      returndatasize\n      0x00\n      dup1\n      returndatacopy\n      revert(0x00, returndatasize)\n    tag_300:\n      pop\n      pop\n      pop\n      pop\n      mload(0x40)\n      returndatasize\n      not(0x1f)\n      0x1f\n      dup3\n      add\n      and\n      dup3\n      add\n      dup1\n      0x40\n      mstore\n      pop\n      dup2\n      add\n      swap1\n      tag_301\n      swap2\n      swap1\n      tag_140\n      jump\t// in\n    tag_301:\n        /* \"contracts/SVTLotteryNew.sol\":5172:5221  uint256 totalFunds = SLT.balanceOf(address(this)) */\n      swap1\n      pop\n        /* \"contracts/SVTLotteryNew.sol\":5232:5257  uint256 contributorWeight */\n      0x00\n        /* \"contracts/SVTLotteryNew.sol\":5268:5300  uint256 currentContributorWeight */\n      dup1\n        /* \"contracts/SVTLotteryNew.sol\":5311:5336  uint256 amountContributed */\n      0x00\n        /* \"contracts/SVTLotteryNew.sol\":5347:5372  uint256 contributorAmount */\n      dup1\n        /* \"contracts/SVTLotteryNew.sol\":5383:5421  uint256 totalFundsAtTimeOfContribution */\n      0x00\n        /* \"contracts/SVTLotteryNew.sol\":5432:5451  uint256 totalWeight */\n      dup1\n        /* \"contracts/SVTLotteryNew.sol\":5454:5455  0 */\n      0x00\n        /* \"contracts/SVTLotteryNew.sol\":5432:5455  uint256 totalWeight = 0 */\n      swap1\n      pop\n        /* \"contracts/SVTLotteryNew.sol\":5466:5490  uint256 amountToWithdraw */\n      0x00\n        /* \"contracts/SVTLotteryNew.sol\":5501:5527  uint256 contributionCharge */\n      dup1\n        /* \"contracts/SVTLotteryNew.sol\":5542:5555  uint256 index */\n      0x00\n        /* \"contracts/SVTLotteryNew.sol\":5538:6194  for(uint256 index = 0; index < contributors.length; index++) {... */\n    tag_302:\n        /* \"contracts/SVTLotteryNew.sol\":5569:5581  contributors */\n      0x0d\n        /* \"contracts/SVTLotteryNew.sol\":5569:5588  contributors.length */\n      dup1\n      sload\n      swap1\n      pop\n        /* \"contracts/SVTLotteryNew.sol\":5561:5566  index */\n      dup2\n        /* \"contracts/SVTLotteryNew.sol\":5561:5588  index < contributors.length */\n      lt\n        /* \"contracts/SVTLotteryNew.sol\":5538:6194  for(uint256 index = 0; index < contributors.length; index++) {... */\n      iszero\n      tag_303\n      jumpi\n        /* \"contracts/SVTLotteryNew.sol\":5634:5660  addressToAmountContributed */\n      0x13\n        /* \"contracts/SVTLotteryNew.sol\":5634:5681  addressToAmountContributed[contributors[index]] */\n      0x00\n        /* \"contracts/SVTLotteryNew.sol\":5661:5673  contributors */\n      0x0d\n        /* \"contracts/SVTLotteryNew.sol\":5674:5679  index */\n      dup4\n        /* \"contracts/SVTLotteryNew.sol\":5661:5680  contributors[index] */\n      dup2\n      sload\n      dup2\n      lt\n      tag_305\n      jumpi\n      tag_306\n      tag_173\n      jump\t// in\n    tag_306:\n    tag_305:\n      swap1\n      0x00\n      mstore\n      keccak256(0x00, 0x20)\n      add\n      0x00\n      swap1\n      sload\n      swap1\n      0x0100\n      exp\n      swap1\n      div\n      0xffffffffffffffffffffffffffffffffffffffff\n      and\n        /* \"contracts/SVTLotteryNew.sol\":5634:5681  addressToAmountContributed[contributors[index]] */\n      0xffffffffffffffffffffffffffffffffffffffff\n      and\n      0xffffffffffffffffffffffffffffffffffffffff\n      and\n      dup2\n      mstore\n      0x20\n      add\n      swap1\n      dup2\n      mstore\n      0x20\n      add\n      0x00\n      keccak256\n      sload\n        /* \"contracts/SVTLotteryNew.sol\":5614:5681  amountContributed = addressToAmountContributed[contributors[index]] */\n      swap7\n      pop\n        /* \"contracts/SVTLotteryNew.sol\":5729:5768  addressToTotalFundsAtTimeOfContribution */\n      0x14\n        /* \"contracts/SVTLotteryNew.sol\":5729:5789  addressToTotalFundsAtTimeOfContribution[contributors[index]] */\n      0x00\n        /* \"contracts/SVTLotteryNew.sol\":5769:5781  contributors */\n      0x0d\n        /* \"contracts/SVTLotteryNew.sol\":5782:5787  index */\n      dup4\n        /* \"contracts/SVTLotteryNew.sol\":5769:5788  contributors[index] */\n      dup2\n      sload\n      dup2\n      lt\n      tag_308\n      jumpi\n      tag_309\n      tag_173\n      jump\t// in\n    tag_309:\n    tag_308:\n      swap1\n      0x00\n      mstore\n      keccak256(0x00, 0x20)\n      add\n      0x00\n      swap1\n      sload\n      swap1\n      0x0100\n      exp\n      swap1\n      div\n      0xffffffffffffffffffffffffffffffffffffffff\n      and\n        /* \"contracts/SVTLotteryNew.sol\":5729:5789  addressToTotalFundsAtTimeOfContribution[contributors[index]] */\n      0xffffffffffffffffffffffffffffffffffffffff\n      and\n      0xffffffffffffffffffffffffffffffffffffffff\n      and\n      dup2\n      mstore\n      0x20\n      add\n      swap1\n      dup2\n      mstore\n      0x20\n      add\n      0x00\n      keccak256\n      sload\n        /* \"contracts/SVTLotteryNew.sol\":5696:5789  totalFundsAtTimeOfContribution = addressToTotalFundsAtTimeOfContribution[contributors[index]] */\n      swap5\n      pop\n        /* \"contracts/SVTLotteryNew.sol\":5865:5895  totalFundsAtTimeOfContribution */\n      dup5\n        /* \"contracts/SVTLotteryNew.sol\":5852:5862  totalFunds */\n      dup11\n        /* \"contracts/SVTLotteryNew.sol\":5852:5895  totalFunds - totalFundsAtTimeOfContribution */\n      tag_311\n      swap2\n      swap1\n      tag_170\n      jump\t// in\n    tag_311:\n        /* \"contracts/SVTLotteryNew.sol\":5831:5848  amountContributed */\n      dup8\n        /* \"contracts/SVTLotteryNew.sol\":5831:5896  amountContributed * (totalFunds - totalFundsAtTimeOfContribution) */\n      tag_312\n      swap2\n      swap1\n      tag_134\n      jump\t// in\n    tag_312:\n        /* \"contracts/SVTLotteryNew.sol\":5804:5896  currentContributorWeight = amountContributed * (totalFunds - totalFundsAtTimeOfContribution) */\n      swap8\n      pop\n        /* \"contracts/SVTLotteryNew.sol\":5926:5950  currentContributorWeight */\n      dup8\n        /* \"contracts/SVTLotteryNew.sol\":5911:5950  totalWeight += currentContributorWeight */\n      dup5\n      tag_313\n      swap2\n      swap1\n      tag_314\n      jump\t// in\n    tag_313:\n      swap4\n      pop\n        /* \"contracts/SVTLotteryNew.sol\":5982:5994  contributors */\n      0x0d\n        /* \"contracts/SVTLotteryNew.sol\":5995:6000  index */\n      dup2\n        /* \"contracts/SVTLotteryNew.sol\":5982:6001  contributors[index] */\n      dup2\n      sload\n      dup2\n      lt\n      tag_315\n      jumpi\n      tag_316\n      tag_173\n      jump\t// in\n    tag_316:\n    tag_315:\n      swap1\n      0x00\n      mstore\n      keccak256(0x00, 0x20)\n      add\n      0x00\n      swap1\n      sload\n      swap1\n      0x0100\n      exp\n      swap1\n      div\n      0xffffffffffffffffffffffffffffffffffffffff\n      and\n        /* \"contracts/SVTLotteryNew.sol\":5968:6001  msg.sender == contributors[index] */\n      0xffffffffffffffffffffffffffffffffffffffff\n      and\n        /* \"contracts/SVTLotteryNew.sol\":5968:5978  msg.sender */\n      caller\n        /* \"contracts/SVTLotteryNew.sol\":5968:6001  msg.sender == contributors[index] */\n      0xffffffffffffffffffffffffffffffffffffffff\n      and\n      sub\n        /* \"contracts/SVTLotteryNew.sol\":5965:6183  if(msg.sender == contributors[index]) {... */\n      tag_318\n      jumpi\n        /* \"contracts/SVTLotteryNew.sol\":6042:6066  currentContributorWeight */\n      dup8\n        /* \"contracts/SVTLotteryNew.sol\":6022:6066  contributorWeight = currentContributorWeight */\n      swap9\n      pop\n        /* \"contracts/SVTLotteryNew.sol\":6105:6122  amountContributed */\n      dup7\n        /* \"contracts/SVTLotteryNew.sol\":6085:6122  contributorAmount = amountContributed */\n      swap6\n      pop\n        /* \"contracts/SVTLotteryNew.sol\":6162:6167  index */\n      dup1\n        /* \"contracts/SVTLotteryNew.sol\":6141:6167  indexOfContributor = index */\n      swap11\n      pop\n        /* \"contracts/SVTLotteryNew.sol\":5965:6183  if(msg.sender == contributors[index]) {... */\n    tag_318:\n        /* \"contracts/SVTLotteryNew.sol\":5590:5597  index++ */\n      dup1\n      dup1\n      0x01\n      add\n      swap2\n      pop\n      pop\n        /* \"contracts/SVTLotteryNew.sol\":5538:6194  for(uint256 index = 0; index < contributors.length; index++) {... */\n      jump(tag_302)\n    tag_303:\n      pop\n        /* \"contracts/SVTLotteryNew.sol\":6287:6295  tenEight */\n      sload(0x07)\n        /* \"contracts/SVTLotteryNew.sol\":6273:6283  totalFunds */\n      dup10\n        /* \"contracts/SVTLotteryNew.sol\":6258:6269  totalWeight */\n      dup5\n        /* \"contracts/SVTLotteryNew.sol\":6246:6254  tenEight */\n      sload(0x07)\n        /* \"contracts/SVTLotteryNew.sol\":6226:6243  contributorWeight */\n      dup12\n        /* \"contracts/SVTLotteryNew.sol\":6226:6254  contributorWeight * tenEight */\n      tag_319\n      swap2\n      swap1\n      tag_134\n      jump\t// in\n    tag_319:\n        /* \"contracts/SVTLotteryNew.sol\":6225:6269  (contributorWeight * tenEight) / totalWeight */\n      tag_320\n      swap2\n      swap1\n      tag_321\n      jump\t// in\n    tag_320:\n        /* \"contracts/SVTLotteryNew.sol\":6224:6283  ((contributorWeight * tenEight) / totalWeight) * totalFunds */\n      tag_322\n      swap2\n      swap1\n      tag_134\n      jump\t// in\n    tag_322:\n        /* \"contracts/SVTLotteryNew.sol\":6223:6295  (((contributorWeight * tenEight) / totalWeight) * totalFunds) / tenEight */\n      tag_323\n      swap2\n      swap1\n      tag_321\n      jump\t// in\n    tag_323:\n        /* \"contracts/SVTLotteryNew.sol\":6204:6295  amountToWithdraw = (((contributorWeight * tenEight) / totalWeight) * totalFunds) / tenEight */\n      swap2\n      pop\n        /* \"contracts/SVTLotteryNew.sol\":6328:6345  contributorAmount */\n      dup5\n        /* \"contracts/SVTLotteryNew.sol\":6309:6325  amountToWithdraw */\n      dup3\n        /* \"contracts/SVTLotteryNew.sol\":6309:6345  amountToWithdraw > contributorAmount */\n      gt\n        /* \"contracts/SVTLotteryNew.sol\":6306:6533  if(amountToWithdraw > contributorAmount){... */\n      iszero\n      tag_324\n      jumpi\n        /* \"contracts/SVTLotteryNew.sol\":6444:6458  hundredPercent */\n      0x09\n      0x00\n      swap1\n      sload\n      swap1\n      0x0100\n      exp\n      swap1\n      div\n      0xff\n      and\n        /* \"contracts/SVTLotteryNew.sol\":6382:6458  (percentageCharge * (amountToWithdraw - contributorAmount)) / hundredPercent */\n      0xff\n      and\n        /* \"contracts/SVTLotteryNew.sol\":6422:6439  contributorAmount */\n      dup6\n        /* \"contracts/SVTLotteryNew.sol\":6403:6419  amountToWithdraw */\n      dup4\n        /* \"contracts/SVTLotteryNew.sol\":6403:6439  amountToWithdraw - contributorAmount */\n      tag_325\n      swap2\n      swap1\n      tag_170\n      jump\t// in\n    tag_325:\n        /* \"contracts/SVTLotteryNew.sol\":6383:6399  percentageCharge */\n      0x05\n      0x14\n      swap1\n      sload\n      swap1\n      0x0100\n      exp\n      swap1\n      div\n      0xff\n      and\n        /* \"contracts/SVTLotteryNew.sol\":6383:6440  percentageCharge * (amountToWithdraw - contributorAmount) */\n      0xff\n      and\n      tag_326\n      swap2\n      swap1\n      tag_134\n      jump\t// in\n    tag_326:\n        /* \"contracts/SVTLotteryNew.sol\":6382:6458  (percentageCharge * (amountToWithdraw - contributorAmount)) / hundredPercent */\n      tag_327\n      swap2\n      swap1\n      tag_321\n      jump\t// in\n    tag_327:\n        /* \"contracts/SVTLotteryNew.sol\":6361:6458  contributionCharge = (percentageCharge * (amountToWithdraw - contributorAmount)) / hundredPercent */\n      swap1\n      pop\n        /* \"contracts/SVTLotteryNew.sol\":6306:6533  if(amountToWithdraw > contributorAmount){... */\n      jump(tag_328)\n    tag_324:\n        /* \"contracts/SVTLotteryNew.sol\":6520:6521  0 */\n      0x00\n        /* \"contracts/SVTLotteryNew.sol\":6499:6521  contributionCharge = 0 */\n      swap1\n      pop\n        /* \"contracts/SVTLotteryNew.sol\":6306:6533  if(amountToWithdraw > contributorAmount){... */\n    tag_328:\n        /* \"contracts/SVTLotteryNew.sol\":6602:6620  contributionCharge */\n      dup1\n        /* \"contracts/SVTLotteryNew.sol\":6583:6599  amountToWithdraw */\n      dup3\n        /* \"contracts/SVTLotteryNew.sol\":6583:6620  amountToWithdraw - contributionCharge */\n      tag_329\n      swap2\n      swap1\n      tag_170\n      jump\t// in\n    tag_329:\n        /* \"contracts/SVTLotteryNew.sol\":6543:6620  contributionSLTTokenAmountAfterCharge = amountToWithdraw - contributionCharge */\n      swap11\n      pop\n        /* \"contracts/SVTLotteryNew.sol\":6631:6697  return (contributionSLTTokenAmountAfterCharge, indexOfContributor) */\n      pop\n      pop\n      pop\n      pop\n      pop\n      pop\n      pop\n      pop\n      pop\n        /* \"contracts/SVTLotteryNew.sol\":4948:6705  function getWithdrawalAmount()... */\n      swap1\n      swap2\n      jump\t// out\n        /* \"contracts/SVTLotteryNew.sol\":1130:1165  uint16 public SLTAirdropAmount = 50 */\n    tag_122:\n      0x05\n      0x1d\n      swap1\n      sload\n      swap1\n      0x0100\n      exp\n      swap1\n      div\n      0xffff\n      and\n      dup2\n      jump\t// out\n        /* \"@chainlink/contracts@0.8.0/src/v0.8/shared/access/ConfirmedOwnerWithProposal.sol\":811:909  function transferOwnership(address to) public override onlyOwner {... */\n    tag_127:\n        /* \"@chainlink/contracts@0.8.0/src/v0.8/shared/access/ConfirmedOwnerWithProposal.sol\":1941:1961  _validateOwnership() */\n      tag_331\n        /* \"@chainlink/contracts@0.8.0/src/v0.8/shared/access/ConfirmedOwnerWithProposal.sol\":1941:1959  _validateOwnership */\n      tag_189\n        /* \"@chainlink/contracts@0.8.0/src/v0.8/shared/access/ConfirmedOwnerWithProposal.sol\":1941:1961  _validateOwnership() */\n      jump\t// in\n    tag_331:\n        /* \"@chainlink/contracts@0.8.0/src/v0.8/shared/access/ConfirmedOwnerWithProposal.sol\":882:904  _transferOwnership(to) */\n      tag_333\n        /* \"@chainlink/contracts@0.8.0/src/v0.8/shared/access/ConfirmedOwnerWithProposal.sol\":901:903  to */\n      dup2\n        /* \"@chainlink/contracts@0.8.0/src/v0.8/shared/access/ConfirmedOwnerWithProposal.sol\":882:900  _transferOwnership */\n      tag_334\n        /* \"@chainlink/contracts@0.8.0/src/v0.8/shared/access/ConfirmedOwnerWithProposal.sol\":882:904  _transferOwnership(to) */\n      jump\t// in\n    tag_333:\n        /* \"@chainlink/contracts@0.8.0/src/v0.8/shared/access/ConfirmedOwnerWithProposal.sol\":811:909  function transferOwnership(address to) public override onlyOwner {... */\n      pop\n      jump\t// out\n        /* \"contracts/SVTLotteryNew.sol\":1887:1942  mapping (address => bool) public addressToAidropClaimed */\n    tag_130:\n      mstore(0x20, 0x11)\n      dup1\n      0x00\n      mstore\n      keccak256(0x00, 0x40)\n      0x00\n      swap2\n      pop\n      sload\n      swap1\n      0x0100\n      exp\n      swap1\n      div\n      0xff\n      and\n      dup2\n      jump\t// out\n        /* \"contracts/SVTLotteryNew.sol\":7915:8409  function requestRandomWords()... */\n    tag_161:\n        /* \"contracts/SVTLotteryNew.sol\":7981:7998  uint256 requestId */\n      0x00\n        /* \"contracts/SVTLotteryNew.sol\":8028:8039  COORDINATOR */\n      0x02\n      0x00\n      swap1\n      sload\n      swap1\n      0x0100\n      exp\n      swap1\n      div\n      0xffffffffffffffffffffffffffffffffffffffff\n      and\n        /* \"contracts/SVTLotteryNew.sol\":8028:8058  COORDINATOR.requestRandomWords */\n      0xffffffffffffffffffffffffffffffffffffffff\n      and\n      0x5d3b1d30\n        /* \"contracts/SVTLotteryNew.sol\":8073:8080  keyHash */\n      sload(0x04)\n        /* \"contracts/SVTLotteryNew.sol\":8095:8111  s_subscriptionId */\n      0x03\n      0x00\n      swap1\n      sload\n      swap1\n      0x0100\n      exp\n      swap1\n      div\n      0xffffffffffffffff\n      and\n        /* \"contracts/SVTLotteryNew.sol\":8126:8146  requestConfirmations */\n      0x02\n      0x18\n      swap1\n      sload\n      swap1\n      0x0100\n      exp\n      swap1\n      div\n      0xff\n      and\n        /* \"contracts/SVTLotteryNew.sol\":8161:8177  callbackGasLimit */\n      0x02\n      0x14\n      swap1\n      sload\n      swap1\n      0x0100\n      exp\n      swap1\n      div\n      0xffffffff\n      and\n        /* \"contracts/SVTLotteryNew.sol\":8192:8200  numWords */\n      0x02\n      0x19\n      swap1\n      sload\n      swap1\n      0x0100\n      exp\n      swap1\n      div\n      0xff\n      and\n        /* \"contracts/SVTLotteryNew.sol\":8028:8211  COORDINATOR.requestRandomWords(... */\n      mload(0x40)\n      dup7\n      0xffffffff\n      and\n      0xe0\n      shl\n      dup2\n      mstore\n      0x04\n      add\n      tag_336\n      swap6\n      swap5\n      swap4\n      swap3\n      swap2\n      swap1\n      tag_337\n      jump\t// in\n    tag_336:\n      0x20\n      mload(0x40)\n      dup1\n      dup4\n      sub\n      dup2\n      0x00\n      dup8\n      gas\n      call\n      iszero\n      dup1\n      iszero\n      tag_339\n      jumpi\n      returndatasize\n      0x00\n      dup1\n      returndatacopy\n      revert(0x00, returndatasize)\n    tag_339:\n      pop\n      pop\n      pop\n      pop\n      mload(0x40)\n      returndatasize\n      not(0x1f)\n      0x1f\n      dup3\n      add\n      and\n      dup3\n      add\n      dup1\n      0x40\n      mstore\n      pop\n      dup2\n      add\n      swap1\n      tag_340\n      swap2\n      swap1\n      tag_140\n      jump\t// in\n    tag_340:\n        /* \"contracts/SVTLotteryNew.sol\":8016:8211  requestId = COORDINATOR.requestRandomWords(... */\n      swap1\n      pop\n        /* \"contracts/SVTLotteryNew.sol\":8246:8374  RequestStatus({... */\n      mload(0x40)\n      dup1\n      0x60\n      add\n      0x40\n      mstore\n      dup1\n        /* \"contracts/SVTLotteryNew.sol\":8357:8362  false */\n      0x00\n        /* \"contracts/SVTLotteryNew.sol\":8246:8374  RequestStatus({... */\n      iszero\n      iszero\n      dup2\n      mstore\n      0x20\n      add\n        /* \"contracts/SVTLotteryNew.sol\":8327:8331  true */\n      0x01\n        /* \"contracts/SVTLotteryNew.sol\":8246:8374  RequestStatus({... */\n      iszero\n      iszero\n      dup2\n      mstore\n      0x20\n      add\n        /* \"contracts/SVTLotteryNew.sol\":8302:8303  0 */\n      0x00\n        /* \"contracts/SVTLotteryNew.sol\":8288:8304  new uint256[](0) */\n      0xffffffffffffffff\n      dup2\n      gt\n      iszero\n      tag_341\n      jumpi\n      tag_342\n      tag_343\n      jump\t// in\n    tag_342:\n    tag_341:\n      mload(0x40)\n      swap1\n      dup1\n      dup3\n      mstore\n      dup1\n      0x20\n      mul\n      0x20\n      add\n      dup3\n      add\n      0x40\n      mstore\n      dup1\n      iszero\n      tag_344\n      jumpi\n      dup2\n      0x20\n      add\n      0x20\n      dup3\n      mul\n      dup1\n      calldatasize\n      dup4\n      calldatacopy\n      dup1\n      dup3\n      add\n      swap2\n      pop\n      pop\n      swap1\n      pop\n    tag_344:\n      pop\n        /* \"contracts/SVTLotteryNew.sol\":8246:8374  RequestStatus({... */\n      dup2\n      mstore\n      pop\n        /* \"contracts/SVTLotteryNew.sol\":8222:8232  s_requests */\n      0x0f\n        /* \"contracts/SVTLotteryNew.sol\":8222:8243  s_requests[requestId] */\n      0x00\n        /* \"contracts/SVTLotteryNew.sol\":8233:8242  requestId */\n      dup4\n        /* \"contracts/SVTLotteryNew.sol\":8222:8243  s_requests[requestId] */\n      dup2\n      mstore\n      0x20\n      add\n      swap1\n      dup2\n      mstore\n      0x20\n      add\n      0x00\n      keccak256\n        /* \"contracts/SVTLotteryNew.sol\":8222:8374  s_requests[requestId] = RequestStatus({... */\n      0x00\n      dup3\n      add\n      mload\n      dup2\n      0x00\n      add\n      exp(0x0100, 0x00)\n      dup2\n      sload\n      dup2\n      0xff\n      mul\n      not\n      and\n      swap1\n      dup4\n      iszero\n      iszero\n      mul\n      or\n      swap1\n      sstore\n      pop\n      0x20\n      dup3\n      add\n      mload\n      dup2\n      0x00\n      add\n      exp(0x0100, 0x01)\n      dup2\n      sload\n      dup2\n      0xff\n      mul\n      not\n      and\n      swap1\n      dup4\n      iszero\n      iszero\n      mul\n      or\n      swap1\n      sstore\n      pop\n      0x40\n      dup3\n      add\n      mload\n      dup2\n      0x01\n      add\n      swap1\n      dup1\n      mload\n      swap1\n      0x20\n      add\n      swap1\n      tag_345\n      swap3\n      swap2\n      swap1\n      tag_346\n      jump\t// in\n    tag_345:\n      pop\n      swap1\n      pop\n      pop\n        /* \"contracts/SVTLotteryNew.sol\":7915:8409  function requestRandomWords()... */\n      swap1\n      jump\t// out\n        /* \"@chainlink/contracts@0.8.0/src/v0.8/shared/access/ConfirmedOwnerWithProposal.sol\":1715:1826  function _validateOwnership() internal view {... */\n    tag_189:\n        /* \"@chainlink/contracts@0.8.0/src/v0.8/shared/access/ConfirmedOwnerWithProposal.sol\":1787:1794  s_owner */\n      0x00\n      dup1\n      sload\n      swap1\n      0x0100\n      exp\n      swap1\n      div\n      0xffffffffffffffffffffffffffffffffffffffff\n      and\n        /* \"@chainlink/contracts@0.8.0/src/v0.8/shared/access/ConfirmedOwnerWithProposal.sol\":1773:1794  msg.sender == s_owner */\n      0xffffffffffffffffffffffffffffffffffffffff\n      and\n        /* \"@chainlink/contracts@0.8.0/src/v0.8/shared/access/ConfirmedOwnerWithProposal.sol\":1773:1783  msg.sender */\n      caller\n        /* \"@chainlink/contracts@0.8.0/src/v0.8/shared/access/ConfirmedOwnerWithProposal.sol\":1773:1794  msg.sender == s_owner */\n      0xffffffffffffffffffffffffffffffffffffffff\n      and\n      eq\n        /* \"@chainlink/contracts@0.8.0/src/v0.8/shared/access/ConfirmedOwnerWithProposal.sol\":1765:1821  require(msg.sender == s_owner, \"Only callable by owner\") */\n      tag_348\n      jumpi\n      mload(0x40)\n      0x08c379a000000000000000000000000000000000000000000000000000000000\n      dup2\n      mstore\n      0x04\n      add\n      tag_349\n      swap1\n      tag_350\n      jump\t// in\n    tag_349:\n      mload(0x40)\n      dup1\n      swap2\n      sub\n      swap1\n      revert\n    tag_348:\n        /* \"@chainlink/contracts@0.8.0/src/v0.8/shared/access/ConfirmedOwnerWithProposal.sol\":1715:1826  function _validateOwnership() internal view {... */\n      jump\t// out\n        /* \"contracts/SVTLotteryNew.sol\":8417:8726  function fulfillRandomWords( uint256 _requestId, uint256[] memory _randomWords)... */\n    tag_195:\n        /* \"contracts/SVTLotteryNew.sol\":8557:8567  s_requests */\n      0x0f\n        /* \"contracts/SVTLotteryNew.sol\":8557:8579  s_requests[_requestId] */\n      0x00\n        /* \"contracts/SVTLotteryNew.sol\":8568:8578  _requestId */\n      dup4\n        /* \"contracts/SVTLotteryNew.sol\":8557:8579  s_requests[_requestId] */\n      dup2\n      mstore\n      0x20\n      add\n      swap1\n      dup2\n      mstore\n      0x20\n      add\n      0x00\n      keccak256\n        /* \"contracts/SVTLotteryNew.sol\":8557:8586  s_requests[_requestId].exists */\n      0x00\n      add\n      0x01\n      swap1\n      sload\n      swap1\n      0x0100\n      exp\n      swap1\n      div\n      0xff\n      and\n        /* \"contracts/SVTLotteryNew.sol\":8549:8608  require(s_requests[_requestId].exists, \"request not found\") */\n      tag_352\n      jumpi\n      mload(0x40)\n      0x08c379a000000000000000000000000000000000000000000000000000000000\n      dup2\n      mstore\n      0x04\n      add\n      tag_353\n      swap1\n      tag_354\n      jump\t// in\n    tag_353:\n      mload(0x40)\n      dup1\n      swap2\n      sub\n      swap1\n      revert\n    tag_352:\n        /* \"contracts/SVTLotteryNew.sol\":8654:8658  true */\n      0x01\n        /* \"contracts/SVTLotteryNew.sol\":8619:8629  s_requests */\n      0x0f\n        /* \"contracts/SVTLotteryNew.sol\":8619:8641  s_requests[_requestId] */\n      0x00\n        /* \"contracts/SVTLotteryNew.sol\":8630:8640  _requestId */\n      dup5\n        /* \"contracts/SVTLotteryNew.sol\":8619:8641  s_requests[_requestId] */\n      dup2\n      mstore\n      0x20\n      add\n      swap1\n      dup2\n      mstore\n      0x20\n      add\n      0x00\n      keccak256\n        /* \"contracts/SVTLotteryNew.sol\":8619:8651  s_requests[_requestId].fulfilled */\n      0x00\n      add\n      0x00\n        /* \"contracts/SVTLotteryNew.sol\":8619:8658  s_requests[_requestId].fulfilled = true */\n      0x0100\n      exp\n      dup2\n      sload\n      dup2\n      0xff\n      mul\n      not\n      and\n      swap1\n      dup4\n      iszero\n      iszero\n      mul\n      or\n      swap1\n      sstore\n      pop\n        /* \"contracts/SVTLotteryNew.sol\":8706:8718  _randomWords */\n      dup1\n        /* \"contracts/SVTLotteryNew.sol\":8669:8679  s_requests */\n      0x0f\n        /* \"contracts/SVTLotteryNew.sol\":8669:8691  s_requests[_requestId] */\n      0x00\n        /* \"contracts/SVTLotteryNew.sol\":8680:8690  _requestId */\n      dup5\n        /* \"contracts/SVTLotteryNew.sol\":8669:8691  s_requests[_requestId] */\n      dup2\n      mstore\n      0x20\n      add\n      swap1\n      dup2\n      mstore\n      0x20\n      add\n      0x00\n      keccak256\n        /* \"contracts/SVTLotteryNew.sol\":8669:8703  s_requests[_requestId].randomWords */\n      0x01\n      add\n        /* \"contracts/SVTLotteryNew.sol\":8669:8718  s_requests[_requestId].randomWords = _randomWords */\n      swap1\n      dup1\n      mload\n      swap1\n      0x20\n      add\n      swap1\n      tag_355\n      swap3\n      swap2\n      swap1\n      tag_346\n      jump\t// in\n    tag_355:\n      pop\n        /* \"contracts/SVTLotteryNew.sol\":8417:8726  function fulfillRandomWords( uint256 _requestId, uint256[] memory _randomWords)... */\n      pop\n      pop\n      jump\t// out\n        /* \"@chainlink/contracts@0.8.0/src/v0.8/shared/access/ConfirmedOwnerWithProposal.sol\":1482:1670  function _transferOwnership(address to) private {... */\n    tag_334:\n        /* \"@chainlink/contracts@0.8.0/src/v0.8/shared/access/ConfirmedOwnerWithProposal.sol\":1550:1560  msg.sender */\n      caller\n        /* \"@chainlink/contracts@0.8.0/src/v0.8/shared/access/ConfirmedOwnerWithProposal.sol\":1544:1560  to != msg.sender */\n      0xffffffffffffffffffffffffffffffffffffffff\n      and\n        /* \"@chainlink/contracts@0.8.0/src/v0.8/shared/access/ConfirmedOwnerWithProposal.sol\":1544:1546  to */\n      dup2\n        /* \"@chainlink/contracts@0.8.0/src/v0.8/shared/access/ConfirmedOwnerWithProposal.sol\":1544:1560  to != msg.sender */\n      0xffffffffffffffffffffffffffffffffffffffff\n      and\n      sub\n        /* \"@chainlink/contracts@0.8.0/src/v0.8/shared/access/ConfirmedOwnerWithProposal.sol\":1536:1588  require(to != msg.sender, \"Cannot transfer to self\") */\n      tag_357\n      jumpi\n      mload(0x40)\n      0x08c379a000000000000000000000000000000000000000000000000000000000\n      dup2\n      mstore\n      0x04\n      add\n      tag_358\n      swap1\n      tag_359\n      jump\t// in\n    tag_358:\n      mload(0x40)\n      dup1\n      swap2\n      sub\n      swap1\n      revert\n    tag_357:\n        /* \"@chainlink/contracts@0.8.0/src/v0.8/shared/access/ConfirmedOwnerWithProposal.sol\":1612:1614  to */\n      dup1\n        /* \"@chainlink/contracts@0.8.0/src/v0.8/shared/access/ConfirmedOwnerWithProposal.sol\":1595:1609  s_pendingOwner */\n      0x01\n      0x00\n        /* \"@chainlink/contracts@0.8.0/src/v0.8/shared/access/ConfirmedOwnerWithProposal.sol\":1595:1614  s_pendingOwner = to */\n      0x0100\n      exp\n      dup2\n      sload\n      dup2\n      0xffffffffffffffffffffffffffffffffffffffff\n      mul\n      not\n      and\n      swap1\n      dup4\n      0xffffffffffffffffffffffffffffffffffffffff\n      and\n      mul\n      or\n      swap1\n      sstore\n      pop\n        /* \"@chainlink/contracts@0.8.0/src/v0.8/shared/access/ConfirmedOwnerWithProposal.sol\":1662:1664  to */\n      dup1\n        /* \"@chainlink/contracts@0.8.0/src/v0.8/shared/access/ConfirmedOwnerWithProposal.sol\":1626:1665  OwnershipTransferRequested(s_owner, to) */\n      0xffffffffffffffffffffffffffffffffffffffff\n      and\n        /* \"@chainlink/contracts@0.8.0/src/v0.8/shared/access/ConfirmedOwnerWithProposal.sol\":1653:1660  s_owner */\n      0x00\n      dup1\n      sload\n      swap1\n      0x0100\n      exp\n      swap1\n      div\n      0xffffffffffffffffffffffffffffffffffffffff\n      and\n        /* \"@chainlink/contracts@0.8.0/src/v0.8/shared/access/ConfirmedOwnerWithProposal.sol\":1626:1665  OwnershipTransferRequested(s_owner, to) */\n      0xffffffffffffffffffffffffffffffffffffffff\n      and\n      0xed8889f560326eb138920d842192f0eb3dd22b4f139c87a2c57538e05bae1278\n      mload(0x40)\n      mload(0x40)\n      dup1\n      swap2\n      sub\n      swap1\n      log3\n        /* \"@chainlink/contracts@0.8.0/src/v0.8/shared/access/ConfirmedOwnerWithProposal.sol\":1482:1670  function _transferOwnership(address to) private {... */\n      pop\n      jump\t// out\n    tag_346:\n      dup3\n      dup1\n      sload\n      dup3\n      dup3\n      sstore\n      swap1\n      0x00\n      mstore\n      keccak256(0x00, 0x20)\n      swap1\n      dup2\n      add\n      swap3\n      dup3\n      iszero\n      tag_360\n      jumpi\n      swap2\n      0x20\n      mul\n      dup3\n      add\n    tag_361:\n      dup3\n      dup2\n      gt\n      iszero\n      tag_362\n      jumpi\n      dup3\n      mload\n      dup3\n      sstore\n      swap2\n      0x20\n      add\n      swap2\n      swap1\n      0x01\n      add\n      swap1\n      jump(tag_361)\n    tag_362:\n    tag_360:\n      pop\n      swap1\n      pop\n      tag_363\n      swap2\n      swap1\n      tag_364\n      jump\t// in\n    tag_363:\n      pop\n      swap1\n      jump\t// out\n    tag_364:\n    tag_365:\n      dup1\n      dup3\n      gt\n      iszero\n      tag_366\n      jumpi\n      0x00\n      dup2\n      0x00\n      swap1\n      sstore\n      pop\n      0x01\n      add\n      jump(tag_365)\n    tag_366:\n      pop\n      swap1\n      jump\t// out\n        /* \"#utility.yul\":7:100   */\n    tag_367:\n        /* \"#utility.yul\":43:50   */\n      0x00\n        /* \"#utility.yul\":83:93   */\n      0xffffffff\n        /* \"#utility.yul\":76:81   */\n      dup3\n        /* \"#utility.yul\":72:94   */\n      and\n        /* \"#utility.yul\":61:94   */\n      swap1\n      pop\n        /* \"#utility.yul\":7:100   */\n      swap2\n      swap1\n      pop\n      jump\t// out\n        /* \"#utility.yul\":106:221   */\n    tag_368:\n        /* \"#utility.yul\":191:214   */\n      tag_447\n        /* \"#utility.yul\":208:213   */\n      dup2\n        /* \"#utility.yul\":191:214   */\n      tag_367\n      jump\t// in\n    tag_447:\n        /* \"#utility.yul\":186:189   */\n      dup3\n        /* \"#utility.yul\":179:215   */\n      mstore\n        /* \"#utility.yul\":106:221   */\n      pop\n      pop\n      jump\t// out\n        /* \"#utility.yul\":227:445   */\n    tag_39:\n        /* \"#utility.yul\":318:322   */\n      0x00\n        /* \"#utility.yul\":356:358   */\n      0x20\n        /* \"#utility.yul\":345:354   */\n      dup3\n        /* \"#utility.yul\":341:359   */\n      add\n        /* \"#utility.yul\":333:359   */\n      swap1\n      pop\n        /* \"#utility.yul\":369:438   */\n      tag_449\n        /* \"#utility.yul\":435:436   */\n      0x00\n        /* \"#utility.yul\":424:433   */\n      dup4\n        /* \"#utility.yul\":420:437   */\n      add\n        /* \"#utility.yul\":411:417   */\n      dup5\n        /* \"#utility.yul\":369:438   */\n      tag_368\n      jump\t// in\n    tag_449:\n        /* \"#utility.yul\":227:445   */\n      swap3\n      swap2\n      pop\n      pop\n      jump\t// out\n        /* \"#utility.yul\":451:526   */\n    tag_369:\n        /* \"#utility.yul\":484:490   */\n      0x00\n        /* \"#utility.yul\":517:519   */\n      0x40\n        /* \"#utility.yul\":511:520   */\n      mload\n        /* \"#utility.yul\":501:520   */\n      swap1\n      pop\n        /* \"#utility.yul\":451:526   */\n      swap1\n      jump\t// out\n        /* \"#utility.yul\":532:649   */\n    tag_370:\n        /* \"#utility.yul\":641:642   */\n      0x00\n        /* \"#utility.yul\":638:639   */\n      dup1\n        /* \"#utility.yul\":631:643   */\n      revert\n        /* \"#utility.yul\":655:772   */\n    tag_371:\n        /* \"#utility.yul\":764:765   */\n      0x00\n        /* \"#utility.yul\":761:762   */\n      dup1\n        /* \"#utility.yul\":754:766   */\n      revert\n        /* \"#utility.yul\":778:855   */\n    tag_372:\n        /* \"#utility.yul\":815:822   */\n      0x00\n        /* \"#utility.yul\":844:849   */\n      dup2\n        /* \"#utility.yul\":833:849   */\n      swap1\n      pop\n        /* \"#utility.yul\":778:855   */\n      swap2\n      swap1\n      pop\n      jump\t// out\n        /* \"#utility.yul\":861:983   */\n    tag_373:\n        /* \"#utility.yul\":934:958   */\n      tag_455\n        /* \"#utility.yul\":952:957   */\n      dup2\n        /* \"#utility.yul\":934:958   */\n      tag_372\n      jump\t// in\n    tag_455:\n        /* \"#utility.yul\":927:932   */\n      dup2\n        /* \"#utility.yul\":924:959   */\n      eq\n        /* \"#utility.yul\":914:977   */\n      tag_456\n      jumpi\n        /* \"#utility.yul\":973:974   */\n      0x00\n        /* \"#utility.yul\":970:971   */\n      dup1\n        /* \"#utility.yul\":963:975   */\n      revert\n        /* \"#utility.yul\":914:977   */\n    tag_456:\n        /* \"#utility.yul\":861:983   */\n      pop\n      jump\t// out\n        /* \"#utility.yul\":989:1128   */\n    tag_374:\n        /* \"#utility.yul\":1035:1040   */\n      0x00\n        /* \"#utility.yul\":1073:1079   */\n      dup2\n        /* \"#utility.yul\":1060:1080   */\n      calldataload\n        /* \"#utility.yul\":1051:1080   */\n      swap1\n      pop\n        /* \"#utility.yul\":1089:1122   */\n      tag_458\n        /* \"#utility.yul\":1116:1121   */\n      dup2\n        /* \"#utility.yul\":1089:1122   */\n      tag_373\n      jump\t// in\n    tag_458:\n        /* \"#utility.yul\":989:1128   */\n      swap3\n      swap2\n      pop\n      pop\n      jump\t// out\n        /* \"#utility.yul\":1134:1463   */\n    tag_42:\n        /* \"#utility.yul\":1193:1199   */\n      0x00\n        /* \"#utility.yul\":1242:1244   */\n      0x20\n        /* \"#utility.yul\":1230:1239   */\n      dup3\n        /* \"#utility.yul\":1221:1228   */\n      dup5\n        /* \"#utility.yul\":1217:1240   */\n      sub\n        /* \"#utility.yul\":1213:1245   */\n      slt\n        /* \"#utility.yul\":1210:1329   */\n      iszero\n      tag_460\n      jumpi\n        /* \"#utility.yul\":1248:1327   */\n      tag_461\n      tag_370\n      jump\t// in\n    tag_461:\n        /* \"#utility.yul\":1210:1329   */\n    tag_460:\n        /* \"#utility.yul\":1368:1369   */\n      0x00\n        /* \"#utility.yul\":1393:1446   */\n      tag_462\n        /* \"#utility.yul\":1438:1445   */\n      dup5\n        /* \"#utility.yul\":1429:1435   */\n      dup3\n        /* \"#utility.yul\":1418:1427   */\n      dup6\n        /* \"#utility.yul\":1414:1436   */\n      add\n        /* \"#utility.yul\":1393:1446   */\n      tag_374\n      jump\t// in\n    tag_462:\n        /* \"#utility.yul\":1383:1446   */\n      swap2\n      pop\n        /* \"#utility.yul\":1339:1456   */\n      pop\n        /* \"#utility.yul\":1134:1463   */\n      swap3\n      swap2\n      pop\n      pop\n      jump\t// out\n        /* \"#utility.yul\":1469:1558   */\n    tag_375:\n        /* \"#utility.yul\":1505:1512   */\n      0x00\n        /* \"#utility.yul\":1545:1551   */\n      0xffff\n        /* \"#utility.yul\":1538:1543   */\n      dup3\n        /* \"#utility.yul\":1534:1552   */\n      and\n        /* \"#utility.yul\":1523:1552   */\n      swap1\n      pop\n        /* \"#utility.yul\":1469:1558   */\n      swap2\n      swap1\n      pop\n      jump\t// out\n        /* \"#utility.yul\":1564:1684   */\n    tag_376:\n        /* \"#utility.yul\":1636:1659   */\n      tag_465\n        /* \"#utility.yul\":1653:1658   */\n      dup2\n        /* \"#utility.yul\":1636:1659   */\n      tag_375\n      jump\t// in\n    tag_465:\n        /* \"#utility.yul\":1629:1634   */\n      dup2\n        /* \"#utility.yul\":1626:1660   */\n      eq\n        /* \"#utility.yul\":1616:1678   */\n      tag_466\n      jumpi\n        /* \"#utility.yul\":1674:1675   */\n      0x00\n        /* \"#utility.yul\":1671:1672   */\n      dup1\n        /* \"#utility.yul\":1664:1676   */\n      revert\n        /* \"#utility.yul\":1616:1678   */\n    tag_466:\n        /* \"#utility.yul\":1564:1684   */\n      pop\n      jump\t// out\n        /* \"#utility.yul\":1690:1827   */\n    tag_377:\n        /* \"#utility.yul\":1735:1740   */\n      0x00\n        /* \"#utility.yul\":1773:1779   */\n      dup2\n        /* \"#utility.yul\":1760:1780   */\n      calldataload\n        /* \"#utility.yul\":1751:1780   */\n      swap1\n      pop\n        /* \"#utility.yul\":1789:1821   */\n      tag_468\n        /* \"#utility.yul\":1815:1820   */\n      dup2\n        /* \"#utility.yul\":1789:1821   */\n      tag_376\n      jump\t// in\n    tag_468:\n        /* \"#utility.yul\":1690:1827   */\n      swap3\n      swap2\n      pop\n      pop\n      jump\t// out\n        /* \"#utility.yul\":1833:2160   */\n    tag_48:\n        /* \"#utility.yul\":1891:1897   */\n      0x00\n        /* \"#utility.yul\":1940:1942   */\n      0x20\n        /* \"#utility.yul\":1928:1937   */\n      dup3\n        /* \"#utility.yul\":1919:1926   */\n      dup5\n        /* \"#utility.yul\":1915:1938   */\n      sub\n        /* \"#utility.yul\":1911:1943   */\n      slt\n        /* \"#utility.yul\":1908:2027   */\n      iszero\n      tag_470\n      jumpi\n        /* \"#utility.yul\":1946:2025   */\n      tag_471\n      tag_370\n      jump\t// in\n    tag_471:\n        /* \"#utility.yul\":1908:2027   */\n    tag_470:\n        /* \"#utility.yul\":2066:2067   */\n      0x00\n        /* \"#utility.yul\":2091:2143   */\n      tag_472\n        /* \"#utility.yul\":2135:2142   */\n      dup5\n        /* \"#utility.yul\":2126:2132   */\n      dup3\n        /* \"#utility.yul\":2115:2124   */\n      dup6\n        /* \"#utility.yul\":2111:2133   */\n      add\n        /* \"#utility.yul\":2091:2143   */\n      tag_377\n      jump\t// in\n    tag_472:\n        /* \"#utility.yul\":2081:2143   */\n      swap2\n      pop\n        /* \"#utility.yul\":2037:2153   */\n      pop\n        /* \"#utility.yul\":1833:2160   */\n      swap3\n      swap2\n      pop\n      pop\n      jump\t// out\n        /* \"#utility.yul\":2166:2283   */\n    tag_378:\n        /* \"#utility.yul\":2275:2276   */\n      0x00\n        /* \"#utility.yul\":2272:2273   */\n      dup1\n        /* \"#utility.yul\":2265:2277   */\n      revert\n        /* \"#utility.yul\":2289:2391   */\n    tag_379:\n        /* \"#utility.yul\":2330:2336   */\n      0x00\n        /* \"#utility.yul\":2381:2383   */\n      0x1f\n        /* \"#utility.yul\":2377:2384   */\n      not\n        /* \"#utility.yul\":2372:2374   */\n      0x1f\n        /* \"#utility.yul\":2365:2370   */\n      dup4\n        /* \"#utility.yul\":2361:2375   */\n      add\n        /* \"#utility.yul\":2357:2385   */\n      and\n        /* \"#utility.yul\":2347:2385   */\n      swap1\n      pop\n        /* \"#utility.yul\":2289:2391   */\n      swap2\n      swap1\n      pop\n      jump\t// out\n        /* \"#utility.yul\":2397:2577   */\n    tag_343:\n        /* \"#utility.yul\":2445:2522   */\n      0x4e487b7100000000000000000000000000000000000000000000000000000000\n        /* \"#utility.yul\":2442:2443   */\n      0x00\n        /* \"#utility.yul\":2435:2523   */\n      mstore\n        /* \"#utility.yul\":2542:2546   */\n      0x41\n        /* \"#utility.yul\":2539:2540   */\n      0x04\n        /* \"#utility.yul\":2532:2547   */\n      mstore\n        /* \"#utility.yul\":2566:2570   */\n      0x24\n        /* \"#utility.yul\":2563:2564   */\n      0x00\n        /* \"#utility.yul\":2556:2571   */\n      revert\n        /* \"#utility.yul\":2583:2864   */\n    tag_380:\n        /* \"#utility.yul\":2666:2693   */\n      tag_477\n        /* \"#utility.yul\":2688:2692   */\n      dup3\n        /* \"#utility.yul\":2666:2693   */\n      tag_379\n      jump\t// in\n    tag_477:\n        /* \"#utility.yul\":2658:2664   */\n      dup2\n        /* \"#utility.yul\":2654:2694   */\n      add\n        /* \"#utility.yul\":2796:2802   */\n      dup2\n        /* \"#utility.yul\":2784:2794   */\n      dup2\n        /* \"#utility.yul\":2781:2803   */\n      lt\n        /* \"#utility.yul\":2760:2778   */\n      0xffffffffffffffff\n        /* \"#utility.yul\":2748:2758   */\n      dup3\n        /* \"#utility.yul\":2745:2779   */\n      gt\n        /* \"#utility.yul\":2742:2804   */\n      or\n        /* \"#utility.yul\":2739:2827   */\n      iszero\n      tag_478\n      jumpi\n        /* \"#utility.yul\":2807:2825   */\n      tag_479\n      tag_343\n      jump\t// in\n    tag_479:\n        /* \"#utility.yul\":2739:2827   */\n    tag_478:\n        /* \"#utility.yul\":2847:2857   */\n      dup1\n        /* \"#utility.yul\":2843:2845   */\n      0x40\n        /* \"#utility.yul\":2836:2858   */\n      mstore\n        /* \"#utility.yul\":2626:2864   */\n      pop\n        /* \"#utility.yul\":2583:2864   */\n      pop\n      pop\n      jump\t// out\n        /* \"#utility.yul\":2870:2999   */\n    tag_381:\n        /* \"#utility.yul\":2904:2910   */\n      0x00\n        /* \"#utility.yul\":2931:2951   */\n      tag_481\n      tag_369\n      jump\t// in\n    tag_481:\n        /* \"#utility.yul\":2921:2951   */\n      swap1\n      pop\n        /* \"#utility.yul\":2960:2993   */\n      tag_482\n        /* \"#utility.yul\":2988:2992   */\n      dup3\n        /* \"#utility.yul\":2980:2986   */\n      dup3\n        /* \"#utility.yul\":2960:2993   */\n      tag_380\n      jump\t// in\n    tag_482:\n        /* \"#utility.yul\":2870:2999   */\n      swap2\n      swap1\n      pop\n      jump\t// out\n        /* \"#utility.yul\":3005:3316   */\n    tag_382:\n        /* \"#utility.yul\":3082:3086   */\n      0x00\n        /* \"#utility.yul\":3172:3190   */\n      0xffffffffffffffff\n        /* \"#utility.yul\":3164:3170   */\n      dup3\n        /* \"#utility.yul\":3161:3191   */\n      gt\n        /* \"#utility.yul\":3158:3214   */\n      iszero\n      tag_484\n      jumpi\n        /* \"#utility.yul\":3194:3212   */\n      tag_485\n      tag_343\n      jump\t// in\n    tag_485:\n        /* \"#utility.yul\":3158:3214   */\n    tag_484:\n        /* \"#utility.yul\":3244:3248   */\n      0x20\n        /* \"#utility.yul\":3236:3242   */\n      dup3\n        /* \"#utility.yul\":3232:3249   */\n      mul\n        /* \"#utility.yul\":3224:3249   */\n      swap1\n      pop\n        /* \"#utility.yul\":3304:3308   */\n      0x20\n        /* \"#utility.yul\":3298:3302   */\n      dup2\n        /* \"#utility.yul\":3294:3309   */\n      add\n        /* \"#utility.yul\":3286:3309   */\n      swap1\n      pop\n        /* \"#utility.yul\":3005:3316   */\n      swap2\n      swap1\n      pop\n      jump\t// out\n        /* \"#utility.yul\":3322:3439   */\n    tag_383:\n        /* \"#utility.yul\":3431:3432   */\n      0x00\n        /* \"#utility.yul\":3428:3429   */\n      dup1\n        /* \"#utility.yul\":3421:3433   */\n      revert\n        /* \"#utility.yul\":3462:4172   */\n    tag_384:\n        /* \"#utility.yul\":3558:3563   */\n      0x00\n        /* \"#utility.yul\":3583:3664   */\n      tag_488\n        /* \"#utility.yul\":3599:3663   */\n      tag_489\n        /* \"#utility.yul\":3656:3662   */\n      dup5\n        /* \"#utility.yul\":3599:3663   */\n      tag_382\n      jump\t// in\n    tag_489:\n        /* \"#utility.yul\":3583:3664   */\n      tag_381\n      jump\t// in\n    tag_488:\n        /* \"#utility.yul\":3574:3664   */\n      swap1\n      pop\n        /* \"#utility.yul\":3684:3689   */\n      dup1\n        /* \"#utility.yul\":3713:3719   */\n      dup4\n        /* \"#utility.yul\":3706:3711   */\n      dup3\n        /* \"#utility.yul\":3699:3720   */\n      mstore\n        /* \"#utility.yul\":3747:3751   */\n      0x20\n        /* \"#utility.yul\":3740:3745   */\n      dup3\n        /* \"#utility.yul\":3736:3752   */\n      add\n        /* \"#utility.yul\":3729:3752   */\n      swap1\n      pop\n        /* \"#utility.yul\":3800:3804   */\n      0x20\n        /* \"#utility.yul\":3792:3798   */\n      dup5\n        /* \"#utility.yul\":3788:3805   */\n      mul\n        /* \"#utility.yul\":3780:3786   */\n      dup4\n        /* \"#utility.yul\":3776:3806   */\n      add\n        /* \"#utility.yul\":3829:3832   */\n      dup6\n        /* \"#utility.yul\":3821:3827   */\n      dup2\n        /* \"#utility.yul\":3818:3833   */\n      gt\n        /* \"#utility.yul\":3815:3937   */\n      iszero\n      tag_490\n      jumpi\n        /* \"#utility.yul\":3848:3927   */\n      tag_491\n      tag_383\n      jump\t// in\n    tag_491:\n        /* \"#utility.yul\":3815:3937   */\n    tag_490:\n        /* \"#utility.yul\":3963:3969   */\n      dup4\n        /* \"#utility.yul\":3946:4166   */\n    tag_492:\n        /* \"#utility.yul\":3980:3986   */\n      dup2\n        /* \"#utility.yul\":3975:3978   */\n      dup2\n        /* \"#utility.yul\":3972:3987   */\n      lt\n        /* \"#utility.yul\":3946:4166   */\n      iszero\n      tag_494\n      jumpi\n        /* \"#utility.yul\":4055:4058   */\n      dup1\n        /* \"#utility.yul\":4084:4121   */\n      tag_495\n        /* \"#utility.yul\":4117:4120   */\n      dup9\n        /* \"#utility.yul\":4105:4115   */\n      dup3\n        /* \"#utility.yul\":4084:4121   */\n      tag_374\n      jump\t// in\n    tag_495:\n        /* \"#utility.yul\":4079:4082   */\n      dup5\n        /* \"#utility.yul\":4072:4122   */\n      mstore\n        /* \"#utility.yul\":4151:4155   */\n      0x20\n        /* \"#utility.yul\":4146:4149   */\n      dup5\n        /* \"#utility.yul\":4142:4156   */\n      add\n        /* \"#utility.yul\":4135:4156   */\n      swap4\n      pop\n        /* \"#utility.yul\":4022:4166   */\n      pop\n        /* \"#utility.yul\":4006:4010   */\n      0x20\n        /* \"#utility.yul\":4001:4004   */\n      dup2\n        /* \"#utility.yul\":3997:4011   */\n      add\n        /* \"#utility.yul\":3990:4011   */\n      swap1\n      pop\n        /* \"#utility.yul\":3946:4166   */\n      jump(tag_492)\n    tag_494:\n        /* \"#utility.yul\":3950:3971   */\n      pop\n        /* \"#utility.yul\":3564:4172   */\n      pop\n      pop\n        /* \"#utility.yul\":3462:4172   */\n      swap4\n      swap3\n      pop\n      pop\n      pop\n      jump\t// out\n        /* \"#utility.yul\":4195:4565   */\n    tag_385:\n        /* \"#utility.yul\":4266:4271   */\n      0x00\n        /* \"#utility.yul\":4315:4318   */\n      dup3\n        /* \"#utility.yul\":4308:4312   */\n      0x1f\n        /* \"#utility.yul\":4300:4306   */\n      dup4\n        /* \"#utility.yul\":4296:4313   */\n      add\n        /* \"#utility.yul\":4292:4319   */\n      slt\n        /* \"#utility.yul\":4282:4404   */\n      tag_497\n      jumpi\n        /* \"#utility.yul\":4323:4402   */\n      tag_498\n      tag_378\n      jump\t// in\n    tag_498:\n        /* \"#utility.yul\":4282:4404   */\n    tag_497:\n        /* \"#utility.yul\":4440:4446   */\n      dup2\n        /* \"#utility.yul\":4427:4447   */\n      calldataload\n        /* \"#utility.yul\":4465:4559   */\n      tag_499\n        /* \"#utility.yul\":4555:4558   */\n      dup5\n        /* \"#utility.yul\":4547:4553   */\n      dup3\n        /* \"#utility.yul\":4540:4544   */\n      0x20\n        /* \"#utility.yul\":4532:4538   */\n      dup7\n        /* \"#utility.yul\":4528:4545   */\n      add\n        /* \"#utility.yul\":4465:4559   */\n      tag_384\n      jump\t// in\n    tag_499:\n        /* \"#utility.yul\":4456:4559   */\n      swap2\n      pop\n        /* \"#utility.yul\":4272:4565   */\n      pop\n        /* \"#utility.yul\":4195:4565   */\n      swap3\n      swap2\n      pop\n      pop\n      jump\t// out\n        /* \"#utility.yul\":4571:5255   */\n    tag_52:\n        /* \"#utility.yul\":4664:4670   */\n      0x00\n        /* \"#utility.yul\":4672:4678   */\n      dup1\n        /* \"#utility.yul\":4721:4723   */\n      0x40\n        /* \"#utility.yul\":4709:4718   */\n      dup4\n        /* \"#utility.yul\":4700:4707   */\n      dup6\n        /* \"#utility.yul\":4696:4719   */\n      sub\n        /* \"#utility.yul\":4692:4724   */\n      slt\n        /* \"#utility.yul\":4689:4808   */\n      iszero\n      tag_501\n      jumpi\n        /* \"#utility.yul\":4727:4806   */\n      tag_502\n      tag_370\n      jump\t// in\n    tag_502:\n        /* \"#utility.yul\":4689:4808   */\n    tag_501:\n        /* \"#utility.yul\":4847:4848   */\n      0x00\n        /* \"#utility.yul\":4872:4925   */\n      tag_503\n        /* \"#utility.yul\":4917:4924   */\n      dup6\n        /* \"#utility.yul\":4908:4914   */\n      dup3\n        /* \"#utility.yul\":4897:4906   */\n      dup7\n        /* \"#utility.yul\":4893:4915   */\n      add\n        /* \"#utility.yul\":4872:4925   */\n      tag_374\n      jump\t// in\n    tag_503:\n        /* \"#utility.yul\":4862:4925   */\n      swap3\n      pop\n        /* \"#utility.yul\":4818:4935   */\n      pop\n        /* \"#utility.yul\":5002:5004   */\n      0x20\n        /* \"#utility.yul\":4991:5000   */\n      dup4\n        /* \"#utility.yul\":4987:5005   */\n      add\n        /* \"#utility.yul\":4974:5006   */\n      calldataload\n        /* \"#utility.yul\":5033:5051   */\n      0xffffffffffffffff\n        /* \"#utility.yul\":5025:5031   */\n      dup2\n        /* \"#utility.yul\":5022:5052   */\n      gt\n        /* \"#utility.yul\":5019:5136   */\n      iszero\n      tag_504\n      jumpi\n        /* \"#utility.yul\":5055:5134   */\n      tag_505\n      tag_371\n      jump\t// in\n    tag_505:\n        /* \"#utility.yul\":5019:5136   */\n    tag_504:\n        /* \"#utility.yul\":5160:5238   */\n      tag_506\n        /* \"#utility.yul\":5230:5237   */\n      dup6\n        /* \"#utility.yul\":5221:5227   */\n      dup3\n        /* \"#utility.yul\":5210:5219   */\n      dup7\n        /* \"#utility.yul\":5206:5228   */\n      add\n        /* \"#utility.yul\":5160:5238   */\n      tag_385\n      jump\t// in\n    tag_506:\n        /* \"#utility.yul\":5150:5238   */\n      swap2\n      pop\n        /* \"#utility.yul\":4945:5248   */\n      pop\n        /* \"#utility.yul\":4571:5255   */\n      swap3\n      pop\n      swap3\n      swap1\n      pop\n      jump\t// out\n        /* \"#utility.yul\":5261:5387   */\n    tag_386:\n        /* \"#utility.yul\":5298:5305   */\n      0x00\n        /* \"#utility.yul\":5338:5380   */\n      0xffffffffffffffffffffffffffffffffffffffff\n        /* \"#utility.yul\":5331:5336   */\n      dup3\n        /* \"#utility.yul\":5327:5381   */\n      and\n        /* \"#utility.yul\":5316:5381   */\n      swap1\n      pop\n        /* \"#utility.yul\":5261:5387   */\n      swap2\n      swap1\n      pop\n      jump\t// out\n        /* \"#utility.yul\":5393:5489   */\n    tag_387:\n        /* \"#utility.yul\":5430:5437   */\n      0x00\n        /* \"#utility.yul\":5459:5483   */\n      tag_509\n        /* \"#utility.yul\":5477:5482   */\n      dup3\n        /* \"#utility.yul\":5459:5483   */\n      tag_386\n      jump\t// in\n    tag_509:\n        /* \"#utility.yul\":5448:5483   */\n      swap1\n      pop\n        /* \"#utility.yul\":5393:5489   */\n      swap2\n      swap1\n      pop\n      jump\t// out\n        /* \"#utility.yul\":5495:5613   */\n    tag_388:\n        /* \"#utility.yul\":5582:5606   */\n      tag_511\n        /* \"#utility.yul\":5600:5605   */\n      dup2\n        /* \"#utility.yul\":5582:5606   */\n      tag_387\n      jump\t// in\n    tag_511:\n        /* \"#utility.yul\":5577:5580   */\n      dup3\n        /* \"#utility.yul\":5570:5607   */\n      mstore\n        /* \"#utility.yul\":5495:5613   */\n      pop\n      pop\n      jump\t// out\n        /* \"#utility.yul\":5619:5841   */\n    tag_60:\n        /* \"#utility.yul\":5712:5716   */\n      0x00\n        /* \"#utility.yul\":5750:5752   */\n      0x20\n        /* \"#utility.yul\":5739:5748   */\n      dup3\n        /* \"#utility.yul\":5735:5753   */\n      add\n        /* \"#utility.yul\":5727:5753   */\n      swap1\n      pop\n        /* \"#utility.yul\":5763:5834   */\n      tag_513\n        /* \"#utility.yul\":5831:5832   */\n      0x00\n        /* \"#utility.yul\":5820:5829   */\n      dup4\n        /* \"#utility.yul\":5816:5833   */\n      add\n        /* \"#utility.yul\":5807:5813   */\n      dup5\n        /* \"#utility.yul\":5763:5834   */\n      tag_388\n      jump\t// in\n    tag_513:\n        /* \"#utility.yul\":5619:5841   */\n      swap3\n      swap2\n      pop\n      pop\n      jump\t// out\n        /* \"#utility.yul\":5847:5969   */\n    tag_389:\n        /* \"#utility.yul\":5920:5944   */\n      tag_515\n        /* \"#utility.yul\":5938:5943   */\n      dup2\n        /* \"#utility.yul\":5920:5944   */\n      tag_387\n      jump\t// in\n    tag_515:\n        /* \"#utility.yul\":5913:5918   */\n      dup2\n        /* \"#utility.yul\":5910:5945   */\n      eq\n        /* \"#utility.yul\":5900:5963   */\n      tag_516\n      jumpi\n        /* \"#utility.yul\":5959:5960   */\n      0x00\n        /* \"#utility.yul\":5956:5957   */\n      dup1\n        /* \"#utility.yul\":5949:5961   */\n      revert\n        /* \"#utility.yul\":5900:5963   */\n    tag_516:\n        /* \"#utility.yul\":5847:5969   */\n      pop\n      jump\t// out\n        /* \"#utility.yul\":5975:6114   */\n    tag_390:\n        /* \"#utility.yul\":6021:6026   */\n      0x00\n        /* \"#utility.yul\":6059:6065   */\n      dup2\n        /* \"#utility.yul\":6046:6066   */\n      calldataload\n        /* \"#utility.yul\":6037:6066   */\n      swap1\n      pop\n        /* \"#utility.yul\":6075:6108   */\n      tag_518\n        /* \"#utility.yul\":6102:6107   */\n      dup2\n        /* \"#utility.yul\":6075:6108   */\n      tag_389\n      jump\t// in\n    tag_518:\n        /* \"#utility.yul\":5975:6114   */\n      swap3\n      swap2\n      pop\n      pop\n      jump\t// out\n        /* \"#utility.yul\":6120:6449   */\n    tag_63:\n        /* \"#utility.yul\":6179:6185   */\n      0x00\n        /* \"#utility.yul\":6228:6230   */\n      0x20\n        /* \"#utility.yul\":6216:6225   */\n      dup3\n        /* \"#utility.yul\":6207:6214   */\n      dup5\n        /* \"#utility.yul\":6203:6226   */\n      sub\n        /* \"#utility.yul\":6199:6231   */\n      slt\n        /* \"#utility.yul\":6196:6315   */\n      iszero\n      tag_520\n      jumpi\n        /* \"#utility.yul\":6234:6313   */\n      tag_521\n      tag_370\n      jump\t// in\n    tag_521:\n        /* \"#utility.yul\":6196:6315   */\n    tag_520:\n        /* \"#utility.yul\":6354:6355   */\n      0x00\n        /* \"#utility.yul\":6379:6432   */\n      tag_522\n        /* \"#utility.yul\":6424:6431   */\n      dup5\n        /* \"#utility.yul\":6415:6421   */\n      dup3\n        /* \"#utility.yul\":6404:6413   */\n      dup6\n        /* \"#utility.yul\":6400:6422   */\n      add\n        /* \"#utility.yul\":6379:6432   */\n      tag_390\n      jump\t// in\n    tag_522:\n        /* \"#utility.yul\":6369:6432   */\n      swap2\n      pop\n        /* \"#utility.yul\":6325:6442   */\n      pop\n        /* \"#utility.yul\":6120:6449   */\n      swap3\n      swap2\n      pop\n      pop\n      jump\t// out\n        /* \"#utility.yul\":6455:6573   */\n    tag_391:\n        /* \"#utility.yul\":6542:6566   */\n      tag_524\n        /* \"#utility.yul\":6560:6565   */\n      dup2\n        /* \"#utility.yul\":6542:6566   */\n      tag_372\n      jump\t// in\n    tag_524:\n        /* \"#utility.yul\":6537:6540   */\n      dup3\n        /* \"#utility.yul\":6530:6567   */\n      mstore\n        /* \"#utility.yul\":6455:6573   */\n      pop\n      pop\n      jump\t// out\n        /* \"#utility.yul\":6579:6801   */\n    tag_66:\n        /* \"#utility.yul\":6672:6676   */\n      0x00\n        /* \"#utility.yul\":6710:6712   */\n      0x20\n        /* \"#utility.yul\":6699:6708   */\n      dup3\n        /* \"#utility.yul\":6695:6713   */\n      add\n        /* \"#utility.yul\":6687:6713   */\n      swap1\n      pop\n        /* \"#utility.yul\":6723:6794   */\n      tag_526\n        /* \"#utility.yul\":6791:6792   */\n      0x00\n        /* \"#utility.yul\":6780:6789   */\n      dup4\n        /* \"#utility.yul\":6776:6793   */\n      add\n        /* \"#utility.yul\":6767:6773   */\n      dup5\n        /* \"#utility.yul\":6723:6794   */\n      tag_391\n      jump\t// in\n    tag_526:\n        /* \"#utility.yul\":6579:6801   */\n      swap3\n      swap2\n      pop\n      pop\n      jump\t// out\n        /* \"#utility.yul\":6807:6893   */\n    tag_392:\n        /* \"#utility.yul\":6842:6849   */\n      0x00\n        /* \"#utility.yul\":6882:6886   */\n      0xff\n        /* \"#utility.yul\":6875:6880   */\n      dup3\n        /* \"#utility.yul\":6871:6887   */\n      and\n        /* \"#utility.yul\":6860:6887   */\n      swap1\n      pop\n        /* \"#utility.yul\":6807:6893   */\n      swap2\n      swap1\n      pop\n      jump\t// out\n        /* \"#utility.yul\":6899:7011   */\n    tag_393:\n        /* \"#utility.yul\":6982:7004   */\n      tag_529\n        /* \"#utility.yul\":6998:7003   */\n      dup2\n        /* \"#utility.yul\":6982:7004   */\n      tag_392\n      jump\t// in\n    tag_529:\n        /* \"#utility.yul\":6977:6980   */\n      dup3\n        /* \"#utility.yul\":6970:7005   */\n      mstore\n        /* \"#utility.yul\":6899:7011   */\n      pop\n      pop\n      jump\t// out\n        /* \"#utility.yul\":7017:7231   */\n    tag_88:\n        /* \"#utility.yul\":7106:7110   */\n      0x00\n        /* \"#utility.yul\":7144:7146   */\n      0x20\n        /* \"#utility.yul\":7133:7142   */\n      dup3\n        /* \"#utility.yul\":7129:7147   */\n      add\n        /* \"#utility.yul\":7121:7147   */\n      swap1\n      pop\n        /* \"#utility.yul\":7157:7224   */\n      tag_531\n        /* \"#utility.yul\":7221:7222   */\n      0x00\n        /* \"#utility.yul\":7210:7219   */\n      dup4\n        /* \"#utility.yul\":7206:7223   */\n      add\n        /* \"#utility.yul\":7197:7203   */\n      dup5\n        /* \"#utility.yul\":7157:7224   */\n      tag_393\n      jump\t// in\n    tag_531:\n        /* \"#utility.yul\":7017:7231   */\n      swap3\n      swap2\n      pop\n      pop\n      jump\t// out\n        /* \"#utility.yul\":7237:7327   */\n    tag_394:\n        /* \"#utility.yul\":7271:7278   */\n      0x00\n        /* \"#utility.yul\":7314:7319   */\n      dup2\n        /* \"#utility.yul\":7307:7320   */\n      iszero\n        /* \"#utility.yul\":7300:7321   */\n      iszero\n        /* \"#utility.yul\":7289:7321   */\n      swap1\n      pop\n        /* \"#utility.yul\":7237:7327   */\n      swap2\n      swap1\n      pop\n      jump\t// out\n        /* \"#utility.yul\":7333:7442   */\n    tag_395:\n        /* \"#utility.yul\":7414:7435   */\n      tag_534\n        /* \"#utility.yul\":7429:7434   */\n      dup2\n        /* \"#utility.yul\":7414:7435   */\n      tag_394\n      jump\t// in\n    tag_534:\n        /* \"#utility.yul\":7409:7412   */\n      dup3\n        /* \"#utility.yul\":7402:7436   */\n      mstore\n        /* \"#utility.yul\":7333:7442   */\n      pop\n      pop\n      jump\t// out\n        /* \"#utility.yul\":7448:7756   */\n    tag_93:\n        /* \"#utility.yul\":7557:7561   */\n      0x00\n        /* \"#utility.yul\":7595:7597   */\n      0x40\n        /* \"#utility.yul\":7584:7593   */\n      dup3\n        /* \"#utility.yul\":7580:7598   */\n      add\n        /* \"#utility.yul\":7572:7598   */\n      swap1\n      pop\n        /* \"#utility.yul\":7608:7673   */\n      tag_536\n        /* \"#utility.yul\":7670:7671   */\n      0x00\n        /* \"#utility.yul\":7659:7668   */\n      dup4\n        /* \"#utility.yul\":7655:7672   */\n      add\n        /* \"#utility.yul\":7646:7652   */\n      dup6\n        /* \"#utility.yul\":7608:7673   */\n      tag_395\n      jump\t// in\n    tag_536:\n        /* \"#utility.yul\":7683:7749   */\n      tag_537\n        /* \"#utility.yul\":7745:7747   */\n      0x20\n        /* \"#utility.yul\":7734:7743   */\n      dup4\n        /* \"#utility.yul\":7730:7748   */\n      add\n        /* \"#utility.yul\":7721:7727   */\n      dup5\n        /* \"#utility.yul\":7683:7749   */\n      tag_395\n      jump\t// in\n    tag_537:\n        /* \"#utility.yul\":7448:7756   */\n      swap4\n      swap3\n      pop\n      pop\n      pop\n      jump\t// out\n        /* \"#utility.yul\":7762:7880   */\n    tag_396:\n        /* \"#utility.yul\":7833:7855   */\n      tag_539\n        /* \"#utility.yul\":7849:7854   */\n      dup2\n        /* \"#utility.yul\":7833:7855   */\n      tag_392\n      jump\t// in\n    tag_539:\n        /* \"#utility.yul\":7826:7831   */\n      dup2\n        /* \"#utility.yul\":7823:7856   */\n      eq\n        /* \"#utility.yul\":7813:7874   */\n      tag_540\n      jumpi\n        /* \"#utility.yul\":7870:7871   */\n      0x00\n        /* \"#utility.yul\":7867:7868   */\n      dup1\n        /* \"#utility.yul\":7860:7872   */\n      revert\n        /* \"#utility.yul\":7813:7874   */\n    tag_540:\n        /* \"#utility.yul\":7762:7880   */\n      pop\n      jump\t// out\n        /* \"#utility.yul\":7886:8021   */\n    tag_397:\n        /* \"#utility.yul\":7930:7935   */\n      0x00\n        /* \"#utility.yul\":7968:7974   */\n      dup2\n        /* \"#utility.yul\":7955:7975   */\n      calldataload\n        /* \"#utility.yul\":7946:7975   */\n      swap1\n      pop\n        /* \"#utility.yul\":7984:8015   */\n      tag_542\n        /* \"#utility.yul\":8009:8014   */\n      dup2\n        /* \"#utility.yul\":7984:8015   */\n      tag_396\n      jump\t// in\n    tag_542:\n        /* \"#utility.yul\":7886:8021   */\n      swap3\n      swap2\n      pop\n      pop\n      jump\t// out\n        /* \"#utility.yul\":8027:8352   */\n    tag_108:\n        /* \"#utility.yul\":8084:8090   */\n      0x00\n        /* \"#utility.yul\":8133:8135   */\n      0x20\n        /* \"#utility.yul\":8121:8130   */\n      dup3\n        /* \"#utility.yul\":8112:8119   */\n      dup5\n        /* \"#utility.yul\":8108:8131   */\n      sub\n        /* \"#utility.yul\":8104:8136   */\n      slt\n        /* \"#utility.yul\":8101:8220   */\n      iszero\n      tag_544\n      jumpi\n        /* \"#utility.yul\":8139:8218   */\n      tag_545\n      tag_370\n      jump\t// in\n    tag_545:\n        /* \"#utility.yul\":8101:8220   */\n    tag_544:\n        /* \"#utility.yul\":8259:8260   */\n      0x00\n        /* \"#utility.yul\":8284:8335   */\n      tag_546\n        /* \"#utility.yul\":8327:8334   */\n      dup5\n        /* \"#utility.yul\":8318:8324   */\n      dup3\n        /* \"#utility.yul\":8307:8316   */\n      dup6\n        /* \"#utility.yul\":8303:8325   */\n      add\n        /* \"#utility.yul\":8284:8335   */\n      tag_397\n      jump\t// in\n    tag_546:\n        /* \"#utility.yul\":8274:8335   */\n      swap2\n      pop\n        /* \"#utility.yul\":8230:8345   */\n      pop\n        /* \"#utility.yul\":8027:8352   */\n      swap3\n      swap2\n      pop\n      pop\n      jump\t// out\n        /* \"#utility.yul\":8358:8690   */\n    tag_120:\n        /* \"#utility.yul\":8479:8483   */\n      0x00\n        /* \"#utility.yul\":8517:8519   */\n      0x40\n        /* \"#utility.yul\":8506:8515   */\n      dup3\n        /* \"#utility.yul\":8502:8520   */\n      add\n        /* \"#utility.yul\":8494:8520   */\n      swap1\n      pop\n        /* \"#utility.yul\":8530:8601   */\n      tag_548\n        /* \"#utility.yul\":8598:8599   */\n      0x00\n        /* \"#utility.yul\":8587:8596   */\n      dup4\n        /* \"#utility.yul\":8583:8600   */\n      add\n        /* \"#utility.yul\":8574:8580   */\n      dup6\n        /* \"#utility.yul\":8530:8601   */\n      tag_391\n      jump\t// in\n    tag_548:\n        /* \"#utility.yul\":8611:8683   */\n      tag_549\n        /* \"#utility.yul\":8679:8681   */\n      0x20\n        /* \"#utility.yul\":8668:8677   */\n      dup4\n        /* \"#utility.yul\":8664:8682   */\n      add\n        /* \"#utility.yul\":8655:8661   */\n      dup5\n        /* \"#utility.yul\":8611:8683   */\n      tag_391\n      jump\t// in\n    tag_549:\n        /* \"#utility.yul\":8358:8690   */\n      swap4\n      swap3\n      pop\n      pop\n      pop\n      jump\t// out\n        /* \"#utility.yul\":8696:8811   */\n    tag_398:\n        /* \"#utility.yul\":8781:8804   */\n      tag_551\n        /* \"#utility.yul\":8798:8803   */\n      dup2\n        /* \"#utility.yul\":8781:8804   */\n      tag_375\n      jump\t// in\n    tag_551:\n        /* \"#utility.yul\":8776:8779   */\n      dup3\n        /* \"#utility.yul\":8769:8805   */\n      mstore\n        /* \"#utility.yul\":8696:8811   */\n      pop\n      pop\n      jump\t// out\n        /* \"#utility.yul\":8817:9035   */\n    tag_124:\n        /* \"#utility.yul\":8908:8912   */\n      0x00\n        /* \"#utility.yul\":8946:8948   */\n      0x20\n        /* \"#utility.yul\":8935:8944   */\n      dup3\n        /* \"#utility.yul\":8931:8949   */\n      add\n        /* \"#utility.yul\":8923:8949   */\n      swap1\n      pop\n        /* \"#utility.yul\":8959:9028   */\n      tag_553\n        /* \"#utility.yul\":9025:9026   */\n      0x00\n        /* \"#utility.yul\":9014:9023   */\n      dup4\n        /* \"#utility.yul\":9010:9027   */\n      add\n        /* \"#utility.yul\":9001:9007   */\n      dup5\n        /* \"#utility.yul\":8959:9028   */\n      tag_398\n      jump\t// in\n    tag_553:\n        /* \"#utility.yul\":8817:9035   */\n      swap3\n      swap2\n      pop\n      pop\n      jump\t// out\n        /* \"#utility.yul\":9041:9251   */\n    tag_132:\n        /* \"#utility.yul\":9128:9132   */\n      0x00\n        /* \"#utility.yul\":9166:9168   */\n      0x20\n        /* \"#utility.yul\":9155:9164   */\n      dup3\n        /* \"#utility.yul\":9151:9169   */\n      add\n        /* \"#utility.yul\":9143:9169   */\n      swap1\n      pop\n        /* \"#utility.yul\":9179:9244   */\n      tag_555\n        /* \"#utility.yul\":9241:9242   */\n      0x00\n        /* \"#utility.yul\":9230:9239   */\n      dup4\n        /* \"#utility.yul\":9226:9243   */\n      add\n        /* \"#utility.yul\":9217:9223   */\n      dup5\n        /* \"#utility.yul\":9179:9244   */\n      tag_395\n      jump\t// in\n    tag_555:\n        /* \"#utility.yul\":9041:9251   */\n      swap3\n      swap2\n      pop\n      pop\n      jump\t// out\n        /* \"#utility.yul\":9257:9437   */\n    tag_399:\n        /* \"#utility.yul\":9305:9382   */\n      0x4e487b7100000000000000000000000000000000000000000000000000000000\n        /* \"#utility.yul\":9302:9303   */\n      0x00\n        /* \"#utility.yul\":9295:9383   */\n      mstore\n        /* \"#utility.yul\":9402:9406   */\n      0x11\n        /* \"#utility.yul\":9399:9400   */\n      0x04\n        /* \"#utility.yul\":9392:9407   */\n      mstore\n        /* \"#utility.yul\":9426:9430   */\n      0x24\n        /* \"#utility.yul\":9423:9424   */\n      0x00\n        /* \"#utility.yul\":9416:9431   */\n      revert\n        /* \"#utility.yul\":9443:9853   */\n    tag_134:\n        /* \"#utility.yul\":9483:9490   */\n      0x00\n        /* \"#utility.yul\":9506:9526   */\n      tag_558\n        /* \"#utility.yul\":9524:9525   */\n      dup3\n        /* \"#utility.yul\":9506:9526   */\n      tag_372\n      jump\t// in\n    tag_558:\n        /* \"#utility.yul\":9501:9526   */\n      swap2\n      pop\n        /* \"#utility.yul\":9540:9560   */\n      tag_559\n        /* \"#utility.yul\":9558:9559   */\n      dup4\n        /* \"#utility.yul\":9540:9560   */\n      tag_372\n      jump\t// in\n    tag_559:\n        /* \"#utility.yul\":9535:9560   */\n      swap3\n      pop\n        /* \"#utility.yul\":9595:9596   */\n      dup3\n        /* \"#utility.yul\":9592:9593   */\n      dup3\n        /* \"#utility.yul\":9588:9597   */\n      mul\n        /* \"#utility.yul\":9617:9647   */\n      tag_560\n        /* \"#utility.yul\":9635:9646   */\n      dup2\n        /* \"#utility.yul\":9617:9647   */\n      tag_372\n      jump\t// in\n    tag_560:\n        /* \"#utility.yul\":9606:9647   */\n      swap2\n      pop\n        /* \"#utility.yul\":9796:9797   */\n      dup3\n        /* \"#utility.yul\":9787:9794   */\n      dup3\n        /* \"#utility.yul\":9783:9798   */\n      div\n        /* \"#utility.yul\":9780:9781   */\n      dup5\n        /* \"#utility.yul\":9777:9799   */\n      eq\n        /* \"#utility.yul\":9757:9758   */\n      dup4\n        /* \"#utility.yul\":9750:9759   */\n      iszero\n        /* \"#utility.yul\":9730:9813   */\n      or\n        /* \"#utility.yul\":9707:9846   */\n      tag_561\n      jumpi\n        /* \"#utility.yul\":9826:9844   */\n      tag_562\n      tag_399\n      jump\t// in\n    tag_562:\n        /* \"#utility.yul\":9707:9846   */\n    tag_561:\n        /* \"#utility.yul\":9491:9853   */\n      pop\n        /* \"#utility.yul\":9443:9853   */\n      swap3\n      swap2\n      pop\n      pop\n      jump\t// out\n        /* \"#utility.yul\":9859:10002   */\n    tag_400:\n        /* \"#utility.yul\":9916:9921   */\n      0x00\n        /* \"#utility.yul\":9947:9953   */\n      dup2\n        /* \"#utility.yul\":9941:9954   */\n      mload\n        /* \"#utility.yul\":9932:9954   */\n      swap1\n      pop\n        /* \"#utility.yul\":9963:9996   */\n      tag_564\n        /* \"#utility.yul\":9990:9995   */\n      dup2\n        /* \"#utility.yul\":9963:9996   */\n      tag_373\n      jump\t// in\n    tag_564:\n        /* \"#utility.yul\":9859:10002   */\n      swap3\n      swap2\n      pop\n      pop\n      jump\t// out\n        /* \"#utility.yul\":10008:10359   */\n    tag_140:\n        /* \"#utility.yul\":10078:10084   */\n      0x00\n        /* \"#utility.yul\":10127:10129   */\n      0x20\n        /* \"#utility.yul\":10115:10124   */\n      dup3\n        /* \"#utility.yul\":10106:10113   */\n      dup5\n        /* \"#utility.yul\":10102:10125   */\n      sub\n        /* \"#utility.yul\":10098:10130   */\n      slt\n        /* \"#utility.yul\":10095:10214   */\n      iszero\n      tag_566\n      jumpi\n        /* \"#utility.yul\":10133:10212   */\n      tag_567\n      tag_370\n      jump\t// in\n    tag_567:\n        /* \"#utility.yul\":10095:10214   */\n    tag_566:\n        /* \"#utility.yul\":10253:10254   */\n      0x00\n        /* \"#utility.yul\":10278:10342   */\n      tag_568\n        /* \"#utility.yul\":10334:10341   */\n      dup5\n        /* \"#utility.yul\":10325:10331   */\n      dup3\n        /* \"#utility.yul\":10314:10323   */\n      dup6\n        /* \"#utility.yul\":10310:10332   */\n      add\n        /* \"#utility.yul\":10278:10342   */\n      tag_400\n      jump\t// in\n    tag_568:\n        /* \"#utility.yul\":10268:10342   */\n      swap2\n      pop\n        /* \"#utility.yul\":10224:10352   */\n      pop\n        /* \"#utility.yul\":10008:10359   */\n      swap3\n      swap2\n      pop\n      pop\n      jump\t// out\n        /* \"#utility.yul\":10365:10534   */\n    tag_401:\n        /* \"#utility.yul\":10449:10460   */\n      0x00\n        /* \"#utility.yul\":10483:10489   */\n      dup3\n        /* \"#utility.yul\":10478:10481   */\n      dup3\n        /* \"#utility.yul\":10471:10490   */\n      mstore\n        /* \"#utility.yul\":10523:10527   */\n      0x20\n        /* \"#utility.yul\":10518:10521   */\n      dup3\n        /* \"#utility.yul\":10514:10528   */\n      add\n        /* \"#utility.yul\":10499:10528   */\n      swap1\n      pop\n        /* \"#utility.yul\":10365:10534   */\n      swap3\n      swap2\n      pop\n      pop\n      jump\t// out\n        /* \"#utility.yul\":10540:10773   */\n    tag_402:\n        /* \"#utility.yul\":10680:10714   */\n      0x4e6f7420656e6f75676820534c5420696e20636f6e747261637420746f20656e\n        /* \"#utility.yul\":10676:10677   */\n      0x00\n        /* \"#utility.yul\":10668:10674   */\n      dup3\n        /* \"#utility.yul\":10664:10678   */\n      add\n        /* \"#utility.yul\":10657:10715   */\n      mstore\n        /* \"#utility.yul\":10749:10765   */\n      0x61626c6520746869732064726177000000000000000000000000000000000000\n        /* \"#utility.yul\":10744:10746   */\n      0x20\n        /* \"#utility.yul\":10736:10742   */\n      dup3\n        /* \"#utility.yul\":10732:10747   */\n      add\n        /* \"#utility.yul\":10725:10766   */\n      mstore\n        /* \"#utility.yul\":10540:10773   */\n      pop\n      jump\t// out\n        /* \"#utility.yul\":10779:11145   */\n    tag_403:\n        /* \"#utility.yul\":10921:10924   */\n      0x00\n        /* \"#utility.yul\":10942:11009   */\n      tag_572\n        /* \"#utility.yul\":11006:11008   */\n      0x2e\n        /* \"#utility.yul\":11001:11004   */\n      dup4\n        /* \"#utility.yul\":10942:11009   */\n      tag_401\n      jump\t// in\n    tag_572:\n        /* \"#utility.yul\":10935:11009   */\n      swap2\n      pop\n        /* \"#utility.yul\":11018:11111   */\n      tag_573\n        /* \"#utility.yul\":11107:11110   */\n      dup3\n        /* \"#utility.yul\":11018:11111   */\n      tag_402\n      jump\t// in\n    tag_573:\n        /* \"#utility.yul\":11136:11138   */\n      0x40\n        /* \"#utility.yul\":11131:11134   */\n      dup3\n        /* \"#utility.yul\":11127:11139   */\n      add\n        /* \"#utility.yul\":11120:11139   */\n      swap1\n      pop\n        /* \"#utility.yul\":10779:11145   */\n      swap2\n      swap1\n      pop\n      jump\t// out\n        /* \"#utility.yul\":11151:11570   */\n    tag_143:\n        /* \"#utility.yul\":11317:11321   */\n      0x00\n        /* \"#utility.yul\":11355:11357   */\n      0x20\n        /* \"#utility.yul\":11344:11353   */\n      dup3\n        /* \"#utility.yul\":11340:11358   */\n      add\n        /* \"#utility.yul\":11332:11358   */\n      swap1\n      pop\n        /* \"#utility.yul\":11404:11413   */\n      dup2\n        /* \"#utility.yul\":11398:11402   */\n      dup2\n        /* \"#utility.yul\":11394:11414   */\n      sub\n        /* \"#utility.yul\":11390:11391   */\n      0x00\n        /* \"#utility.yul\":11379:11388   */\n      dup4\n        /* \"#utility.yul\":11375:11392   */\n      add\n        /* \"#utility.yul\":11368:11415   */\n      mstore\n        /* \"#utility.yul\":11432:11563   */\n      tag_575\n        /* \"#utility.yul\":11558:11562   */\n      dup2\n        /* \"#utility.yul\":11432:11563   */\n      tag_403\n      jump\t// in\n    tag_575:\n        /* \"#utility.yul\":11424:11563   */\n      swap1\n      pop\n        /* \"#utility.yul\":11151:11570   */\n      swap2\n      swap1\n      pop\n      jump\t// out\n        /* \"#utility.yul\":11576:11908   */\n    tag_146:\n        /* \"#utility.yul\":11697:11701   */\n      0x00\n        /* \"#utility.yul\":11735:11737   */\n      0x40\n        /* \"#utility.yul\":11724:11733   */\n      dup3\n        /* \"#utility.yul\":11720:11738   */\n      add\n        /* \"#utility.yul\":11712:11738   */\n      swap1\n      pop\n        /* \"#utility.yul\":11748:11819   */\n      tag_577\n        /* \"#utility.yul\":11816:11817   */\n      0x00\n        /* \"#utility.yul\":11805:11814   */\n      dup4\n        /* \"#utility.yul\":11801:11818   */\n      add\n        /* \"#utility.yul\":11792:11798   */\n      dup6\n        /* \"#utility.yul\":11748:11819   */\n      tag_388\n      jump\t// in\n    tag_577:\n        /* \"#utility.yul\":11829:11901   */\n      tag_578\n        /* \"#utility.yul\":11897:11899   */\n      0x20\n        /* \"#utility.yul\":11886:11895   */\n      dup4\n        /* \"#utility.yul\":11882:11900   */\n      add\n        /* \"#utility.yul\":11873:11879   */\n      dup5\n        /* \"#utility.yul\":11829:11901   */\n      tag_388\n      jump\t// in\n    tag_578:\n        /* \"#utility.yul\":11576:11908   */\n      swap4\n      swap3\n      pop\n      pop\n      pop\n      jump\t// out\n        /* \"#utility.yul\":11914:12090   */\n    tag_404:\n        /* \"#utility.yul\":12054:12082   */\n      0x496e73756666696369656e7420534c5420616c6c6f77616e6365000000000000\n        /* \"#utility.yul\":12050:12051   */\n      0x00\n        /* \"#utility.yul\":12042:12048   */\n      dup3\n        /* \"#utility.yul\":12038:12052   */\n      add\n        /* \"#utility.yul\":12031:12083   */\n      mstore\n        /* \"#utility.yul\":11914:12090   */\n      pop\n      jump\t// out\n        /* \"#utility.yul\":12096:12462   */\n    tag_405:\n        /* \"#utility.yul\":12238:12241   */\n      0x00\n        /* \"#utility.yul\":12259:12326   */\n      tag_581\n        /* \"#utility.yul\":12323:12325   */\n      0x1a\n        /* \"#utility.yul\":12318:12321   */\n      dup4\n        /* \"#utility.yul\":12259:12326   */\n      tag_401\n      jump\t// in\n    tag_581:\n        /* \"#utility.yul\":12252:12326   */\n      swap2\n      pop\n        /* \"#utility.yul\":12335:12428   */\n      tag_582\n        /* \"#utility.yul\":12424:12427   */\n      dup3\n        /* \"#utility.yul\":12335:12428   */\n      tag_404\n      jump\t// in\n    tag_582:\n        /* \"#utility.yul\":12453:12455   */\n      0x20\n        /* \"#utility.yul\":12448:12451   */\n      dup3\n        /* \"#utility.yul\":12444:12456   */\n      add\n        /* \"#utility.yul\":12437:12456   */\n      swap1\n      pop\n        /* \"#utility.yul\":12096:12462   */\n      swap2\n      swap1\n      pop\n      jump\t// out\n        /* \"#utility.yul\":12468:12887   */\n    tag_152:\n        /* \"#utility.yul\":12634:12638   */\n      0x00\n        /* \"#utility.yul\":12672:12674   */\n      0x20\n        /* \"#utility.yul\":12661:12670   */\n      dup3\n        /* \"#utility.yul\":12657:12675   */\n      add\n        /* \"#utility.yul\":12649:12675   */\n      swap1\n      pop\n        /* \"#utility.yul\":12721:12730   */\n      dup2\n        /* \"#utility.yul\":12715:12719   */\n      dup2\n        /* \"#utility.yul\":12711:12731   */\n      sub\n        /* \"#utility.yul\":12707:12708   */\n      0x00\n        /* \"#utility.yul\":12696:12705   */\n      dup4\n        /* \"#utility.yul\":12692:12709   */\n      add\n        /* \"#utility.yul\":12685:12732   */\n      mstore\n        /* \"#utility.yul\":12749:12880   */\n      tag_584\n        /* \"#utility.yul\":12875:12879   */\n      dup2\n        /* \"#utility.yul\":12749:12880   */\n      tag_405\n      jump\t// in\n    tag_584:\n        /* \"#utility.yul\":12741:12880   */\n      swap1\n      pop\n        /* \"#utility.yul\":12468:12887   */\n      swap2\n      swap1\n      pop\n      jump\t// out\n        /* \"#utility.yul\":12893:13335   */\n    tag_155:\n        /* \"#utility.yul\":13042:13046   */\n      0x00\n        /* \"#utility.yul\":13080:13082   */\n      0x60\n        /* \"#utility.yul\":13069:13078   */\n      dup3\n        /* \"#utility.yul\":13065:13083   */\n      add\n        /* \"#utility.yul\":13057:13083   */\n      swap1\n      pop\n        /* \"#utility.yul\":13093:13164   */\n      tag_586\n        /* \"#utility.yul\":13161:13162   */\n      0x00\n        /* \"#utility.yul\":13150:13159   */\n      dup4\n        /* \"#utility.yul\":13146:13163   */\n      add\n        /* \"#utility.yul\":13137:13143   */\n      dup7\n        /* \"#utility.yul\":13093:13164   */\n      tag_388\n      jump\t// in\n    tag_586:\n        /* \"#utility.yul\":13174:13246   */\n      tag_587\n        /* \"#utility.yul\":13242:13244   */\n      0x20\n        /* \"#utility.yul\":13231:13240   */\n      dup4\n        /* \"#utility.yul\":13227:13245   */\n      add\n        /* \"#utility.yul\":13218:13224   */\n      dup6\n        /* \"#utility.yul\":13174:13246   */\n      tag_388\n      jump\t// in\n    tag_587:\n        /* \"#utility.yul\":13256:13328   */\n      tag_588\n        /* \"#utility.yul\":13324:13326   */\n      0x40\n        /* \"#utility.yul\":13313:13322   */\n      dup4\n        /* \"#utility.yul\":13309:13327   */\n      add\n        /* \"#utility.yul\":13300:13306   */\n      dup5\n        /* \"#utility.yul\":13256:13328   */\n      tag_391\n      jump\t// in\n    tag_588:\n        /* \"#utility.yul\":12893:13335   */\n      swap5\n      swap4\n      pop\n      pop\n      pop\n      pop\n      jump\t// out\n        /* \"#utility.yul\":13341:13457   */\n    tag_406:\n        /* \"#utility.yul\":13411:13432   */\n      tag_590\n        /* \"#utility.yul\":13426:13431   */\n      dup2\n        /* \"#utility.yul\":13411:13432   */\n      tag_394\n      jump\t// in\n    tag_590:\n        /* \"#utility.yul\":13404:13409   */\n      dup2\n        /* \"#utility.yul\":13401:13433   */\n      eq\n        /* \"#utility.yul\":13391:13451   */\n      tag_591\n      jumpi\n        /* \"#utility.yul\":13447:13448   */\n      0x00\n        /* \"#utility.yul\":13444:13445   */\n      dup1\n        /* \"#utility.yul\":13437:13449   */\n      revert\n        /* \"#utility.yul\":13391:13451   */\n    tag_591:\n        /* \"#utility.yul\":13341:13457   */\n      pop\n      jump\t// out\n        /* \"#utility.yul\":13463:13600   */\n    tag_407:\n        /* \"#utility.yul\":13517:13522   */\n      0x00\n        /* \"#utility.yul\":13548:13554   */\n      dup2\n        /* \"#utility.yul\":13542:13555   */\n      mload\n        /* \"#utility.yul\":13533:13555   */\n      swap1\n      pop\n        /* \"#utility.yul\":13564:13594   */\n      tag_593\n        /* \"#utility.yul\":13588:13593   */\n      dup2\n        /* \"#utility.yul\":13564:13594   */\n      tag_406\n      jump\t// in\n    tag_593:\n        /* \"#utility.yul\":13463:13600   */\n      swap3\n      swap2\n      pop\n      pop\n      jump\t// out\n        /* \"#utility.yul\":13606:13951   */\n    tag_159:\n        /* \"#utility.yul\":13673:13679   */\n      0x00\n        /* \"#utility.yul\":13722:13724   */\n      0x20\n        /* \"#utility.yul\":13710:13719   */\n      dup3\n        /* \"#utility.yul\":13701:13708   */\n      dup5\n        /* \"#utility.yul\":13697:13720   */\n      sub\n        /* \"#utility.yul\":13693:13725   */\n      slt\n        /* \"#utility.yul\":13690:13809   */\n      iszero\n      tag_595\n      jumpi\n        /* \"#utility.yul\":13728:13807   */\n      tag_596\n      tag_370\n      jump\t// in\n    tag_596:\n        /* \"#utility.yul\":13690:13809   */\n    tag_595:\n        /* \"#utility.yul\":13848:13849   */\n      0x00\n        /* \"#utility.yul\":13873:13934   */\n      tag_597\n        /* \"#utility.yul\":13926:13933   */\n      dup5\n        /* \"#utility.yul\":13917:13923   */\n      dup3\n        /* \"#utility.yul\":13906:13915   */\n      dup6\n        /* \"#utility.yul\":13902:13924   */\n      add\n        /* \"#utility.yul\":13873:13934   */\n      tag_407\n      jump\t// in\n    tag_597:\n        /* \"#utility.yul\":13863:13934   */\n      swap2\n      pop\n        /* \"#utility.yul\":13819:13944   */\n      pop\n        /* \"#utility.yul\":13606:13951   */\n      swap3\n      swap2\n      pop\n      pop\n      jump\t// out\n        /* \"#utility.yul\":13957:14131   */\n    tag_408:\n        /* \"#utility.yul\":14097:14123   */\n      0x5265656e7472616e63792067756172643a206c6f636b65640000000000000000\n        /* \"#utility.yul\":14093:14094   */\n      0x00\n        /* \"#utility.yul\":14085:14091   */\n      dup3\n        /* \"#utility.yul\":14081:14095   */\n      add\n        /* \"#utility.yul\":14074:14124   */\n      mstore\n        /* \"#utility.yul\":13957:14131   */\n      pop\n      jump\t// out\n        /* \"#utility.yul\":14137:14503   */\n    tag_409:\n        /* \"#utility.yul\":14279:14282   */\n      0x00\n        /* \"#utility.yul\":14300:14367   */\n      tag_600\n        /* \"#utility.yul\":14364:14366   */\n      0x18\n        /* \"#utility.yul\":14359:14362   */\n      dup4\n        /* \"#utility.yul\":14300:14367   */\n      tag_401\n      jump\t// in\n    tag_600:\n        /* \"#utility.yul\":14293:14367   */\n      swap2\n      pop\n        /* \"#utility.yul\":14376:14469   */\n      tag_601\n        /* \"#utility.yul\":14465:14468   */\n      dup3\n        /* \"#utility.yul\":14376:14469   */\n      tag_408\n      jump\t// in\n    tag_601:\n        /* \"#utility.yul\":14494:14496   */\n      0x20\n        /* \"#utility.yul\":14489:14492   */\n      dup3\n        /* \"#utility.yul\":14485:14497   */\n      add\n        /* \"#utility.yul\":14478:14497   */\n      swap1\n      pop\n        /* \"#utility.yul\":14137:14503   */\n      swap2\n      swap1\n      pop\n      jump\t// out\n        /* \"#utility.yul\":14509:14928   */\n    tag_165:\n        /* \"#utility.yul\":14675:14679   */\n      0x00\n        /* \"#utility.yul\":14713:14715   */\n      0x20\n        /* \"#utility.yul\":14702:14711   */\n      dup3\n        /* \"#utility.yul\":14698:14716   */\n      add\n        /* \"#utility.yul\":14690:14716   */\n      swap1\n      pop\n        /* \"#utility.yul\":14762:14771   */\n      dup2\n        /* \"#utility.yul\":14756:14760   */\n      dup2\n        /* \"#utility.yul\":14752:14772   */\n      sub\n        /* \"#utility.yul\":14748:14749   */\n      0x00\n        /* \"#utility.yul\":14737:14746   */\n      dup4\n        /* \"#utility.yul\":14733:14750   */\n      add\n        /* \"#utility.yul\":14726:14773   */\n      mstore\n        /* \"#utility.yul\":14790:14921   */\n      tag_603\n        /* \"#utility.yul\":14916:14920   */\n      dup2\n        /* \"#utility.yul\":14790:14921   */\n      tag_409\n      jump\t// in\n    tag_603:\n        /* \"#utility.yul\":14782:14921   */\n      swap1\n      pop\n        /* \"#utility.yul\":14509:14928   */\n      swap2\n      swap1\n      pop\n      jump\t// out\n        /* \"#utility.yul\":14934:15128   */\n    tag_170:\n        /* \"#utility.yul\":14974:14978   */\n      0x00\n        /* \"#utility.yul\":14994:15014   */\n      tag_605\n        /* \"#utility.yul\":15012:15013   */\n      dup3\n        /* \"#utility.yul\":14994:15014   */\n      tag_372\n      jump\t// in\n    tag_605:\n        /* \"#utility.yul\":14989:15014   */\n      swap2\n      pop\n        /* \"#utility.yul\":15028:15048   */\n      tag_606\n        /* \"#utility.yul\":15046:15047   */\n      dup4\n        /* \"#utility.yul\":15028:15048   */\n      tag_372\n      jump\t// in\n    tag_606:\n        /* \"#utility.yul\":15023:15048   */\n      swap3\n      pop\n        /* \"#utility.yul\":15072:15073   */\n      dup3\n        /* \"#utility.yul\":15069:15070   */\n      dup3\n        /* \"#utility.yul\":15065:15074   */\n      sub\n        /* \"#utility.yul\":15057:15074   */\n      swap1\n      pop\n        /* \"#utility.yul\":15096:15097   */\n      dup2\n        /* \"#utility.yul\":15090:15094   */\n      dup2\n        /* \"#utility.yul\":15087:15098   */\n      gt\n        /* \"#utility.yul\":15084:15121   */\n      iszero\n      tag_607\n      jumpi\n        /* \"#utility.yul\":15101:15119   */\n      tag_608\n      tag_399\n      jump\t// in\n    tag_608:\n        /* \"#utility.yul\":15084:15121   */\n    tag_607:\n        /* \"#utility.yul\":14934:15128   */\n      swap3\n      swap2\n      pop\n      pop\n      jump\t// out\n        /* \"#utility.yul\":15134:15314   */\n    tag_173:\n        /* \"#utility.yul\":15182:15259   */\n      0x4e487b7100000000000000000000000000000000000000000000000000000000\n        /* \"#utility.yul\":15179:15180   */\n      0x00\n        /* \"#utility.yul\":15172:15260   */\n      mstore\n        /* \"#utility.yul\":15279:15283   */\n      0x32\n        /* \"#utility.yul\":15276:15277   */\n      0x04\n        /* \"#utility.yul\":15269:15284   */\n      mstore\n        /* \"#utility.yul\":15303:15307   */\n      0x24\n        /* \"#utility.yul\":15300:15301   */\n      0x00\n        /* \"#utility.yul\":15293:15308   */\n      revert\n        /* \"#utility.yul\":15320:15500   */\n    tag_180:\n        /* \"#utility.yul\":15368:15445   */\n      0x4e487b7100000000000000000000000000000000000000000000000000000000\n        /* \"#utility.yul\":15365:15366   */\n      0x00\n        /* \"#utility.yul\":15358:15446   */\n      mstore\n        /* \"#utility.yul\":15465:15469   */\n      0x31\n        /* \"#utility.yul\":15462:15463   */\n      0x04\n        /* \"#utility.yul\":15455:15470   */\n      mstore\n        /* \"#utility.yul\":15489:15493   */\n      0x24\n        /* \"#utility.yul\":15486:15487   */\n      0x00\n        /* \"#utility.yul\":15479:15494   */\n      revert\n        /* \"#utility.yul\":15506:15838   */\n    tag_183:\n        /* \"#utility.yul\":15627:15631   */\n      0x00\n        /* \"#utility.yul\":15665:15667   */\n      0x40\n        /* \"#utility.yul\":15654:15663   */\n      dup3\n        /* \"#utility.yul\":15650:15668   */\n      add\n        /* \"#utility.yul\":15642:15668   */\n      swap1\n      pop\n        /* \"#utility.yul\":15678:15749   */\n      tag_612\n        /* \"#utility.yul\":15746:15747   */\n      0x00\n        /* \"#utility.yul\":15735:15744   */\n      dup4\n        /* \"#utility.yul\":15731:15748   */\n      add\n        /* \"#utility.yul\":15722:15728   */\n      dup6\n        /* \"#utility.yul\":15678:15749   */\n      tag_388\n      jump\t// in\n    tag_612:\n        /* \"#utility.yul\":15759:15831   */\n      tag_613\n        /* \"#utility.yul\":15827:15829   */\n      0x20\n        /* \"#utility.yul\":15816:15825   */\n      dup4\n        /* \"#utility.yul\":15812:15830   */\n      add\n        /* \"#utility.yul\":15803:15809   */\n      dup5\n        /* \"#utility.yul\":15759:15831   */\n      tag_391\n      jump\t// in\n    tag_613:\n        /* \"#utility.yul\":15506:15838   */\n      swap4\n      swap3\n      pop\n      pop\n      pop\n      jump\t// out\n        /* \"#utility.yul\":15844:16070   */\n    tag_410:\n        /* \"#utility.yul\":15984:16018   */\n      0x596f7520646964206e6f742077696e2e20426574746572206c75636b206e6578\n        /* \"#utility.yul\":15980:15981   */\n      0x00\n        /* \"#utility.yul\":15972:15978   */\n      dup3\n        /* \"#utility.yul\":15968:15982   */\n      add\n        /* \"#utility.yul\":15961:16019   */\n      mstore\n        /* \"#utility.yul\":16053:16062   */\n      0x742074696d652100000000000000000000000000000000000000000000000000\n        /* \"#utility.yul\":16048:16050   */\n      0x20\n        /* \"#utility.yul\":16040:16046   */\n      dup3\n        /* \"#utility.yul\":16036:16051   */\n      add\n        /* \"#utility.yul\":16029:16063   */\n      mstore\n        /* \"#utility.yul\":15844:16070   */\n      pop\n      jump\t// out\n        /* \"#utility.yul\":16076:16442   */\n    tag_411:\n        /* \"#utility.yul\":16218:16221   */\n      0x00\n        /* \"#utility.yul\":16239:16306   */\n      tag_616\n        /* \"#utility.yul\":16303:16305   */\n      0x27\n        /* \"#utility.yul\":16298:16301   */\n      dup4\n        /* \"#utility.yul\":16239:16306   */\n      tag_401\n      jump\t// in\n    tag_616:\n        /* \"#utility.yul\":16232:16306   */\n      swap2\n      pop\n        /* \"#utility.yul\":16315:16408   */\n      tag_617\n        /* \"#utility.yul\":16404:16407   */\n      dup3\n        /* \"#utility.yul\":16315:16408   */\n      tag_410\n      jump\t// in\n    tag_617:\n        /* \"#utility.yul\":16433:16435   */\n      0x40\n        /* \"#utility.yul\":16428:16431   */\n      dup3\n        /* \"#utility.yul\":16424:16436   */\n      add\n        /* \"#utility.yul\":16417:16436   */\n      swap1\n      pop\n        /* \"#utility.yul\":16076:16442   */\n      swap2\n      swap1\n      pop\n      jump\t// out\n        /* \"#utility.yul\":16448:16867   */\n    tag_200:\n        /* \"#utility.yul\":16614:16618   */\n      0x00\n        /* \"#utility.yul\":16652:16654   */\n      0x20\n        /* \"#utility.yul\":16641:16650   */\n      dup3\n        /* \"#utility.yul\":16637:16655   */\n      add\n        /* \"#utility.yul\":16629:16655   */\n      swap1\n      pop\n        /* \"#utility.yul\":16701:16710   */\n      dup2\n        /* \"#utility.yul\":16695:16699   */\n      dup2\n        /* \"#utility.yul\":16691:16711   */\n      sub\n        /* \"#utility.yul\":16687:16688   */\n      0x00\n        /* \"#utility.yul\":16676:16685   */\n      dup4\n        /* \"#utility.yul\":16672:16689   */\n      add\n        /* \"#utility.yul\":16665:16712   */\n      mstore\n        /* \"#utility.yul\":16729:16860   */\n      tag_619\n        /* \"#utility.yul\":16855:16859   */\n      dup2\n        /* \"#utility.yul\":16729:16860   */\n      tag_411\n      jump\t// in\n    tag_619:\n        /* \"#utility.yul\":16721:16860   */\n      swap1\n      pop\n        /* \"#utility.yul\":16448:16867   */\n      swap2\n      swap1\n      pop\n      jump\t// out\n        /* \"#utility.yul\":16873:17045   */\n    tag_412:\n        /* \"#utility.yul\":17013:17037   */\n      0x4d7573742062652070726f706f736564206f776e657200000000000000000000\n        /* \"#utility.yul\":17009:17010   */\n      0x00\n        /* \"#utility.yul\":17001:17007   */\n      dup3\n        /* \"#utility.yul\":16997:17011   */\n      add\n        /* \"#utility.yul\":16990:17038   */\n      mstore\n        /* \"#utility.yul\":16873:17045   */\n      pop\n      jump\t// out\n        /* \"#utility.yul\":17051:17417   */\n    tag_413:\n        /* \"#utility.yul\":17193:17196   */\n      0x00\n        /* \"#utility.yul\":17214:17281   */\n      tag_622\n        /* \"#utility.yul\":17278:17280   */\n      0x16\n        /* \"#utility.yul\":17273:17276   */\n      dup4\n        /* \"#utility.yul\":17214:17281   */\n      tag_401\n      jump\t// in\n    tag_622:\n        /* \"#utility.yul\":17207:17281   */\n      swap2\n      pop\n        /* \"#utility.yul\":17290:17383   */\n      tag_623\n        /* \"#utility.yul\":17379:17382   */\n      dup3\n        /* \"#utility.yul\":17290:17383   */\n      tag_412\n      jump\t// in\n    tag_623:\n        /* \"#utility.yul\":17408:17410   */\n      0x20\n        /* \"#utility.yul\":17403:17406   */\n      dup3\n        /* \"#utility.yul\":17399:17411   */\n      add\n        /* \"#utility.yul\":17392:17411   */\n      swap1\n      pop\n        /* \"#utility.yul\":17051:17417   */\n      swap2\n      swap1\n      pop\n      jump\t// out\n        /* \"#utility.yul\":17423:17842   */\n    tag_216:\n        /* \"#utility.yul\":17589:17593   */\n      0x00\n        /* \"#utility.yul\":17627:17629   */\n      0x20\n        /* \"#utility.yul\":17616:17625   */\n      dup3\n        /* \"#utility.yul\":17612:17630   */\n      add\n        /* \"#utility.yul\":17604:17630   */\n      swap1\n      pop\n        /* \"#utility.yul\":17676:17685   */\n      dup2\n        /* \"#utility.yul\":17670:17674   */\n      dup2\n        /* \"#utility.yul\":17666:17686   */\n      sub\n        /* \"#utility.yul\":17662:17663   */\n      0x00\n        /* \"#utility.yul\":17651:17660   */\n      dup4\n        /* \"#utility.yul\":17647:17664   */\n      add\n        /* \"#utility.yul\":17640:17687   */\n      mstore\n        /* \"#utility.yul\":17704:17835   */\n      tag_625\n        /* \"#utility.yul\":17830:17834   */\n      dup2\n        /* \"#utility.yul\":17704:17835   */\n      tag_413\n      jump\t// in\n    tag_625:\n        /* \"#utility.yul\":17696:17835   */\n      swap1\n      pop\n        /* \"#utility.yul\":17423:17842   */\n      swap2\n      swap1\n      pop\n      jump\t// out\n        /* \"#utility.yul\":17848:18070   */\n    tag_414:\n        /* \"#utility.yul\":17988:18022   */\n      0x596f75206861766520616c726561647920636c61696d656420616e2061697264\n        /* \"#utility.yul\":17984:17985   */\n      0x00\n        /* \"#utility.yul\":17976:17982   */\n      dup3\n        /* \"#utility.yul\":17972:17986   */\n      add\n        /* \"#utility.yul\":17965:18023   */\n      mstore\n        /* \"#utility.yul\":18057:18062   */\n      0x726f700000000000000000000000000000000000000000000000000000000000\n        /* \"#utility.yul\":18052:18054   */\n      0x20\n        /* \"#utility.yul\":18044:18050   */\n      dup3\n        /* \"#utility.yul\":18040:18055   */\n      add\n        /* \"#utility.yul\":18033:18063   */\n      mstore\n        /* \"#utility.yul\":17848:18070   */\n      pop\n      jump\t// out\n        /* \"#utility.yul\":18076:18442   */\n    tag_415:\n        /* \"#utility.yul\":18218:18221   */\n      0x00\n        /* \"#utility.yul\":18239:18306   */\n      tag_628\n        /* \"#utility.yul\":18303:18305   */\n      0x23\n        /* \"#utility.yul\":18298:18301   */\n      dup4\n        /* \"#utility.yul\":18239:18306   */\n      tag_401\n      jump\t// in\n    tag_628:\n        /* \"#utility.yul\":18232:18306   */\n      swap2\n      pop\n        /* \"#utility.yul\":18315:18408   */\n      tag_629\n        /* \"#utility.yul\":18404:18407   */\n      dup3\n        /* \"#utility.yul\":18315:18408   */\n      tag_414\n      jump\t// in\n    tag_629:\n        /* \"#utility.yul\":18433:18435   */\n      0x40\n        /* \"#utility.yul\":18428:18431   */\n      dup3\n        /* \"#utility.yul\":18424:18436   */\n      add\n        /* \"#utility.yul\":18417:18436   */\n      swap1\n      pop\n        /* \"#utility.yul\":18076:18442   */\n      swap2\n      swap1\n      pop\n      jump\t// out\n        /* \"#utility.yul\":18448:18867   */\n    tag_226:\n        /* \"#utility.yul\":18614:18618   */\n      0x00\n        /* \"#utility.yul\":18652:18654   */\n      0x20\n        /* \"#utility.yul\":18641:18650   */\n      dup3\n        /* \"#utility.yul\":18637:18655   */\n      add\n        /* \"#utility.yul\":18629:18655   */\n      swap1\n      pop\n        /* \"#utility.yul\":18701:18710   */\n      dup2\n        /* \"#utility.yul\":18695:18699   */\n      dup2\n        /* \"#utility.yul\":18691:18711   */\n      sub\n        /* \"#utility.yul\":18687:18688   */\n      0x00\n        /* \"#utility.yul\":18676:18685   */\n      dup4\n        /* \"#utility.yul\":18672:18689   */\n      add\n        /* \"#utility.yul\":18665:18712   */\n      mstore\n        /* \"#utility.yul\":18729:18860   */\n      tag_631\n        /* \"#utility.yul\":18855:18859   */\n      dup2\n        /* \"#utility.yul\":18729:18860   */\n      tag_415\n      jump\t// in\n    tag_631:\n        /* \"#utility.yul\":18721:18860   */\n      swap1\n      pop\n        /* \"#utility.yul\":18448:18867   */\n      swap2\n      swap1\n      pop\n      jump\t// out\n        /* \"#utility.yul\":18873:19054   */\n    tag_416:\n        /* \"#utility.yul\":19013:19046   */\n      0x41697264726f70204e6f7420417661696c61626c652043757272656e746c7900\n        /* \"#utility.yul\":19009:19010   */\n      0x00\n        /* \"#utility.yul\":19001:19007   */\n      dup3\n        /* \"#utility.yul\":18997:19011   */\n      add\n        /* \"#utility.yul\":18990:19047   */\n      mstore\n        /* \"#utility.yul\":18873:19054   */\n      pop\n      jump\t// out\n        /* \"#utility.yul\":19060:19426   */\n    tag_417:\n        /* \"#utility.yul\":19202:19205   */\n      0x00\n        /* \"#utility.yul\":19223:19290   */\n      tag_634\n        /* \"#utility.yul\":19287:19289   */\n      0x1f\n        /* \"#utility.yul\":19282:19285   */\n      dup4\n        /* \"#utility.yul\":19223:19290   */\n      tag_401\n      jump\t// in\n    tag_634:\n        /* \"#utility.yul\":19216:19290   */\n      swap2\n      pop\n        /* \"#utility.yul\":19299:19392   */\n      tag_635\n        /* \"#utility.yul\":19388:19391   */\n      dup3\n        /* \"#utility.yul\":19299:19392   */\n      tag_416\n      jump\t// in\n    tag_635:\n        /* \"#utility.yul\":19417:19419   */\n      0x20\n        /* \"#utility.yul\":19412:19415   */\n      dup3\n        /* \"#utility.yul\":19408:19420   */\n      add\n        /* \"#utility.yul\":19401:19420   */\n      swap1\n      pop\n        /* \"#utility.yul\":19060:19426   */\n      swap2\n      swap1\n      pop\n      jump\t// out\n        /* \"#utility.yul\":19432:19851   */\n    tag_230:\n        /* \"#utility.yul\":19598:19602   */\n      0x00\n        /* \"#utility.yul\":19636:19638   */\n      0x20\n        /* \"#utility.yul\":19625:19634   */\n      dup3\n        /* \"#utility.yul\":19621:19639   */\n      add\n        /* \"#utility.yul\":19613:19639   */\n      swap1\n      pop\n        /* \"#utility.yul\":19685:19694   */\n      dup2\n        /* \"#utility.yul\":19679:19683   */\n      dup2\n        /* \"#utility.yul\":19675:19695   */\n      sub\n        /* \"#utility.yul\":19671:19672   */\n      0x00\n        /* \"#utility.yul\":19660:19669   */\n      dup4\n        /* \"#utility.yul\":19656:19673   */\n      add\n        /* \"#utility.yul\":19649:19696   */\n      mstore\n        /* \"#utility.yul\":19713:19844   */\n      tag_637\n        /* \"#utility.yul\":19839:19843   */\n      dup2\n        /* \"#utility.yul\":19713:19844   */\n      tag_417\n      jump\t// in\n    tag_637:\n        /* \"#utility.yul\":19705:19844   */\n      swap1\n      pop\n        /* \"#utility.yul\":19432:19851   */\n      swap2\n      swap1\n      pop\n      jump\t// out\n        /* \"#utility.yul\":19857:20054   */\n    tag_238:\n        /* \"#utility.yul\":19896:19899   */\n      0x00\n        /* \"#utility.yul\":19915:19934   */\n      tag_639\n        /* \"#utility.yul\":19932:19933   */\n      dup3\n        /* \"#utility.yul\":19915:19934   */\n      tag_367\n      jump\t// in\n    tag_639:\n        /* \"#utility.yul\":19910:19934   */\n      swap2\n      pop\n        /* \"#utility.yul\":19948:19967   */\n      tag_640\n        /* \"#utility.yul\":19965:19966   */\n      dup4\n        /* \"#utility.yul\":19948:19967   */\n      tag_367\n      jump\t// in\n    tag_640:\n        /* \"#utility.yul\":19943:19967   */\n      swap3\n      pop\n        /* \"#utility.yul\":19990:19991   */\n      dup3\n        /* \"#utility.yul\":19987:19988   */\n      dup3\n        /* \"#utility.yul\":19983:19992   */\n      add\n        /* \"#utility.yul\":19976:19992   */\n      swap1\n      pop\n        /* \"#utility.yul\":20013:20023   */\n      0xffffffff\n        /* \"#utility.yul\":20008:20011   */\n      dup2\n        /* \"#utility.yul\":20005:20024   */\n      gt\n        /* \"#utility.yul\":20002:20047   */\n      iszero\n      tag_641\n      jumpi\n        /* \"#utility.yul\":20027:20045   */\n      tag_642\n      tag_399\n      jump\t// in\n    tag_642:\n        /* \"#utility.yul\":20002:20047   */\n    tag_641:\n        /* \"#utility.yul\":19857:20054   */\n      swap3\n      swap2\n      pop\n      pop\n      jump\t// out\n        /* \"#utility.yul\":20060:20236   */\n    tag_418:\n        /* \"#utility.yul\":20200:20228   */\n      0x436f6e7472696275746f7220616c726561647920657869737473000000000000\n        /* \"#utility.yul\":20196:20197   */\n      0x00\n        /* \"#utility.yul\":20188:20194   */\n      dup3\n        /* \"#utility.yul\":20184:20198   */\n      add\n        /* \"#utility.yul\":20177:20229   */\n      mstore\n        /* \"#utility.yul\":20060:20236   */\n      pop\n      jump\t// out\n        /* \"#utility.yul\":20242:20608   */\n    tag_419:\n        /* \"#utility.yul\":20384:20387   */\n      0x00\n        /* \"#utility.yul\":20405:20472   */\n      tag_645\n        /* \"#utility.yul\":20469:20471   */\n      0x1a\n        /* \"#utility.yul\":20464:20467   */\n      dup4\n        /* \"#utility.yul\":20405:20472   */\n      tag_401\n      jump\t// in\n    tag_645:\n        /* \"#utility.yul\":20398:20472   */\n      swap2\n      pop\n        /* \"#utility.yul\":20481:20574   */\n      tag_646\n        /* \"#utility.yul\":20570:20573   */\n      dup3\n        /* \"#utility.yul\":20481:20574   */\n      tag_418\n      jump\t// in\n    tag_646:\n        /* \"#utility.yul\":20599:20601   */\n      0x20\n        /* \"#utility.yul\":20594:20597   */\n      dup3\n        /* \"#utility.yul\":20590:20602   */\n      add\n        /* \"#utility.yul\":20583:20602   */\n      swap1\n      pop\n        /* \"#utility.yul\":20242:20608   */\n      swap2\n      swap1\n      pop\n      jump\t// out\n        /* \"#utility.yul\":20614:21033   */\n    tag_245:\n        /* \"#utility.yul\":20780:20784   */\n      0x00\n        /* \"#utility.yul\":20818:20820   */\n      0x20\n        /* \"#utility.yul\":20807:20816   */\n      dup3\n        /* \"#utility.yul\":20803:20821   */\n      add\n        /* \"#utility.yul\":20795:20821   */\n      swap1\n      pop\n        /* \"#utility.yul\":20867:20876   */\n      dup2\n        /* \"#utility.yul\":20861:20865   */\n      dup2\n        /* \"#utility.yul\":20857:20877   */\n      sub\n        /* \"#utility.yul\":20853:20854   */\n      0x00\n        /* \"#utility.yul\":20842:20851   */\n      dup4\n        /* \"#utility.yul\":20838:20855   */\n      add\n        /* \"#utility.yul\":20831:20878   */\n      mstore\n        /* \"#utility.yul\":20895:21026   */\n      tag_648\n        /* \"#utility.yul\":21021:21025   */\n      dup2\n        /* \"#utility.yul\":20895:21026   */\n      tag_419\n      jump\t// in\n    tag_648:\n        /* \"#utility.yul\":20887:21026   */\n      swap1\n      pop\n        /* \"#utility.yul\":20614:21033   */\n      swap2\n      swap1\n      pop\n      jump\t// out\n        /* \"#utility.yul\":21039:21221   */\n    tag_420:\n        /* \"#utility.yul\":21179:21213   */\n      0x4e6f742061207061727469636970616e742e2043686f6f736520612064726177\n        /* \"#utility.yul\":21175:21176   */\n      0x00\n        /* \"#utility.yul\":21167:21173   */\n      dup3\n        /* \"#utility.yul\":21163:21177   */\n      add\n        /* \"#utility.yul\":21156:21214   */\n      mstore\n        /* \"#utility.yul\":21039:21221   */\n      pop\n      jump\t// out\n        /* \"#utility.yul\":21227:21593   */\n    tag_421:\n        /* \"#utility.yul\":21369:21372   */\n      0x00\n        /* \"#utility.yul\":21390:21457   */\n      tag_651\n        /* \"#utility.yul\":21454:21456   */\n      0x20\n        /* \"#utility.yul\":21449:21452   */\n      dup4\n        /* \"#utility.yul\":21390:21457   */\n      tag_401\n      jump\t// in\n    tag_651:\n        /* \"#utility.yul\":21383:21457   */\n      swap2\n      pop\n        /* \"#utility.yul\":21466:21559   */\n      tag_652\n        /* \"#utility.yul\":21555:21558   */\n      dup3\n        /* \"#utility.yul\":21466:21559   */\n      tag_420\n      jump\t// in\n    tag_652:\n        /* \"#utility.yul\":21584:21586   */\n      0x20\n        /* \"#utility.yul\":21579:21582   */\n      dup3\n        /* \"#utility.yul\":21575:21587   */\n      add\n        /* \"#utility.yul\":21568:21587   */\n      swap1\n      pop\n        /* \"#utility.yul\":21227:21593   */\n      swap2\n      swap1\n      pop\n      jump\t// out\n        /* \"#utility.yul\":21599:22018   */\n    tag_270:\n        /* \"#utility.yul\":21765:21769   */\n      0x00\n        /* \"#utility.yul\":21803:21805   */\n      0x20\n        /* \"#utility.yul\":21792:21801   */\n      dup3\n        /* \"#utility.yul\":21788:21806   */\n      add\n        /* \"#utility.yul\":21780:21806   */\n      swap1\n      pop\n        /* \"#utility.yul\":21852:21861   */\n      dup2\n        /* \"#utility.yul\":21846:21850   */\n      dup2\n        /* \"#utility.yul\":21842:21862   */\n      sub\n        /* \"#utility.yul\":21838:21839   */\n      0x00\n        /* \"#utility.yul\":21827:21836   */\n      dup4\n        /* \"#utility.yul\":21823:21840   */\n      add\n        /* \"#utility.yul\":21816:21863   */\n      mstore\n        /* \"#utility.yul\":21880:22011   */\n      tag_654\n        /* \"#utility.yul\":22006:22010   */\n      dup2\n        /* \"#utility.yul\":21880:22011   */\n      tag_421\n      jump\t// in\n    tag_654:\n        /* \"#utility.yul\":21872:22011   */\n      swap1\n      pop\n        /* \"#utility.yul\":21599:22018   */\n      swap2\n      swap1\n      pop\n      jump\t// out\n        /* \"#utility.yul\":22024:22205   */\n    tag_422:\n        /* \"#utility.yul\":22164:22197   */\n      0x52616e646f6d204e756d626572206e6f74207965742047656e65726174656400\n        /* \"#utility.yul\":22160:22161   */\n      0x00\n        /* \"#utility.yul\":22152:22158   */\n      dup3\n        /* \"#utility.yul\":22148:22162   */\n      add\n        /* \"#utility.yul\":22141:22198   */\n      mstore\n        /* \"#utility.yul\":22024:22205   */\n      pop\n      jump\t// out\n        /* \"#utility.yul\":22211:22577   */\n    tag_423:\n        /* \"#utility.yul\":22353:22356   */\n      0x00\n        /* \"#utility.yul\":22374:22441   */\n      tag_657\n        /* \"#utility.yul\":22438:22440   */\n      0x1f\n        /* \"#utility.yul\":22433:22436   */\n      dup4\n        /* \"#utility.yul\":22374:22441   */\n      tag_401\n      jump\t// in\n    tag_657:\n        /* \"#utility.yul\":22367:22441   */\n      swap2\n      pop\n        /* \"#utility.yul\":22450:22543   */\n      tag_658\n        /* \"#utility.yul\":22539:22542   */\n      dup3\n        /* \"#utility.yul\":22450:22543   */\n      tag_422\n      jump\t// in\n    tag_658:\n        /* \"#utility.yul\":22568:22570   */\n      0x20\n        /* \"#utility.yul\":22563:22566   */\n      dup3\n        /* \"#utility.yul\":22559:22571   */\n      add\n        /* \"#utility.yul\":22552:22571   */\n      swap1\n      pop\n        /* \"#utility.yul\":22211:22577   */\n      swap2\n      swap1\n      pop\n      jump\t// out\n        /* \"#utility.yul\":22583:23002   */\n    tag_274:\n        /* \"#utility.yul\":22749:22753   */\n      0x00\n        /* \"#utility.yul\":22787:22789   */\n      0x20\n        /* \"#utility.yul\":22776:22785   */\n      dup3\n        /* \"#utility.yul\":22772:22790   */\n      add\n        /* \"#utility.yul\":22764:22790   */\n      swap1\n      pop\n        /* \"#utility.yul\":22836:22845   */\n      dup2\n        /* \"#utility.yul\":22830:22834   */\n      dup2\n        /* \"#utility.yul\":22826:22846   */\n      sub\n        /* \"#utility.yul\":22822:22823   */\n      0x00\n        /* \"#utility.yul\":22811:22820   */\n      dup4\n        /* \"#utility.yul\":22807:22824   */\n      add\n        /* \"#utility.yul\":22800:22847   */\n      mstore\n        /* \"#utility.yul\":22864:22995   */\n      tag_660\n        /* \"#utility.yul\":22990:22994   */\n      dup2\n        /* \"#utility.yul\":22864:22995   */\n      tag_423\n      jump\t// in\n    tag_660:\n        /* \"#utility.yul\":22856:22995   */\n      swap1\n      pop\n        /* \"#utility.yul\":22583:23002   */\n      swap2\n      swap1\n      pop\n      jump\t// out\n        /* \"#utility.yul\":23008:23188   */\n    tag_424:\n        /* \"#utility.yul\":23056:23133   */\n      0x4e487b7100000000000000000000000000000000000000000000000000000000\n        /* \"#utility.yul\":23053:23054   */\n      0x00\n        /* \"#utility.yul\":23046:23134   */\n      mstore\n        /* \"#utility.yul\":23153:23157   */\n      0x12\n        /* \"#utility.yul\":23150:23151   */\n      0x04\n        /* \"#utility.yul\":23143:23158   */\n      mstore\n        /* \"#utility.yul\":23177:23181   */\n      0x24\n        /* \"#utility.yul\":23174:23175   */\n      0x00\n        /* \"#utility.yul\":23167:23182   */\n      revert\n        /* \"#utility.yul\":23194:23370   */\n    tag_278:\n        /* \"#utility.yul\":23226:23227   */\n      0x00\n        /* \"#utility.yul\":23243:23263   */\n      tag_663\n        /* \"#utility.yul\":23261:23262   */\n      dup3\n        /* \"#utility.yul\":23243:23263   */\n      tag_372\n      jump\t// in\n    tag_663:\n        /* \"#utility.yul\":23238:23263   */\n      swap2\n      pop\n        /* \"#utility.yul\":23277:23297   */\n      tag_664\n        /* \"#utility.yul\":23295:23296   */\n      dup4\n        /* \"#utility.yul\":23277:23297   */\n      tag_372\n      jump\t// in\n    tag_664:\n        /* \"#utility.yul\":23272:23297   */\n      swap3\n      pop\n        /* \"#utility.yul\":23316:23317   */\n      dup3\n        /* \"#utility.yul\":23306:23341   */\n      tag_665\n      jumpi\n        /* \"#utility.yul\":23321:23339   */\n      tag_666\n      tag_424\n      jump\t// in\n    tag_666:\n        /* \"#utility.yul\":23306:23341   */\n    tag_665:\n        /* \"#utility.yul\":23362:23363   */\n      dup3\n        /* \"#utility.yul\":23359:23360   */\n      dup3\n        /* \"#utility.yul\":23355:23364   */\n      mod\n        /* \"#utility.yul\":23350:23364   */\n      swap1\n      pop\n        /* \"#utility.yul\":23194:23370   */\n      swap3\n      swap2\n      pop\n      pop\n      jump\t// out\n        /* \"#utility.yul\":23376:23665   */\n    tag_425:\n        /* \"#utility.yul\":23516:23550   */\n      0x436f6e7472696275746f722063757272656e746c7920646f6573206e6f742068\n        /* \"#utility.yul\":23512:23513   */\n      0x00\n        /* \"#utility.yul\":23504:23510   */\n      dup3\n        /* \"#utility.yul\":23500:23514   */\n      add\n        /* \"#utility.yul\":23493:23551   */\n      mstore\n        /* \"#utility.yul\":23585:23619   */\n      0x61766520616e792066756e64732077697468696e2074686520636f6e74726163\n        /* \"#utility.yul\":23580:23582   */\n      0x20\n        /* \"#utility.yul\":23572:23578   */\n      dup3\n        /* \"#utility.yul\":23568:23583   */\n      add\n        /* \"#utility.yul\":23561:23620   */\n      mstore\n        /* \"#utility.yul\":23654:23657   */\n      0x7400000000000000000000000000000000000000000000000000000000000000\n        /* \"#utility.yul\":23649:23651   */\n      0x40\n        /* \"#utility.yul\":23641:23647   */\n      dup3\n        /* \"#utility.yul\":23637:23652   */\n      add\n        /* \"#utility.yul\":23630:23658   */\n      mstore\n        /* \"#utility.yul\":23376:23665   */\n      pop\n      jump\t// out\n        /* \"#utility.yul\":23671:24037   */\n    tag_426:\n        /* \"#utility.yul\":23813:23816   */\n      0x00\n        /* \"#utility.yul\":23834:23901   */\n      tag_669\n        /* \"#utility.yul\":23898:23900   */\n      0x41\n        /* \"#utility.yul\":23893:23896   */\n      dup4\n        /* \"#utility.yul\":23834:23901   */\n      tag_401\n      jump\t// in\n    tag_669:\n        /* \"#utility.yul\":23827:23901   */\n      swap2\n      pop\n        /* \"#utility.yul\":23910:24003   */\n      tag_670\n        /* \"#utility.yul\":23999:24002   */\n      dup3\n        /* \"#utility.yul\":23910:24003   */\n      tag_425\n      jump\t// in\n    tag_670:\n        /* \"#utility.yul\":24028:24030   */\n      0x60\n        /* \"#utility.yul\":24023:24026   */\n      dup3\n        /* \"#utility.yul\":24019:24031   */\n      add\n        /* \"#utility.yul\":24012:24031   */\n      swap1\n      pop\n        /* \"#utility.yul\":23671:24037   */\n      swap2\n      swap1\n      pop\n      jump\t// out\n        /* \"#utility.yul\":24043:24462   */\n    tag_288:\n        /* \"#utility.yul\":24209:24213   */\n      0x00\n        /* \"#utility.yul\":24247:24249   */\n      0x20\n        /* \"#utility.yul\":24236:24245   */\n      dup3\n        /* \"#utility.yul\":24232:24250   */\n      add\n        /* \"#utility.yul\":24224:24250   */\n      swap1\n      pop\n        /* \"#utility.yul\":24296:24305   */\n      dup2\n        /* \"#utility.yul\":24290:24294   */\n      dup2\n        /* \"#utility.yul\":24286:24306   */\n      sub\n        /* \"#utility.yul\":24282:24283   */\n      0x00\n        /* \"#utility.yul\":24271:24280   */\n      dup4\n        /* \"#utility.yul\":24267:24284   */\n      add\n        /* \"#utility.yul\":24260:24307   */\n      mstore\n        /* \"#utility.yul\":24324:24455   */\n      tag_672\n        /* \"#utility.yul\":24450:24454   */\n      dup2\n        /* \"#utility.yul\":24324:24455   */\n      tag_426\n      jump\t// in\n    tag_672:\n        /* \"#utility.yul\":24316:24455   */\n      swap1\n      pop\n        /* \"#utility.yul\":24043:24462   */\n      swap2\n      swap1\n      pop\n      jump\t// out\n        /* \"#utility.yul\":24468:24650   */\n    tag_427:\n        /* \"#utility.yul\":24608:24642   */\n      0x596f7520617265206e6f7420656c696769626c6520746f207769746864726177\n        /* \"#utility.yul\":24604:24605   */\n      0x00\n        /* \"#utility.yul\":24596:24602   */\n      dup3\n        /* \"#utility.yul\":24592:24606   */\n      add\n        /* \"#utility.yul\":24585:24643   */\n      mstore\n        /* \"#utility.yul\":24468:24650   */\n      pop\n      jump\t// out\n        /* \"#utility.yul\":24656:25022   */\n    tag_428:\n        /* \"#utility.yul\":24798:24801   */\n      0x00\n        /* \"#utility.yul\":24819:24886   */\n      tag_675\n        /* \"#utility.yul\":24883:24885   */\n      0x20\n        /* \"#utility.yul\":24878:24881   */\n      dup4\n        /* \"#utility.yul\":24819:24886   */\n      tag_401\n      jump\t// in\n    tag_675:\n        /* \"#utility.yul\":24812:24886   */\n      swap2\n      pop\n        /* \"#utility.yul\":24895:24988   */\n      tag_676\n        /* \"#utility.yul\":24984:24987   */\n      dup3\n        /* \"#utility.yul\":24895:24988   */\n      tag_427\n      jump\t// in\n    tag_676:\n        /* \"#utility.yul\":25013:25015   */\n      0x20\n        /* \"#utility.yul\":25008:25011   */\n      dup3\n        /* \"#utility.yul\":25004:25016   */\n      add\n        /* \"#utility.yul\":24997:25016   */\n      swap1\n      pop\n        /* \"#utility.yul\":24656:25022   */\n      swap2\n      swap1\n      pop\n      jump\t// out\n        /* \"#utility.yul\":25028:25447   */\n    tag_296:\n        /* \"#utility.yul\":25194:25198   */\n      0x00\n        /* \"#utility.yul\":25232:25234   */\n      0x20\n        /* \"#utility.yul\":25221:25230   */\n      dup3\n        /* \"#utility.yul\":25217:25235   */\n      add\n        /* \"#utility.yul\":25209:25235   */\n      swap1\n      pop\n        /* \"#utility.yul\":25281:25290   */\n      dup2\n        /* \"#utility.yul\":25275:25279   */\n      dup2\n        /* \"#utility.yul\":25271:25291   */\n      sub\n        /* \"#utility.yul\":25267:25268   */\n      0x00\n        /* \"#utility.yul\":25256:25265   */\n      dup4\n        /* \"#utility.yul\":25252:25269   */\n      add\n        /* \"#utility.yul\":25245:25292   */\n      mstore\n        /* \"#utility.yul\":25309:25440   */\n      tag_678\n        /* \"#utility.yul\":25435:25439   */\n      dup2\n        /* \"#utility.yul\":25309:25440   */\n      tag_428\n      jump\t// in\n    tag_678:\n        /* \"#utility.yul\":25301:25440   */\n      swap1\n      pop\n        /* \"#utility.yul\":25028:25447   */\n      swap2\n      swap1\n      pop\n      jump\t// out\n        /* \"#utility.yul\":25453:25644   */\n    tag_314:\n        /* \"#utility.yul\":25493:25496   */\n      0x00\n        /* \"#utility.yul\":25512:25532   */\n      tag_680\n        /* \"#utility.yul\":25530:25531   */\n      dup3\n        /* \"#utility.yul\":25512:25532   */\n      tag_372\n      jump\t// in\n    tag_680:\n        /* \"#utility.yul\":25507:25532   */\n      swap2\n      pop\n        /* \"#utility.yul\":25546:25566   */\n      tag_681\n        /* \"#utility.yul\":25564:25565   */\n      dup4\n        /* \"#utility.yul\":25546:25566   */\n      tag_372\n      jump\t// in\n    tag_681:\n        /* \"#utility.yul\":25541:25566   */\n      swap3\n      pop\n        /* \"#utility.yul\":25589:25590   */\n      dup3\n        /* \"#utility.yul\":25586:25587   */\n      dup3\n        /* \"#utility.yul\":25582:25591   */\n      add\n        /* \"#utility.yul\":25575:25591   */\n      swap1\n      pop\n        /* \"#utility.yul\":25610:25613   */\n      dup1\n        /* \"#utility.yul\":25607:25608   */\n      dup3\n        /* \"#utility.yul\":25604:25614   */\n      gt\n        /* \"#utility.yul\":25601:25637   */\n      iszero\n      tag_682\n      jumpi\n        /* \"#utility.yul\":25617:25635   */\n      tag_683\n      tag_399\n      jump\t// in\n    tag_683:\n        /* \"#utility.yul\":25601:25637   */\n    tag_682:\n        /* \"#utility.yul\":25453:25644   */\n      swap3\n      swap2\n      pop\n      pop\n      jump\t// out\n        /* \"#utility.yul\":25650:25835   */\n    tag_321:\n        /* \"#utility.yul\":25690:25691   */\n      0x00\n        /* \"#utility.yul\":25707:25727   */\n      tag_685\n        /* \"#utility.yul\":25725:25726   */\n      dup3\n        /* \"#utility.yul\":25707:25727   */\n      tag_372\n      jump\t// in\n    tag_685:\n        /* \"#utility.yul\":25702:25727   */\n      swap2\n      pop\n        /* \"#utility.yul\":25741:25761   */\n      tag_686\n        /* \"#utility.yul\":25759:25760   */\n      dup4\n        /* \"#utility.yul\":25741:25761   */\n      tag_372\n      jump\t// in\n    tag_686:\n        /* \"#utility.yul\":25736:25761   */\n      swap3\n      pop\n        /* \"#utility.yul\":25780:25781   */\n      dup3\n        /* \"#utility.yul\":25770:25805   */\n      tag_687\n      jumpi\n        /* \"#utility.yul\":25785:25803   */\n      tag_688\n      tag_424\n      jump\t// in\n    tag_688:\n        /* \"#utility.yul\":25770:25805   */\n    tag_687:\n        /* \"#utility.yul\":25827:25828   */\n      dup3\n        /* \"#utility.yul\":25824:25825   */\n      dup3\n        /* \"#utility.yul\":25820:25829   */\n      div\n        /* \"#utility.yul\":25815:25829   */\n      swap1\n      pop\n        /* \"#utility.yul\":25650:25835   */\n      swap3\n      swap2\n      pop\n      pop\n      jump\t// out\n        /* \"#utility.yul\":25841:25918   */\n    tag_429:\n        /* \"#utility.yul\":25878:25885   */\n      0x00\n        /* \"#utility.yul\":25907:25912   */\n      dup2\n        /* \"#utility.yul\":25896:25912   */\n      swap1\n      pop\n        /* \"#utility.yul\":25841:25918   */\n      swap2\n      swap1\n      pop\n      jump\t// out\n        /* \"#utility.yul\":25924:26042   */\n    tag_430:\n        /* \"#utility.yul\":26011:26035   */\n      tag_691\n        /* \"#utility.yul\":26029:26034   */\n      dup2\n        /* \"#utility.yul\":26011:26035   */\n      tag_429\n      jump\t// in\n    tag_691:\n        /* \"#utility.yul\":26006:26009   */\n      dup3\n        /* \"#utility.yul\":25999:26036   */\n      mstore\n        /* \"#utility.yul\":25924:26042   */\n      pop\n      pop\n      jump\t// out\n        /* \"#utility.yul\":26048:26149   */\n    tag_431:\n        /* \"#utility.yul\":26084:26091   */\n      0x00\n        /* \"#utility.yul\":26124:26142   */\n      0xffffffffffffffff\n        /* \"#utility.yul\":26117:26122   */\n      dup3\n        /* \"#utility.yul\":26113:26143   */\n      and\n        /* \"#utility.yul\":26102:26143   */\n      swap1\n      pop\n        /* \"#utility.yul\":26048:26149   */\n      swap2\n      swap1\n      pop\n      jump\t// out\n        /* \"#utility.yul\":26155:26270   */\n    tag_432:\n        /* \"#utility.yul\":26240:26263   */\n      tag_694\n        /* \"#utility.yul\":26257:26262   */\n      dup2\n        /* \"#utility.yul\":26240:26263   */\n      tag_431\n      jump\t// in\n    tag_694:\n        /* \"#utility.yul\":26235:26238   */\n      dup3\n        /* \"#utility.yul\":26228:26264   */\n      mstore\n        /* \"#utility.yul\":26155:26270   */\n      pop\n      pop\n      jump\t// out\n        /* \"#utility.yul\":26276:26336   */\n    tag_433:\n        /* \"#utility.yul\":26304:26307   */\n      0x00\n        /* \"#utility.yul\":26325:26330   */\n      dup2\n        /* \"#utility.yul\":26318:26330   */\n      swap1\n      pop\n        /* \"#utility.yul\":26276:26336   */\n      swap2\n      swap1\n      pop\n      jump\t// out\n        /* \"#utility.yul\":26342:26478   */\n    tag_434:\n        /* \"#utility.yul\":26389:26398   */\n      0x00\n        /* \"#utility.yul\":26422:26472   */\n      tag_697\n        /* \"#utility.yul\":26439:26471   */\n      tag_698\n        /* \"#utility.yul\":26448:26470   */\n      tag_699\n        /* \"#utility.yul\":26464:26469   */\n      dup5\n        /* \"#utility.yul\":26448:26470   */\n      tag_392\n      jump\t// in\n    tag_699:\n        /* \"#utility.yul\":26439:26471   */\n      tag_433\n      jump\t// in\n    tag_698:\n        /* \"#utility.yul\":26422:26472   */\n      tag_375\n      jump\t// in\n    tag_697:\n        /* \"#utility.yul\":26409:26472   */\n      swap1\n      pop\n        /* \"#utility.yul\":26342:26478   */\n      swap2\n      swap1\n      pop\n      jump\t// out\n        /* \"#utility.yul\":26484:26609   */\n    tag_435:\n        /* \"#utility.yul\":26568:26602   */\n      tag_701\n        /* \"#utility.yul\":26596:26601   */\n      dup2\n        /* \"#utility.yul\":26568:26602   */\n      tag_434\n      jump\t// in\n    tag_701:\n        /* \"#utility.yul\":26563:26566   */\n      dup3\n        /* \"#utility.yul\":26556:26603   */\n      mstore\n        /* \"#utility.yul\":26484:26609   */\n      pop\n      pop\n      jump\t// out\n        /* \"#utility.yul\":26615:26751   */\n    tag_436:\n        /* \"#utility.yul\":26662:26671   */\n      0x00\n        /* \"#utility.yul\":26695:26745   */\n      tag_703\n        /* \"#utility.yul\":26712:26744   */\n      tag_704\n        /* \"#utility.yul\":26721:26743   */\n      tag_705\n        /* \"#utility.yul\":26737:26742   */\n      dup5\n        /* \"#utility.yul\":26721:26743   */\n      tag_392\n      jump\t// in\n    tag_705:\n        /* \"#utility.yul\":26712:26744   */\n      tag_433\n      jump\t// in\n    tag_704:\n        /* \"#utility.yul\":26695:26745   */\n      tag_367\n      jump\t// in\n    tag_703:\n        /* \"#utility.yul\":26682:26745   */\n      swap1\n      pop\n        /* \"#utility.yul\":26615:26751   */\n      swap2\n      swap1\n      pop\n      jump\t// out\n        /* \"#utility.yul\":26757:26882   */\n    tag_437:\n        /* \"#utility.yul\":26841:26875   */\n      tag_707\n        /* \"#utility.yul\":26869:26874   */\n      dup2\n        /* \"#utility.yul\":26841:26875   */\n      tag_436\n      jump\t// in\n    tag_707:\n        /* \"#utility.yul\":26836:26839   */\n      dup3\n        /* \"#utility.yul\":26829:26876   */\n      mstore\n        /* \"#utility.yul\":26757:26882   */\n      pop\n      pop\n      jump\t// out\n        /* \"#utility.yul\":26888:27532   */\n    tag_337:\n        /* \"#utility.yul\":27083:27087   */\n      0x00\n        /* \"#utility.yul\":27121:27124   */\n      0xa0\n        /* \"#utility.yul\":27110:27119   */\n      dup3\n        /* \"#utility.yul\":27106:27125   */\n      add\n        /* \"#utility.yul\":27098:27125   */\n      swap1\n      pop\n        /* \"#utility.yul\":27135:27206   */\n      tag_709\n        /* \"#utility.yul\":27203:27204   */\n      0x00\n        /* \"#utility.yul\":27192:27201   */\n      dup4\n        /* \"#utility.yul\":27188:27205   */\n      add\n        /* \"#utility.yul\":27179:27185   */\n      dup9\n        /* \"#utility.yul\":27135:27206   */\n      tag_430\n      jump\t// in\n    tag_709:\n        /* \"#utility.yul\":27216:27286   */\n      tag_710\n        /* \"#utility.yul\":27282:27284   */\n      0x20\n        /* \"#utility.yul\":27271:27280   */\n      dup4\n        /* \"#utility.yul\":27267:27285   */\n      add\n        /* \"#utility.yul\":27258:27264   */\n      dup8\n        /* \"#utility.yul\":27216:27286   */\n      tag_432\n      jump\t// in\n    tag_710:\n        /* \"#utility.yul\":27296:27365   */\n      tag_711\n        /* \"#utility.yul\":27361:27363   */\n      0x40\n        /* \"#utility.yul\":27350:27359   */\n      dup4\n        /* \"#utility.yul\":27346:27364   */\n      add\n        /* \"#utility.yul\":27337:27343   */\n      dup7\n        /* \"#utility.yul\":27296:27365   */\n      tag_435\n      jump\t// in\n    tag_711:\n        /* \"#utility.yul\":27375:27445   */\n      tag_712\n        /* \"#utility.yul\":27441:27443   */\n      0x60\n        /* \"#utility.yul\":27430:27439   */\n      dup4\n        /* \"#utility.yul\":27426:27444   */\n      add\n        /* \"#utility.yul\":27417:27423   */\n      dup6\n        /* \"#utility.yul\":27375:27445   */\n      tag_368\n      jump\t// in\n    tag_712:\n        /* \"#utility.yul\":27455:27525   */\n      tag_713\n        /* \"#utility.yul\":27520:27523   */\n      0x80\n        /* \"#utility.yul\":27509:27518   */\n      dup4\n        /* \"#utility.yul\":27505:27524   */\n      add\n        /* \"#utility.yul\":27496:27502   */\n      dup5\n        /* \"#utility.yul\":27455:27525   */\n      tag_437\n      jump\t// in\n    tag_713:\n        /* \"#utility.yul\":26888:27532   */\n      swap7\n      swap6\n      pop\n      pop\n      pop\n      pop\n      pop\n      pop\n      jump\t// out\n        /* \"#utility.yul\":27538:27710   */\n    tag_438:\n        /* \"#utility.yul\":27678:27702   */\n      0x4f6e6c792063616c6c61626c65206279206f776e657200000000000000000000\n        /* \"#utility.yul\":27674:27675   */\n      0x00\n        /* \"#utility.yul\":27666:27672   */\n      dup3\n        /* \"#utility.yul\":27662:27676   */\n      add\n        /* \"#utility.yul\":27655:27703   */\n      mstore\n        /* \"#utility.yul\":27538:27710   */\n      pop\n      jump\t// out\n        /* \"#utility.yul\":27716:28082   */\n    tag_439:\n        /* \"#utility.yul\":27858:27861   */\n      0x00\n        /* \"#utility.yul\":27879:27946   */\n      tag_716\n        /* \"#utility.yul\":27943:27945   */\n      0x16\n        /* \"#utility.yul\":27938:27941   */\n      dup4\n        /* \"#utility.yul\":27879:27946   */\n      tag_401\n      jump\t// in\n    tag_716:\n        /* \"#utility.yul\":27872:27946   */\n      swap2\n      pop\n        /* \"#utility.yul\":27955:28048   */\n      tag_717\n        /* \"#utility.yul\":28044:28047   */\n      dup3\n        /* \"#utility.yul\":27955:28048   */\n      tag_438\n      jump\t// in\n    tag_717:\n        /* \"#utility.yul\":28073:28075   */\n      0x20\n        /* \"#utility.yul\":28068:28071   */\n      dup3\n        /* \"#utility.yul\":28064:28076   */\n      add\n        /* \"#utility.yul\":28057:28076   */\n      swap1\n      pop\n        /* \"#utility.yul\":27716:28082   */\n      swap2\n      swap1\n      pop\n      jump\t// out\n        /* \"#utility.yul\":28088:28507   */\n    tag_350:\n        /* \"#utility.yul\":28254:28258   */\n      0x00\n        /* \"#utility.yul\":28292:28294   */\n      0x20\n        /* \"#utility.yul\":28281:28290   */\n      dup3\n        /* \"#utility.yul\":28277:28295   */\n      add\n        /* \"#utility.yul\":28269:28295   */\n      swap1\n      pop\n        /* \"#utility.yul\":28341:28350   */\n      dup2\n        /* \"#utility.yul\":28335:28339   */\n      dup2\n        /* \"#utility.yul\":28331:28351   */\n      sub\n        /* \"#utility.yul\":28327:28328   */\n      0x00\n        /* \"#utility.yul\":28316:28325   */\n      dup4\n        /* \"#utility.yul\":28312:28329   */\n      add\n        /* \"#utility.yul\":28305:28352   */\n      mstore\n        /* \"#utility.yul\":28369:28500   */\n      tag_719\n        /* \"#utility.yul\":28495:28499   */\n      dup2\n        /* \"#utility.yul\":28369:28500   */\n      tag_439\n      jump\t// in\n    tag_719:\n        /* \"#utility.yul\":28361:28500   */\n      swap1\n      pop\n        /* \"#utility.yul\":28088:28507   */\n      swap2\n      swap1\n      pop\n      jump\t// out\n        /* \"#utility.yul\":28513:28680   */\n    tag_440:\n        /* \"#utility.yul\":28653:28672   */\n      0x72657175657374206e6f7420666f756e64000000000000000000000000000000\n        /* \"#utility.yul\":28649:28650   */\n      0x00\n        /* \"#utility.yul\":28641:28647   */\n      dup3\n        /* \"#utility.yul\":28637:28651   */\n      add\n        /* \"#utility.yul\":28630:28673   */\n      mstore\n        /* \"#utility.yul\":28513:28680   */\n      pop\n      jump\t// out\n        /* \"#utility.yul\":28686:29052   */\n    tag_441:\n        /* \"#utility.yul\":28828:28831   */\n      0x00\n        /* \"#utility.yul\":28849:28916   */\n      tag_722\n        /* \"#utility.yul\":28913:28915   */\n      0x11\n        /* \"#utility.yul\":28908:28911   */\n      dup4\n        /* \"#utility.yul\":28849:28916   */\n      tag_401\n      jump\t// in\n    tag_722:\n        /* \"#utility.yul\":28842:28916   */\n      swap2\n      pop\n        /* \"#utility.yul\":28925:29018   */\n      tag_723\n        /* \"#utility.yul\":29014:29017   */\n      dup3\n        /* \"#utility.yul\":28925:29018   */\n      tag_440\n      jump\t// in\n    tag_723:\n        /* \"#utility.yul\":29043:29045   */\n      0x20\n        /* \"#utility.yul\":29038:29041   */\n      dup3\n        /* \"#utility.yul\":29034:29046   */\n      add\n        /* \"#utility.yul\":29027:29046   */\n      swap1\n      pop\n        /* \"#utility.yul\":28686:29052   */\n      swap2\n      swap1\n      pop\n      jump\t// out\n        /* \"#utility.yul\":29058:29477   */\n    tag_354:\n        /* \"#utility.yul\":29224:29228   */\n      0x00\n        /* \"#utility.yul\":29262:29264   */\n      0x20\n        /* \"#utility.yul\":29251:29260   */\n      dup3\n        /* \"#utility.yul\":29247:29265   */\n      add\n        /* \"#utility.yul\":29239:29265   */\n      swap1\n      pop\n        /* \"#utility.yul\":29311:29320   */\n      dup2\n        /* \"#utility.yul\":29305:29309   */\n      dup2\n        /* \"#utility.yul\":29301:29321   */\n      sub\n        /* \"#utility.yul\":29297:29298   */\n      0x00\n        /* \"#utility.yul\":29286:29295   */\n      dup4\n        /* \"#utility.yul\":29282:29299   */\n      add\n        /* \"#utility.yul\":29275:29322   */\n      mstore\n        /* \"#utility.yul\":29339:29470   */\n      tag_725\n        /* \"#utility.yul\":29465:29469   */\n      dup2\n        /* \"#utility.yul\":29339:29470   */\n      tag_441\n      jump\t// in\n    tag_725:\n        /* \"#utility.yul\":29331:29470   */\n      swap1\n      pop\n        /* \"#utility.yul\":29058:29477   */\n      swap2\n      swap1\n      pop\n      jump\t// out\n        /* \"#utility.yul\":29483:29656   */\n    tag_442:\n        /* \"#utility.yul\":29623:29648   */\n      0x43616e6e6f74207472616e7366657220746f2073656c66000000000000000000\n        /* \"#utility.yul\":29619:29620   */\n      0x00\n        /* \"#utility.yul\":29611:29617   */\n      dup3\n        /* \"#utility.yul\":29607:29621   */\n      add\n        /* \"#utility.yul\":29600:29649   */\n      mstore\n        /* \"#utility.yul\":29483:29656   */\n      pop\n      jump\t// out\n        /* \"#utility.yul\":29662:30028   */\n    tag_443:\n        /* \"#utility.yul\":29804:29807   */\n      0x00\n        /* \"#utility.yul\":29825:29892   */\n      tag_728\n        /* \"#utility.yul\":29889:29891   */\n      0x17\n        /* \"#utility.yul\":29884:29887   */\n      dup4\n        /* \"#utility.yul\":29825:29892   */\n      tag_401\n      jump\t// in\n    tag_728:\n        /* \"#utility.yul\":29818:29892   */\n      swap2\n      pop\n        /* \"#utility.yul\":29901:29994   */\n      tag_729\n        /* \"#utility.yul\":29990:29993   */\n      dup3\n        /* \"#utility.yul\":29901:29994   */\n      tag_442\n      jump\t// in\n    tag_729:\n        /* \"#utility.yul\":30019:30021   */\n      0x20\n        /* \"#utility.yul\":30014:30017   */\n      dup3\n        /* \"#utility.yul\":30010:30022   */\n      add\n        /* \"#utility.yul\":30003:30022   */\n      swap1\n      pop\n        /* \"#utility.yul\":29662:30028   */\n      swap2\n      swap1\n      pop\n      jump\t// out\n        /* \"#utility.yul\":30034:30453   */\n    tag_359:\n        /* \"#utility.yul\":30200:30204   */\n      0x00\n        /* \"#utility.yul\":30238:30240   */\n      0x20\n        /* \"#utility.yul\":30227:30236   */\n      dup3\n        /* \"#utility.yul\":30223:30241   */\n      add\n        /* \"#utility.yul\":30215:30241   */\n      swap1\n      pop\n        /* \"#utility.yul\":30287:30296   */\n      dup2\n        /* \"#utility.yul\":30281:30285   */\n      dup2\n        /* \"#utility.yul\":30277:30297   */\n      sub\n        /* \"#utility.yul\":30273:30274   */\n      0x00\n        /* \"#utility.yul\":30262:30271   */\n      dup4\n        /* \"#utility.yul\":30258:30275   */\n      add\n        /* \"#utility.yul\":30251:30298   */\n      mstore\n        /* \"#utility.yul\":30315:30446   */\n      tag_731\n        /* \"#utility.yul\":30441:30445   */\n      dup2\n        /* \"#utility.yul\":30315:30446   */\n      tag_443\n      jump\t// in\n    tag_731:\n        /* \"#utility.yul\":30307:30446   */\n      swap1\n      pop\n        /* \"#utility.yul\":30034:30453   */\n      swap2\n      swap1\n      pop\n      jump\t// out\n\n    auxdata: 0xa2646970667358221220456ca996789d401da4adcb096a16f5a3e9dcb2ed581549fd99c7f7072d0cecad64736f6c63430008170033\n}\n",
				"bytecode": {
					"linkReferences": {},
					"object": "60a0604052620186a0600260146101000a81548163ffffffff021916908363ffffffff1602179055506003600260186101000a81548160ff021916908360ff1602179055506001600260196101000a81548160ff021916908360ff16021790555060b560035f6101000a81548167ffffffffffffffff021916908367ffffffffffffffff1602179055507f72d2b016bb5b62912afea355ebf33b91319f828738b111b723b78696b9847b635f1b6004557341034678d6c633d8a95c75e1138a360a28ba15d160055f6101000a81548173ffffffffffffffffffffffffffffffffffffffff021916908373ffffffffffffffffffffffffffffffffffffffff1602179055506019600560146101000a81548160ff021916908360ff1602179055505f600560156101000a81548163ffffffff021916908363ffffffff160217905550620186a0600560196101000a81548163ffffffff021916908363ffffffff16021790555060326005601d6101000a81548161ffff021916908361ffff160217905550670de0b6b3a76400006006556305f5e1006007556402540be400600855606460095f6101000a81548160ff021916908360ff1602179055505f600960016101000a81548160ff021916908360ff160217905550604051806101e001604052805f1515151581526020015f1515151581526020015f1515151581526020015f1515151581526020015f1515151581526020015f1515151581526020015f15151515815260200160011515151581526020015f1515151581526020015f1515151581526020015f1515151581526020015f1515151581526020015f1515151581526020015f1515151581526020015f15151515815250600a90600f6200028892919062000637565b50600a600b557342b5bce9095aec6e605991ca6de23330c43b124d600c5f6101000a81548173ffffffffffffffffffffffffffffffffffffffff021916908373ffffffffffffffffffffffffffffffffffffffff160217905550600c5f9054906101000a900473ffffffffffffffffffffffffffffffffffffffff1660165f6101000a81548173ffffffffffffffffffffffffffffffffffffffff021916908373ffffffffffffffffffffffffffffffffffffffff1602179055503480156200034f575f80fd5b5033805f60055f9054906101000a900473ffffffffffffffffffffffffffffffffffffffff168073ffffffffffffffffffffffffffffffffffffffff1660808173ffffffffffffffffffffffffffffffffffffffff1681525050505f73ffffffffffffffffffffffffffffffffffffffff168273ffffffffffffffffffffffffffffffffffffffff16036200041b576040517f08c379a000000000000000000000000000000000000000000000000000000000815260040162000412906200075a565b60405180910390fd5b815f806101000a81548173ffffffffffffffffffffffffffffffffffffffff021916908373ffffffffffffffffffffffffffffffffffffffff1602179055505f73ffffffffffffffffffffffffffffffffffffffff168173ffffffffffffffffffffffffffffffffffffffff1614620004a0576200049f816200050a60201b60201c565b5b50505060055f9054906101000a900473ffffffffffffffffffffffffffffffffffffffff1660025f6101000a81548173ffffffffffffffffffffffffffffffffffffffff021916908373ffffffffffffffffffffffffffffffffffffffff160217905550620007e8565b3373ffffffffffffffffffffffffffffffffffffffff168173ffffffffffffffffffffffffffffffffffffffff16036200057b576040517f08c379a00000000000000000000000000000000000000000000000000000000081526004016200057290620007c8565b60405180910390fd5b8060015f6101000a81548173ffffffffffffffffffffffffffffffffffffffff021916908373ffffffffffffffffffffffffffffffffffffffff1602179055508073ffffffffffffffffffffffffffffffffffffffff165f8054906101000a900473ffffffffffffffffffffffffffffffffffffffff1673ffffffffffffffffffffffffffffffffffffffff167fed8889f560326eb138920d842192f0eb3dd22b4f139c87a2c57538e05bae127860405160405180910390a350565b828054828255905f5260205f2090601f01602090048101928215620006cc579160200282015f5b838211156200069c57835183826101000a81548160ff02191690831515021790555092602001926001016020815f010492830192600103026200065e565b8015620006ca5782816101000a81549060ff02191690556001016020815f010492830192600103026200069c565b505b509050620006db9190620006df565b5090565b5b80821115620006f8575f815f905550600101620006e0565b5090565b5f82825260208201905092915050565b7f43616e6e6f7420736574206f776e657220746f207a65726f00000000000000005f82015250565b5f62000742601883620006fc565b91506200074f826200070c565b602082019050919050565b5f6020820190508181035f830152620007738162000734565b9050919050565b7f43616e6e6f74207472616e7366657220746f2073656c660000000000000000005f82015250565b5f620007b0601783620006fc565b9150620007bd826200077a565b602082019050919050565b5f6020820190508181035f830152620007e181620007a2565b9050919050565b60805161351a620008085f395f8181610c040152610c58015261351a5ff3fe608060405234801561000f575f80fd5b50600436106101a7575f3560e01c80638da5cb5b116100f7578063c24611e311610095578063dbd27a1e1161006f578063dbd27a1e1461046c578063e33fe9931461048b578063f2fde38b146104a9578063fae899b2146104c5576101a7565b8063c24611e314610402578063caa7d83a1461041e578063d25d049a1461044e576101a7565b8063aaf836ff116100d1578063aaf836ff1461038e578063b37217a4146103ac578063bd306f20146103dc578063c1cbbca7146103e6576101a7565b80638da5cb5b146103215780638f69d52c1461033f578063a168fa891461035d576101a7565b80633cb5d100116101645780635ce97dbb1161013e5780635ce97dbb146102ad5780636af3e87d146102cb5780637316a662146102e757806379ba509714610317576101a7565b80633cb5d100146102315780635017efb6146102615780635c7cdc7514610291576101a7565b806302d92032146101ab57806303ddcab8146101c95780630d616d20146101e557806314a7b7c3146101ef5780631fe543e31461020b5780633c6e531014610227575b5f80fd5b6101b36104f5565b6040516101c09190612566565b60405180910390f35b6101e360048036038101906101de91906125c3565b61050b565b005b6101ed610855565b005b61020960048036038101906102049190612625565b610bd2565b005b610225600480360381019061022091906127a0565b610c02565b005b61022f610cc2565b005b61024b600480360381019061024691906125c3565b610e03565b6040516102589190612839565b60405180910390f35b61027b6004803603810190610276919061287c565b610e3e565b60405161028891906128b6565b60405180910390f35b6102ab60048036038101906102a69190612625565b610e53565b005b6102b5610e7b565b6040516102c29190612566565b60405180910390f35b6102e560048036038101906102e09190612625565b610e91565b005b61030160048036038101906102fc919061287c565b610ea7565b60405161030e91906128b6565b60405180910390f35b61031f610ebc565b005b61032961104b565b6040516103369190612839565b60405180910390f35b610347611072565b60405161035491906128ea565b60405180910390f35b610377600480360381019061037291906125c3565b611085565b60405161038592919061291d565b60405180910390f35b6103966110bd565b6040516103a39190612839565b60405180910390f35b6103c660048036038101906103c191906125c3565b6110e2565b6040516103d391906128b6565b60405180910390f35b6103e46111b2565b005b61040060048036038101906103fb91906125c3565b611416565b005b61041c6004803603810190610417919061296e565b6118e2565b005b6104386004803603810190610433919061287c565b611908565b60405161044591906128b6565b60405180910390f35b61045661191d565b60405161046391906128b6565b60405180910390f35b610474611bbf565b604051610482929190612999565b60405180910390f35b610493612068565b6040516104a091906129cf565b60405180910390f35b6104c360048036038101906104be919061287c565b61207c565b005b6104df60048036038101906104da919061287c565b612090565b6040516104ec91906129e8565b60405180910390f35b600560159054906101000a900463ffffffff1681565b600a816105189190612a2e565b8060165f9054906101000a900473ffffffffffffffffffffffffffffffffffffffff1673ffffffffffffffffffffffffffffffffffffffff166370a08231306040518263ffffffff1660e01b81526004016105739190612839565b602060405180830381865afa15801561058e573d5f803e3d5ffd5b505050506040513d601f19601f820116820180604052508101906105b29190612a83565b10156105f3576040517f08c379a00000000000000000000000000000000000000000000000000000000081526004016105ea90612b2e565b60405180910390fd5b818060165f9054906101000a900473ffffffffffffffffffffffffffffffffffffffff1673ffffffffffffffffffffffffffffffffffffffff1663dd62ed3e33306040518363ffffffff1660e01b8152600401610651929190612b4c565b602060405180830381865afa15801561066c573d5f803e3d5ffd5b505050506040513d601f19601f820116820180604052508101906106909190612a83565b10156106d1576040517f08c379a00000000000000000000000000000000000000000000000000000000081526004016106c890612bbd565b60405180910390fd5b60165f9054906101000a900473ffffffffffffffffffffffffffffffffffffffff1673ffffffffffffffffffffffffffffffffffffffff166323b872dd3330866040518463ffffffff1660e01b815260040161072f93929190612bdb565b6020604051808303815f875af115801561074b573d5f803e3d5ffd5b505050506040513d601f19601f8201168201806040525081019061076f9190612c3a565b50600160105f3373ffffffffffffffffffffffffffffffffffffffff1673ffffffffffffffffffffffffffffffffffffffff1681526020019081526020015f205f6101000a81548160ff0219169083151502179055506107cd6120ad565b60125f3373ffffffffffffffffffffffffffffffffffffffff1673ffffffffffffffffffffffffffffffffffffffff1681526020019081526020015f20819055508260155f3373ffffffffffffffffffffffffffffffffffffffff1673ffffffffffffffffffffffffffffffffffffffff1681526020019081526020015f2081905550505050565b600e5f3373ffffffffffffffffffffffffffffffffffffffff1673ffffffffffffffffffffffffffffffffffffffff1681526020019081526020015f205f9054906101000a900460ff16156108df576040517f08c379a00000000000000000000000000000000000000000000000000000000081526004016108d690612caf565b60405180910390fd5b6001600e5f3373ffffffffffffffffffffffffffffffffffffffff1673ffffffffffffffffffffffffffffffffffffffff1681526020019081526020015f205f6101000a81548160ff0219169083151502179055505f8061093e611bbf565b915091505f821115610add57600d6001600d8054905061095e9190612ccd565b8154811061096f5761096e612d00565b5b905f5260205f20015f9054906101000a900473ffffffffffffffffffffffffffffffffffffffff16600d82815481106109ab576109aa612d00565b5b905f5260205f20015f6101000a81548173ffffffffffffffffffffffffffffffffffffffff021916908373ffffffffffffffffffffffffffffffffffffffff160217905550600d805480610a0257610a01612d2d565b5b600190038181905f5260205f20015f6101000a81549073ffffffffffffffffffffffffffffffffffffffff02191690559055600960019054906101000a900460ff1660ff1660135f3373ffffffffffffffffffffffffffffffffffffffff1673ffffffffffffffffffffffffffffffffffffffff1681526020019081526020015f2081905550600960019054906101000a900460ff1660ff1660145f3373ffffffffffffffffffffffffffffffffffffffff1673ffffffffffffffffffffffffffffffffffffffff1681526020019081526020015f20819055505b60165f9054906101000a900473ffffffffffffffffffffffffffffffffffffffff1673ffffffffffffffffffffffffffffffffffffffff1663a9059cbb33846040518363ffffffff1660e01b8152600401610b39929190612d5a565b6020604051808303815f875af1158015610b55573d5f803e3d5ffd5b505050506040513d601f19601f82011682018060405250810190610b799190612c3a565b5050505f600e5f3373ffffffffffffffffffffffffffffffffffffffff1673ffffffffffffffffffffffffffffffffffffffff1681526020019081526020015f205f6101000a81548160ff021916908315150217905550565b610bda612271565b8061ffff16600560196101000a81548163ffffffff021916908363ffffffff16021790555050565b7f000000000000000000000000000000000000000000000000000000000000000073ffffffffffffffffffffffffffffffffffffffff163373ffffffffffffffffffffffffffffffffffffffff1614610cb457337f00000000000000000000000000000000000000000000000000000000000000006040517f1cf993f4000000000000000000000000000000000000000000000000000000008152600401610cab929190612b4c565b60405180910390fd5b610cbe8282612300565b5050565b5f610ccb61191d565b90505f8111610d0f576040517f08c379a0000000000000000000000000000000000000000000000000000000008152600401610d0690612df1565b60405180910390fd5b60165f9054906101000a900473ffffffffffffffffffffffffffffffffffffffff1673ffffffffffffffffffffffffffffffffffffffff1663a9059cbb33836040518363ffffffff1660e01b8152600401610d6b929190612d5a565b6020604051808303815f875af1158015610d87573d5f803e3d5ffd5b505050506040513d601f19601f82011682018060405250810190610dab9190612c3a565b50600960019054906101000a900460ff1660ff1660155f3373ffffffffffffffffffffffffffffffffffffffff1673ffffffffffffffffffffffffffffffffffffffff1681526020019081526020015f208190555050565b600d8181548110610e12575f80fd5b905f5260205f20015f915054906101000a900473ffffffffffffffffffffffffffffffffffffffff1681565b6012602052805f5260405f205f915090505481565b610e5b612271565b806005601d6101000a81548161ffff021916908361ffff16021790555050565b600560199054906101000a900463ffffffff1681565b610e99612271565b8061ffff16600b8190555050565b6014602052805f5260405f205f915090505481565b60015f9054906101000a900473ffffffffffffffffffffffffffffffffffffffff1673ffffffffffffffffffffffffffffffffffffffff163373ffffffffffffffffffffffffffffffffffffffff1614610f4b576040517f08c379a0000000000000000000000000000000000000000000000000000000008152600401610f4290612e59565b60405180910390fd5b5f805f9054906101000a900473ffffffffffffffffffffffffffffffffffffffff169050335f806101000a81548173ffffffffffffffffffffffffffffffffffffffff021916908373ffffffffffffffffffffffffffffffffffffffff1602179055505f60015f6101000a81548173ffffffffffffffffffffffffffffffffffffffff021916908373ffffffffffffffffffffffffffffffffffffffff1602179055503373ffffffffffffffffffffffffffffffffffffffff168173ffffffffffffffffffffffffffffffffffffffff167f8be0079c531659141344cd1fd0a4f28419497f9722a3daafe3b4186f6b6457e060405160405180910390a350565b5f805f9054906101000a900473ffffffffffffffffffffffffffffffffffffffff16905090565b600560149054906101000a900460ff1681565b600f602052805f5260405f205f91509050805f015f9054906101000a900460ff1690805f0160019054906101000a900460ff16905082565b600c5f9054906101000a900473ffffffffffffffffffffffffffffffffffffffff1681565b5f80600f5f8481526020019081526020015f206040518060600160405290815f82015f9054906101000a900460ff161515151581526020015f820160019054906101000a900460ff161515151581526020016001820180548060200260200160405190810160405280929190818152602001828054801561118057602002820191905f5260205f20905b81548152602001906001019080831161116c575b505050505081525050905080604001515f815181106111a2576111a1612d00565b5b6020026020010151915050919050565b60115f3373ffffffffffffffffffffffffffffffffffffffff1673ffffffffffffffffffffffffffffffffffffffff1681526020019081526020015f205f9054906101000a900460ff161561123c576040517f08c379a000000000000000000000000000000000000000000000000000000000815260040161123390612ee7565b60405180910390fd5b600560199054906101000a900463ffffffff1663ffffffff16600560159054906101000a900463ffffffff1663ffffffff16106112ae576040517f08c379a00000000000000000000000000000000000000000000000000000000081526004016112a590612f4f565b60405180910390fd5b60165f9054906101000a900473ffffffffffffffffffffffffffffffffffffffff1673ffffffffffffffffffffffffffffffffffffffff1663a9059cbb336006546005601d9054906101000a900461ffff1661ffff1661130e9190612a2e565b6040518363ffffffff1660e01b815260040161132b929190612d5a565b6020604051808303815f875af1158015611347573d5f803e3d5ffd5b505050506040513d601f19601f8201168201806040525081019061136b9190612c3a565b506005601d9054906101000a900461ffff1661ffff16600560158282829054906101000a900463ffffffff166113a19190612f6d565b92506101000a81548163ffffffff021916908363ffffffff160217905550600160115f3373ffffffffffffffffffffffffffffffffffffffff1673ffffffffffffffffffffffffffffffffffffffff1681526020019081526020015f205f6101000a81548160ff021916908315150217905550565b600e5f3373ffffffffffffffffffffffffffffffffffffffff1673ffffffffffffffffffffffffffffffffffffffff1681526020019081526020015f205f9054906101000a900460ff16156114a0576040517f08c379a000000000000000000000000000000000000000000000000000000000815260040161149790612caf565b60405180910390fd5b6001600e5f3373ffffffffffffffffffffffffffffffffffffffff1673ffffffffffffffffffffffffffffffffffffffff1681526020019081526020015f205f6101000a81548160ff021916908315150217905550600960019054906101000a900460ff1660ff1660135f3373ffffffffffffffffffffffffffffffffffffffff1673ffffffffffffffffffffffffffffffffffffffff1681526020019081526020015f205414611586576040517f08c379a000000000000000000000000000000000000000000000000000000000815260040161157d90612fee565b60405180910390fd5b808060165f9054906101000a900473ffffffffffffffffffffffffffffffffffffffff1673ffffffffffffffffffffffffffffffffffffffff1663dd62ed3e33306040518363ffffffff1660e01b81526004016115e4929190612b4c565b602060405180830381865afa1580156115ff573d5f803e3d5ffd5b505050506040513d601f19601f820116820180604052508101906116239190612a83565b1015611664576040517f08c379a000000000000000000000000000000000000000000000000000000000815260040161165b90612bbd565b60405180910390fd5b60165f9054906101000a900473ffffffffffffffffffffffffffffffffffffffff1673ffffffffffffffffffffffffffffffffffffffff166323b872dd3330856040518463ffffffff1660e01b81526004016116c293929190612bdb565b6020604051808303815f875af11580156116de573d5f803e3d5ffd5b505050506040513d601f19601f820116820180604052508101906117029190612c3a565b508160165f9054906101000a900473ffffffffffffffffffffffffffffffffffffffff1673ffffffffffffffffffffffffffffffffffffffff166370a08231306040518263ffffffff1660e01b815260040161175e9190612839565b602060405180830381865afa158015611779573d5f803e3d5ffd5b505050506040513d601f19601f8201168201806040525081019061179d9190612a83565b6117a79190612ccd565b60145f3373ffffffffffffffffffffffffffffffffffffffff1673ffffffffffffffffffffffffffffffffffffffff1681526020019081526020015f20819055508160135f3373ffffffffffffffffffffffffffffffffffffffff1673ffffffffffffffffffffffffffffffffffffffff1681526020019081526020015f2081905550600d33908060018154018082558091505060019003905f5260205f20015f9091909190916101000a81548173ffffffffffffffffffffffffffffffffffffffff021916908373ffffffffffffffffffffffffffffffffffffffff160217905550505f600e5f3373ffffffffffffffffffffffffffffffffffffffff1673ffffffffffffffffffffffffffffffffffffffff1681526020019081526020015f205f6101000a81548160ff02191690831515021790555050565b6118ea612271565b80600560146101000a81548160ff021916908360ff16021790555050565b6013602052805f5260405f205f915090505481565b5f6001151560105f3373ffffffffffffffffffffffffffffffffffffffff1673ffffffffffffffffffffffffffffffffffffffff1681526020019081526020015f205f9054906101000a900460ff161515146119ae576040517f08c379a00000000000000000000000000000000000000000000000000000000081526004016119a590613056565b60405180910390fd5b5f60125f3373ffffffffffffffffffffffffffffffffffffffff1673ffffffffffffffffffffffffffffffffffffffff1681526020019081526020015f2054905060011515600f5f8381526020019081526020015f205f015f9054906101000a900460ff16151514611a55576040517f08c379a0000000000000000000000000000000000000000000000000000000008152600401611a4c906130be565b60405180910390fd5b5f60125f3373ffffffffffffffffffffffffffffffffffffffff1673ffffffffffffffffffffffffffffffffffffffff1681526020019081526020015f205490505f611aa0826110e2565b90505f600960019054906101000a900460ff1660ff1690505f60155f3373ffffffffffffffffffffffffffffffffffffffff1673ffffffffffffffffffffffffffffffffffffffff1681526020019081526020015f205490505f600a8054905084611b0b9190613109565b90505f600a8281548110611b2257611b21612d00565b5b905f5260205f2090602091828204019190069054906101000a900460ff1690505f151581151503611b55575f9350611b66565b600b5483611b639190612a2e565b93505b839750505050505050505f151560105f3373ffffffffffffffffffffffffffffffffffffffff1673ffffffffffffffffffffffffffffffffffffffff1681526020019081526020015f205f9054906101000a9050505090565b5f80600960019054906101000a900460ff1660ff1660135f3373ffffffffffffffffffffffffffffffffffffffff1673ffffffffffffffffffffffffffffffffffffffff1681526020019081526020015f205411611c52576040517f08c379a0000000000000000000000000000000000000000000000000000000008152600401611c49906131cf565b60405180910390fd5b60145f3373ffffffffffffffffffffffffffffffffffffffff1673ffffffffffffffffffffffffffffffffffffffff1681526020019081526020015f205460165f9054906101000a900473ffffffffffffffffffffffffffffffffffffffff1673ffffffffffffffffffffffffffffffffffffffff166370a08231306040518263ffffffff1660e01b8152600401611cea9190612839565b602060405180830381865afa158015611d05573d5f803e3d5ffd5b505050506040513d601f19601f82011682018060405250810190611d299190612a83565b11611d69576040517f08c379a0000000000000000000000000000000000000000000000000000000008152600401611d6090613237565b60405180910390fd5b5f60165f9054906101000a900473ffffffffffffffffffffffffffffffffffffffff1673ffffffffffffffffffffffffffffffffffffffff166370a08231306040518263ffffffff1660e01b8152600401611dc49190612839565b602060405180830381865afa158015611ddf573d5f803e3d5ffd5b505050506040513d601f19601f82011682018060405250810190611e039190612a83565b90505f805f805f805f90505f805f5b600d80549050811015611fc15760135f600d8381548110611e3657611e35612d00565b5b905f5260205f20015f9054906101000a900473ffffffffffffffffffffffffffffffffffffffff1673ffffffffffffffffffffffffffffffffffffffff1673ffffffffffffffffffffffffffffffffffffffff1681526020019081526020015f2054965060145f600d8381548110611eb157611eb0612d00565b5b905f5260205f20015f9054906101000a900473ffffffffffffffffffffffffffffffffffffffff1673ffffffffffffffffffffffffffffffffffffffff1673ffffffffffffffffffffffffffffffffffffffff1681526020019081526020015f20549450848a611f219190612ccd565b87611f2c9190612a2e565b97508784611f3a9190613255565b9350600d8181548110611f5057611f4f612d00565b5b905f5260205f20015f9054906101000a900473ffffffffffffffffffffffffffffffffffffffff1673ffffffffffffffffffffffffffffffffffffffff163373ffffffffffffffffffffffffffffffffffffffff1603611fb457879850869550809a505b8080600101915050611e12565b5060075489846007548b611fd59190612a2e565b611fdf9190613288565b611fe99190612a2e565b611ff39190613288565b9150848211156120495760095f9054906101000a900460ff1660ff16858361201b9190612ccd565b600560149054906101000a900460ff1660ff166120389190612a2e565b6120429190613288565b905061204d565b5f90505b80826120599190612ccd565b9a505050505050505050509091565b6005601d9054906101000a900461ffff1681565b612084612271565b61208d816123b8565b50565b6011602052805f5260405f205f915054906101000a900460ff1681565b5f60025f9054906101000a900473ffffffffffffffffffffffffffffffffffffffff1673ffffffffffffffffffffffffffffffffffffffff16635d3b1d3060045460035f9054906101000a900467ffffffffffffffff16600260189054906101000a900460ff16600260149054906101000a900463ffffffff16600260199054906101000a900460ff166040518663ffffffff1660e01b815260040161215795949392919061335b565b6020604051808303815f875af1158015612173573d5f803e3d5ffd5b505050506040513d601f19601f820116820180604052508101906121979190612a83565b905060405180606001604052805f151581526020016001151581526020015f67ffffffffffffffff8111156121cf576121ce612664565b5b6040519080825280602002602001820160405280156121fd5781602001602082028036833780820191505090505b50815250600f5f8381526020019081526020015f205f820151815f015f6101000a81548160ff0219169083151502179055506020820151815f0160016101000a81548160ff021916908315150217905550604082015181600101908051906020019061226a9291906124e2565b5090505090565b5f8054906101000a900473ffffffffffffffffffffffffffffffffffffffff1673ffffffffffffffffffffffffffffffffffffffff163373ffffffffffffffffffffffffffffffffffffffff16146122fe576040517f08c379a00000000000000000000000000000000000000000000000000000000081526004016122f5906133f6565b60405180910390fd5b565b600f5f8381526020019081526020015f205f0160019054906101000a900460ff16612360576040517f08c379a00000000000000000000000000000000000000000000000000000000081526004016123579061345e565b60405180910390fd5b6001600f5f8481526020019081526020015f205f015f6101000a81548160ff02191690831515021790555080600f5f8481526020019081526020015f2060010190805190602001906123b39291906124e2565b505050565b3373ffffffffffffffffffffffffffffffffffffffff168173ffffffffffffffffffffffffffffffffffffffff1603612426576040517f08c379a000000000000000000000000000000000000000000000000000000000815260040161241d906134c6565b60405180910390fd5b8060015f6101000a81548173ffffffffffffffffffffffffffffffffffffffff021916908373ffffffffffffffffffffffffffffffffffffffff1602179055508073ffffffffffffffffffffffffffffffffffffffff165f8054906101000a900473ffffffffffffffffffffffffffffffffffffffff1673ffffffffffffffffffffffffffffffffffffffff167fed8889f560326eb138920d842192f0eb3dd22b4f139c87a2c57538e05bae127860405160405180910390a350565b828054828255905f5260205f2090810192821561251c579160200282015b8281111561251b578251825591602001919060010190612500565b5b509050612529919061252d565b5090565b5b80821115612544575f815f90555060010161252e565b5090565b5f63ffffffff82169050919050565b61256081612548565b82525050565b5f6020820190506125795f830184612557565b92915050565b5f604051905090565b5f80fd5b5f80fd5b5f819050919050565b6125a281612590565b81146125ac575f80fd5b50565b5f813590506125bd81612599565b92915050565b5f602082840312156125d8576125d7612588565b5b5f6125e5848285016125af565b91505092915050565b5f61ffff82169050919050565b612604816125ee565b811461260e575f80fd5b50565b5f8135905061261f816125fb565b92915050565b5f6020828403121561263a57612639612588565b5b5f61264784828501612611565b91505092915050565b5f80fd5b5f601f19601f8301169050919050565b7f4e487b71000000000000000000000000000000000000000000000000000000005f52604160045260245ffd5b61269a82612654565b810181811067ffffffffffffffff821117156126b9576126b8612664565b5b80604052505050565b5f6126cb61257f565b90506126d78282612691565b919050565b5f67ffffffffffffffff8211156126f6576126f5612664565b5b602082029050602081019050919050565b5f80fd5b5f61271d612718846126dc565b6126c2565b905080838252602082019050602084028301858111156127405761273f612707565b5b835b81811015612769578061275588826125af565b845260208401935050602081019050612742565b5050509392505050565b5f82601f83011261278757612786612650565b5b813561279784826020860161270b565b91505092915050565b5f80604083850312156127b6576127b5612588565b5b5f6127c3858286016125af565b925050602083013567ffffffffffffffff8111156127e4576127e361258c565b5b6127f085828601612773565b9150509250929050565b5f73ffffffffffffffffffffffffffffffffffffffff82169050919050565b5f612823826127fa565b9050919050565b61283381612819565b82525050565b5f60208201905061284c5f83018461282a565b92915050565b61285b81612819565b8114612865575f80fd5b50565b5f8135905061287681612852565b92915050565b5f6020828403121561289157612890612588565b5b5f61289e84828501612868565b91505092915050565b6128b081612590565b82525050565b5f6020820190506128c95f8301846128a7565b92915050565b5f60ff82169050919050565b6128e4816128cf565b82525050565b5f6020820190506128fd5f8301846128db565b92915050565b5f8115159050919050565b61291781612903565b82525050565b5f6040820190506129305f83018561290e565b61293d602083018461290e565b9392505050565b61294d816128cf565b8114612957575f80fd5b50565b5f8135905061296881612944565b92915050565b5f6020828403121561298357612982612588565b5b5f6129908482850161295a565b91505092915050565b5f6040820190506129ac5f8301856128a7565b6129b960208301846128a7565b9392505050565b6129c9816125ee565b82525050565b5f6020820190506129e25f8301846129c0565b92915050565b5f6020820190506129fb5f83018461290e565b92915050565b7f4e487b71000000000000000000000000000000000000000000000000000000005f52601160045260245ffd5b5f612a3882612590565b9150612a4383612590565b9250828202612a5181612590565b91508282048414831517612a6857612a67612a01565b5b5092915050565b5f81519050612a7d81612599565b92915050565b5f60208284031215612a9857612a97612588565b5b5f612aa584828501612a6f565b91505092915050565b5f82825260208201905092915050565b7f4e6f7420656e6f75676820534c5420696e20636f6e747261637420746f20656e5f8201527f61626c6520746869732064726177000000000000000000000000000000000000602082015250565b5f612b18602e83612aae565b9150612b2382612abe565b604082019050919050565b5f6020820190508181035f830152612b4581612b0c565b9050919050565b5f604082019050612b5f5f83018561282a565b612b6c602083018461282a565b9392505050565b7f496e73756666696369656e7420534c5420616c6c6f77616e63650000000000005f82015250565b5f612ba7601a83612aae565b9150612bb282612b73565b602082019050919050565b5f6020820190508181035f830152612bd481612b9b565b9050919050565b5f606082019050612bee5f83018661282a565b612bfb602083018561282a565b612c0860408301846128a7565b949350505050565b612c1981612903565b8114612c23575f80fd5b50565b5f81519050612c3481612c10565b92915050565b5f60208284031215612c4f57612c4e612588565b5b5f612c5c84828501612c26565b91505092915050565b7f5265656e7472616e63792067756172643a206c6f636b656400000000000000005f82015250565b5f612c99601883612aae565b9150612ca482612c65565b602082019050919050565b5f6020820190508181035f830152612cc681612c8d565b9050919050565b5f612cd782612590565b9150612ce283612590565b9250828203905081811115612cfa57612cf9612a01565b5b92915050565b7f4e487b71000000000000000000000000000000000000000000000000000000005f52603260045260245ffd5b7f4e487b71000000000000000000000000000000000000000000000000000000005f52603160045260245ffd5b5f604082019050612d6d5f83018561282a565b612d7a60208301846128a7565b9392505050565b7f596f7520646964206e6f742077696e2e20426574746572206c75636b206e65785f8201527f742074696d652100000000000000000000000000000000000000000000000000602082015250565b5f612ddb602783612aae565b9150612de682612d81565b604082019050919050565b5f6020820190508181035f830152612e0881612dcf565b9050919050565b7f4d7573742062652070726f706f736564206f776e6572000000000000000000005f82015250565b5f612e43601683612aae565b9150612e4e82612e0f565b602082019050919050565b5f6020820190508181035f830152612e7081612e37565b9050919050565b7f596f75206861766520616c726561647920636c61696d656420616e20616972645f8201527f726f700000000000000000000000000000000000000000000000000000000000602082015250565b5f612ed1602383612aae565b9150612edc82612e77565b604082019050919050565b5f6020820190508181035f830152612efe81612ec5565b9050919050565b7f41697264726f70204e6f7420417661696c61626c652043757272656e746c79005f82015250565b5f612f39601f83612aae565b9150612f4482612f05565b602082019050919050565b5f6020820190508181035f830152612f6681612f2d565b9050919050565b5f612f7782612548565b9150612f8283612548565b9250828201905063ffffffff811115612f9e57612f9d612a01565b5b92915050565b7f436f6e7472696275746f7220616c7265616479206578697374730000000000005f82015250565b5f612fd8601a83612aae565b9150612fe382612fa4565b602082019050919050565b5f6020820190508181035f83015261300581612fcc565b9050919050565b7f4e6f742061207061727469636970616e742e2043686f6f7365206120647261775f82015250565b5f613040602083612aae565b915061304b8261300c565b602082019050919050565b5f6020820190508181035f83015261306d81613034565b9050919050565b7f52616e646f6d204e756d626572206e6f74207965742047656e657261746564005f82015250565b5f6130a8601f83612aae565b91506130b382613074565b602082019050919050565b5f6020820190508181035f8301526130d58161309c565b9050919050565b7f4e487b71000000000000000000000000000000000000000000000000000000005f52601260045260245ffd5b5f61311382612590565b915061311e83612590565b92508261312e5761312d6130dc565b5b828206905092915050565b7f436f6e7472696275746f722063757272656e746c7920646f6573206e6f7420685f8201527f61766520616e792066756e64732077697468696e2074686520636f6e7472616360208201527f7400000000000000000000000000000000000000000000000000000000000000604082015250565b5f6131b9604183612aae565b91506131c482613139565b606082019050919050565b5f6020820190508181035f8301526131e6816131ad565b9050919050565b7f596f7520617265206e6f7420656c696769626c6520746f2077697468647261775f82015250565b5f613221602083612aae565b915061322c826131ed565b602082019050919050565b5f6020820190508181035f83015261324e81613215565b9050919050565b5f61325f82612590565b915061326a83612590565b925082820190508082111561328257613281612a01565b5b92915050565b5f61329282612590565b915061329d83612590565b9250826132ad576132ac6130dc565b5b828204905092915050565b5f819050919050565b6132ca816132b8565b82525050565b5f67ffffffffffffffff82169050919050565b6132ec816132d0565b82525050565b5f819050919050565b5f61331561331061330b846128cf565b6132f2565b6125ee565b9050919050565b613325816132fb565b82525050565b5f61334561334061333b846128cf565b6132f2565b612548565b9050919050565b6133558161332b565b82525050565b5f60a08201905061336e5f8301886132c1565b61337b60208301876132e3565b613388604083018661331c565b6133956060830185612557565b6133a2608083018461334c565b9695505050505050565b7f4f6e6c792063616c6c61626c65206279206f776e6572000000000000000000005f82015250565b5f6133e0601683612aae565b91506133eb826133ac565b602082019050919050565b5f6020820190508181035f83015261340d816133d4565b9050919050565b7f72657175657374206e6f7420666f756e640000000000000000000000000000005f82015250565b5f613448601183612aae565b915061345382613414565b602082019050919050565b5f6020820190508181035f8301526134758161343c565b9050919050565b7f43616e6e6f74207472616e7366657220746f2073656c660000000000000000005f82015250565b5f6134b0601783612aae565b91506134bb8261347c565b602082019050919050565b5f6020820190508181035f8301526134dd816134a4565b905091905056fea2646970667358221220456ca996789d401da4adcb096a16f5a3e9dcb2ed581549fd99c7f7072d0cecad64736f6c63430008170033",
					"opcodes": "PUSH1 0xA0 PUSH1 0x40 MSTORE PUSH3 0x186A0 PUSH1 0x2 PUSH1 0x14 PUSH2 0x100 EXP DUP2 SLOAD DUP2 PUSH4 0xFFFFFFFF MUL NOT AND SWAP1 DUP4 PUSH4 0xFFFFFFFF AND MUL OR SWAP1 SSTORE POP PUSH1 0x3 PUSH1 0x2 PUSH1 0x18 PUSH2 0x100 EXP DUP2 SLOAD DUP2 PUSH1 0xFF MUL NOT AND SWAP1 DUP4 PUSH1 0xFF AND MUL OR SWAP1 SSTORE POP PUSH1 0x1 PUSH1 0x2 PUSH1 0x19 PUSH2 0x100 EXP DUP2 SLOAD DUP2 PUSH1 0xFF MUL NOT AND SWAP1 DUP4 PUSH1 0xFF AND MUL OR SWAP1 SSTORE POP PUSH1 0xB5 PUSH1 0x3 PUSH0 PUSH2 0x100 EXP DUP2 SLOAD DUP2 PUSH8 0xFFFFFFFFFFFFFFFF MUL NOT AND SWAP1 DUP4 PUSH8 0xFFFFFFFFFFFFFFFF AND MUL OR SWAP1 SSTORE POP PUSH32 0x72D2B016BB5B62912AFEA355EBF33B91319F828738B111B723B78696B9847B63 PUSH0 SHL PUSH1 0x4 SSTORE PUSH20 0x41034678D6C633D8A95C75E1138A360A28BA15D1 PUSH1 0x5 PUSH0 PUSH2 0x100 EXP DUP2 SLOAD DUP2 PUSH20 0xFFFFFFFFFFFFFFFFFFFFFFFFFFFFFFFFFFFFFFFF MUL NOT AND SWAP1 DUP4 PUSH20 0xFFFFFFFFFFFFFFFFFFFFFFFFFFFFFFFFFFFFFFFF AND MUL OR SWAP1 SSTORE POP PUSH1 0x19 PUSH1 0x5 PUSH1 0x14 PUSH2 0x100 EXP DUP2 SLOAD DUP2 PUSH1 0xFF MUL NOT AND SWAP1 DUP4 PUSH1 0xFF AND MUL OR SWAP1 SSTORE POP PUSH0 PUSH1 0x5 PUSH1 0x15 PUSH2 0x100 EXP DUP2 SLOAD DUP2 PUSH4 0xFFFFFFFF MUL NOT AND SWAP1 DUP4 PUSH4 0xFFFFFFFF AND MUL OR SWAP1 SSTORE POP PUSH3 0x186A0 PUSH1 0x5 PUSH1 0x19 PUSH2 0x100 EXP DUP2 SLOAD DUP2 PUSH4 0xFFFFFFFF MUL NOT AND SWAP1 DUP4 PUSH4 0xFFFFFFFF AND MUL OR SWAP1 SSTORE POP PUSH1 0x32 PUSH1 0x5 PUSH1 0x1D PUSH2 0x100 EXP DUP2 SLOAD DUP2 PUSH2 0xFFFF MUL NOT AND SWAP1 DUP4 PUSH2 0xFFFF AND MUL OR SWAP1 SSTORE POP PUSH8 0xDE0B6B3A7640000 PUSH1 0x6 SSTORE PUSH4 0x5F5E100 PUSH1 0x7 SSTORE PUSH5 0x2540BE400 PUSH1 0x8 SSTORE PUSH1 0x64 PUSH1 0x9 PUSH0 PUSH2 0x100 EXP DUP2 SLOAD DUP2 PUSH1 0xFF MUL NOT AND SWAP1 DUP4 PUSH1 0xFF AND MUL OR SWAP1 SSTORE POP PUSH0 PUSH1 0x9 PUSH1 0x1 PUSH2 0x100 EXP DUP2 SLOAD DUP2 PUSH1 0xFF MUL NOT AND SWAP1 DUP4 PUSH1 0xFF AND MUL OR SWAP1 SSTORE POP PUSH1 0x40 MLOAD DUP1 PUSH2 0x1E0 ADD PUSH1 0x40 MSTORE DUP1 PUSH0 ISZERO ISZERO ISZERO ISZERO DUP2 MSTORE PUSH1 0x20 ADD PUSH0 ISZERO ISZERO ISZERO ISZERO DUP2 MSTORE PUSH1 0x20 ADD PUSH0 ISZERO ISZERO ISZERO ISZERO DUP2 MSTORE PUSH1 0x20 ADD PUSH0 ISZERO ISZERO ISZERO ISZERO DUP2 MSTORE PUSH1 0x20 ADD PUSH0 ISZERO ISZERO ISZERO ISZERO DUP2 MSTORE PUSH1 0x20 ADD PUSH0 ISZERO ISZERO ISZERO ISZERO DUP2 MSTORE PUSH1 0x20 ADD PUSH0 ISZERO ISZERO ISZERO ISZERO DUP2 MSTORE PUSH1 0x20 ADD PUSH1 0x1 ISZERO ISZERO ISZERO ISZERO DUP2 MSTORE PUSH1 0x20 ADD PUSH0 ISZERO ISZERO ISZERO ISZERO DUP2 MSTORE PUSH1 0x20 ADD PUSH0 ISZERO ISZERO ISZERO ISZERO DUP2 MSTORE PUSH1 0x20 ADD PUSH0 ISZERO ISZERO ISZERO ISZERO DUP2 MSTORE PUSH1 0x20 ADD PUSH0 ISZERO ISZERO ISZERO ISZERO DUP2 MSTORE PUSH1 0x20 ADD PUSH0 ISZERO ISZERO ISZERO ISZERO DUP2 MSTORE PUSH1 0x20 ADD PUSH0 ISZERO ISZERO ISZERO ISZERO DUP2 MSTORE PUSH1 0x20 ADD PUSH0 ISZERO ISZERO ISZERO ISZERO DUP2 MSTORE POP PUSH1 0xA SWAP1 PUSH1 0xF PUSH3 0x288 SWAP3 SWAP2 SWAP1 PUSH3 0x637 JUMP JUMPDEST POP PUSH1 0xA PUSH1 0xB SSTORE PUSH20 0x42B5BCE9095AEC6E605991CA6DE23330C43B124D PUSH1 0xC PUSH0 PUSH2 0x100 EXP DUP2 SLOAD DUP2 PUSH20 0xFFFFFFFFFFFFFFFFFFFFFFFFFFFFFFFFFFFFFFFF MUL NOT AND SWAP1 DUP4 PUSH20 0xFFFFFFFFFFFFFFFFFFFFFFFFFFFFFFFFFFFFFFFF AND MUL OR SWAP1 SSTORE POP PUSH1 0xC PUSH0 SWAP1 SLOAD SWAP1 PUSH2 0x100 EXP SWAP1 DIV PUSH20 0xFFFFFFFFFFFFFFFFFFFFFFFFFFFFFFFFFFFFFFFF AND PUSH1 0x16 PUSH0 PUSH2 0x100 EXP DUP2 SLOAD DUP2 PUSH20 0xFFFFFFFFFFFFFFFFFFFFFFFFFFFFFFFFFFFFFFFF MUL NOT AND SWAP1 DUP4 PUSH20 0xFFFFFFFFFFFFFFFFFFFFFFFFFFFFFFFFFFFFFFFF AND MUL OR SWAP1 SSTORE POP CALLVALUE DUP1 ISZERO PUSH3 0x34F JUMPI PUSH0 DUP1 REVERT JUMPDEST POP CALLER DUP1 PUSH0 PUSH1 0x5 PUSH0 SWAP1 SLOAD SWAP1 PUSH2 0x100 EXP SWAP1 DIV PUSH20 0xFFFFFFFFFFFFFFFFFFFFFFFFFFFFFFFFFFFFFFFF AND DUP1 PUSH20 0xFFFFFFFFFFFFFFFFFFFFFFFFFFFFFFFFFFFFFFFF AND PUSH1 0x80 DUP2 PUSH20 0xFFFFFFFFFFFFFFFFFFFFFFFFFFFFFFFFFFFFFFFF AND DUP2 MSTORE POP POP POP PUSH0 PUSH20 0xFFFFFFFFFFFFFFFFFFFFFFFFFFFFFFFFFFFFFFFF AND DUP3 PUSH20 0xFFFFFFFFFFFFFFFFFFFFFFFFFFFFFFFFFFFFFFFF AND SUB PUSH3 0x41B JUMPI PUSH1 0x40 MLOAD PUSH32 0x8C379A000000000000000000000000000000000000000000000000000000000 DUP2 MSTORE PUSH1 0x4 ADD PUSH3 0x412 SWAP1 PUSH3 0x75A JUMP JUMPDEST PUSH1 0x40 MLOAD DUP1 SWAP2 SUB SWAP1 REVERT JUMPDEST DUP2 PUSH0 DUP1 PUSH2 0x100 EXP DUP2 SLOAD DUP2 PUSH20 0xFFFFFFFFFFFFFFFFFFFFFFFFFFFFFFFFFFFFFFFF MUL NOT AND SWAP1 DUP4 PUSH20 0xFFFFFFFFFFFFFFFFFFFFFFFFFFFFFFFFFFFFFFFF AND MUL OR SWAP1 SSTORE POP PUSH0 PUSH20 0xFFFFFFFFFFFFFFFFFFFFFFFFFFFFFFFFFFFFFFFF AND DUP2 PUSH20 0xFFFFFFFFFFFFFFFFFFFFFFFFFFFFFFFFFFFFFFFF AND EQ PUSH3 0x4A0 JUMPI PUSH3 0x49F DUP2 PUSH3 0x50A PUSH1 0x20 SHL PUSH1 0x20 SHR JUMP JUMPDEST JUMPDEST POP POP POP PUSH1 0x5 PUSH0 SWAP1 SLOAD SWAP1 PUSH2 0x100 EXP SWAP1 DIV PUSH20 0xFFFFFFFFFFFFFFFFFFFFFFFFFFFFFFFFFFFFFFFF AND PUSH1 0x2 PUSH0 PUSH2 0x100 EXP DUP2 SLOAD DUP2 PUSH20 0xFFFFFFFFFFFFFFFFFFFFFFFFFFFFFFFFFFFFFFFF MUL NOT AND SWAP1 DUP4 PUSH20 0xFFFFFFFFFFFFFFFFFFFFFFFFFFFFFFFFFFFFFFFF AND MUL OR SWAP1 SSTORE POP PUSH3 0x7E8 JUMP JUMPDEST CALLER PUSH20 0xFFFFFFFFFFFFFFFFFFFFFFFFFFFFFFFFFFFFFFFF AND DUP2 PUSH20 0xFFFFFFFFFFFFFFFFFFFFFFFFFFFFFFFFFFFFFFFF AND SUB PUSH3 0x57B JUMPI PUSH1 0x40 MLOAD PUSH32 0x8C379A000000000000000000000000000000000000000000000000000000000 DUP2 MSTORE PUSH1 0x4 ADD PUSH3 0x572 SWAP1 PUSH3 0x7C8 JUMP JUMPDEST PUSH1 0x40 MLOAD DUP1 SWAP2 SUB SWAP1 REVERT JUMPDEST DUP1 PUSH1 0x1 PUSH0 PUSH2 0x100 EXP DUP2 SLOAD DUP2 PUSH20 0xFFFFFFFFFFFFFFFFFFFFFFFFFFFFFFFFFFFFFFFF MUL NOT AND SWAP1 DUP4 PUSH20 0xFFFFFFFFFFFFFFFFFFFFFFFFFFFFFFFFFFFFFFFF AND MUL OR SWAP1 SSTORE POP DUP1 PUSH20 0xFFFFFFFFFFFFFFFFFFFFFFFFFFFFFFFFFFFFFFFF AND PUSH0 DUP1 SLOAD SWAP1 PUSH2 0x100 EXP SWAP1 DIV PUSH20 0xFFFFFFFFFFFFFFFFFFFFFFFFFFFFFFFFFFFFFFFF AND PUSH20 0xFFFFFFFFFFFFFFFFFFFFFFFFFFFFFFFFFFFFFFFF AND PUSH32 0xED8889F560326EB138920D842192F0EB3DD22B4F139C87A2C57538E05BAE1278 PUSH1 0x40 MLOAD PUSH1 0x40 MLOAD DUP1 SWAP2 SUB SWAP1 LOG3 POP JUMP JUMPDEST DUP3 DUP1 SLOAD DUP3 DUP3 SSTORE SWAP1 PUSH0 MSTORE PUSH1 0x20 PUSH0 KECCAK256 SWAP1 PUSH1 0x1F ADD PUSH1 0x20 SWAP1 DIV DUP2 ADD SWAP3 DUP3 ISZERO PUSH3 0x6CC JUMPI SWAP2 PUSH1 0x20 MUL DUP3 ADD PUSH0 JUMPDEST DUP4 DUP3 GT ISZERO PUSH3 0x69C JUMPI DUP4 MLOAD DUP4 DUP3 PUSH2 0x100 EXP DUP2 SLOAD DUP2 PUSH1 0xFF MUL NOT AND SWAP1 DUP4 ISZERO ISZERO MUL OR SWAP1 SSTORE POP SWAP3 PUSH1 0x20 ADD SWAP3 PUSH1 0x1 ADD PUSH1 0x20 DUP2 PUSH0 ADD DIV SWAP3 DUP4 ADD SWAP3 PUSH1 0x1 SUB MUL PUSH3 0x65E JUMP JUMPDEST DUP1 ISZERO PUSH3 0x6CA JUMPI DUP3 DUP2 PUSH2 0x100 EXP DUP2 SLOAD SWAP1 PUSH1 0xFF MUL NOT AND SWAP1 SSTORE PUSH1 0x1 ADD PUSH1 0x20 DUP2 PUSH0 ADD DIV SWAP3 DUP4 ADD SWAP3 PUSH1 0x1 SUB MUL PUSH3 0x69C JUMP JUMPDEST POP JUMPDEST POP SWAP1 POP PUSH3 0x6DB SWAP2 SWAP1 PUSH3 0x6DF JUMP JUMPDEST POP SWAP1 JUMP JUMPDEST JUMPDEST DUP1 DUP3 GT ISZERO PUSH3 0x6F8 JUMPI PUSH0 DUP2 PUSH0 SWAP1 SSTORE POP PUSH1 0x1 ADD PUSH3 0x6E0 JUMP JUMPDEST POP SWAP1 JUMP JUMPDEST PUSH0 DUP3 DUP3 MSTORE PUSH1 0x20 DUP3 ADD SWAP1 POP SWAP3 SWAP2 POP POP JUMP JUMPDEST PUSH32 0x43616E6E6F7420736574206F776E657220746F207A65726F0000000000000000 PUSH0 DUP3 ADD MSTORE POP JUMP JUMPDEST PUSH0 PUSH3 0x742 PUSH1 0x18 DUP4 PUSH3 0x6FC JUMP JUMPDEST SWAP2 POP PUSH3 0x74F DUP3 PUSH3 0x70C JUMP JUMPDEST PUSH1 0x20 DUP3 ADD SWAP1 POP SWAP2 SWAP1 POP JUMP JUMPDEST PUSH0 PUSH1 0x20 DUP3 ADD SWAP1 POP DUP2 DUP2 SUB PUSH0 DUP4 ADD MSTORE PUSH3 0x773 DUP2 PUSH3 0x734 JUMP JUMPDEST SWAP1 POP SWAP2 SWAP1 POP JUMP JUMPDEST PUSH32 0x43616E6E6F74207472616E7366657220746F2073656C66000000000000000000 PUSH0 DUP3 ADD MSTORE POP JUMP JUMPDEST PUSH0 PUSH3 0x7B0 PUSH1 0x17 DUP4 PUSH3 0x6FC JUMP JUMPDEST SWAP2 POP PUSH3 0x7BD DUP3 PUSH3 0x77A JUMP JUMPDEST PUSH1 0x20 DUP3 ADD SWAP1 POP SWAP2 SWAP1 POP JUMP JUMPDEST PUSH0 PUSH1 0x20 DUP3 ADD SWAP1 POP DUP2 DUP2 SUB PUSH0 DUP4 ADD MSTORE PUSH3 0x7E1 DUP2 PUSH3 0x7A2 JUMP JUMPDEST SWAP1 POP SWAP2 SWAP1 POP JUMP JUMPDEST PUSH1 0x80 MLOAD PUSH2 0x351A PUSH3 0x808 PUSH0 CODECOPY PUSH0 DUP2 DUP2 PUSH2 0xC04 ADD MSTORE PUSH2 0xC58 ADD MSTORE PUSH2 0x351A PUSH0 RETURN INVALID PUSH1 0x80 PUSH1 0x40 MSTORE CALLVALUE DUP1 ISZERO PUSH2 0xF JUMPI PUSH0 DUP1 REVERT JUMPDEST POP PUSH1 0x4 CALLDATASIZE LT PUSH2 0x1A7 JUMPI PUSH0 CALLDATALOAD PUSH1 0xE0 SHR DUP1 PUSH4 0x8DA5CB5B GT PUSH2 0xF7 JUMPI DUP1 PUSH4 0xC24611E3 GT PUSH2 0x95 JUMPI DUP1 PUSH4 0xDBD27A1E GT PUSH2 0x6F JUMPI DUP1 PUSH4 0xDBD27A1E EQ PUSH2 0x46C JUMPI DUP1 PUSH4 0xE33FE993 EQ PUSH2 0x48B JUMPI DUP1 PUSH4 0xF2FDE38B EQ PUSH2 0x4A9 JUMPI DUP1 PUSH4 0xFAE899B2 EQ PUSH2 0x4C5 JUMPI PUSH2 0x1A7 JUMP JUMPDEST DUP1 PUSH4 0xC24611E3 EQ PUSH2 0x402 JUMPI DUP1 PUSH4 0xCAA7D83A EQ PUSH2 0x41E JUMPI DUP1 PUSH4 0xD25D049A EQ PUSH2 0x44E JUMPI PUSH2 0x1A7 JUMP JUMPDEST DUP1 PUSH4 0xAAF836FF GT PUSH2 0xD1 JUMPI DUP1 PUSH4 0xAAF836FF EQ PUSH2 0x38E JUMPI DUP1 PUSH4 0xB37217A4 EQ PUSH2 0x3AC JUMPI DUP1 PUSH4 0xBD306F20 EQ PUSH2 0x3DC JUMPI DUP1 PUSH4 0xC1CBBCA7 EQ PUSH2 0x3E6 JUMPI PUSH2 0x1A7 JUMP JUMPDEST DUP1 PUSH4 0x8DA5CB5B EQ PUSH2 0x321 JUMPI DUP1 PUSH4 0x8F69D52C EQ PUSH2 0x33F JUMPI DUP1 PUSH4 0xA168FA89 EQ PUSH2 0x35D JUMPI PUSH2 0x1A7 JUMP JUMPDEST DUP1 PUSH4 0x3CB5D100 GT PUSH2 0x164 JUMPI DUP1 PUSH4 0x5CE97DBB GT PUSH2 0x13E JUMPI DUP1 PUSH4 0x5CE97DBB EQ PUSH2 0x2AD JUMPI DUP1 PUSH4 0x6AF3E87D EQ PUSH2 0x2CB JUMPI DUP1 PUSH4 0x7316A662 EQ PUSH2 0x2E7 JUMPI DUP1 PUSH4 0x79BA5097 EQ PUSH2 0x317 JUMPI PUSH2 0x1A7 JUMP JUMPDEST DUP1 PUSH4 0x3CB5D100 EQ PUSH2 0x231 JUMPI DUP1 PUSH4 0x5017EFB6 EQ PUSH2 0x261 JUMPI DUP1 PUSH4 0x5C7CDC75 EQ PUSH2 0x291 JUMPI PUSH2 0x1A7 JUMP JUMPDEST DUP1 PUSH4 0x2D92032 EQ PUSH2 0x1AB JUMPI DUP1 PUSH4 0x3DDCAB8 EQ PUSH2 0x1C9 JUMPI DUP1 PUSH4 0xD616D20 EQ PUSH2 0x1E5 JUMPI DUP1 PUSH4 0x14A7B7C3 EQ PUSH2 0x1EF JUMPI DUP1 PUSH4 0x1FE543E3 EQ PUSH2 0x20B JUMPI DUP1 PUSH4 0x3C6E5310 EQ PUSH2 0x227 JUMPI JUMPDEST PUSH0 DUP1 REVERT JUMPDEST PUSH2 0x1B3 PUSH2 0x4F5 JUMP JUMPDEST PUSH1 0x40 MLOAD PUSH2 0x1C0 SWAP2 SWAP1 PUSH2 0x2566 JUMP JUMPDEST PUSH1 0x40 MLOAD DUP1 SWAP2 SUB SWAP1 RETURN JUMPDEST PUSH2 0x1E3 PUSH1 0x4 DUP1 CALLDATASIZE SUB DUP2 ADD SWAP1 PUSH2 0x1DE SWAP2 SWAP1 PUSH2 0x25C3 JUMP JUMPDEST PUSH2 0x50B JUMP JUMPDEST STOP JUMPDEST PUSH2 0x1ED PUSH2 0x855 JUMP JUMPDEST STOP JUMPDEST PUSH2 0x209 PUSH1 0x4 DUP1 CALLDATASIZE SUB DUP2 ADD SWAP1 PUSH2 0x204 SWAP2 SWAP1 PUSH2 0x2625 JUMP JUMPDEST PUSH2 0xBD2 JUMP JUMPDEST STOP JUMPDEST PUSH2 0x225 PUSH1 0x4 DUP1 CALLDATASIZE SUB DUP2 ADD SWAP1 PUSH2 0x220 SWAP2 SWAP1 PUSH2 0x27A0 JUMP JUMPDEST PUSH2 0xC02 JUMP JUMPDEST STOP JUMPDEST PUSH2 0x22F PUSH2 0xCC2 JUMP JUMPDEST STOP JUMPDEST PUSH2 0x24B PUSH1 0x4 DUP1 CALLDATASIZE SUB DUP2 ADD SWAP1 PUSH2 0x246 SWAP2 SWAP1 PUSH2 0x25C3 JUMP JUMPDEST PUSH2 0xE03 JUMP JUMPDEST PUSH1 0x40 MLOAD PUSH2 0x258 SWAP2 SWAP1 PUSH2 0x2839 JUMP JUMPDEST PUSH1 0x40 MLOAD DUP1 SWAP2 SUB SWAP1 RETURN JUMPDEST PUSH2 0x27B PUSH1 0x4 DUP1 CALLDATASIZE SUB DUP2 ADD SWAP1 PUSH2 0x276 SWAP2 SWAP1 PUSH2 0x287C JUMP JUMPDEST PUSH2 0xE3E JUMP JUMPDEST PUSH1 0x40 MLOAD PUSH2 0x288 SWAP2 SWAP1 PUSH2 0x28B6 JUMP JUMPDEST PUSH1 0x40 MLOAD DUP1 SWAP2 SUB SWAP1 RETURN JUMPDEST PUSH2 0x2AB PUSH1 0x4 DUP1 CALLDATASIZE SUB DUP2 ADD SWAP1 PUSH2 0x2A6 SWAP2 SWAP1 PUSH2 0x2625 JUMP JUMPDEST PUSH2 0xE53 JUMP JUMPDEST STOP JUMPDEST PUSH2 0x2B5 PUSH2 0xE7B JUMP JUMPDEST PUSH1 0x40 MLOAD PUSH2 0x2C2 SWAP2 SWAP1 PUSH2 0x2566 JUMP JUMPDEST PUSH1 0x40 MLOAD DUP1 SWAP2 SUB SWAP1 RETURN JUMPDEST PUSH2 0x2E5 PUSH1 0x4 DUP1 CALLDATASIZE SUB DUP2 ADD SWAP1 PUSH2 0x2E0 SWAP2 SWAP1 PUSH2 0x2625 JUMP JUMPDEST PUSH2 0xE91 JUMP JUMPDEST STOP JUMPDEST PUSH2 0x301 PUSH1 0x4 DUP1 CALLDATASIZE SUB DUP2 ADD SWAP1 PUSH2 0x2FC SWAP2 SWAP1 PUSH2 0x287C JUMP JUMPDEST PUSH2 0xEA7 JUMP JUMPDEST PUSH1 0x40 MLOAD PUSH2 0x30E SWAP2 SWAP1 PUSH2 0x28B6 JUMP JUMPDEST PUSH1 0x40 MLOAD DUP1 SWAP2 SUB SWAP1 RETURN JUMPDEST PUSH2 0x31F PUSH2 0xEBC JUMP JUMPDEST STOP JUMPDEST PUSH2 0x329 PUSH2 0x104B JUMP JUMPDEST PUSH1 0x40 MLOAD PUSH2 0x336 SWAP2 SWAP1 PUSH2 0x2839 JUMP JUMPDEST PUSH1 0x40 MLOAD DUP1 SWAP2 SUB SWAP1 RETURN JUMPDEST PUSH2 0x347 PUSH2 0x1072 JUMP JUMPDEST PUSH1 0x40 MLOAD PUSH2 0x354 SWAP2 SWAP1 PUSH2 0x28EA JUMP JUMPDEST PUSH1 0x40 MLOAD DUP1 SWAP2 SUB SWAP1 RETURN JUMPDEST PUSH2 0x377 PUSH1 0x4 DUP1 CALLDATASIZE SUB DUP2 ADD SWAP1 PUSH2 0x372 SWAP2 SWAP1 PUSH2 0x25C3 JUMP JUMPDEST PUSH2 0x1085 JUMP JUMPDEST PUSH1 0x40 MLOAD PUSH2 0x385 SWAP3 SWAP2 SWAP1 PUSH2 0x291D JUMP JUMPDEST PUSH1 0x40 MLOAD DUP1 SWAP2 SUB SWAP1 RETURN JUMPDEST PUSH2 0x396 PUSH2 0x10BD JUMP JUMPDEST PUSH1 0x40 MLOAD PUSH2 0x3A3 SWAP2 SWAP1 PUSH2 0x2839 JUMP JUMPDEST PUSH1 0x40 MLOAD DUP1 SWAP2 SUB SWAP1 RETURN JUMPDEST PUSH2 0x3C6 PUSH1 0x4 DUP1 CALLDATASIZE SUB DUP2 ADD SWAP1 PUSH2 0x3C1 SWAP2 SWAP1 PUSH2 0x25C3 JUMP JUMPDEST PUSH2 0x10E2 JUMP JUMPDEST PUSH1 0x40 MLOAD PUSH2 0x3D3 SWAP2 SWAP1 PUSH2 0x28B6 JUMP JUMPDEST PUSH1 0x40 MLOAD DUP1 SWAP2 SUB SWAP1 RETURN JUMPDEST PUSH2 0x3E4 PUSH2 0x11B2 JUMP JUMPDEST STOP JUMPDEST PUSH2 0x400 PUSH1 0x4 DUP1 CALLDATASIZE SUB DUP2 ADD SWAP1 PUSH2 0x3FB SWAP2 SWAP1 PUSH2 0x25C3 JUMP JUMPDEST PUSH2 0x1416 JUMP JUMPDEST STOP JUMPDEST PUSH2 0x41C PUSH1 0x4 DUP1 CALLDATASIZE SUB DUP2 ADD SWAP1 PUSH2 0x417 SWAP2 SWAP1 PUSH2 0x296E JUMP JUMPDEST PUSH2 0x18E2 JUMP JUMPDEST STOP JUMPDEST PUSH2 0x438 PUSH1 0x4 DUP1 CALLDATASIZE SUB DUP2 ADD SWAP1 PUSH2 0x433 SWAP2 SWAP1 PUSH2 0x287C JUMP JUMPDEST PUSH2 0x1908 JUMP JUMPDEST PUSH1 0x40 MLOAD PUSH2 0x445 SWAP2 SWAP1 PUSH2 0x28B6 JUMP JUMPDEST PUSH1 0x40 MLOAD DUP1 SWAP2 SUB SWAP1 RETURN JUMPDEST PUSH2 0x456 PUSH2 0x191D JUMP JUMPDEST PUSH1 0x40 MLOAD PUSH2 0x463 SWAP2 SWAP1 PUSH2 0x28B6 JUMP JUMPDEST PUSH1 0x40 MLOAD DUP1 SWAP2 SUB SWAP1 RETURN JUMPDEST PUSH2 0x474 PUSH2 0x1BBF JUMP JUMPDEST PUSH1 0x40 MLOAD PUSH2 0x482 SWAP3 SWAP2 SWAP1 PUSH2 0x2999 JUMP JUMPDEST PUSH1 0x40 MLOAD DUP1 SWAP2 SUB SWAP1 RETURN JUMPDEST PUSH2 0x493 PUSH2 0x2068 JUMP JUMPDEST PUSH1 0x40 MLOAD PUSH2 0x4A0 SWAP2 SWAP1 PUSH2 0x29CF JUMP JUMPDEST PUSH1 0x40 MLOAD DUP1 SWAP2 SUB SWAP1 RETURN JUMPDEST PUSH2 0x4C3 PUSH1 0x4 DUP1 CALLDATASIZE SUB DUP2 ADD SWAP1 PUSH2 0x4BE SWAP2 SWAP1 PUSH2 0x287C JUMP JUMPDEST PUSH2 0x207C JUMP JUMPDEST STOP JUMPDEST PUSH2 0x4DF PUSH1 0x4 DUP1 CALLDATASIZE SUB DUP2 ADD SWAP1 PUSH2 0x4DA SWAP2 SWAP1 PUSH2 0x287C JUMP JUMPDEST PUSH2 0x2090 JUMP JUMPDEST PUSH1 0x40 MLOAD PUSH2 0x4EC SWAP2 SWAP1 PUSH2 0x29E8 JUMP JUMPDEST PUSH1 0x40 MLOAD DUP1 SWAP2 SUB SWAP1 RETURN JUMPDEST PUSH1 0x5 PUSH1 0x15 SWAP1 SLOAD SWAP1 PUSH2 0x100 EXP SWAP1 DIV PUSH4 0xFFFFFFFF AND DUP2 JUMP JUMPDEST PUSH1 0xA DUP2 PUSH2 0x518 SWAP2 SWAP1 PUSH2 0x2A2E JUMP JUMPDEST DUP1 PUSH1 0x16 PUSH0 SWAP1 SLOAD SWAP1 PUSH2 0x100 EXP SWAP1 DIV PUSH20 0xFFFFFFFFFFFFFFFFFFFFFFFFFFFFFFFFFFFFFFFF AND PUSH20 0xFFFFFFFFFFFFFFFFFFFFFFFFFFFFFFFFFFFFFFFF AND PUSH4 0x70A08231 ADDRESS PUSH1 0x40 MLOAD DUP3 PUSH4 0xFFFFFFFF AND PUSH1 0xE0 SHL DUP2 MSTORE PUSH1 0x4 ADD PUSH2 0x573 SWAP2 SWAP1 PUSH2 0x2839 JUMP JUMPDEST PUSH1 0x20 PUSH1 0x40 MLOAD DUP1 DUP4 SUB DUP2 DUP7 GAS STATICCALL ISZERO DUP1 ISZERO PUSH2 0x58E JUMPI RETURNDATASIZE PUSH0 DUP1 RETURNDATACOPY RETURNDATASIZE PUSH0 REVERT JUMPDEST POP POP POP POP PUSH1 0x40 MLOAD RETURNDATASIZE PUSH1 0x1F NOT PUSH1 0x1F DUP3 ADD AND DUP3 ADD DUP1 PUSH1 0x40 MSTORE POP DUP2 ADD SWAP1 PUSH2 0x5B2 SWAP2 SWAP1 PUSH2 0x2A83 JUMP JUMPDEST LT ISZERO PUSH2 0x5F3 JUMPI PUSH1 0x40 MLOAD PUSH32 0x8C379A000000000000000000000000000000000000000000000000000000000 DUP2 MSTORE PUSH1 0x4 ADD PUSH2 0x5EA SWAP1 PUSH2 0x2B2E JUMP JUMPDEST PUSH1 0x40 MLOAD DUP1 SWAP2 SUB SWAP1 REVERT JUMPDEST DUP2 DUP1 PUSH1 0x16 PUSH0 SWAP1 SLOAD SWAP1 PUSH2 0x100 EXP SWAP1 DIV PUSH20 0xFFFFFFFFFFFFFFFFFFFFFFFFFFFFFFFFFFFFFFFF AND PUSH20 0xFFFFFFFFFFFFFFFFFFFFFFFFFFFFFFFFFFFFFFFF AND PUSH4 0xDD62ED3E CALLER ADDRESS PUSH1 0x40 MLOAD DUP4 PUSH4 0xFFFFFFFF AND PUSH1 0xE0 SHL DUP2 MSTORE PUSH1 0x4 ADD PUSH2 0x651 SWAP3 SWAP2 SWAP1 PUSH2 0x2B4C JUMP JUMPDEST PUSH1 0x20 PUSH1 0x40 MLOAD DUP1 DUP4 SUB DUP2 DUP7 GAS STATICCALL ISZERO DUP1 ISZERO PUSH2 0x66C JUMPI RETURNDATASIZE PUSH0 DUP1 RETURNDATACOPY RETURNDATASIZE PUSH0 REVERT JUMPDEST POP POP POP POP PUSH1 0x40 MLOAD RETURNDATASIZE PUSH1 0x1F NOT PUSH1 0x1F DUP3 ADD AND DUP3 ADD DUP1 PUSH1 0x40 MSTORE POP DUP2 ADD SWAP1 PUSH2 0x690 SWAP2 SWAP1 PUSH2 0x2A83 JUMP JUMPDEST LT ISZERO PUSH2 0x6D1 JUMPI PUSH1 0x40 MLOAD PUSH32 0x8C379A000000000000000000000000000000000000000000000000000000000 DUP2 MSTORE PUSH1 0x4 ADD PUSH2 0x6C8 SWAP1 PUSH2 0x2BBD JUMP JUMPDEST PUSH1 0x40 MLOAD DUP1 SWAP2 SUB SWAP1 REVERT JUMPDEST PUSH1 0x16 PUSH0 SWAP1 SLOAD SWAP1 PUSH2 0x100 EXP SWAP1 DIV PUSH20 0xFFFFFFFFFFFFFFFFFFFFFFFFFFFFFFFFFFFFFFFF AND PUSH20 0xFFFFFFFFFFFFFFFFFFFFFFFFFFFFFFFFFFFFFFFF AND PUSH4 0x23B872DD CALLER ADDRESS DUP7 PUSH1 0x40 MLOAD DUP5 PUSH4 0xFFFFFFFF AND PUSH1 0xE0 SHL DUP2 MSTORE PUSH1 0x4 ADD PUSH2 0x72F SWAP4 SWAP3 SWAP2 SWAP1 PUSH2 0x2BDB JUMP JUMPDEST PUSH1 0x20 PUSH1 0x40 MLOAD DUP1 DUP4 SUB DUP2 PUSH0 DUP8 GAS CALL ISZERO DUP1 ISZERO PUSH2 0x74B JUMPI RETURNDATASIZE PUSH0 DUP1 RETURNDATACOPY RETURNDATASIZE PUSH0 REVERT JUMPDEST POP POP POP POP PUSH1 0x40 MLOAD RETURNDATASIZE PUSH1 0x1F NOT PUSH1 0x1F DUP3 ADD AND DUP3 ADD DUP1 PUSH1 0x40 MSTORE POP DUP2 ADD SWAP1 PUSH2 0x76F SWAP2 SWAP1 PUSH2 0x2C3A JUMP JUMPDEST POP PUSH1 0x1 PUSH1 0x10 PUSH0 CALLER PUSH20 0xFFFFFFFFFFFFFFFFFFFFFFFFFFFFFFFFFFFFFFFF AND PUSH20 0xFFFFFFFFFFFFFFFFFFFFFFFFFFFFFFFFFFFFFFFF AND DUP2 MSTORE PUSH1 0x20 ADD SWAP1 DUP2 MSTORE PUSH1 0x20 ADD PUSH0 KECCAK256 PUSH0 PUSH2 0x100 EXP DUP2 SLOAD DUP2 PUSH1 0xFF MUL NOT AND SWAP1 DUP4 ISZERO ISZERO MUL OR SWAP1 SSTORE POP PUSH2 0x7CD PUSH2 0x20AD JUMP JUMPDEST PUSH1 0x12 PUSH0 CALLER PUSH20 0xFFFFFFFFFFFFFFFFFFFFFFFFFFFFFFFFFFFFFFFF AND PUSH20 0xFFFFFFFFFFFFFFFFFFFFFFFFFFFFFFFFFFFFFFFF AND DUP2 MSTORE PUSH1 0x20 ADD SWAP1 DUP2 MSTORE PUSH1 0x20 ADD PUSH0 KECCAK256 DUP2 SWAP1 SSTORE POP DUP3 PUSH1 0x15 PUSH0 CALLER PUSH20 0xFFFFFFFFFFFFFFFFFFFFFFFFFFFFFFFFFFFFFFFF AND PUSH20 0xFFFFFFFFFFFFFFFFFFFFFFFFFFFFFFFFFFFFFFFF AND DUP2 MSTORE PUSH1 0x20 ADD SWAP1 DUP2 MSTORE PUSH1 0x20 ADD PUSH0 KECCAK256 DUP2 SWAP1 SSTORE POP POP POP POP JUMP JUMPDEST PUSH1 0xE PUSH0 CALLER PUSH20 0xFFFFFFFFFFFFFFFFFFFFFFFFFFFFFFFFFFFFFFFF AND PUSH20 0xFFFFFFFFFFFFFFFFFFFFFFFFFFFFFFFFFFFFFFFF AND DUP2 MSTORE PUSH1 0x20 ADD SWAP1 DUP2 MSTORE PUSH1 0x20 ADD PUSH0 KECCAK256 PUSH0 SWAP1 SLOAD SWAP1 PUSH2 0x100 EXP SWAP1 DIV PUSH1 0xFF AND ISZERO PUSH2 0x8DF JUMPI PUSH1 0x40 MLOAD PUSH32 0x8C379A000000000000000000000000000000000000000000000000000000000 DUP2 MSTORE PUSH1 0x4 ADD PUSH2 0x8D6 SWAP1 PUSH2 0x2CAF JUMP JUMPDEST PUSH1 0x40 MLOAD DUP1 SWAP2 SUB SWAP1 REVERT JUMPDEST PUSH1 0x1 PUSH1 0xE PUSH0 CALLER PUSH20 0xFFFFFFFFFFFFFFFFFFFFFFFFFFFFFFFFFFFFFFFF AND PUSH20 0xFFFFFFFFFFFFFFFFFFFFFFFFFFFFFFFFFFFFFFFF AND DUP2 MSTORE PUSH1 0x20 ADD SWAP1 DUP2 MSTORE PUSH1 0x20 ADD PUSH0 KECCAK256 PUSH0 PUSH2 0x100 EXP DUP2 SLOAD DUP2 PUSH1 0xFF MUL NOT AND SWAP1 DUP4 ISZERO ISZERO MUL OR SWAP1 SSTORE POP PUSH0 DUP1 PUSH2 0x93E PUSH2 0x1BBF JUMP JUMPDEST SWAP2 POP SWAP2 POP PUSH0 DUP3 GT ISZERO PUSH2 0xADD JUMPI PUSH1 0xD PUSH1 0x1 PUSH1 0xD DUP1 SLOAD SWAP1 POP PUSH2 0x95E SWAP2 SWAP1 PUSH2 0x2CCD JUMP JUMPDEST DUP2 SLOAD DUP2 LT PUSH2 0x96F JUMPI PUSH2 0x96E PUSH2 0x2D00 JUMP JUMPDEST JUMPDEST SWAP1 PUSH0 MSTORE PUSH1 0x20 PUSH0 KECCAK256 ADD PUSH0 SWAP1 SLOAD SWAP1 PUSH2 0x100 EXP SWAP1 DIV PUSH20 0xFFFFFFFFFFFFFFFFFFFFFFFFFFFFFFFFFFFFFFFF AND PUSH1 0xD DUP3 DUP2 SLOAD DUP2 LT PUSH2 0x9AB JUMPI PUSH2 0x9AA PUSH2 0x2D00 JUMP JUMPDEST JUMPDEST SWAP1 PUSH0 MSTORE PUSH1 0x20 PUSH0 KECCAK256 ADD PUSH0 PUSH2 0x100 EXP DUP2 SLOAD DUP2 PUSH20 0xFFFFFFFFFFFFFFFFFFFFFFFFFFFFFFFFFFFFFFFF MUL NOT AND SWAP1 DUP4 PUSH20 0xFFFFFFFFFFFFFFFFFFFFFFFFFFFFFFFFFFFFFFFF AND MUL OR SWAP1 SSTORE POP PUSH1 0xD DUP1 SLOAD DUP1 PUSH2 0xA02 JUMPI PUSH2 0xA01 PUSH2 0x2D2D JUMP JUMPDEST JUMPDEST PUSH1 0x1 SWAP1 SUB DUP2 DUP2 SWAP1 PUSH0 MSTORE PUSH1 0x20 PUSH0 KECCAK256 ADD PUSH0 PUSH2 0x100 EXP DUP2 SLOAD SWAP1 PUSH20 0xFFFFFFFFFFFFFFFFFFFFFFFFFFFFFFFFFFFFFFFF MUL NOT AND SWAP1 SSTORE SWAP1 SSTORE PUSH1 0x9 PUSH1 0x1 SWAP1 SLOAD SWAP1 PUSH2 0x100 EXP SWAP1 DIV PUSH1 0xFF AND PUSH1 0xFF AND PUSH1 0x13 PUSH0 CALLER PUSH20 0xFFFFFFFFFFFFFFFFFFFFFFFFFFFFFFFFFFFFFFFF AND PUSH20 0xFFFFFFFFFFFFFFFFFFFFFFFFFFFFFFFFFFFFFFFF AND DUP2 MSTORE PUSH1 0x20 ADD SWAP1 DUP2 MSTORE PUSH1 0x20 ADD PUSH0 KECCAK256 DUP2 SWAP1 SSTORE POP PUSH1 0x9 PUSH1 0x1 SWAP1 SLOAD SWAP1 PUSH2 0x100 EXP SWAP1 DIV PUSH1 0xFF AND PUSH1 0xFF AND PUSH1 0x14 PUSH0 CALLER PUSH20 0xFFFFFFFFFFFFFFFFFFFFFFFFFFFFFFFFFFFFFFFF AND PUSH20 0xFFFFFFFFFFFFFFFFFFFFFFFFFFFFFFFFFFFFFFFF AND DUP2 MSTORE PUSH1 0x20 ADD SWAP1 DUP2 MSTORE PUSH1 0x20 ADD PUSH0 KECCAK256 DUP2 SWAP1 SSTORE POP JUMPDEST PUSH1 0x16 PUSH0 SWAP1 SLOAD SWAP1 PUSH2 0x100 EXP SWAP1 DIV PUSH20 0xFFFFFFFFFFFFFFFFFFFFFFFFFFFFFFFFFFFFFFFF AND PUSH20 0xFFFFFFFFFFFFFFFFFFFFFFFFFFFFFFFFFFFFFFFF AND PUSH4 0xA9059CBB CALLER DUP5 PUSH1 0x40 MLOAD DUP4 PUSH4 0xFFFFFFFF AND PUSH1 0xE0 SHL DUP2 MSTORE PUSH1 0x4 ADD PUSH2 0xB39 SWAP3 SWAP2 SWAP1 PUSH2 0x2D5A JUMP JUMPDEST PUSH1 0x20 PUSH1 0x40 MLOAD DUP1 DUP4 SUB DUP2 PUSH0 DUP8 GAS CALL ISZERO DUP1 ISZERO PUSH2 0xB55 JUMPI RETURNDATASIZE PUSH0 DUP1 RETURNDATACOPY RETURNDATASIZE PUSH0 REVERT JUMPDEST POP POP POP POP PUSH1 0x40 MLOAD RETURNDATASIZE PUSH1 0x1F NOT PUSH1 0x1F DUP3 ADD AND DUP3 ADD DUP1 PUSH1 0x40 MSTORE POP DUP2 ADD SWAP1 PUSH2 0xB79 SWAP2 SWAP1 PUSH2 0x2C3A JUMP JUMPDEST POP POP POP PUSH0 PUSH1 0xE PUSH0 CALLER PUSH20 0xFFFFFFFFFFFFFFFFFFFFFFFFFFFFFFFFFFFFFFFF AND PUSH20 0xFFFFFFFFFFFFFFFFFFFFFFFFFFFFFFFFFFFFFFFF AND DUP2 MSTORE PUSH1 0x20 ADD SWAP1 DUP2 MSTORE PUSH1 0x20 ADD PUSH0 KECCAK256 PUSH0 PUSH2 0x100 EXP DUP2 SLOAD DUP2 PUSH1 0xFF MUL NOT AND SWAP1 DUP4 ISZERO ISZERO MUL OR SWAP1 SSTORE POP JUMP JUMPDEST PUSH2 0xBDA PUSH2 0x2271 JUMP JUMPDEST DUP1 PUSH2 0xFFFF AND PUSH1 0x5 PUSH1 0x19 PUSH2 0x100 EXP DUP2 SLOAD DUP2 PUSH4 0xFFFFFFFF MUL NOT AND SWAP1 DUP4 PUSH4 0xFFFFFFFF AND MUL OR SWAP1 SSTORE POP POP JUMP JUMPDEST PUSH32 0x0 PUSH20 0xFFFFFFFFFFFFFFFFFFFFFFFFFFFFFFFFFFFFFFFF AND CALLER PUSH20 0xFFFFFFFFFFFFFFFFFFFFFFFFFFFFFFFFFFFFFFFF AND EQ PUSH2 0xCB4 JUMPI CALLER PUSH32 0x0 PUSH1 0x40 MLOAD PUSH32 0x1CF993F400000000000000000000000000000000000000000000000000000000 DUP2 MSTORE PUSH1 0x4 ADD PUSH2 0xCAB SWAP3 SWAP2 SWAP1 PUSH2 0x2B4C JUMP JUMPDEST PUSH1 0x40 MLOAD DUP1 SWAP2 SUB SWAP1 REVERT JUMPDEST PUSH2 0xCBE DUP3 DUP3 PUSH2 0x2300 JUMP JUMPDEST POP POP JUMP JUMPDEST PUSH0 PUSH2 0xCCB PUSH2 0x191D JUMP JUMPDEST SWAP1 POP PUSH0 DUP2 GT PUSH2 0xD0F JUMPI PUSH1 0x40 MLOAD PUSH32 0x8C379A000000000000000000000000000000000000000000000000000000000 DUP2 MSTORE PUSH1 0x4 ADD PUSH2 0xD06 SWAP1 PUSH2 0x2DF1 JUMP JUMPDEST PUSH1 0x40 MLOAD DUP1 SWAP2 SUB SWAP1 REVERT JUMPDEST PUSH1 0x16 PUSH0 SWAP1 SLOAD SWAP1 PUSH2 0x100 EXP SWAP1 DIV PUSH20 0xFFFFFFFFFFFFFFFFFFFFFFFFFFFFFFFFFFFFFFFF AND PUSH20 0xFFFFFFFFFFFFFFFFFFFFFFFFFFFFFFFFFFFFFFFF AND PUSH4 0xA9059CBB CALLER DUP4 PUSH1 0x40 MLOAD DUP4 PUSH4 0xFFFFFFFF AND PUSH1 0xE0 SHL DUP2 MSTORE PUSH1 0x4 ADD PUSH2 0xD6B SWAP3 SWAP2 SWAP1 PUSH2 0x2D5A JUMP JUMPDEST PUSH1 0x20 PUSH1 0x40 MLOAD DUP1 DUP4 SUB DUP2 PUSH0 DUP8 GAS CALL ISZERO DUP1 ISZERO PUSH2 0xD87 JUMPI RETURNDATASIZE PUSH0 DUP1 RETURNDATACOPY RETURNDATASIZE PUSH0 REVERT JUMPDEST POP POP POP POP PUSH1 0x40 MLOAD RETURNDATASIZE PUSH1 0x1F NOT PUSH1 0x1F DUP3 ADD AND DUP3 ADD DUP1 PUSH1 0x40 MSTORE POP DUP2 ADD SWAP1 PUSH2 0xDAB SWAP2 SWAP1 PUSH2 0x2C3A JUMP JUMPDEST POP PUSH1 0x9 PUSH1 0x1 SWAP1 SLOAD SWAP1 PUSH2 0x100 EXP SWAP1 DIV PUSH1 0xFF AND PUSH1 0xFF AND PUSH1 0x15 PUSH0 CALLER PUSH20 0xFFFFFFFFFFFFFFFFFFFFFFFFFFFFFFFFFFFFFFFF AND PUSH20 0xFFFFFFFFFFFFFFFFFFFFFFFFFFFFFFFFFFFFFFFF AND DUP2 MSTORE PUSH1 0x20 ADD SWAP1 DUP2 MSTORE PUSH1 0x20 ADD PUSH0 KECCAK256 DUP2 SWAP1 SSTORE POP POP JUMP JUMPDEST PUSH1 0xD DUP2 DUP2 SLOAD DUP2 LT PUSH2 0xE12 JUMPI PUSH0 DUP1 REVERT JUMPDEST SWAP1 PUSH0 MSTORE PUSH1 0x20 PUSH0 KECCAK256 ADD PUSH0 SWAP2 POP SLOAD SWAP1 PUSH2 0x100 EXP SWAP1 DIV PUSH20 0xFFFFFFFFFFFFFFFFFFFFFFFFFFFFFFFFFFFFFFFF AND DUP2 JUMP JUMPDEST PUSH1 0x12 PUSH1 0x20 MSTORE DUP1 PUSH0 MSTORE PUSH1 0x40 PUSH0 KECCAK256 PUSH0 SWAP2 POP SWAP1 POP SLOAD DUP2 JUMP JUMPDEST PUSH2 0xE5B PUSH2 0x2271 JUMP JUMPDEST DUP1 PUSH1 0x5 PUSH1 0x1D PUSH2 0x100 EXP DUP2 SLOAD DUP2 PUSH2 0xFFFF MUL NOT AND SWAP1 DUP4 PUSH2 0xFFFF AND MUL OR SWAP1 SSTORE POP POP JUMP JUMPDEST PUSH1 0x5 PUSH1 0x19 SWAP1 SLOAD SWAP1 PUSH2 0x100 EXP SWAP1 DIV PUSH4 0xFFFFFFFF AND DUP2 JUMP JUMPDEST PUSH2 0xE99 PUSH2 0x2271 JUMP JUMPDEST DUP1 PUSH2 0xFFFF AND PUSH1 0xB DUP2 SWAP1 SSTORE POP POP JUMP JUMPDEST PUSH1 0x14 PUSH1 0x20 MSTORE DUP1 PUSH0 MSTORE PUSH1 0x40 PUSH0 KECCAK256 PUSH0 SWAP2 POP SWAP1 POP SLOAD DUP2 JUMP JUMPDEST PUSH1 0x1 PUSH0 SWAP1 SLOAD SWAP1 PUSH2 0x100 EXP SWAP1 DIV PUSH20 0xFFFFFFFFFFFFFFFFFFFFFFFFFFFFFFFFFFFFFFFF AND PUSH20 0xFFFFFFFFFFFFFFFFFFFFFFFFFFFFFFFFFFFFFFFF AND CALLER PUSH20 0xFFFFFFFFFFFFFFFFFFFFFFFFFFFFFFFFFFFFFFFF AND EQ PUSH2 0xF4B JUMPI PUSH1 0x40 MLOAD PUSH32 0x8C379A000000000000000000000000000000000000000000000000000000000 DUP2 MSTORE PUSH1 0x4 ADD PUSH2 0xF42 SWAP1 PUSH2 0x2E59 JUMP JUMPDEST PUSH1 0x40 MLOAD DUP1 SWAP2 SUB SWAP1 REVERT JUMPDEST PUSH0 DUP1 PUSH0 SWAP1 SLOAD SWAP1 PUSH2 0x100 EXP SWAP1 DIV PUSH20 0xFFFFFFFFFFFFFFFFFFFFFFFFFFFFFFFFFFFFFFFF AND SWAP1 POP CALLER PUSH0 DUP1 PUSH2 0x100 EXP DUP2 SLOAD DUP2 PUSH20 0xFFFFFFFFFFFFFFFFFFFFFFFFFFFFFFFFFFFFFFFF MUL NOT AND SWAP1 DUP4 PUSH20 0xFFFFFFFFFFFFFFFFFFFFFFFFFFFFFFFFFFFFFFFF AND MUL OR SWAP1 SSTORE POP PUSH0 PUSH1 0x1 PUSH0 PUSH2 0x100 EXP DUP2 SLOAD DUP2 PUSH20 0xFFFFFFFFFFFFFFFFFFFFFFFFFFFFFFFFFFFFFFFF MUL NOT AND SWAP1 DUP4 PUSH20 0xFFFFFFFFFFFFFFFFFFFFFFFFFFFFFFFFFFFFFFFF AND MUL OR SWAP1 SSTORE POP CALLER PUSH20 0xFFFFFFFFFFFFFFFFFFFFFFFFFFFFFFFFFFFFFFFF AND DUP2 PUSH20 0xFFFFFFFFFFFFFFFFFFFFFFFFFFFFFFFFFFFFFFFF AND PUSH32 0x8BE0079C531659141344CD1FD0A4F28419497F9722A3DAAFE3B4186F6B6457E0 PUSH1 0x40 MLOAD PUSH1 0x40 MLOAD DUP1 SWAP2 SUB SWAP1 LOG3 POP JUMP JUMPDEST PUSH0 DUP1 PUSH0 SWAP1 SLOAD SWAP1 PUSH2 0x100 EXP SWAP1 DIV PUSH20 0xFFFFFFFFFFFFFFFFFFFFFFFFFFFFFFFFFFFFFFFF AND SWAP1 POP SWAP1 JUMP JUMPDEST PUSH1 0x5 PUSH1 0x14 SWAP1 SLOAD SWAP1 PUSH2 0x100 EXP SWAP1 DIV PUSH1 0xFF AND DUP2 JUMP JUMPDEST PUSH1 0xF PUSH1 0x20 MSTORE DUP1 PUSH0 MSTORE PUSH1 0x40 PUSH0 KECCAK256 PUSH0 SWAP2 POP SWAP1 POP DUP1 PUSH0 ADD PUSH0 SWAP1 SLOAD SWAP1 PUSH2 0x100 EXP SWAP1 DIV PUSH1 0xFF AND SWAP1 DUP1 PUSH0 ADD PUSH1 0x1 SWAP1 SLOAD SWAP1 PUSH2 0x100 EXP SWAP1 DIV PUSH1 0xFF AND SWAP1 POP DUP3 JUMP JUMPDEST PUSH1 0xC PUSH0 SWAP1 SLOAD SWAP1 PUSH2 0x100 EXP SWAP1 DIV PUSH20 0xFFFFFFFFFFFFFFFFFFFFFFFFFFFFFFFFFFFFFFFF AND DUP2 JUMP JUMPDEST PUSH0 DUP1 PUSH1 0xF PUSH0 DUP5 DUP2 MSTORE PUSH1 0x20 ADD SWAP1 DUP2 MSTORE PUSH1 0x20 ADD PUSH0 KECCAK256 PUSH1 0x40 MLOAD DUP1 PUSH1 0x60 ADD PUSH1 0x40 MSTORE SWAP1 DUP2 PUSH0 DUP3 ADD PUSH0 SWAP1 SLOAD SWAP1 PUSH2 0x100 EXP SWAP1 DIV PUSH1 0xFF AND ISZERO ISZERO ISZERO ISZERO DUP2 MSTORE PUSH1 0x20 ADD PUSH0 DUP3 ADD PUSH1 0x1 SWAP1 SLOAD SWAP1 PUSH2 0x100 EXP SWAP1 DIV PUSH1 0xFF AND ISZERO ISZERO ISZERO ISZERO DUP2 MSTORE PUSH1 0x20 ADD PUSH1 0x1 DUP3 ADD DUP1 SLOAD DUP1 PUSH1 0x20 MUL PUSH1 0x20 ADD PUSH1 0x40 MLOAD SWAP1 DUP2 ADD PUSH1 0x40 MSTORE DUP1 SWAP3 SWAP2 SWAP1 DUP2 DUP2 MSTORE PUSH1 0x20 ADD DUP3 DUP1 SLOAD DUP1 ISZERO PUSH2 0x1180 JUMPI PUSH1 0x20 MUL DUP3 ADD SWAP2 SWAP1 PUSH0 MSTORE PUSH1 0x20 PUSH0 KECCAK256 SWAP1 JUMPDEST DUP2 SLOAD DUP2 MSTORE PUSH1 0x20 ADD SWAP1 PUSH1 0x1 ADD SWAP1 DUP1 DUP4 GT PUSH2 0x116C JUMPI JUMPDEST POP POP POP POP POP DUP2 MSTORE POP POP SWAP1 POP DUP1 PUSH1 0x40 ADD MLOAD PUSH0 DUP2 MLOAD DUP2 LT PUSH2 0x11A2 JUMPI PUSH2 0x11A1 PUSH2 0x2D00 JUMP JUMPDEST JUMPDEST PUSH1 0x20 MUL PUSH1 0x20 ADD ADD MLOAD SWAP2 POP POP SWAP2 SWAP1 POP JUMP JUMPDEST PUSH1 0x11 PUSH0 CALLER PUSH20 0xFFFFFFFFFFFFFFFFFFFFFFFFFFFFFFFFFFFFFFFF AND PUSH20 0xFFFFFFFFFFFFFFFFFFFFFFFFFFFFFFFFFFFFFFFF AND DUP2 MSTORE PUSH1 0x20 ADD SWAP1 DUP2 MSTORE PUSH1 0x20 ADD PUSH0 KECCAK256 PUSH0 SWAP1 SLOAD SWAP1 PUSH2 0x100 EXP SWAP1 DIV PUSH1 0xFF AND ISZERO PUSH2 0x123C JUMPI PUSH1 0x40 MLOAD PUSH32 0x8C379A000000000000000000000000000000000000000000000000000000000 DUP2 MSTORE PUSH1 0x4 ADD PUSH2 0x1233 SWAP1 PUSH2 0x2EE7 JUMP JUMPDEST PUSH1 0x40 MLOAD DUP1 SWAP2 SUB SWAP1 REVERT JUMPDEST PUSH1 0x5 PUSH1 0x19 SWAP1 SLOAD SWAP1 PUSH2 0x100 EXP SWAP1 DIV PUSH4 0xFFFFFFFF AND PUSH4 0xFFFFFFFF AND PUSH1 0x5 PUSH1 0x15 SWAP1 SLOAD SWAP1 PUSH2 0x100 EXP SWAP1 DIV PUSH4 0xFFFFFFFF AND PUSH4 0xFFFFFFFF AND LT PUSH2 0x12AE JUMPI PUSH1 0x40 MLOAD PUSH32 0x8C379A000000000000000000000000000000000000000000000000000000000 DUP2 MSTORE PUSH1 0x4 ADD PUSH2 0x12A5 SWAP1 PUSH2 0x2F4F JUMP JUMPDEST PUSH1 0x40 MLOAD DUP1 SWAP2 SUB SWAP1 REVERT JUMPDEST PUSH1 0x16 PUSH0 SWAP1 SLOAD SWAP1 PUSH2 0x100 EXP SWAP1 DIV PUSH20 0xFFFFFFFFFFFFFFFFFFFFFFFFFFFFFFFFFFFFFFFF AND PUSH20 0xFFFFFFFFFFFFFFFFFFFFFFFFFFFFFFFFFFFFFFFF AND PUSH4 0xA9059CBB CALLER PUSH1 0x6 SLOAD PUSH1 0x5 PUSH1 0x1D SWAP1 SLOAD SWAP1 PUSH2 0x100 EXP SWAP1 DIV PUSH2 0xFFFF AND PUSH2 0xFFFF AND PUSH2 0x130E SWAP2 SWAP1 PUSH2 0x2A2E JUMP JUMPDEST PUSH1 0x40 MLOAD DUP4 PUSH4 0xFFFFFFFF AND PUSH1 0xE0 SHL DUP2 MSTORE PUSH1 0x4 ADD PUSH2 0x132B SWAP3 SWAP2 SWAP1 PUSH2 0x2D5A JUMP JUMPDEST PUSH1 0x20 PUSH1 0x40 MLOAD DUP1 DUP4 SUB DUP2 PUSH0 DUP8 GAS CALL ISZERO DUP1 ISZERO PUSH2 0x1347 JUMPI RETURNDATASIZE PUSH0 DUP1 RETURNDATACOPY RETURNDATASIZE PUSH0 REVERT JUMPDEST POP POP POP POP PUSH1 0x40 MLOAD RETURNDATASIZE PUSH1 0x1F NOT PUSH1 0x1F DUP3 ADD AND DUP3 ADD DUP1 PUSH1 0x40 MSTORE POP DUP2 ADD SWAP1 PUSH2 0x136B SWAP2 SWAP1 PUSH2 0x2C3A JUMP JUMPDEST POP PUSH1 0x5 PUSH1 0x1D SWAP1 SLOAD SWAP1 PUSH2 0x100 EXP SWAP1 DIV PUSH2 0xFFFF AND PUSH2 0xFFFF AND PUSH1 0x5 PUSH1 0x15 DUP3 DUP3 DUP3 SWAP1 SLOAD SWAP1 PUSH2 0x100 EXP SWAP1 DIV PUSH4 0xFFFFFFFF AND PUSH2 0x13A1 SWAP2 SWAP1 PUSH2 0x2F6D JUMP JUMPDEST SWAP3 POP PUSH2 0x100 EXP DUP2 SLOAD DUP2 PUSH4 0xFFFFFFFF MUL NOT AND SWAP1 DUP4 PUSH4 0xFFFFFFFF AND MUL OR SWAP1 SSTORE POP PUSH1 0x1 PUSH1 0x11 PUSH0 CALLER PUSH20 0xFFFFFFFFFFFFFFFFFFFFFFFFFFFFFFFFFFFFFFFF AND PUSH20 0xFFFFFFFFFFFFFFFFFFFFFFFFFFFFFFFFFFFFFFFF AND DUP2 MSTORE PUSH1 0x20 ADD SWAP1 DUP2 MSTORE PUSH1 0x20 ADD PUSH0 KECCAK256 PUSH0 PUSH2 0x100 EXP DUP2 SLOAD DUP2 PUSH1 0xFF MUL NOT AND SWAP1 DUP4 ISZERO ISZERO MUL OR SWAP1 SSTORE POP JUMP JUMPDEST PUSH1 0xE PUSH0 CALLER PUSH20 0xFFFFFFFFFFFFFFFFFFFFFFFFFFFFFFFFFFFFFFFF AND PUSH20 0xFFFFFFFFFFFFFFFFFFFFFFFFFFFFFFFFFFFFFFFF AND DUP2 MSTORE PUSH1 0x20 ADD SWAP1 DUP2 MSTORE PUSH1 0x20 ADD PUSH0 KECCAK256 PUSH0 SWAP1 SLOAD SWAP1 PUSH2 0x100 EXP SWAP1 DIV PUSH1 0xFF AND ISZERO PUSH2 0x14A0 JUMPI PUSH1 0x40 MLOAD PUSH32 0x8C379A000000000000000000000000000000000000000000000000000000000 DUP2 MSTORE PUSH1 0x4 ADD PUSH2 0x1497 SWAP1 PUSH2 0x2CAF JUMP JUMPDEST PUSH1 0x40 MLOAD DUP1 SWAP2 SUB SWAP1 REVERT JUMPDEST PUSH1 0x1 PUSH1 0xE PUSH0 CALLER PUSH20 0xFFFFFFFFFFFFFFFFFFFFFFFFFFFFFFFFFFFFFFFF AND PUSH20 0xFFFFFFFFFFFFFFFFFFFFFFFFFFFFFFFFFFFFFFFF AND DUP2 MSTORE PUSH1 0x20 ADD SWAP1 DUP2 MSTORE PUSH1 0x20 ADD PUSH0 KECCAK256 PUSH0 PUSH2 0x100 EXP DUP2 SLOAD DUP2 PUSH1 0xFF MUL NOT AND SWAP1 DUP4 ISZERO ISZERO MUL OR SWAP1 SSTORE POP PUSH1 0x9 PUSH1 0x1 SWAP1 SLOAD SWAP1 PUSH2 0x100 EXP SWAP1 DIV PUSH1 0xFF AND PUSH1 0xFF AND PUSH1 0x13 PUSH0 CALLER PUSH20 0xFFFFFFFFFFFFFFFFFFFFFFFFFFFFFFFFFFFFFFFF AND PUSH20 0xFFFFFFFFFFFFFFFFFFFFFFFFFFFFFFFFFFFFFFFF AND DUP2 MSTORE PUSH1 0x20 ADD SWAP1 DUP2 MSTORE PUSH1 0x20 ADD PUSH0 KECCAK256 SLOAD EQ PUSH2 0x1586 JUMPI PUSH1 0x40 MLOAD PUSH32 0x8C379A000000000000000000000000000000000000000000000000000000000 DUP2 MSTORE PUSH1 0x4 ADD PUSH2 0x157D SWAP1 PUSH2 0x2FEE JUMP JUMPDEST PUSH1 0x40 MLOAD DUP1 SWAP2 SUB SWAP1 REVERT JUMPDEST DUP1 DUP1 PUSH1 0x16 PUSH0 SWAP1 SLOAD SWAP1 PUSH2 0x100 EXP SWAP1 DIV PUSH20 0xFFFFFFFFFFFFFFFFFFFFFFFFFFFFFFFFFFFFFFFF AND PUSH20 0xFFFFFFFFFFFFFFFFFFFFFFFFFFFFFFFFFFFFFFFF AND PUSH4 0xDD62ED3E CALLER ADDRESS PUSH1 0x40 MLOAD DUP4 PUSH4 0xFFFFFFFF AND PUSH1 0xE0 SHL DUP2 MSTORE PUSH1 0x4 ADD PUSH2 0x15E4 SWAP3 SWAP2 SWAP1 PUSH2 0x2B4C JUMP JUMPDEST PUSH1 0x20 PUSH1 0x40 MLOAD DUP1 DUP4 SUB DUP2 DUP7 GAS STATICCALL ISZERO DUP1 ISZERO PUSH2 0x15FF JUMPI RETURNDATASIZE PUSH0 DUP1 RETURNDATACOPY RETURNDATASIZE PUSH0 REVERT JUMPDEST POP POP POP POP PUSH1 0x40 MLOAD RETURNDATASIZE PUSH1 0x1F NOT PUSH1 0x1F DUP3 ADD AND DUP3 ADD DUP1 PUSH1 0x40 MSTORE POP DUP2 ADD SWAP1 PUSH2 0x1623 SWAP2 SWAP1 PUSH2 0x2A83 JUMP JUMPDEST LT ISZERO PUSH2 0x1664 JUMPI PUSH1 0x40 MLOAD PUSH32 0x8C379A000000000000000000000000000000000000000000000000000000000 DUP2 MSTORE PUSH1 0x4 ADD PUSH2 0x165B SWAP1 PUSH2 0x2BBD JUMP JUMPDEST PUSH1 0x40 MLOAD DUP1 SWAP2 SUB SWAP1 REVERT JUMPDEST PUSH1 0x16 PUSH0 SWAP1 SLOAD SWAP1 PUSH2 0x100 EXP SWAP1 DIV PUSH20 0xFFFFFFFFFFFFFFFFFFFFFFFFFFFFFFFFFFFFFFFF AND PUSH20 0xFFFFFFFFFFFFFFFFFFFFFFFFFFFFFFFFFFFFFFFF AND PUSH4 0x23B872DD CALLER ADDRESS DUP6 PUSH1 0x40 MLOAD DUP5 PUSH4 0xFFFFFFFF AND PUSH1 0xE0 SHL DUP2 MSTORE PUSH1 0x4 ADD PUSH2 0x16C2 SWAP4 SWAP3 SWAP2 SWAP1 PUSH2 0x2BDB JUMP JUMPDEST PUSH1 0x20 PUSH1 0x40 MLOAD DUP1 DUP4 SUB DUP2 PUSH0 DUP8 GAS CALL ISZERO DUP1 ISZERO PUSH2 0x16DE JUMPI RETURNDATASIZE PUSH0 DUP1 RETURNDATACOPY RETURNDATASIZE PUSH0 REVERT JUMPDEST POP POP POP POP PUSH1 0x40 MLOAD RETURNDATASIZE PUSH1 0x1F NOT PUSH1 0x1F DUP3 ADD AND DUP3 ADD DUP1 PUSH1 0x40 MSTORE POP DUP2 ADD SWAP1 PUSH2 0x1702 SWAP2 SWAP1 PUSH2 0x2C3A JUMP JUMPDEST POP DUP2 PUSH1 0x16 PUSH0 SWAP1 SLOAD SWAP1 PUSH2 0x100 EXP SWAP1 DIV PUSH20 0xFFFFFFFFFFFFFFFFFFFFFFFFFFFFFFFFFFFFFFFF AND PUSH20 0xFFFFFFFFFFFFFFFFFFFFFFFFFFFFFFFFFFFFFFFF AND PUSH4 0x70A08231 ADDRESS PUSH1 0x40 MLOAD DUP3 PUSH4 0xFFFFFFFF AND PUSH1 0xE0 SHL DUP2 MSTORE PUSH1 0x4 ADD PUSH2 0x175E SWAP2 SWAP1 PUSH2 0x2839 JUMP JUMPDEST PUSH1 0x20 PUSH1 0x40 MLOAD DUP1 DUP4 SUB DUP2 DUP7 GAS STATICCALL ISZERO DUP1 ISZERO PUSH2 0x1779 JUMPI RETURNDATASIZE PUSH0 DUP1 RETURNDATACOPY RETURNDATASIZE PUSH0 REVERT JUMPDEST POP POP POP POP PUSH1 0x40 MLOAD RETURNDATASIZE PUSH1 0x1F NOT PUSH1 0x1F DUP3 ADD AND DUP3 ADD DUP1 PUSH1 0x40 MSTORE POP DUP2 ADD SWAP1 PUSH2 0x179D SWAP2 SWAP1 PUSH2 0x2A83 JUMP JUMPDEST PUSH2 0x17A7 SWAP2 SWAP1 PUSH2 0x2CCD JUMP JUMPDEST PUSH1 0x14 PUSH0 CALLER PUSH20 0xFFFFFFFFFFFFFFFFFFFFFFFFFFFFFFFFFFFFFFFF AND PUSH20 0xFFFFFFFFFFFFFFFFFFFFFFFFFFFFFFFFFFFFFFFF AND DUP2 MSTORE PUSH1 0x20 ADD SWAP1 DUP2 MSTORE PUSH1 0x20 ADD PUSH0 KECCAK256 DUP2 SWAP1 SSTORE POP DUP2 PUSH1 0x13 PUSH0 CALLER PUSH20 0xFFFFFFFFFFFFFFFFFFFFFFFFFFFFFFFFFFFFFFFF AND PUSH20 0xFFFFFFFFFFFFFFFFFFFFFFFFFFFFFFFFFFFFFFFF AND DUP2 MSTORE PUSH1 0x20 ADD SWAP1 DUP2 MSTORE PUSH1 0x20 ADD PUSH0 KECCAK256 DUP2 SWAP1 SSTORE POP PUSH1 0xD CALLER SWAP1 DUP1 PUSH1 0x1 DUP2 SLOAD ADD DUP1 DUP3 SSTORE DUP1 SWAP2 POP POP PUSH1 0x1 SWAP1 SUB SWAP1 PUSH0 MSTORE PUSH1 0x20 PUSH0 KECCAK256 ADD PUSH0 SWAP1 SWAP2 SWAP1 SWAP2 SWAP1 SWAP2 PUSH2 0x100 EXP DUP2 SLOAD DUP2 PUSH20 0xFFFFFFFFFFFFFFFFFFFFFFFFFFFFFFFFFFFFFFFF MUL NOT AND SWAP1 DUP4 PUSH20 0xFFFFFFFFFFFFFFFFFFFFFFFFFFFFFFFFFFFFFFFF AND MUL OR SWAP1 SSTORE POP POP PUSH0 PUSH1 0xE PUSH0 CALLER PUSH20 0xFFFFFFFFFFFFFFFFFFFFFFFFFFFFFFFFFFFFFFFF AND PUSH20 0xFFFFFFFFFFFFFFFFFFFFFFFFFFFFFFFFFFFFFFFF AND DUP2 MSTORE PUSH1 0x20 ADD SWAP1 DUP2 MSTORE PUSH1 0x20 ADD PUSH0 KECCAK256 PUSH0 PUSH2 0x100 EXP DUP2 SLOAD DUP2 PUSH1 0xFF MUL NOT AND SWAP1 DUP4 ISZERO ISZERO MUL OR SWAP1 SSTORE POP POP JUMP JUMPDEST PUSH2 0x18EA PUSH2 0x2271 JUMP JUMPDEST DUP1 PUSH1 0x5 PUSH1 0x14 PUSH2 0x100 EXP DUP2 SLOAD DUP2 PUSH1 0xFF MUL NOT AND SWAP1 DUP4 PUSH1 0xFF AND MUL OR SWAP1 SSTORE POP POP JUMP JUMPDEST PUSH1 0x13 PUSH1 0x20 MSTORE DUP1 PUSH0 MSTORE PUSH1 0x40 PUSH0 KECCAK256 PUSH0 SWAP2 POP SWAP1 POP SLOAD DUP2 JUMP JUMPDEST PUSH0 PUSH1 0x1 ISZERO ISZERO PUSH1 0x10 PUSH0 CALLER PUSH20 0xFFFFFFFFFFFFFFFFFFFFFFFFFFFFFFFFFFFFFFFF AND PUSH20 0xFFFFFFFFFFFFFFFFFFFFFFFFFFFFFFFFFFFFFFFF AND DUP2 MSTORE PUSH1 0x20 ADD SWAP1 DUP2 MSTORE PUSH1 0x20 ADD PUSH0 KECCAK256 PUSH0 SWAP1 SLOAD SWAP1 PUSH2 0x100 EXP SWAP1 DIV PUSH1 0xFF AND ISZERO ISZERO EQ PUSH2 0x19AE JUMPI PUSH1 0x40 MLOAD PUSH32 0x8C379A000000000000000000000000000000000000000000000000000000000 DUP2 MSTORE PUSH1 0x4 ADD PUSH2 0x19A5 SWAP1 PUSH2 0x3056 JUMP JUMPDEST PUSH1 0x40 MLOAD DUP1 SWAP2 SUB SWAP1 REVERT JUMPDEST PUSH0 PUSH1 0x12 PUSH0 CALLER PUSH20 0xFFFFFFFFFFFFFFFFFFFFFFFFFFFFFFFFFFFFFFFF AND PUSH20 0xFFFFFFFFFFFFFFFFFFFFFFFFFFFFFFFFFFFFFFFF AND DUP2 MSTORE PUSH1 0x20 ADD SWAP1 DUP2 MSTORE PUSH1 0x20 ADD PUSH0 KECCAK256 SLOAD SWAP1 POP PUSH1 0x1 ISZERO ISZERO PUSH1 0xF PUSH0 DUP4 DUP2 MSTORE PUSH1 0x20 ADD SWAP1 DUP2 MSTORE PUSH1 0x20 ADD PUSH0 KECCAK256 PUSH0 ADD PUSH0 SWAP1 SLOAD SWAP1 PUSH2 0x100 EXP SWAP1 DIV PUSH1 0xFF AND ISZERO ISZERO EQ PUSH2 0x1A55 JUMPI PUSH1 0x40 MLOAD PUSH32 0x8C379A000000000000000000000000000000000000000000000000000000000 DUP2 MSTORE PUSH1 0x4 ADD PUSH2 0x1A4C SWAP1 PUSH2 0x30BE JUMP JUMPDEST PUSH1 0x40 MLOAD DUP1 SWAP2 SUB SWAP1 REVERT JUMPDEST PUSH0 PUSH1 0x12 PUSH0 CALLER PUSH20 0xFFFFFFFFFFFFFFFFFFFFFFFFFFFFFFFFFFFFFFFF AND PUSH20 0xFFFFFFFFFFFFFFFFFFFFFFFFFFFFFFFFFFFFFFFF AND DUP2 MSTORE PUSH1 0x20 ADD SWAP1 DUP2 MSTORE PUSH1 0x20 ADD PUSH0 KECCAK256 SLOAD SWAP1 POP PUSH0 PUSH2 0x1AA0 DUP3 PUSH2 0x10E2 JUMP JUMPDEST SWAP1 POP PUSH0 PUSH1 0x9 PUSH1 0x1 SWAP1 SLOAD SWAP1 PUSH2 0x100 EXP SWAP1 DIV PUSH1 0xFF AND PUSH1 0xFF AND SWAP1 POP PUSH0 PUSH1 0x15 PUSH0 CALLER PUSH20 0xFFFFFFFFFFFFFFFFFFFFFFFFFFFFFFFFFFFFFFFF AND PUSH20 0xFFFFFFFFFFFFFFFFFFFFFFFFFFFFFFFFFFFFFFFF AND DUP2 MSTORE PUSH1 0x20 ADD SWAP1 DUP2 MSTORE PUSH1 0x20 ADD PUSH0 KECCAK256 SLOAD SWAP1 POP PUSH0 PUSH1 0xA DUP1 SLOAD SWAP1 POP DUP5 PUSH2 0x1B0B SWAP2 SWAP1 PUSH2 0x3109 JUMP JUMPDEST SWAP1 POP PUSH0 PUSH1 0xA DUP3 DUP2 SLOAD DUP2 LT PUSH2 0x1B22 JUMPI PUSH2 0x1B21 PUSH2 0x2D00 JUMP JUMPDEST JUMPDEST SWAP1 PUSH0 MSTORE PUSH1 0x20 PUSH0 KECCAK256 SWAP1 PUSH1 0x20 SWAP2 DUP3 DUP3 DIV ADD SWAP2 SWAP1 MOD SWAP1 SLOAD SWAP1 PUSH2 0x100 EXP SWAP1 DIV PUSH1 0xFF AND SWAP1 POP PUSH0 ISZERO ISZERO DUP2 ISZERO ISZERO SUB PUSH2 0x1B55 JUMPI PUSH0 SWAP4 POP PUSH2 0x1B66 JUMP JUMPDEST PUSH1 0xB SLOAD DUP4 PUSH2 0x1B63 SWAP2 SWAP1 PUSH2 0x2A2E JUMP JUMPDEST SWAP4 POP JUMPDEST DUP4 SWAP8 POP POP POP POP POP POP POP POP PUSH0 ISZERO ISZERO PUSH1 0x10 PUSH0 CALLER PUSH20 0xFFFFFFFFFFFFFFFFFFFFFFFFFFFFFFFFFFFFFFFF AND PUSH20 0xFFFFFFFFFFFFFFFFFFFFFFFFFFFFFFFFFFFFFFFF AND DUP2 MSTORE PUSH1 0x20 ADD SWAP1 DUP2 MSTORE PUSH1 0x20 ADD PUSH0 KECCAK256 PUSH0 SWAP1 SLOAD SWAP1 PUSH2 0x100 EXP SWAP1 POP POP POP SWAP1 JUMP JUMPDEST PUSH0 DUP1 PUSH1 0x9 PUSH1 0x1 SWAP1 SLOAD SWAP1 PUSH2 0x100 EXP SWAP1 DIV PUSH1 0xFF AND PUSH1 0xFF AND PUSH1 0x13 PUSH0 CALLER PUSH20 0xFFFFFFFFFFFFFFFFFFFFFFFFFFFFFFFFFFFFFFFF AND PUSH20 0xFFFFFFFFFFFFFFFFFFFFFFFFFFFFFFFFFFFFFFFF AND DUP2 MSTORE PUSH1 0x20 ADD SWAP1 DUP2 MSTORE PUSH1 0x20 ADD PUSH0 KECCAK256 SLOAD GT PUSH2 0x1C52 JUMPI PUSH1 0x40 MLOAD PUSH32 0x8C379A000000000000000000000000000000000000000000000000000000000 DUP2 MSTORE PUSH1 0x4 ADD PUSH2 0x1C49 SWAP1 PUSH2 0x31CF JUMP JUMPDEST PUSH1 0x40 MLOAD DUP1 SWAP2 SUB SWAP1 REVERT JUMPDEST PUSH1 0x14 PUSH0 CALLER PUSH20 0xFFFFFFFFFFFFFFFFFFFFFFFFFFFFFFFFFFFFFFFF AND PUSH20 0xFFFFFFFFFFFFFFFFFFFFFFFFFFFFFFFFFFFFFFFF AND DUP2 MSTORE PUSH1 0x20 ADD SWAP1 DUP2 MSTORE PUSH1 0x20 ADD PUSH0 KECCAK256 SLOAD PUSH1 0x16 PUSH0 SWAP1 SLOAD SWAP1 PUSH2 0x100 EXP SWAP1 DIV PUSH20 0xFFFFFFFFFFFFFFFFFFFFFFFFFFFFFFFFFFFFFFFF AND PUSH20 0xFFFFFFFFFFFFFFFFFFFFFFFFFFFFFFFFFFFFFFFF AND PUSH4 0x70A08231 ADDRESS PUSH1 0x40 MLOAD DUP3 PUSH4 0xFFFFFFFF AND PUSH1 0xE0 SHL DUP2 MSTORE PUSH1 0x4 ADD PUSH2 0x1CEA SWAP2 SWAP1 PUSH2 0x2839 JUMP JUMPDEST PUSH1 0x20 PUSH1 0x40 MLOAD DUP1 DUP4 SUB DUP2 DUP7 GAS STATICCALL ISZERO DUP1 ISZERO PUSH2 0x1D05 JUMPI RETURNDATASIZE PUSH0 DUP1 RETURNDATACOPY RETURNDATASIZE PUSH0 REVERT JUMPDEST POP POP POP POP PUSH1 0x40 MLOAD RETURNDATASIZE PUSH1 0x1F NOT PUSH1 0x1F DUP3 ADD AND DUP3 ADD DUP1 PUSH1 0x40 MSTORE POP DUP2 ADD SWAP1 PUSH2 0x1D29 SWAP2 SWAP1 PUSH2 0x2A83 JUMP JUMPDEST GT PUSH2 0x1D69 JUMPI PUSH1 0x40 MLOAD PUSH32 0x8C379A000000000000000000000000000000000000000000000000000000000 DUP2 MSTORE PUSH1 0x4 ADD PUSH2 0x1D60 SWAP1 PUSH2 0x3237 JUMP JUMPDEST PUSH1 0x40 MLOAD DUP1 SWAP2 SUB SWAP1 REVERT JUMPDEST PUSH0 PUSH1 0x16 PUSH0 SWAP1 SLOAD SWAP1 PUSH2 0x100 EXP SWAP1 DIV PUSH20 0xFFFFFFFFFFFFFFFFFFFFFFFFFFFFFFFFFFFFFFFF AND PUSH20 0xFFFFFFFFFFFFFFFFFFFFFFFFFFFFFFFFFFFFFFFF AND PUSH4 0x70A08231 ADDRESS PUSH1 0x40 MLOAD DUP3 PUSH4 0xFFFFFFFF AND PUSH1 0xE0 SHL DUP2 MSTORE PUSH1 0x4 ADD PUSH2 0x1DC4 SWAP2 SWAP1 PUSH2 0x2839 JUMP JUMPDEST PUSH1 0x20 PUSH1 0x40 MLOAD DUP1 DUP4 SUB DUP2 DUP7 GAS STATICCALL ISZERO DUP1 ISZERO PUSH2 0x1DDF JUMPI RETURNDATASIZE PUSH0 DUP1 RETURNDATACOPY RETURNDATASIZE PUSH0 REVERT JUMPDEST POP POP POP POP PUSH1 0x40 MLOAD RETURNDATASIZE PUSH1 0x1F NOT PUSH1 0x1F DUP3 ADD AND DUP3 ADD DUP1 PUSH1 0x40 MSTORE POP DUP2 ADD SWAP1 PUSH2 0x1E03 SWAP2 SWAP1 PUSH2 0x2A83 JUMP JUMPDEST SWAP1 POP PUSH0 DUP1 PUSH0 DUP1 PUSH0 DUP1 PUSH0 SWAP1 POP PUSH0 DUP1 PUSH0 JUMPDEST PUSH1 0xD DUP1 SLOAD SWAP1 POP DUP2 LT ISZERO PUSH2 0x1FC1 JUMPI PUSH1 0x13 PUSH0 PUSH1 0xD DUP4 DUP2 SLOAD DUP2 LT PUSH2 0x1E36 JUMPI PUSH2 0x1E35 PUSH2 0x2D00 JUMP JUMPDEST JUMPDEST SWAP1 PUSH0 MSTORE PUSH1 0x20 PUSH0 KECCAK256 ADD PUSH0 SWAP1 SLOAD SWAP1 PUSH2 0x100 EXP SWAP1 DIV PUSH20 0xFFFFFFFFFFFFFFFFFFFFFFFFFFFFFFFFFFFFFFFF AND PUSH20 0xFFFFFFFFFFFFFFFFFFFFFFFFFFFFFFFFFFFFFFFF AND PUSH20 0xFFFFFFFFFFFFFFFFFFFFFFFFFFFFFFFFFFFFFFFF AND DUP2 MSTORE PUSH1 0x20 ADD SWAP1 DUP2 MSTORE PUSH1 0x20 ADD PUSH0 KECCAK256 SLOAD SWAP7 POP PUSH1 0x14 PUSH0 PUSH1 0xD DUP4 DUP2 SLOAD DUP2 LT PUSH2 0x1EB1 JUMPI PUSH2 0x1EB0 PUSH2 0x2D00 JUMP JUMPDEST JUMPDEST SWAP1 PUSH0 MSTORE PUSH1 0x20 PUSH0 KECCAK256 ADD PUSH0 SWAP1 SLOAD SWAP1 PUSH2 0x100 EXP SWAP1 DIV PUSH20 0xFFFFFFFFFFFFFFFFFFFFFFFFFFFFFFFFFFFFFFFF AND PUSH20 0xFFFFFFFFFFFFFFFFFFFFFFFFFFFFFFFFFFFFFFFF AND PUSH20 0xFFFFFFFFFFFFFFFFFFFFFFFFFFFFFFFFFFFFFFFF AND DUP2 MSTORE PUSH1 0x20 ADD SWAP1 DUP2 MSTORE PUSH1 0x20 ADD PUSH0 KECCAK256 SLOAD SWAP5 POP DUP5 DUP11 PUSH2 0x1F21 SWAP2 SWAP1 PUSH2 0x2CCD JUMP JUMPDEST DUP8 PUSH2 0x1F2C SWAP2 SWAP1 PUSH2 0x2A2E JUMP JUMPDEST SWAP8 POP DUP8 DUP5 PUSH2 0x1F3A SWAP2 SWAP1 PUSH2 0x3255 JUMP JUMPDEST SWAP4 POP PUSH1 0xD DUP2 DUP2 SLOAD DUP2 LT PUSH2 0x1F50 JUMPI PUSH2 0x1F4F PUSH2 0x2D00 JUMP JUMPDEST JUMPDEST SWAP1 PUSH0 MSTORE PUSH1 0x20 PUSH0 KECCAK256 ADD PUSH0 SWAP1 SLOAD SWAP1 PUSH2 0x100 EXP SWAP1 DIV PUSH20 0xFFFFFFFFFFFFFFFFFFFFFFFFFFFFFFFFFFFFFFFF AND PUSH20 0xFFFFFFFFFFFFFFFFFFFFFFFFFFFFFFFFFFFFFFFF AND CALLER PUSH20 0xFFFFFFFFFFFFFFFFFFFFFFFFFFFFFFFFFFFFFFFF AND SUB PUSH2 0x1FB4 JUMPI DUP8 SWAP9 POP DUP7 SWAP6 POP DUP1 SWAP11 POP JUMPDEST DUP1 DUP1 PUSH1 0x1 ADD SWAP2 POP POP PUSH2 0x1E12 JUMP JUMPDEST POP PUSH1 0x7 SLOAD DUP10 DUP5 PUSH1 0x7 SLOAD DUP12 PUSH2 0x1FD5 SWAP2 SWAP1 PUSH2 0x2A2E JUMP JUMPDEST PUSH2 0x1FDF SWAP2 SWAP1 PUSH2 0x3288 JUMP JUMPDEST PUSH2 0x1FE9 SWAP2 SWAP1 PUSH2 0x2A2E JUMP JUMPDEST PUSH2 0x1FF3 SWAP2 SWAP1 PUSH2 0x3288 JUMP JUMPDEST SWAP2 POP DUP5 DUP3 GT ISZERO PUSH2 0x2049 JUMPI PUSH1 0x9 PUSH0 SWAP1 SLOAD SWAP1 PUSH2 0x100 EXP SWAP1 DIV PUSH1 0xFF AND PUSH1 0xFF AND DUP6 DUP4 PUSH2 0x201B SWAP2 SWAP1 PUSH2 0x2CCD JUMP JUMPDEST PUSH1 0x5 PUSH1 0x14 SWAP1 SLOAD SWAP1 PUSH2 0x100 EXP SWAP1 DIV PUSH1 0xFF AND PUSH1 0xFF AND PUSH2 0x2038 SWAP2 SWAP1 PUSH2 0x2A2E JUMP JUMPDEST PUSH2 0x2042 SWAP2 SWAP1 PUSH2 0x3288 JUMP JUMPDEST SWAP1 POP PUSH2 0x204D JUMP JUMPDEST PUSH0 SWAP1 POP JUMPDEST DUP1 DUP3 PUSH2 0x2059 SWAP2 SWAP1 PUSH2 0x2CCD JUMP JUMPDEST SWAP11 POP POP POP POP POP POP POP POP POP POP SWAP1 SWAP2 JUMP JUMPDEST PUSH1 0x5 PUSH1 0x1D SWAP1 SLOAD SWAP1 PUSH2 0x100 EXP SWAP1 DIV PUSH2 0xFFFF AND DUP2 JUMP JUMPDEST PUSH2 0x2084 PUSH2 0x2271 JUMP JUMPDEST PUSH2 0x208D DUP2 PUSH2 0x23B8 JUMP JUMPDEST POP JUMP JUMPDEST PUSH1 0x11 PUSH1 0x20 MSTORE DUP1 PUSH0 MSTORE PUSH1 0x40 PUSH0 KECCAK256 PUSH0 SWAP2 POP SLOAD SWAP1 PUSH2 0x100 EXP SWAP1 DIV PUSH1 0xFF AND DUP2 JUMP JUMPDEST PUSH0 PUSH1 0x2 PUSH0 SWAP1 SLOAD SWAP1 PUSH2 0x100 EXP SWAP1 DIV PUSH20 0xFFFFFFFFFFFFFFFFFFFFFFFFFFFFFFFFFFFFFFFF AND PUSH20 0xFFFFFFFFFFFFFFFFFFFFFFFFFFFFFFFFFFFFFFFF AND PUSH4 0x5D3B1D30 PUSH1 0x4 SLOAD PUSH1 0x3 PUSH0 SWAP1 SLOAD SWAP1 PUSH2 0x100 EXP SWAP1 DIV PUSH8 0xFFFFFFFFFFFFFFFF AND PUSH1 0x2 PUSH1 0x18 SWAP1 SLOAD SWAP1 PUSH2 0x100 EXP SWAP1 DIV PUSH1 0xFF AND PUSH1 0x2 PUSH1 0x14 SWAP1 SLOAD SWAP1 PUSH2 0x100 EXP SWAP1 DIV PUSH4 0xFFFFFFFF AND PUSH1 0x2 PUSH1 0x19 SWAP1 SLOAD SWAP1 PUSH2 0x100 EXP SWAP1 DIV PUSH1 0xFF AND PUSH1 0x40 MLOAD DUP7 PUSH4 0xFFFFFFFF AND PUSH1 0xE0 SHL DUP2 MSTORE PUSH1 0x4 ADD PUSH2 0x2157 SWAP6 SWAP5 SWAP4 SWAP3 SWAP2 SWAP1 PUSH2 0x335B JUMP JUMPDEST PUSH1 0x20 PUSH1 0x40 MLOAD DUP1 DUP4 SUB DUP2 PUSH0 DUP8 GAS CALL ISZERO DUP1 ISZERO PUSH2 0x2173 JUMPI RETURNDATASIZE PUSH0 DUP1 RETURNDATACOPY RETURNDATASIZE PUSH0 REVERT JUMPDEST POP POP POP POP PUSH1 0x40 MLOAD RETURNDATASIZE PUSH1 0x1F NOT PUSH1 0x1F DUP3 ADD AND DUP3 ADD DUP1 PUSH1 0x40 MSTORE POP DUP2 ADD SWAP1 PUSH2 0x2197 SWAP2 SWAP1 PUSH2 0x2A83 JUMP JUMPDEST SWAP1 POP PUSH1 0x40 MLOAD DUP1 PUSH1 0x60 ADD PUSH1 0x40 MSTORE DUP1 PUSH0 ISZERO ISZERO DUP2 MSTORE PUSH1 0x20 ADD PUSH1 0x1 ISZERO ISZERO DUP2 MSTORE PUSH1 0x20 ADD PUSH0 PUSH8 0xFFFFFFFFFFFFFFFF DUP2 GT ISZERO PUSH2 0x21CF JUMPI PUSH2 0x21CE PUSH2 0x2664 JUMP JUMPDEST JUMPDEST PUSH1 0x40 MLOAD SWAP1 DUP1 DUP3 MSTORE DUP1 PUSH1 0x20 MUL PUSH1 0x20 ADD DUP3 ADD PUSH1 0x40 MSTORE DUP1 ISZERO PUSH2 0x21FD JUMPI DUP2 PUSH1 0x20 ADD PUSH1 0x20 DUP3 MUL DUP1 CALLDATASIZE DUP4 CALLDATACOPY DUP1 DUP3 ADD SWAP2 POP POP SWAP1 POP JUMPDEST POP DUP2 MSTORE POP PUSH1 0xF PUSH0 DUP4 DUP2 MSTORE PUSH1 0x20 ADD SWAP1 DUP2 MSTORE PUSH1 0x20 ADD PUSH0 KECCAK256 PUSH0 DUP3 ADD MLOAD DUP2 PUSH0 ADD PUSH0 PUSH2 0x100 EXP DUP2 SLOAD DUP2 PUSH1 0xFF MUL NOT AND SWAP1 DUP4 ISZERO ISZERO MUL OR SWAP1 SSTORE POP PUSH1 0x20 DUP3 ADD MLOAD DUP2 PUSH0 ADD PUSH1 0x1 PUSH2 0x100 EXP DUP2 SLOAD DUP2 PUSH1 0xFF MUL NOT AND SWAP1 DUP4 ISZERO ISZERO MUL OR SWAP1 SSTORE POP PUSH1 0x40 DUP3 ADD MLOAD DUP2 PUSH1 0x1 ADD SWAP1 DUP1 MLOAD SWAP1 PUSH1 0x20 ADD SWAP1 PUSH2 0x226A SWAP3 SWAP2 SWAP1 PUSH2 0x24E2 JUMP JUMPDEST POP SWAP1 POP POP SWAP1 JUMP JUMPDEST PUSH0 DUP1 SLOAD SWAP1 PUSH2 0x100 EXP SWAP1 DIV PUSH20 0xFFFFFFFFFFFFFFFFFFFFFFFFFFFFFFFFFFFFFFFF AND PUSH20 0xFFFFFFFFFFFFFFFFFFFFFFFFFFFFFFFFFFFFFFFF AND CALLER PUSH20 0xFFFFFFFFFFFFFFFFFFFFFFFFFFFFFFFFFFFFFFFF AND EQ PUSH2 0x22FE JUMPI PUSH1 0x40 MLOAD PUSH32 0x8C379A000000000000000000000000000000000000000000000000000000000 DUP2 MSTORE PUSH1 0x4 ADD PUSH2 0x22F5 SWAP1 PUSH2 0x33F6 JUMP JUMPDEST PUSH1 0x40 MLOAD DUP1 SWAP2 SUB SWAP1 REVERT JUMPDEST JUMP JUMPDEST PUSH1 0xF PUSH0 DUP4 DUP2 MSTORE PUSH1 0x20 ADD SWAP1 DUP2 MSTORE PUSH1 0x20 ADD PUSH0 KECCAK256 PUSH0 ADD PUSH1 0x1 SWAP1 SLOAD SWAP1 PUSH2 0x100 EXP SWAP1 DIV PUSH1 0xFF AND PUSH2 0x2360 JUMPI PUSH1 0x40 MLOAD PUSH32 0x8C379A000000000000000000000000000000000000000000000000000000000 DUP2 MSTORE PUSH1 0x4 ADD PUSH2 0x2357 SWAP1 PUSH2 0x345E JUMP JUMPDEST PUSH1 0x40 MLOAD DUP1 SWAP2 SUB SWAP1 REVERT JUMPDEST PUSH1 0x1 PUSH1 0xF PUSH0 DUP5 DUP2 MSTORE PUSH1 0x20 ADD SWAP1 DUP2 MSTORE PUSH1 0x20 ADD PUSH0 KECCAK256 PUSH0 ADD PUSH0 PUSH2 0x100 EXP DUP2 SLOAD DUP2 PUSH1 0xFF MUL NOT AND SWAP1 DUP4 ISZERO ISZERO MUL OR SWAP1 SSTORE POP DUP1 PUSH1 0xF PUSH0 DUP5 DUP2 MSTORE PUSH1 0x20 ADD SWAP1 DUP2 MSTORE PUSH1 0x20 ADD PUSH0 KECCAK256 PUSH1 0x1 ADD SWAP1 DUP1 MLOAD SWAP1 PUSH1 0x20 ADD SWAP1 PUSH2 0x23B3 SWAP3 SWAP2 SWAP1 PUSH2 0x24E2 JUMP JUMPDEST POP POP POP JUMP JUMPDEST CALLER PUSH20 0xFFFFFFFFFFFFFFFFFFFFFFFFFFFFFFFFFFFFFFFF AND DUP2 PUSH20 0xFFFFFFFFFFFFFFFFFFFFFFFFFFFFFFFFFFFFFFFF AND SUB PUSH2 0x2426 JUMPI PUSH1 0x40 MLOAD PUSH32 0x8C379A000000000000000000000000000000000000000000000000000000000 DUP2 MSTORE PUSH1 0x4 ADD PUSH2 0x241D SWAP1 PUSH2 0x34C6 JUMP JUMPDEST PUSH1 0x40 MLOAD DUP1 SWAP2 SUB SWAP1 REVERT JUMPDEST DUP1 PUSH1 0x1 PUSH0 PUSH2 0x100 EXP DUP2 SLOAD DUP2 PUSH20 0xFFFFFFFFFFFFFFFFFFFFFFFFFFFFFFFFFFFFFFFF MUL NOT AND SWAP1 DUP4 PUSH20 0xFFFFFFFFFFFFFFFFFFFFFFFFFFFFFFFFFFFFFFFF AND MUL OR SWAP1 SSTORE POP DUP1 PUSH20 0xFFFFFFFFFFFFFFFFFFFFFFFFFFFFFFFFFFFFFFFF AND PUSH0 DUP1 SLOAD SWAP1 PUSH2 0x100 EXP SWAP1 DIV PUSH20 0xFFFFFFFFFFFFFFFFFFFFFFFFFFFFFFFFFFFFFFFF AND PUSH20 0xFFFFFFFFFFFFFFFFFFFFFFFFFFFFFFFFFFFFFFFF AND PUSH32 0xED8889F560326EB138920D842192F0EB3DD22B4F139C87A2C57538E05BAE1278 PUSH1 0x40 MLOAD PUSH1 0x40 MLOAD DUP1 SWAP2 SUB SWAP1 LOG3 POP JUMP JUMPDEST DUP3 DUP1 SLOAD DUP3 DUP3 SSTORE SWAP1 PUSH0 MSTORE PUSH1 0x20 PUSH0 KECCAK256 SWAP1 DUP2 ADD SWAP3 DUP3 ISZERO PUSH2 0x251C JUMPI SWAP2 PUSH1 0x20 MUL DUP3 ADD JUMPDEST DUP3 DUP2 GT ISZERO PUSH2 0x251B JUMPI DUP3 MLOAD DUP3 SSTORE SWAP2 PUSH1 0x20 ADD SWAP2 SWAP1 PUSH1 0x1 ADD SWAP1 PUSH2 0x2500 JUMP JUMPDEST JUMPDEST POP SWAP1 POP PUSH2 0x2529 SWAP2 SWAP1 PUSH2 0x252D JUMP JUMPDEST POP SWAP1 JUMP JUMPDEST JUMPDEST DUP1 DUP3 GT ISZERO PUSH2 0x2544 JUMPI PUSH0 DUP2 PUSH0 SWAP1 SSTORE POP PUSH1 0x1 ADD PUSH2 0x252E JUMP JUMPDEST POP SWAP1 JUMP JUMPDEST PUSH0 PUSH4 0xFFFFFFFF DUP3 AND SWAP1 POP SWAP2 SWAP1 POP JUMP JUMPDEST PUSH2 0x2560 DUP2 PUSH2 0x2548 JUMP JUMPDEST DUP3 MSTORE POP POP JUMP JUMPDEST PUSH0 PUSH1 0x20 DUP3 ADD SWAP1 POP PUSH2 0x2579 PUSH0 DUP4 ADD DUP5 PUSH2 0x2557 JUMP JUMPDEST SWAP3 SWAP2 POP POP JUMP JUMPDEST PUSH0 PUSH1 0x40 MLOAD SWAP1 POP SWAP1 JUMP JUMPDEST PUSH0 DUP1 REVERT JUMPDEST PUSH0 DUP1 REVERT JUMPDEST PUSH0 DUP2 SWAP1 POP SWAP2 SWAP1 POP JUMP JUMPDEST PUSH2 0x25A2 DUP2 PUSH2 0x2590 JUMP JUMPDEST DUP2 EQ PUSH2 0x25AC JUMPI PUSH0 DUP1 REVERT JUMPDEST POP JUMP JUMPDEST PUSH0 DUP2 CALLDATALOAD SWAP1 POP PUSH2 0x25BD DUP2 PUSH2 0x2599 JUMP JUMPDEST SWAP3 SWAP2 POP POP JUMP JUMPDEST PUSH0 PUSH1 0x20 DUP3 DUP5 SUB SLT ISZERO PUSH2 0x25D8 JUMPI PUSH2 0x25D7 PUSH2 0x2588 JUMP JUMPDEST JUMPDEST PUSH0 PUSH2 0x25E5 DUP5 DUP3 DUP6 ADD PUSH2 0x25AF JUMP JUMPDEST SWAP2 POP POP SWAP3 SWAP2 POP POP JUMP JUMPDEST PUSH0 PUSH2 0xFFFF DUP3 AND SWAP1 POP SWAP2 SWAP1 POP JUMP JUMPDEST PUSH2 0x2604 DUP2 PUSH2 0x25EE JUMP JUMPDEST DUP2 EQ PUSH2 0x260E JUMPI PUSH0 DUP1 REVERT JUMPDEST POP JUMP JUMPDEST PUSH0 DUP2 CALLDATALOAD SWAP1 POP PUSH2 0x261F DUP2 PUSH2 0x25FB JUMP JUMPDEST SWAP3 SWAP2 POP POP JUMP JUMPDEST PUSH0 PUSH1 0x20 DUP3 DUP5 SUB SLT ISZERO PUSH2 0x263A JUMPI PUSH2 0x2639 PUSH2 0x2588 JUMP JUMPDEST JUMPDEST PUSH0 PUSH2 0x2647 DUP5 DUP3 DUP6 ADD PUSH2 0x2611 JUMP JUMPDEST SWAP2 POP POP SWAP3 SWAP2 POP POP JUMP JUMPDEST PUSH0 DUP1 REVERT JUMPDEST PUSH0 PUSH1 0x1F NOT PUSH1 0x1F DUP4 ADD AND SWAP1 POP SWAP2 SWAP1 POP JUMP JUMPDEST PUSH32 0x4E487B7100000000000000000000000000000000000000000000000000000000 PUSH0 MSTORE PUSH1 0x41 PUSH1 0x4 MSTORE PUSH1 0x24 PUSH0 REVERT JUMPDEST PUSH2 0x269A DUP3 PUSH2 0x2654 JUMP JUMPDEST DUP2 ADD DUP2 DUP2 LT PUSH8 0xFFFFFFFFFFFFFFFF DUP3 GT OR ISZERO PUSH2 0x26B9 JUMPI PUSH2 0x26B8 PUSH2 0x2664 JUMP JUMPDEST JUMPDEST DUP1 PUSH1 0x40 MSTORE POP POP POP JUMP JUMPDEST PUSH0 PUSH2 0x26CB PUSH2 0x257F JUMP JUMPDEST SWAP1 POP PUSH2 0x26D7 DUP3 DUP3 PUSH2 0x2691 JUMP JUMPDEST SWAP2 SWAP1 POP JUMP JUMPDEST PUSH0 PUSH8 0xFFFFFFFFFFFFFFFF DUP3 GT ISZERO PUSH2 0x26F6 JUMPI PUSH2 0x26F5 PUSH2 0x2664 JUMP JUMPDEST JUMPDEST PUSH1 0x20 DUP3 MUL SWAP1 POP PUSH1 0x20 DUP2 ADD SWAP1 POP SWAP2 SWAP1 POP JUMP JUMPDEST PUSH0 DUP1 REVERT JUMPDEST PUSH0 PUSH2 0x271D PUSH2 0x2718 DUP5 PUSH2 0x26DC JUMP JUMPDEST PUSH2 0x26C2 JUMP JUMPDEST SWAP1 POP DUP1 DUP4 DUP3 MSTORE PUSH1 0x20 DUP3 ADD SWAP1 POP PUSH1 0x20 DUP5 MUL DUP4 ADD DUP6 DUP2 GT ISZERO PUSH2 0x2740 JUMPI PUSH2 0x273F PUSH2 0x2707 JUMP JUMPDEST JUMPDEST DUP4 JUMPDEST DUP2 DUP2 LT ISZERO PUSH2 0x2769 JUMPI DUP1 PUSH2 0x2755 DUP9 DUP3 PUSH2 0x25AF JUMP JUMPDEST DUP5 MSTORE PUSH1 0x20 DUP5 ADD SWAP4 POP POP PUSH1 0x20 DUP2 ADD SWAP1 POP PUSH2 0x2742 JUMP JUMPDEST POP POP POP SWAP4 SWAP3 POP POP POP JUMP JUMPDEST PUSH0 DUP3 PUSH1 0x1F DUP4 ADD SLT PUSH2 0x2787 JUMPI PUSH2 0x2786 PUSH2 0x2650 JUMP JUMPDEST JUMPDEST DUP2 CALLDATALOAD PUSH2 0x2797 DUP5 DUP3 PUSH1 0x20 DUP7 ADD PUSH2 0x270B JUMP JUMPDEST SWAP2 POP POP SWAP3 SWAP2 POP POP JUMP JUMPDEST PUSH0 DUP1 PUSH1 0x40 DUP4 DUP6 SUB SLT ISZERO PUSH2 0x27B6 JUMPI PUSH2 0x27B5 PUSH2 0x2588 JUMP JUMPDEST JUMPDEST PUSH0 PUSH2 0x27C3 DUP6 DUP3 DUP7 ADD PUSH2 0x25AF JUMP JUMPDEST SWAP3 POP POP PUSH1 0x20 DUP4 ADD CALLDATALOAD PUSH8 0xFFFFFFFFFFFFFFFF DUP2 GT ISZERO PUSH2 0x27E4 JUMPI PUSH2 0x27E3 PUSH2 0x258C JUMP JUMPDEST JUMPDEST PUSH2 0x27F0 DUP6 DUP3 DUP7 ADD PUSH2 0x2773 JUMP JUMPDEST SWAP2 POP POP SWAP3 POP SWAP3 SWAP1 POP JUMP JUMPDEST PUSH0 PUSH20 0xFFFFFFFFFFFFFFFFFFFFFFFFFFFFFFFFFFFFFFFF DUP3 AND SWAP1 POP SWAP2 SWAP1 POP JUMP JUMPDEST PUSH0 PUSH2 0x2823 DUP3 PUSH2 0x27FA JUMP JUMPDEST SWAP1 POP SWAP2 SWAP1 POP JUMP JUMPDEST PUSH2 0x2833 DUP2 PUSH2 0x2819 JUMP JUMPDEST DUP3 MSTORE POP POP JUMP JUMPDEST PUSH0 PUSH1 0x20 DUP3 ADD SWAP1 POP PUSH2 0x284C PUSH0 DUP4 ADD DUP5 PUSH2 0x282A JUMP JUMPDEST SWAP3 SWAP2 POP POP JUMP JUMPDEST PUSH2 0x285B DUP2 PUSH2 0x2819 JUMP JUMPDEST DUP2 EQ PUSH2 0x2865 JUMPI PUSH0 DUP1 REVERT JUMPDEST POP JUMP JUMPDEST PUSH0 DUP2 CALLDATALOAD SWAP1 POP PUSH2 0x2876 DUP2 PUSH2 0x2852 JUMP JUMPDEST SWAP3 SWAP2 POP POP JUMP JUMPDEST PUSH0 PUSH1 0x20 DUP3 DUP5 SUB SLT ISZERO PUSH2 0x2891 JUMPI PUSH2 0x2890 PUSH2 0x2588 JUMP JUMPDEST JUMPDEST PUSH0 PUSH2 0x289E DUP5 DUP3 DUP6 ADD PUSH2 0x2868 JUMP JUMPDEST SWAP2 POP POP SWAP3 SWAP2 POP POP JUMP JUMPDEST PUSH2 0x28B0 DUP2 PUSH2 0x2590 JUMP JUMPDEST DUP3 MSTORE POP POP JUMP JUMPDEST PUSH0 PUSH1 0x20 DUP3 ADD SWAP1 POP PUSH2 0x28C9 PUSH0 DUP4 ADD DUP5 PUSH2 0x28A7 JUMP JUMPDEST SWAP3 SWAP2 POP POP JUMP JUMPDEST PUSH0 PUSH1 0xFF DUP3 AND SWAP1 POP SWAP2 SWAP1 POP JUMP JUMPDEST PUSH2 0x28E4 DUP2 PUSH2 0x28CF JUMP JUMPDEST DUP3 MSTORE POP POP JUMP JUMPDEST PUSH0 PUSH1 0x20 DUP3 ADD SWAP1 POP PUSH2 0x28FD PUSH0 DUP4 ADD DUP5 PUSH2 0x28DB JUMP JUMPDEST SWAP3 SWAP2 POP POP JUMP JUMPDEST PUSH0 DUP2 ISZERO ISZERO SWAP1 POP SWAP2 SWAP1 POP JUMP JUMPDEST PUSH2 0x2917 DUP2 PUSH2 0x2903 JUMP JUMPDEST DUP3 MSTORE POP POP JUMP JUMPDEST PUSH0 PUSH1 0x40 DUP3 ADD SWAP1 POP PUSH2 0x2930 PUSH0 DUP4 ADD DUP6 PUSH2 0x290E JUMP JUMPDEST PUSH2 0x293D PUSH1 0x20 DUP4 ADD DUP5 PUSH2 0x290E JUMP JUMPDEST SWAP4 SWAP3 POP POP POP JUMP JUMPDEST PUSH2 0x294D DUP2 PUSH2 0x28CF JUMP JUMPDEST DUP2 EQ PUSH2 0x2957 JUMPI PUSH0 DUP1 REVERT JUMPDEST POP JUMP JUMPDEST PUSH0 DUP2 CALLDATALOAD SWAP1 POP PUSH2 0x2968 DUP2 PUSH2 0x2944 JUMP JUMPDEST SWAP3 SWAP2 POP POP JUMP JUMPDEST PUSH0 PUSH1 0x20 DUP3 DUP5 SUB SLT ISZERO PUSH2 0x2983 JUMPI PUSH2 0x2982 PUSH2 0x2588 JUMP JUMPDEST JUMPDEST PUSH0 PUSH2 0x2990 DUP5 DUP3 DUP6 ADD PUSH2 0x295A JUMP JUMPDEST SWAP2 POP POP SWAP3 SWAP2 POP POP JUMP JUMPDEST PUSH0 PUSH1 0x40 DUP3 ADD SWAP1 POP PUSH2 0x29AC PUSH0 DUP4 ADD DUP6 PUSH2 0x28A7 JUMP JUMPDEST PUSH2 0x29B9 PUSH1 0x20 DUP4 ADD DUP5 PUSH2 0x28A7 JUMP JUMPDEST SWAP4 SWAP3 POP POP POP JUMP JUMPDEST PUSH2 0x29C9 DUP2 PUSH2 0x25EE JUMP JUMPDEST DUP3 MSTORE POP POP JUMP JUMPDEST PUSH0 PUSH1 0x20 DUP3 ADD SWAP1 POP PUSH2 0x29E2 PUSH0 DUP4 ADD DUP5 PUSH2 0x29C0 JUMP JUMPDEST SWAP3 SWAP2 POP POP JUMP JUMPDEST PUSH0 PUSH1 0x20 DUP3 ADD SWAP1 POP PUSH2 0x29FB PUSH0 DUP4 ADD DUP5 PUSH2 0x290E JUMP JUMPDEST SWAP3 SWAP2 POP POP JUMP JUMPDEST PUSH32 0x4E487B7100000000000000000000000000000000000000000000000000000000 PUSH0 MSTORE PUSH1 0x11 PUSH1 0x4 MSTORE PUSH1 0x24 PUSH0 REVERT JUMPDEST PUSH0 PUSH2 0x2A38 DUP3 PUSH2 0x2590 JUMP JUMPDEST SWAP2 POP PUSH2 0x2A43 DUP4 PUSH2 0x2590 JUMP JUMPDEST SWAP3 POP DUP3 DUP3 MUL PUSH2 0x2A51 DUP2 PUSH2 0x2590 JUMP JUMPDEST SWAP2 POP DUP3 DUP3 DIV DUP5 EQ DUP4 ISZERO OR PUSH2 0x2A68 JUMPI PUSH2 0x2A67 PUSH2 0x2A01 JUMP JUMPDEST JUMPDEST POP SWAP3 SWAP2 POP POP JUMP JUMPDEST PUSH0 DUP2 MLOAD SWAP1 POP PUSH2 0x2A7D DUP2 PUSH2 0x2599 JUMP JUMPDEST SWAP3 SWAP2 POP POP JUMP JUMPDEST PUSH0 PUSH1 0x20 DUP3 DUP5 SUB SLT ISZERO PUSH2 0x2A98 JUMPI PUSH2 0x2A97 PUSH2 0x2588 JUMP JUMPDEST JUMPDEST PUSH0 PUSH2 0x2AA5 DUP5 DUP3 DUP6 ADD PUSH2 0x2A6F JUMP JUMPDEST SWAP2 POP POP SWAP3 SWAP2 POP POP JUMP JUMPDEST PUSH0 DUP3 DUP3 MSTORE PUSH1 0x20 DUP3 ADD SWAP1 POP SWAP3 SWAP2 POP POP JUMP JUMPDEST PUSH32 0x4E6F7420656E6F75676820534C5420696E20636F6E747261637420746F20656E PUSH0 DUP3 ADD MSTORE PUSH32 0x61626C6520746869732064726177000000000000000000000000000000000000 PUSH1 0x20 DUP3 ADD MSTORE POP JUMP JUMPDEST PUSH0 PUSH2 0x2B18 PUSH1 0x2E DUP4 PUSH2 0x2AAE JUMP JUMPDEST SWAP2 POP PUSH2 0x2B23 DUP3 PUSH2 0x2ABE JUMP JUMPDEST PUSH1 0x40 DUP3 ADD SWAP1 POP SWAP2 SWAP1 POP JUMP JUMPDEST PUSH0 PUSH1 0x20 DUP3 ADD SWAP1 POP DUP2 DUP2 SUB PUSH0 DUP4 ADD MSTORE PUSH2 0x2B45 DUP2 PUSH2 0x2B0C JUMP JUMPDEST SWAP1 POP SWAP2 SWAP1 POP JUMP JUMPDEST PUSH0 PUSH1 0x40 DUP3 ADD SWAP1 POP PUSH2 0x2B5F PUSH0 DUP4 ADD DUP6 PUSH2 0x282A JUMP JUMPDEST PUSH2 0x2B6C PUSH1 0x20 DUP4 ADD DUP5 PUSH2 0x282A JUMP JUMPDEST SWAP4 SWAP3 POP POP POP JUMP JUMPDEST PUSH32 0x496E73756666696369656E7420534C5420616C6C6F77616E6365000000000000 PUSH0 DUP3 ADD MSTORE POP JUMP JUMPDEST PUSH0 PUSH2 0x2BA7 PUSH1 0x1A DUP4 PUSH2 0x2AAE JUMP JUMPDEST SWAP2 POP PUSH2 0x2BB2 DUP3 PUSH2 0x2B73 JUMP JUMPDEST PUSH1 0x20 DUP3 ADD SWAP1 POP SWAP2 SWAP1 POP JUMP JUMPDEST PUSH0 PUSH1 0x20 DUP3 ADD SWAP1 POP DUP2 DUP2 SUB PUSH0 DUP4 ADD MSTORE PUSH2 0x2BD4 DUP2 PUSH2 0x2B9B JUMP JUMPDEST SWAP1 POP SWAP2 SWAP1 POP JUMP JUMPDEST PUSH0 PUSH1 0x60 DUP3 ADD SWAP1 POP PUSH2 0x2BEE PUSH0 DUP4 ADD DUP7 PUSH2 0x282A JUMP JUMPDEST PUSH2 0x2BFB PUSH1 0x20 DUP4 ADD DUP6 PUSH2 0x282A JUMP JUMPDEST PUSH2 0x2C08 PUSH1 0x40 DUP4 ADD DUP5 PUSH2 0x28A7 JUMP JUMPDEST SWAP5 SWAP4 POP POP POP POP JUMP JUMPDEST PUSH2 0x2C19 DUP2 PUSH2 0x2903 JUMP JUMPDEST DUP2 EQ PUSH2 0x2C23 JUMPI PUSH0 DUP1 REVERT JUMPDEST POP JUMP JUMPDEST PUSH0 DUP2 MLOAD SWAP1 POP PUSH2 0x2C34 DUP2 PUSH2 0x2C10 JUMP JUMPDEST SWAP3 SWAP2 POP POP JUMP JUMPDEST PUSH0 PUSH1 0x20 DUP3 DUP5 SUB SLT ISZERO PUSH2 0x2C4F JUMPI PUSH2 0x2C4E PUSH2 0x2588 JUMP JUMPDEST JUMPDEST PUSH0 PUSH2 0x2C5C DUP5 DUP3 DUP6 ADD PUSH2 0x2C26 JUMP JUMPDEST SWAP2 POP POP SWAP3 SWAP2 POP POP JUMP JUMPDEST PUSH32 0x5265656E7472616E63792067756172643A206C6F636B65640000000000000000 PUSH0 DUP3 ADD MSTORE POP JUMP JUMPDEST PUSH0 PUSH2 0x2C99 PUSH1 0x18 DUP4 PUSH2 0x2AAE JUMP JUMPDEST SWAP2 POP PUSH2 0x2CA4 DUP3 PUSH2 0x2C65 JUMP JUMPDEST PUSH1 0x20 DUP3 ADD SWAP1 POP SWAP2 SWAP1 POP JUMP JUMPDEST PUSH0 PUSH1 0x20 DUP3 ADD SWAP1 POP DUP2 DUP2 SUB PUSH0 DUP4 ADD MSTORE PUSH2 0x2CC6 DUP2 PUSH2 0x2C8D JUMP JUMPDEST SWAP1 POP SWAP2 SWAP1 POP JUMP JUMPDEST PUSH0 PUSH2 0x2CD7 DUP3 PUSH2 0x2590 JUMP JUMPDEST SWAP2 POP PUSH2 0x2CE2 DUP4 PUSH2 0x2590 JUMP JUMPDEST SWAP3 POP DUP3 DUP3 SUB SWAP1 POP DUP2 DUP2 GT ISZERO PUSH2 0x2CFA JUMPI PUSH2 0x2CF9 PUSH2 0x2A01 JUMP JUMPDEST JUMPDEST SWAP3 SWAP2 POP POP JUMP JUMPDEST PUSH32 0x4E487B7100000000000000000000000000000000000000000000000000000000 PUSH0 MSTORE PUSH1 0x32 PUSH1 0x4 MSTORE PUSH1 0x24 PUSH0 REVERT JUMPDEST PUSH32 0x4E487B7100000000000000000000000000000000000000000000000000000000 PUSH0 MSTORE PUSH1 0x31 PUSH1 0x4 MSTORE PUSH1 0x24 PUSH0 REVERT JUMPDEST PUSH0 PUSH1 0x40 DUP3 ADD SWAP1 POP PUSH2 0x2D6D PUSH0 DUP4 ADD DUP6 PUSH2 0x282A JUMP JUMPDEST PUSH2 0x2D7A PUSH1 0x20 DUP4 ADD DUP5 PUSH2 0x28A7 JUMP JUMPDEST SWAP4 SWAP3 POP POP POP JUMP JUMPDEST PUSH32 0x596F7520646964206E6F742077696E2E20426574746572206C75636B206E6578 PUSH0 DUP3 ADD MSTORE PUSH32 0x742074696D652100000000000000000000000000000000000000000000000000 PUSH1 0x20 DUP3 ADD MSTORE POP JUMP JUMPDEST PUSH0 PUSH2 0x2DDB PUSH1 0x27 DUP4 PUSH2 0x2AAE JUMP JUMPDEST SWAP2 POP PUSH2 0x2DE6 DUP3 PUSH2 0x2D81 JUMP JUMPDEST PUSH1 0x40 DUP3 ADD SWAP1 POP SWAP2 SWAP1 POP JUMP JUMPDEST PUSH0 PUSH1 0x20 DUP3 ADD SWAP1 POP DUP2 DUP2 SUB PUSH0 DUP4 ADD MSTORE PUSH2 0x2E08 DUP2 PUSH2 0x2DCF JUMP JUMPDEST SWAP1 POP SWAP2 SWAP1 POP JUMP JUMPDEST PUSH32 0x4D7573742062652070726F706F736564206F776E657200000000000000000000 PUSH0 DUP3 ADD MSTORE POP JUMP JUMPDEST PUSH0 PUSH2 0x2E43 PUSH1 0x16 DUP4 PUSH2 0x2AAE JUMP JUMPDEST SWAP2 POP PUSH2 0x2E4E DUP3 PUSH2 0x2E0F JUMP JUMPDEST PUSH1 0x20 DUP3 ADD SWAP1 POP SWAP2 SWAP1 POP JUMP JUMPDEST PUSH0 PUSH1 0x20 DUP3 ADD SWAP1 POP DUP2 DUP2 SUB PUSH0 DUP4 ADD MSTORE PUSH2 0x2E70 DUP2 PUSH2 0x2E37 JUMP JUMPDEST SWAP1 POP SWAP2 SWAP1 POP JUMP JUMPDEST PUSH32 0x596F75206861766520616C726561647920636C61696D656420616E2061697264 PUSH0 DUP3 ADD MSTORE PUSH32 0x726F700000000000000000000000000000000000000000000000000000000000 PUSH1 0x20 DUP3 ADD MSTORE POP JUMP JUMPDEST PUSH0 PUSH2 0x2ED1 PUSH1 0x23 DUP4 PUSH2 0x2AAE JUMP JUMPDEST SWAP2 POP PUSH2 0x2EDC DUP3 PUSH2 0x2E77 JUMP JUMPDEST PUSH1 0x40 DUP3 ADD SWAP1 POP SWAP2 SWAP1 POP JUMP JUMPDEST PUSH0 PUSH1 0x20 DUP3 ADD SWAP1 POP DUP2 DUP2 SUB PUSH0 DUP4 ADD MSTORE PUSH2 0x2EFE DUP2 PUSH2 0x2EC5 JUMP JUMPDEST SWAP1 POP SWAP2 SWAP1 POP JUMP JUMPDEST PUSH32 0x41697264726F70204E6F7420417661696C61626C652043757272656E746C7900 PUSH0 DUP3 ADD MSTORE POP JUMP JUMPDEST PUSH0 PUSH2 0x2F39 PUSH1 0x1F DUP4 PUSH2 0x2AAE JUMP JUMPDEST SWAP2 POP PUSH2 0x2F44 DUP3 PUSH2 0x2F05 JUMP JUMPDEST PUSH1 0x20 DUP3 ADD SWAP1 POP SWAP2 SWAP1 POP JUMP JUMPDEST PUSH0 PUSH1 0x20 DUP3 ADD SWAP1 POP DUP2 DUP2 SUB PUSH0 DUP4 ADD MSTORE PUSH2 0x2F66 DUP2 PUSH2 0x2F2D JUMP JUMPDEST SWAP1 POP SWAP2 SWAP1 POP JUMP JUMPDEST PUSH0 PUSH2 0x2F77 DUP3 PUSH2 0x2548 JUMP JUMPDEST SWAP2 POP PUSH2 0x2F82 DUP4 PUSH2 0x2548 JUMP JUMPDEST SWAP3 POP DUP3 DUP3 ADD SWAP1 POP PUSH4 0xFFFFFFFF DUP2 GT ISZERO PUSH2 0x2F9E JUMPI PUSH2 0x2F9D PUSH2 0x2A01 JUMP JUMPDEST JUMPDEST SWAP3 SWAP2 POP POP JUMP JUMPDEST PUSH32 0x436F6E7472696275746F7220616C726561647920657869737473000000000000 PUSH0 DUP3 ADD MSTORE POP JUMP JUMPDEST PUSH0 PUSH2 0x2FD8 PUSH1 0x1A DUP4 PUSH2 0x2AAE JUMP JUMPDEST SWAP2 POP PUSH2 0x2FE3 DUP3 PUSH2 0x2FA4 JUMP JUMPDEST PUSH1 0x20 DUP3 ADD SWAP1 POP SWAP2 SWAP1 POP JUMP JUMPDEST PUSH0 PUSH1 0x20 DUP3 ADD SWAP1 POP DUP2 DUP2 SUB PUSH0 DUP4 ADD MSTORE PUSH2 0x3005 DUP2 PUSH2 0x2FCC JUMP JUMPDEST SWAP1 POP SWAP2 SWAP1 POP JUMP JUMPDEST PUSH32 0x4E6F742061207061727469636970616E742E2043686F6F736520612064726177 PUSH0 DUP3 ADD MSTORE POP JUMP JUMPDEST PUSH0 PUSH2 0x3040 PUSH1 0x20 DUP4 PUSH2 0x2AAE JUMP JUMPDEST SWAP2 POP PUSH2 0x304B DUP3 PUSH2 0x300C JUMP JUMPDEST PUSH1 0x20 DUP3 ADD SWAP1 POP SWAP2 SWAP1 POP JUMP JUMPDEST PUSH0 PUSH1 0x20 DUP3 ADD SWAP1 POP DUP2 DUP2 SUB PUSH0 DUP4 ADD MSTORE PUSH2 0x306D DUP2 PUSH2 0x3034 JUMP JUMPDEST SWAP1 POP SWAP2 SWAP1 POP JUMP JUMPDEST PUSH32 0x52616E646F6D204E756D626572206E6F74207965742047656E65726174656400 PUSH0 DUP3 ADD MSTORE POP JUMP JUMPDEST PUSH0 PUSH2 0x30A8 PUSH1 0x1F DUP4 PUSH2 0x2AAE JUMP JUMPDEST SWAP2 POP PUSH2 0x30B3 DUP3 PUSH2 0x3074 JUMP JUMPDEST PUSH1 0x20 DUP3 ADD SWAP1 POP SWAP2 SWAP1 POP JUMP JUMPDEST PUSH0 PUSH1 0x20 DUP3 ADD SWAP1 POP DUP2 DUP2 SUB PUSH0 DUP4 ADD MSTORE PUSH2 0x30D5 DUP2 PUSH2 0x309C JUMP JUMPDEST SWAP1 POP SWAP2 SWAP1 POP JUMP JUMPDEST PUSH32 0x4E487B7100000000000000000000000000000000000000000000000000000000 PUSH0 MSTORE PUSH1 0x12 PUSH1 0x4 MSTORE PUSH1 0x24 PUSH0 REVERT JUMPDEST PUSH0 PUSH2 0x3113 DUP3 PUSH2 0x2590 JUMP JUMPDEST SWAP2 POP PUSH2 0x311E DUP4 PUSH2 0x2590 JUMP JUMPDEST SWAP3 POP DUP3 PUSH2 0x312E JUMPI PUSH2 0x312D PUSH2 0x30DC JUMP JUMPDEST JUMPDEST DUP3 DUP3 MOD SWAP1 POP SWAP3 SWAP2 POP POP JUMP JUMPDEST PUSH32 0x436F6E7472696275746F722063757272656E746C7920646F6573206E6F742068 PUSH0 DUP3 ADD MSTORE PUSH32 0x61766520616E792066756E64732077697468696E2074686520636F6E74726163 PUSH1 0x20 DUP3 ADD MSTORE PUSH32 0x7400000000000000000000000000000000000000000000000000000000000000 PUSH1 0x40 DUP3 ADD MSTORE POP JUMP JUMPDEST PUSH0 PUSH2 0x31B9 PUSH1 0x41 DUP4 PUSH2 0x2AAE JUMP JUMPDEST SWAP2 POP PUSH2 0x31C4 DUP3 PUSH2 0x3139 JUMP JUMPDEST PUSH1 0x60 DUP3 ADD SWAP1 POP SWAP2 SWAP1 POP JUMP JUMPDEST PUSH0 PUSH1 0x20 DUP3 ADD SWAP1 POP DUP2 DUP2 SUB PUSH0 DUP4 ADD MSTORE PUSH2 0x31E6 DUP2 PUSH2 0x31AD JUMP JUMPDEST SWAP1 POP SWAP2 SWAP1 POP JUMP JUMPDEST PUSH32 0x596F7520617265206E6F7420656C696769626C6520746F207769746864726177 PUSH0 DUP3 ADD MSTORE POP JUMP JUMPDEST PUSH0 PUSH2 0x3221 PUSH1 0x20 DUP4 PUSH2 0x2AAE JUMP JUMPDEST SWAP2 POP PUSH2 0x322C DUP3 PUSH2 0x31ED JUMP JUMPDEST PUSH1 0x20 DUP3 ADD SWAP1 POP SWAP2 SWAP1 POP JUMP JUMPDEST PUSH0 PUSH1 0x20 DUP3 ADD SWAP1 POP DUP2 DUP2 SUB PUSH0 DUP4 ADD MSTORE PUSH2 0x324E DUP2 PUSH2 0x3215 JUMP JUMPDEST SWAP1 POP SWAP2 SWAP1 POP JUMP JUMPDEST PUSH0 PUSH2 0x325F DUP3 PUSH2 0x2590 JUMP JUMPDEST SWAP2 POP PUSH2 0x326A DUP4 PUSH2 0x2590 JUMP JUMPDEST SWAP3 POP DUP3 DUP3 ADD SWAP1 POP DUP1 DUP3 GT ISZERO PUSH2 0x3282 JUMPI PUSH2 0x3281 PUSH2 0x2A01 JUMP JUMPDEST JUMPDEST SWAP3 SWAP2 POP POP JUMP JUMPDEST PUSH0 PUSH2 0x3292 DUP3 PUSH2 0x2590 JUMP JUMPDEST SWAP2 POP PUSH2 0x329D DUP4 PUSH2 0x2590 JUMP JUMPDEST SWAP3 POP DUP3 PUSH2 0x32AD JUMPI PUSH2 0x32AC PUSH2 0x30DC JUMP JUMPDEST JUMPDEST DUP3 DUP3 DIV SWAP1 POP SWAP3 SWAP2 POP POP JUMP JUMPDEST PUSH0 DUP2 SWAP1 POP SWAP2 SWAP1 POP JUMP JUMPDEST PUSH2 0x32CA DUP2 PUSH2 0x32B8 JUMP JUMPDEST DUP3 MSTORE POP POP JUMP JUMPDEST PUSH0 PUSH8 0xFFFFFFFFFFFFFFFF DUP3 AND SWAP1 POP SWAP2 SWAP1 POP JUMP JUMPDEST PUSH2 0x32EC DUP2 PUSH2 0x32D0 JUMP JUMPDEST DUP3 MSTORE POP POP JUMP JUMPDEST PUSH0 DUP2 SWAP1 POP SWAP2 SWAP1 POP JUMP JUMPDEST PUSH0 PUSH2 0x3315 PUSH2 0x3310 PUSH2 0x330B DUP5 PUSH2 0x28CF JUMP JUMPDEST PUSH2 0x32F2 JUMP JUMPDEST PUSH2 0x25EE JUMP JUMPDEST SWAP1 POP SWAP2 SWAP1 POP JUMP JUMPDEST PUSH2 0x3325 DUP2 PUSH2 0x32FB JUMP JUMPDEST DUP3 MSTORE POP POP JUMP JUMPDEST PUSH0 PUSH2 0x3345 PUSH2 0x3340 PUSH2 0x333B DUP5 PUSH2 0x28CF JUMP JUMPDEST PUSH2 0x32F2 JUMP JUMPDEST PUSH2 0x2548 JUMP JUMPDEST SWAP1 POP SWAP2 SWAP1 POP JUMP JUMPDEST PUSH2 0x3355 DUP2 PUSH2 0x332B JUMP JUMPDEST DUP3 MSTORE POP POP JUMP JUMPDEST PUSH0 PUSH1 0xA0 DUP3 ADD SWAP1 POP PUSH2 0x336E PUSH0 DUP4 ADD DUP9 PUSH2 0x32C1 JUMP JUMPDEST PUSH2 0x337B PUSH1 0x20 DUP4 ADD DUP8 PUSH2 0x32E3 JUMP JUMPDEST PUSH2 0x3388 PUSH1 0x40 DUP4 ADD DUP7 PUSH2 0x331C JUMP JUMPDEST PUSH2 0x3395 PUSH1 0x60 DUP4 ADD DUP6 PUSH2 0x2557 JUMP JUMPDEST PUSH2 0x33A2 PUSH1 0x80 DUP4 ADD DUP5 PUSH2 0x334C JUMP JUMPDEST SWAP7 SWAP6 POP POP POP POP POP POP JUMP JUMPDEST PUSH32 0x4F6E6C792063616C6C61626C65206279206F776E657200000000000000000000 PUSH0 DUP3 ADD MSTORE POP JUMP JUMPDEST PUSH0 PUSH2 0x33E0 PUSH1 0x16 DUP4 PUSH2 0x2AAE JUMP JUMPDEST SWAP2 POP PUSH2 0x33EB DUP3 PUSH2 0x33AC JUMP JUMPDEST PUSH1 0x20 DUP3 ADD SWAP1 POP SWAP2 SWAP1 POP JUMP JUMPDEST PUSH0 PUSH1 0x20 DUP3 ADD SWAP1 POP DUP2 DUP2 SUB PUSH0 DUP4 ADD MSTORE PUSH2 0x340D DUP2 PUSH2 0x33D4 JUMP JUMPDEST SWAP1 POP SWAP2 SWAP1 POP JUMP JUMPDEST PUSH32 0x72657175657374206E6F7420666F756E64000000000000000000000000000000 PUSH0 DUP3 ADD MSTORE POP JUMP JUMPDEST PUSH0 PUSH2 0x3448 PUSH1 0x11 DUP4 PUSH2 0x2AAE JUMP JUMPDEST SWAP2 POP PUSH2 0x3453 DUP3 PUSH2 0x3414 JUMP JUMPDEST PUSH1 0x20 DUP3 ADD SWAP1 POP SWAP2 SWAP1 POP JUMP JUMPDEST PUSH0 PUSH1 0x20 DUP3 ADD SWAP1 POP DUP2 DUP2 SUB PUSH0 DUP4 ADD MSTORE PUSH2 0x3475 DUP2 PUSH2 0x343C JUMP JUMPDEST SWAP1 POP SWAP2 SWAP1 POP JUMP JUMPDEST PUSH32 0x43616E6E6F74207472616E7366657220746F2073656C66000000000000000000 PUSH0 DUP3 ADD MSTORE POP JUMP JUMPDEST PUSH0 PUSH2 0x34B0 PUSH1 0x17 DUP4 PUSH2 0x2AAE JUMP JUMPDEST SWAP2 POP PUSH2 0x34BB DUP3 PUSH2 0x347C JUMP JUMPDEST PUSH1 0x20 DUP3 ADD SWAP1 POP SWAP2 SWAP1 POP JUMP JUMPDEST PUSH0 PUSH1 0x20 DUP3 ADD SWAP1 POP DUP2 DUP2 SUB PUSH0 DUP4 ADD MSTORE PUSH2 0x34DD DUP2 PUSH2 0x34A4 JUMP JUMPDEST SWAP1 POP SWAP2 SWAP1 POP JUMP INVALID LOG2 PUSH5 0x6970667358 0x22 SLT KECCAK256 GASLIMIT PUSH13 0xA996789D401DA4ADCB096A16F5 LOG3 0xE9 0xDC 0xB2 0xED PC ISZERO 0x49 REVERT SWAP10 0xC7 0xF7 SMOD 0x2D 0xC 0xEC 0xAD PUSH5 0x736F6C6343 STOP ADDMOD OR STOP CALLER "
				},
				"gasEstimates": {
					"creation": {
						"codeDepositCost": "2718800",
						"executionCost": "infinite",
						"totalCost": "infinite"
					},
					"external": {
						"SLTAddress()": "2553",
						"SLTAirdropAmount()": "2583",
						"acceptOwnership()": "54644",
						"addressToAidropClaimed(address)": "2943",
						"addressToAmountContributed(address)": "2869",
						"addressToRequestId(address)": "2870",
						"addressToTotalFundsAtTimeOfContribution(address)": "2891",
						"claimAirdropSLT()": "infinite",
						"contribute(uint256)": "infinite",
						"contributors(uint256)": "4990",
						"getFinalResult()": "infinite",
						"getFinalResultValue()": "infinite",
						"getRandomNumber(uint256)": "infinite",
						"getWithdrawalAmount()": "infinite",
						"owner()": "2561",
						"percentageCharge()": "2585",
						"playLottery(uint256)": "infinite",
						"rawFulfillRandomWords(uint256,uint256[])": "infinite",
						"s_requests(uint256)": "infinite",
						"totalAirdrop()": "2562",
						"totalAirdropSent()": "2541",
						"transferOwnership(address)": "30733",
						"updatePercentage(uint8)": "26959",
						"updatePrizeMultipler(uint16)": "24784",
						"updateSLTAirdropAmount(uint16)": "27004",
						"updateSLTAirdropLimit(uint16)": "27010",
						"withdrawContribution()": "infinite"
					},
					"internal": {
						"fulfillRandomWords(uint256,uint256[] memory)": "infinite",
						"requestRandomWords()": "infinite"
					}
				},
				"methodIdentifiers": {
					"SLTAddress()": "aaf836ff",
					"SLTAirdropAmount()": "e33fe993",
					"acceptOwnership()": "79ba5097",
					"addressToAidropClaimed(address)": "fae899b2",
					"addressToAmountContributed(address)": "caa7d83a",
					"addressToRequestId(address)": "5017efb6",
					"addressToTotalFundsAtTimeOfContribution(address)": "7316a662",
					"claimAirdropSLT()": "bd306f20",
					"contribute(uint256)": "c1cbbca7",
					"contributors(uint256)": "3cb5d100",
					"getFinalResult()": "3c6e5310",
					"getFinalResultValue()": "d25d049a",
					"getRandomNumber(uint256)": "b37217a4",
					"getWithdrawalAmount()": "dbd27a1e",
					"owner()": "8da5cb5b",
					"percentageCharge()": "8f69d52c",
					"playLottery(uint256)": "03ddcab8",
					"rawFulfillRandomWords(uint256,uint256[])": "1fe543e3",
					"s_requests(uint256)": "a168fa89",
					"totalAirdrop()": "5ce97dbb",
					"totalAirdropSent()": "02d92032",
					"transferOwnership(address)": "f2fde38b",
					"updatePercentage(uint8)": "c24611e3",
					"updatePrizeMultipler(uint16)": "6af3e87d",
					"updateSLTAirdropAmount(uint16)": "5c7cdc75",
					"updateSLTAirdropLimit(uint16)": "14a7b7c3",
					"withdrawContribution()": "0d616d20"
				}
			},
			"storageLayout": {
				"storage": [
					{
						"astId": 123,
						"contract": "contracts/SVTLotteryNew.sol:SVTLottery",
						"label": "s_owner",
						"offset": 0,
						"slot": "0",
						"type": "t_address"
					},
					{
						"astId": 125,
						"contract": "contracts/SVTLotteryNew.sol:SVTLottery",
						"label": "s_pendingOwner",
						"offset": 0,
						"slot": "1",
						"type": "t_address"
					},
					{
						"astId": 1161,
						"contract": "contracts/SVTLotteryNew.sol:SVTLottery",
						"label": "COORDINATOR",
						"offset": 0,
						"slot": "2",
						"type": "t_contract(VRFCoordinatorV2Interface)95"
					},
					{
						"astId": 1164,
						"contract": "contracts/SVTLotteryNew.sol:SVTLottery",
						"label": "callbackGasLimit",
						"offset": 20,
						"slot": "2",
						"type": "t_uint32"
					},
					{
						"astId": 1167,
						"contract": "contracts/SVTLotteryNew.sol:SVTLottery",
						"label": "requestConfirmations",
						"offset": 24,
						"slot": "2",
						"type": "t_uint8"
					},
					{
						"astId": 1170,
						"contract": "contracts/SVTLotteryNew.sol:SVTLottery",
						"label": "numWords",
						"offset": 25,
						"slot": "2",
						"type": "t_uint8"
					},
					{
						"astId": 1173,
						"contract": "contracts/SVTLotteryNew.sol:SVTLottery",
						"label": "s_subscriptionId",
						"offset": 0,
						"slot": "3",
						"type": "t_uint64"
					},
					{
						"astId": 1176,
						"contract": "contracts/SVTLotteryNew.sol:SVTLottery",
						"label": "keyHash",
						"offset": 0,
						"slot": "4",
						"type": "t_bytes32"
					},
					{
						"astId": 1179,
						"contract": "contracts/SVTLotteryNew.sol:SVTLottery",
						"label": "Coordinator",
						"offset": 0,
						"slot": "5",
						"type": "t_address"
					},
					{
						"astId": 1182,
						"contract": "contracts/SVTLotteryNew.sol:SVTLottery",
						"label": "percentageCharge",
						"offset": 20,
						"slot": "5",
						"type": "t_uint8"
					},
					{
						"astId": 1185,
						"contract": "contracts/SVTLotteryNew.sol:SVTLottery",
						"label": "totalAirdropSent",
						"offset": 21,
						"slot": "5",
						"type": "t_uint32"
					},
					{
						"astId": 1188,
						"contract": "contracts/SVTLotteryNew.sol:SVTLottery",
						"label": "totalAirdrop",
						"offset": 25,
						"slot": "5",
						"type": "t_uint32"
					},
					{
						"astId": 1191,
						"contract": "contracts/SVTLotteryNew.sol:SVTLottery",
						"label": "SLTAirdropAmount",
						"offset": 29,
						"slot": "5",
						"type": "t_uint16"
					},
					{
						"astId": 1196,
						"contract": "contracts/SVTLotteryNew.sol:SVTLottery",
						"label": "tenEighteen",
						"offset": 0,
						"slot": "6",
						"type": "t_uint256"
					},
					{
						"astId": 1201,
						"contract": "contracts/SVTLotteryNew.sol:SVTLottery",
						"label": "tenEight",
						"offset": 0,
						"slot": "7",
						"type": "t_uint256"
					},
					{
						"astId": 1206,
						"contract": "contracts/SVTLotteryNew.sol:SVTLottery",
						"label": "tenTen",
						"offset": 0,
						"slot": "8",
						"type": "t_uint256"
					},
					{
						"astId": 1209,
						"contract": "contracts/SVTLotteryNew.sol:SVTLottery",
						"label": "hundredPercent",
						"offset": 0,
						"slot": "9",
						"type": "t_uint8"
					},
					{
						"astId": 1212,
						"contract": "contracts/SVTLotteryNew.sol:SVTLottery",
						"label": "zeroValue",
						"offset": 1,
						"slot": "9",
						"type": "t_uint8"
					},
					{
						"astId": 1231,
						"contract": "contracts/SVTLotteryNew.sol:SVTLottery",
						"label": "potentialToWin",
						"offset": 0,
						"slot": "10",
						"type": "t_array(t_bool)dyn_storage"
					},
					{
						"astId": 1234,
						"contract": "contracts/SVTLotteryNew.sol:SVTLottery",
						"label": "prizeMultipler",
						"offset": 0,
						"slot": "11",
						"type": "t_uint256"
					},
					{
						"astId": 1237,
						"contract": "contracts/SVTLotteryNew.sol:SVTLottery",
						"label": "SLTAddress",
						"offset": 0,
						"slot": "12",
						"type": "t_address"
					},
					{
						"astId": 1240,
						"contract": "contracts/SVTLotteryNew.sol:SVTLottery",
						"label": "contributors",
						"offset": 0,
						"slot": "13",
						"type": "t_array(t_address)dyn_storage"
					},
					{
						"astId": 1244,
						"contract": "contracts/SVTLotteryNew.sol:SVTLottery",
						"label": "addressAccessLocked",
						"offset": 0,
						"slot": "14",
						"type": "t_mapping(t_address,t_bool)"
					},
					{
						"astId": 1249,
						"contract": "contracts/SVTLotteryNew.sol:SVTLottery",
						"label": "s_requests",
						"offset": 0,
						"slot": "15",
						"type": "t_mapping(t_uint256,t_struct(RequestStatus)1158_storage)"
					},
					{
						"astId": 1253,
						"contract": "contracts/SVTLotteryNew.sol:SVTLottery",
						"label": "addressToParticipationStatus",
						"offset": 0,
						"slot": "16",
						"type": "t_mapping(t_address,t_bool)"
					},
					{
						"astId": 1257,
						"contract": "contracts/SVTLotteryNew.sol:SVTLottery",
						"label": "addressToAidropClaimed",
						"offset": 0,
						"slot": "17",
						"type": "t_mapping(t_address,t_bool)"
					},
					{
						"astId": 1261,
						"contract": "contracts/SVTLotteryNew.sol:SVTLottery",
						"label": "addressToRequestId",
						"offset": 0,
						"slot": "18",
						"type": "t_mapping(t_address,t_uint256)"
					},
					{
						"astId": 1265,
						"contract": "contracts/SVTLotteryNew.sol:SVTLottery",
						"label": "addressToAmountContributed",
						"offset": 0,
						"slot": "19",
						"type": "t_mapping(t_address,t_uint256)"
					},
					{
						"astId": 1269,
						"contract": "contracts/SVTLotteryNew.sol:SVTLottery",
						"label": "addressToTotalFundsAtTimeOfContribution",
						"offset": 0,
						"slot": "20",
						"type": "t_mapping(t_address,t_uint256)"
					},
					{
						"astId": 1273,
						"contract": "contracts/SVTLotteryNew.sol:SVTLottery",
						"label": "addressToLotteryStake",
						"offset": 0,
						"slot": "21",
						"type": "t_mapping(t_address,t_uint256)"
					},
					{
						"astId": 1279,
						"contract": "contracts/SVTLotteryNew.sol:SVTLottery",
						"label": "SLT",
						"offset": 0,
						"slot": "22",
						"type": "t_contract(IERC20)1081"
					}
				],
				"types": {
					"t_address": {
						"encoding": "inplace",
						"label": "address",
						"numberOfBytes": "20"
					},
					"t_array(t_address)dyn_storage": {
						"base": "t_address",
						"encoding": "dynamic_array",
						"label": "address[]",
						"numberOfBytes": "32"
					},
					"t_array(t_bool)dyn_storage": {
						"base": "t_bool",
						"encoding": "dynamic_array",
						"label": "bool[]",
						"numberOfBytes": "32"
					},
					"t_array(t_uint256)dyn_storage": {
						"base": "t_uint256",
						"encoding": "dynamic_array",
						"label": "uint256[]",
						"numberOfBytes": "32"
					},
					"t_bool": {
						"encoding": "inplace",
						"label": "bool",
						"numberOfBytes": "1"
					},
					"t_bytes32": {
						"encoding": "inplace",
						"label": "bytes32",
						"numberOfBytes": "32"
					},
					"t_contract(IERC20)1081": {
						"encoding": "inplace",
						"label": "contract IERC20",
						"numberOfBytes": "20"
					},
					"t_contract(VRFCoordinatorV2Interface)95": {
						"encoding": "inplace",
						"label": "contract VRFCoordinatorV2Interface",
						"numberOfBytes": "20"
					},
					"t_mapping(t_address,t_bool)": {
						"encoding": "mapping",
						"key": "t_address",
						"label": "mapping(address => bool)",
						"numberOfBytes": "32",
						"value": "t_bool"
					},
					"t_mapping(t_address,t_uint256)": {
						"encoding": "mapping",
						"key": "t_address",
						"label": "mapping(address => uint256)",
						"numberOfBytes": "32",
						"value": "t_uint256"
					},
					"t_mapping(t_uint256,t_struct(RequestStatus)1158_storage)": {
						"encoding": "mapping",
						"key": "t_uint256",
						"label": "mapping(uint256 => struct SVTLottery.RequestStatus)",
						"numberOfBytes": "32",
						"value": "t_struct(RequestStatus)1158_storage"
					},
					"t_struct(RequestStatus)1158_storage": {
						"encoding": "inplace",
						"label": "struct SVTLottery.RequestStatus",
						"members": [
							{
								"astId": 1152,
								"contract": "contracts/SVTLotteryNew.sol:SVTLottery",
								"label": "fulfilled",
								"offset": 0,
								"slot": "0",
								"type": "t_bool"
							},
							{
								"astId": 1154,
								"contract": "contracts/SVTLotteryNew.sol:SVTLottery",
								"label": "exists",
								"offset": 1,
								"slot": "0",
								"type": "t_bool"
							},
							{
								"astId": 1157,
								"contract": "contracts/SVTLotteryNew.sol:SVTLottery",
								"label": "randomWords",
								"offset": 0,
								"slot": "1",
								"type": "t_array(t_uint256)dyn_storage"
							}
						],
						"numberOfBytes": "64"
					},
					"t_uint16": {
						"encoding": "inplace",
						"label": "uint16",
						"numberOfBytes": "2"
					},
					"t_uint256": {
						"encoding": "inplace",
						"label": "uint256",
						"numberOfBytes": "32"
					},
					"t_uint32": {
						"encoding": "inplace",
						"label": "uint32",
						"numberOfBytes": "4"
					},
					"t_uint64": {
						"encoding": "inplace",
						"label": "uint64",
						"numberOfBytes": "8"
					},
					"t_uint8": {
						"encoding": "inplace",
						"label": "uint8",
						"numberOfBytes": "1"
					}
				}
			},
			"userdoc": {
				"kind": "user",
				"methods": {
					"acceptOwnership()": {
						"notice": "Allows an ownership transfer to be completed by the recipient."
					},
					"owner()": {
						"notice": "Get the current owner"
					},
					"transferOwnership(address)": {
						"notice": "Allows an owner to begin transferring ownership to a new address, pending."
					}
				},
				"version": 1
			}
		}
	}
}