{
	"data": {
		"bytecode": {
			"linkReferences": {},
			"object": "60c0604052620186a0600160146101000a81548163ffffffff021916908363ffffffff1602179055506003600160186101000a81548160ff021916908360ff16021790555060018060196101000a81548160ff021916908360ff16021790555060056001601a6101000a81548160ff021916908360ff160217905550600180601b6101000a81548161ffff021916908361ffff160217905550600a6001601d6101000a81548161ffff021916908361ffff160217905550601960025f6101000a81548161ffff021916908361ffff16021790555060fa6002806101000a81548161ffff021916908361ffff1602179055506005600260046101000a81548161ffff021916908361ffff1602179055506001600260066101000a81548161ffff021916908361ffff1602179055506001600260086101000a81548161ffff021916908361ffff160217905550670de0b6b3a76400006003556305f5e1006004556402540be400600555606460065f6101000a81548160ff021916908360ff1602179055506001600660016101000a81548161ffff021916908361ffff160217905550600a600660036101000a81548161ffff021916908361ffff1602179055506019600660056101000a81548161ffff021916908361ffff16021790555060c8600660076101000a81548161ffff021916908361ffff160217905550600a600660096101000a81548161ffff021916908361ffff16021790555060646006600b6101000a81548161ffff021916908361ffff1602179055506103e86006600d6101000a81548161ffff021916908361ffff1602179055506127106006600f6101000a81548161ffff021916908361ffff1602179055506002600660116101000a81548161ffff021916908361ffff1602179055505f600660136101000a81548160ff021916908360ff1602179055506040518061028001604052805f60ff1681526020015f60ff1681526020015f60ff1681526020015f60ff1681526020015f60ff1681526020015f60ff168152602001600a60ff1681526020015f60ff1681526020015f60ff1681526020015f60ff1681526020015f60ff1681526020015f60ff1681526020015f60ff1681526020015f60ff1681526020015f60ff1681526020015f60ff1681526020015f60ff1681526020015f60ff1681526020015f60ff1681526020015f60ff1681525060079060146200037e929190620011a7565b506040518061078001604052805f60ff1681526020015f60ff1681526020015f60ff1681526020015f60ff1681526020015f60ff1681526020015f60ff1681526020015f60ff1681526020015f60ff1681526020015f60ff1681526020015f60ff1681526020015f60ff1681526020015f60ff1681526020015f60ff1681526020015f60ff1681526020015f60ff1681526020015f60ff1681526020015f60ff1681526020015f60ff1681526020015f60ff1681526020015f60ff1681526020015f60ff1681526020015f60ff1681526020015f60ff1681526020015f60ff1681526020015f60ff1681526020015f60ff1681526020015f60ff1681526020015f60ff1681526020015f60ff1681526020015f60ff168152602001606460ff1681526020015f60ff1681526020015f60ff1681526020015f60ff1681526020015f60ff1681526020015f60ff1681526020015f60ff1681526020015f60ff1681526020015f60ff1681526020015f60ff1681526020015f60ff1681526020015f60ff1681526020015f60ff1681526020015f60ff1681526020015f60ff1681526020015f60ff1681526020015f60ff1681526020015f60ff1681526020015f60ff1681526020015f60ff1681526020015f60ff1681526020015f60ff1681526020015f60ff1681526020015f60ff1681526020015f60ff1681526020015f60ff1681526020015f60ff1681526020015f60ff1681526020015f60ff1681526020015f60ff16815250600890603c620005b8929190620011fc565b5060405180610a0001604052805f61ffff1681526020015f61ffff1681526020015f61ffff1681526020015f61ffff1681526020015f61ffff1681526020015f61ffff1681526020015f61ffff1681526020015f61ffff1681526020015f61ffff1681526020015f61ffff1681526020015f61ffff1681526020015f61ffff1681526020015f61ffff1681526020015f61ffff1681526020015f61ffff1681526020015f61ffff1681526020015f61ffff1681526020015f61ffff1681526020015f61ffff1681526020015f61ffff1681526020015f61ffff1681526020015f61ffff1681526020015f61ffff1681526020015f61ffff1681526020015f61ffff1681526020015f61ffff1681526020015f61ffff1681526020015f61ffff1681526020015f61ffff1681526020015f61ffff1681526020015f61ffff1681526020015f61ffff1681526020015f61ffff1681526020015f61ffff1681526020016103e861ffff1681526020015f61ffff1681526020015f61ffff1681526020015f61ffff1681526020015f61ffff1681526020015f61ffff1681526020015f61ffff1681526020015f61ffff1681526020015f61ffff1681526020015f61ffff1681526020015f61ffff1681526020015f61ffff1681526020015f61ffff1681526020015f61ffff1681526020015f61ffff1681526020015f61ffff1681526020015f61ffff1681526020015f61ffff1681526020015f61ffff1681526020015f61ffff1681526020015f61ffff1681526020015f61ffff1681526020015f61ffff1681526020015f61ffff1681526020015f61ffff1681526020015f61ffff1681526020015f61ffff1681526020015f61ffff1681526020015f61ffff1681526020015f61ffff1681526020015f61ffff1681526020015f61ffff1681526020015f61ffff1681526020015f61ffff1681526020015f61ffff1681526020015f61ffff1681526020015f61ffff1681526020015f61ffff1681526020015f61ffff1681526020015f61ffff1681526020015f61ffff1681526020015f61ffff1681526020015f61ffff1681526020015f61ffff1681526020015f61ffff1681526020015f61ffff168152506009906050620008f792919062001251565b5060405180610c8001604052805f61ffff1681526020015f61ffff1681526020015f61ffff1681526020015f61ffff1681526020015f61ffff1681526020015f61ffff1681526020015f61ffff1681526020015f61ffff1681526020015f61ffff1681526020015f61ffff1681526020015f61ffff1681526020015f61ffff1681526020015f61ffff1681526020015f61ffff1681526020015f61ffff1681526020015f61ffff1681526020015f61ffff1681526020015f61ffff1681526020015f61ffff1681526020015f61ffff1681526020015f61ffff1681526020015f61ffff1681526020015f61ffff1681526020015f61ffff1681526020015f61ffff1681526020015f61ffff1681526020015f61ffff1681526020015f61ffff1681526020015f61ffff1681526020015f61ffff1681526020015f61ffff1681526020015f61ffff1681526020015f61ffff1681526020015f61ffff1681526020015f61ffff1681526020015f61ffff1681526020015f61ffff1681526020015f61ffff1681526020015f61ffff1681526020015f61ffff1681526020015f61ffff1681526020015f61ffff1681526020015f61ffff1681526020015f61ffff1681526020015f61ffff1681526020015f61ffff1681526020015f61ffff1681526020015f61ffff1681526020015f61ffff1681526020015f61ffff1681526020015f61ffff1681526020015f61ffff1681526020015f61ffff1681526020015f61ffff1681526020015f61ffff1681526020015f61ffff1681526020015f61ffff1681526020015f61ffff1681526020015f61ffff1681526020015f61ffff1681526020015f61ffff1681526020015f61ffff1681526020015f61ffff1681526020015f61ffff1681526020015f61ffff1681526020015f61ffff1681526020015f61ffff1681526020015f61ffff1681526020015f61ffff1681526020015f61ffff1681526020015f61ffff1681526020015f61ffff1681526020015f61ffff1681526020015f61ffff1681526020015f61ffff1681526020015f61ffff16815260200161271061ffff1681526020015f61ffff1681526020015f61ffff1681526020015f61ffff1681526020015f61ffff1681526020015f61ffff1681526020015f61ffff1681526020015f61ffff1681526020015f61ffff1681526020015f61ffff1681526020015f61ffff1681526020015f61ffff1681526020015f61ffff1681526020015f61ffff1681526020015f61ffff1681526020015f61ffff1681526020015f61ffff1681526020015f61ffff1681526020015f61ffff1681526020015f61ffff1681526020015f61ffff1681526020015f61ffff1681526020015f61ffff1681526020015f61ffff16815250600a90606462000cfe929190620012a7565b5073ab18414cd93297b0d12ac29e63ca20f515b3db46600c5f6101000a81548173ffffffffffffffffffffffffffffffffffffffff021916908373ffffffffffffffffffffffffffffffffffffffff16021790555073779877a7b0d9e8603169ddbd7836e478b4624789600d5f6101000a81548173ffffffffffffffffffffffffffffffffffffffff021916908373ffffffffffffffffffffffffffffffffffffffff16021790555073694aa1769357215de4fac081bf1f309adc325306600e5f6101000a81548173ffffffffffffffffffffffffffffffffffffffff021916908373ffffffffffffffffffffffffffffffffffffffff160217905550600e5f9054906101000a900473ffffffffffffffffffffffffffffffffffffffff16601a5f6101000a81548173ffffffffffffffffffffffffffffffffffffffff021916908373ffffffffffffffffffffffffffffffffffffffff160217905550600d5f9054906101000a900473ffffffffffffffffffffffffffffffffffffffff16601b5f6101000a81548173ffffffffffffffffffffffffffffffffffffffff021916908373ffffffffffffffffffffffffffffffffffffffff16021790555034801562000ec9575f80fd5b5033805f600d5f9054906101000a900473ffffffffffffffffffffffffffffffffffffffff16600c5f9054906101000a900473ffffffffffffffffffffffffffffffffffffffff168173ffffffffffffffffffffffffffffffffffffffff1660808173ffffffffffffffffffffffffffffffffffffffff16815250508073ffffffffffffffffffffffffffffffffffffffff1660a08173ffffffffffffffffffffffffffffffffffffffff168152505050505f73ffffffffffffffffffffffffffffffffffffffff168273ffffffffffffffffffffffffffffffffffffffff160362000fec576040517f08c379a000000000000000000000000000000000000000000000000000000000815260040162000fe39062001378565b60405180910390fd5b815f806101000a81548173ffffffffffffffffffffffffffffffffffffffff021916908373ffffffffffffffffffffffffffffffffffffffff1602179055505f73ffffffffffffffffffffffffffffffffffffffff168173ffffffffffffffffffffffffffffffffffffffff1614620010715762001070816200107a60201b60201c565b5b50505062001406565b3373ffffffffffffffffffffffffffffffffffffffff168173ffffffffffffffffffffffffffffffffffffffff1603620010eb576040517f08c379a0000000000000000000000000000000000000000000000000000000008152600401620010e290620013e6565b60405180910390fd5b8060015f6101000a81548173ffffffffffffffffffffffffffffffffffffffff021916908373ffffffffffffffffffffffffffffffffffffffff1602179055508073ffffffffffffffffffffffffffffffffffffffff165f8054906101000a900473ffffffffffffffffffffffffffffffffffffffff1673ffffffffffffffffffffffffffffffffffffffff167fed8889f560326eb138920d842192f0eb3dd22b4f139c87a2c57538e05bae127860405160405180910390a350565b828054828255905f5260205f20908101928215620011e9579160200282015b82811115620011e8578251829060ff16905591602001919060010190620011c6565b5b509050620011f89190620012fd565b5090565b828054828255905f5260205f209081019282156200123e579160200282015b828111156200123d578251829060ff169055916020019190600101906200121b565b5b5090506200124d9190620012fd565b5090565b828054828255905f5260205f2090810192821562001294579160200282015b8281111562001293578251829061ffff1690559160200191906001019062001270565b5b509050620012a39190620012fd565b5090565b828054828255905f5260205f20908101928215620012ea579160200282015b82811115620012e9578251829061ffff16905591602001919060010190620012c6565b5b509050620012f99190620012fd565b5090565b5b8082111562001316575f815f905550600101620012fe565b5090565b5f82825260208201905092915050565b7f43616e6e6f7420736574206f776e657220746f207a65726f00000000000000005f82015250565b5f620013606018836200131a565b91506200136d826200132a565b602082019050919050565b5f6020820190508181035f830152620013918162001352565b9050919050565b7f43616e6e6f74207472616e7366657220746f2073656c660000000000000000005f82015250565b5f620013ce6017836200131a565b9150620013db8262001398565b602082019050919050565b5f6020820190508181035f830152620013ff81620013c0565b9050919050565b60805160a051615497620014445f395f81816110cf015281816138a601528181613c6f01528181613c900152613dab01525f613c3301526154975ff3fe6080604052600436106102ad575f3560e01c806399d794f311610174578063caa0487c116100db578063eb2a047211610094578063f59f822d1161006e578063f59f822d14610927578063fd5c6b6e1461094f578063fe40da0314610977578063fe6b690c146109a1576102ad565b8063eb2a0472146108ab578063f10cff96146108d5578063f2fde38b146108ff576102ad565b8063caa0487c146107df578063caa7d83a14610809578063d7bb99ba14610845578063dedda0191461084f578063e2076d1114610859578063e33fe99314610881576102ad565b8063ad8a82601161012d578063ad8a8260146106e7578063b062a20314610711578063b2967e951461073b578063b377cb1f14610765578063b5afa6031461078d578063c24611e3146107b7576102ad565b806399d794f31461060f5780639eaa886714610639578063a37e497414610643578063a82650bd1461066b578063aaf836ff14610695578063abd28b5a146106bf576102ad565b8063563d71f7116102185780637e90fb00116101d15780637e90fb001461055557806384542d691461057f57806388e99069146105895780638da5cb5b146105b15780638f69d52c146105db5780639593e8d614610605576102ad565b8063563d71f71461045d5780635c7cdc751461048757806370381729146104af5780637316a662146104d95780637773ea661461051557806379ba50971461053f576102ad565b80633df7231d1161026a5780633df7231d1461037d5780634289a510146103a55780634342da8f146103bb5780634efd1f67146103e357806350dfd89a1461040b5780635521f39d14610435576102ad565b80630d616d20146102b157806311d1f45f146102c75780631fe543e3146102ef578063233eb6c81461031757806337b5689f1461033f5780633c6e531014610367575b5f80fd5b3480156102bc575f80fd5b506102c56109b7565b005b3480156102d2575f80fd5b506102ed60048036038101906102e89190613eed565b610d89565b005b3480156102fa575f80fd5b506103156004803603810190610310919061409b565b6110cd565b005b348015610322575f80fd5b5061033d60048036038101906103389190613eed565b611169565b005b34801561034a575f80fd5b506103656004803603810190610360919061414f565b611190565b005b348015610372575f80fd5b5061037b61123c565b005b348015610388575f80fd5b506103a3600480360381019061039e9190613eed565b611919565b005b3480156103b0575f80fd5b506103b9611941565b005b3480156103c6575f80fd5b506103e160048036038101906103dc919061414f565b611b6c565b005b3480156103ee575f80fd5b5061040960048036038101906104049190613eed565b611c35565b005b348015610416575f80fd5b5061041f611c5d565b60405161042c9190614189565b60405180910390f35b348015610440575f80fd5b5061045b60048036038101906104569190613eed565b611c71565b005b348015610468575f80fd5b50610471611c99565b60405161047e9190614189565b60405180910390f35b348015610492575f80fd5b506104ad60048036038101906104a89190613eed565b611cad565b005b3480156104ba575f80fd5b506104c3611cd5565b6040516104d09190614189565b60405180910390f35b3480156104e4575f80fd5b506104ff60048036038101906104fa919061414f565b611ce9565b60405161050c91906141b1565b60405180910390f35b348015610520575f80fd5b50610529611cfe565b6040516105369190614189565b60405180910390f35b34801561054a575f80fd5b50610553611d12565b005b348015610560575f80fd5b50610569611ea1565b6040516105769190614189565b60405180910390f35b610587611eb5565b005b348015610594575f80fd5b506105af60048036038101906105aa9190613eed565b61213a565b005b3480156105bc575f80fd5b506105c5612162565b6040516105d291906141d9565b60405180910390f35b3480156105e6575f80fd5b506105ef612189565b6040516105fc919061420d565b60405180910390f35b61060d61219c565b005b34801561061a575f80fd5b50610623612420565b6040516106309190614189565b60405180910390f35b610641612434565b005b34801561064e575f80fd5b5061066960048036038101906106649190613eed565b6126b7565b005b348015610676575f80fd5b5061067f6126df565b60405161068c9190614189565b60405180910390f35b3480156106a0575f80fd5b506106a96126f3565b6040516106b691906141d9565b60405180910390f35b3480156106ca575f80fd5b506106e560048036038101906106e09190613eed565b612718565b005b3480156106f2575f80fd5b506106fb612740565b6040516107089190614189565b60405180910390f35b34801561071c575f80fd5b50610725612754565b6040516107329190614189565b60405180910390f35b348015610746575f80fd5b5061074f612768565b60405161075c9190614189565b60405180910390f35b348015610770575f80fd5b5061078b60048036038101906107869190613eed565b61277c565b005b348015610798575f80fd5b506107a16127a3565b6040516107ae9190614189565b60405180910390f35b3480156107c2575f80fd5b506107dd60048036038101906107d89190614250565b6127b6565b005b3480156107ea575f80fd5b506107f36127dc565b6040516108009190614189565b60405180910390f35b348015610814575f80fd5b5061082f600480360381019061082a919061414f565b6127f0565b60405161083c91906141b1565b60405180910390f35b61084d612805565b005b610857612b0a565b005b348015610864575f80fd5b5061087f600480360381019061087a9190613eed565b612d8f565b005b34801561088c575f80fd5b50610895612db7565b6040516108a29190614189565b60405180910390f35b3480156108b6575f80fd5b506108bf612dcb565b6040516108cc9190614189565b60405180910390f35b3480156108e0575f80fd5b506108e9612ddf565b6040516108f69190614189565b60405180910390f35b34801561090a575f80fd5b506109256004803603810190610920919061414f565b612df3565b005b348015610932575f80fd5b5061094d60048036038101906109489190613eed565b612e07565b005b34801561095a575f80fd5b5061097560048036038101906109709190613eed565b612e2f565b005b348015610982575f80fd5b5061098b612e57565b6040516109989190614189565b60405180910390f35b3480156109ac575f80fd5b506109b5612e69565b005b60105f3373ffffffffffffffffffffffffffffffffffffffff1673ffffffffffffffffffffffffffffffffffffffff1681526020019081526020015f205f9054906101000a900460ff1615610a41576040517f08c379a0000000000000000000000000000000000000000000000000000000008152600401610a38906142d5565b60405180910390fd5b600160105f3373ffffffffffffffffffffffffffffffffffffffff1673ffffffffffffffffffffffffffffffffffffffff1681526020019081526020015f205f6101000a81548160ff021916908315150217905550600660139054906101000a900460ff1660ff1660175f3373ffffffffffffffffffffffffffffffffffffffff1673ffffffffffffffffffffffffffffffffffffffff1681526020019081526020015f205411610b27576040517f08c379a0000000000000000000000000000000000000000000000000000000008152600401610b1e90614389565b60405180910390fd5b60185f3373ffffffffffffffffffffffffffffffffffffffff1673ffffffffffffffffffffffffffffffffffffffff1681526020019081526020015f20544711610ba6576040517f08c379a0000000000000000000000000000000000000000000000000000000008152600401610b9d906143f1565b60405180910390fd5b5f3390505f610bb3613080565b90508173ffffffffffffffffffffffffffffffffffffffff166108fc8290811502906040515f60405180830381858888f19350505050158015610bf8573d5f803e3d5ffd5b505f60175f8473ffffffffffffffffffffffffffffffffffffffff1673ffffffffffffffffffffffffffffffffffffffff1681526020019081526020015f20549050600660139054906101000a900460ff1660ff1660175f8573ffffffffffffffffffffffffffffffffffffffff1673ffffffffffffffffffffffffffffffffffffffff1681526020019081526020015f2081905550600660139054906101000a900460ff1660ff1660185f8573ffffffffffffffffffffffffffffffffffffffff1673ffffffffffffffffffffffffffffffffffffffff1681526020019081526020015f20819055508273ffffffffffffffffffffffffffffffffffffffff167fecb269d89bfded20a4f5e6e51b509df1e3309a995946c9be8d6a8e2ddfa6b89c82604051610d28919061447f565b60405180910390a25050505f60105f3373ffffffffffffffffffffffffffffffffffffffff1673ffffffffffffffffffffffffffffffffffffffff1681526020019081526020015f205f6101000a81548160ff021916908315150217905550565b6003548161ffff16610d9b91906144d8565b80601c5f9054906101000a900473ffffffffffffffffffffffffffffffffffffffff1673ffffffffffffffffffffffffffffffffffffffff1663dd62ed3e33306040518363ffffffff1660e01b8152600401610df8929190614519565b602060405180830381865afa158015610e13573d5f803e3d5ffd5b505050506040513d601f19601f82011682018060405250810190610e379190614554565b1015610e78576040517f08c379a0000000000000000000000000000000000000000000000000000000008152600401610e6f906145c9565b60405180910390fd5b600260049054906101000a900461ffff1661ffff16601c5f9054906101000a900473ffffffffffffffffffffffffffffffffffffffff1673ffffffffffffffffffffffffffffffffffffffff166370a08231336040518263ffffffff1660e01b8152600401610ee791906141d9565b602060405180830381865afa158015610f02573d5f803e3d5ffd5b505050506040513d601f19601f82011682018060405250810190610f269190614554565b1015610f67576040517f08c379a0000000000000000000000000000000000000000000000000000000008152600401610f5e90614631565b60405180910390fd5b5f339050601c5f9054906101000a900473ffffffffffffffffffffffffffffffffffffffff1673ffffffffffffffffffffffffffffffffffffffff166323b872dd82306003548761ffff16610fbc91906144d8565b6040518463ffffffff1660e01b8152600401610fda9392919061464f565b6020604051808303815f875af1158015610ff6573d5f803e3d5ffd5b505050506040513d601f19601f8201168201806040525081019061101a91906146b9565b505f611081600260089054906101000a900461ffff1661ffff16600454600260049054906101000a900461ffff1661ffff166004548861ffff1661105e91906144d8565b6110689190614711565b6110729190614711565b61107c91906144d8565b6133cd565b90508173ffffffffffffffffffffffffffffffffffffffff166108fc8290811502906040515f60405180830381858888f193505050501580156110c6573d5f803e3d5ffd5b5050505050565b7f000000000000000000000000000000000000000000000000000000000000000073ffffffffffffffffffffffffffffffffffffffff163373ffffffffffffffffffffffffffffffffffffffff161461115b576040517f08c379a00000000000000000000000000000000000000000000000000000000081526004016111529061478b565b60405180910390fd5b6111658282613419565b5050565b6111716134d9565b8060025f6101000a81548161ffff021916908361ffff16021790555050565b6111986134d9565b80600b5f6101000a81548173ffffffffffffffffffffffffffffffffffffffff021916908373ffffffffffffffffffffffffffffffffffffffff160217905550600b5f9054906101000a900473ffffffffffffffffffffffffffffffffffffffff16601c5f6101000a81548173ffffffffffffffffffffffffffffffffffffffff021916908373ffffffffffffffffffffffffffffffffffffffff16021790555050565b6001151560135f3373ffffffffffffffffffffffffffffffffffffffff1673ffffffffffffffffffffffffffffffffffffffff1681526020019081526020015f205f9054906101000a900460ff161515146112cc576040517f08c379a00000000000000000000000000000000000000000000000000000000081526004016112c3906147f3565b60405180910390fd5b60165f3373ffffffffffffffffffffffffffffffffffffffff1673ffffffffffffffffffffffffffffffffffffffff1681526020019081526020015f2054600660139054906101000a900460ff1660ff1660115f8381526020019081526020015f205f015411611371576040517f08c379a00000000000000000000000000000000000000000000000000000000081526004016113689061485b565b60405180910390fd5b6001151560155f3373ffffffffffffffffffffffffffffffffffffffff1673ffffffffffffffffffffffffffffffffffffffff1681526020019081526020015f205f9054906101000a900460ff16151514611401576040517f08c379a00000000000000000000000000000000000000000000000000000000081526004016113f8906148c3565b60405180910390fd5b5f805f803390505f60165f8373ffffffffffffffffffffffffffffffffffffffff1673ffffffffffffffffffffffffffffffffffffffff1681526020019081526020015f205490505f61145382613568565b90505f60195f8573ffffffffffffffffffffffffffffffffffffffff1673ffffffffffffffffffffffffffffffffffffffff1681526020019081526020015f20549050600660099054906101000a900461ffff1661ffff16810361154d57600780549050826114c291906148e1565b94508460125f8581526020019081526020015f2081905550600785815481106114ee576114ed614911565b5b905f5260205f2001549650611502876133cd565b95508373ffffffffffffffffffffffffffffffffffffffff166108fc8790811502906040515f60405180830381858888f19350505050158015611547573d5f803e3d5ffd5b50611771565b6006600b9054906101000a900461ffff1661ffff168103611604576008805490508261157991906148e1565b94508460125f8581526020019081526020015f2081905550600885815481106115a5576115a4614911565b5b905f5260205f20015496506115b9876133cd565b95508373ffffffffffffffffffffffffffffffffffffffff166108fc8790811502906040515f60405180830381858888f193505050501580156115fe573d5f803e3d5ffd5b50611770565b6006600d9054906101000a900461ffff1661ffff1681036116bb576009805490508261163091906148e1565b94508460125f8581526020019081526020015f20819055506009858154811061165c5761165b614911565b5b905f5260205f2001549650611670876133cd565b95508373ffffffffffffffffffffffffffffffffffffffff166108fc8790811502906040515f60405180830381858888f193505050501580156116b5573d5f803e3d5ffd5b5061176f565b6006600f9054906101000a900461ffff1661ffff16810361176e57600a80549050826116e791906148e1565b94508460125f8581526020019081526020015f2081905550600a858154811061171357611712614911565b5b905f5260205f2001549650611727876133cd565b95508373ffffffffffffffffffffffffffffffffffffffff166108fc8790811502906040515f60405180830381858888f1935050505015801561176c573d5f803e3d5ffd5b505b5b5b5b600660139054906101000a900460ff1660ff1660195f8673ffffffffffffffffffffffffffffffffffffffff1673ffffffffffffffffffffffffffffffffffffffff1681526020019081526020015f20819055505f60135f8673ffffffffffffffffffffffffffffffffffffffff1673ffffffffffffffffffffffffffffffffffffffff1681526020019081526020015f205f6101000a81548160ff0219169083151502179055505f60145f8673ffffffffffffffffffffffffffffffffffffffff1673ffffffffffffffffffffffffffffffffffffffff1681526020019081526020015f205f6101000a81548160ff0219169083151502179055508373ffffffffffffffffffffffffffffffffffffffff167f8b1a12b574b314559e0375a59d528fbbe8cb9afbfcbe9bd756f11816f8022738886040516118b39190614988565b60405180910390a2505050505050505f60155f3373ffffffffffffffffffffffffffffffffffffffff1673ffffffffffffffffffffffffffffffffffffffff1681526020019081526020015f205f6101000a81548160ff02191690831515021790555050565b6119216134d9565b80600260046101000a81548161ffff021916908361ffff16021790555050565b6119496134d9565b600660139054906101000a900460ff1660ff16601b5f9054906101000a900473ffffffffffffffffffffffffffffffffffffffff1673ffffffffffffffffffffffffffffffffffffffff166370a08231306040518263ffffffff1660e01b81526004016119b691906141d9565b602060405180830381865afa1580156119d1573d5f803e3d5ffd5b505050506040513d601f19601f820116820180604052508101906119f59190614554565b11611a35576040517f08c379a0000000000000000000000000000000000000000000000000000000008152600401611a2c90614a24565b60405180910390fd5b601b5f9054906101000a900473ffffffffffffffffffffffffffffffffffffffff1673ffffffffffffffffffffffffffffffffffffffff1663a9059cbb33601b5f9054906101000a900473ffffffffffffffffffffffffffffffffffffffff1673ffffffffffffffffffffffffffffffffffffffff166370a08231306040518263ffffffff1660e01b8152600401611acd91906141d9565b602060405180830381865afa158015611ae8573d5f803e3d5ffd5b505050506040513d601f19601f82011682018060405250810190611b0c9190614554565b6040518363ffffffff1660e01b8152600401611b29929190614a42565b6020604051808303815f875af1158015611b45573d5f803e3d5ffd5b505050506040513d601f19601f82011682018060405250810190611b6991906146b9565b50565b611b746134d9565b601c5f9054906101000a900473ffffffffffffffffffffffffffffffffffffffff1673ffffffffffffffffffffffffffffffffffffffff1663a9059cbb82600354600260069054906101000a900461ffff1661ffff16611bd491906144d8565b6040518363ffffffff1660e01b8152600401611bf1929190614a42565b6020604051808303815f875af1158015611c0d573d5f803e3d5ffd5b505050506040513d601f19601f82011682018060405250810190611c3191906146b9565b5050565b611c3d6134d9565b80600260086101000a81548161ffff021916908361ffff16021790555050565b600660119054906101000a900461ffff1681565b611c796134d9565b806001601d6101000a81548161ffff021916908361ffff16021790555050565b600660019054906101000a900461ffff1681565b611cb56134d9565b80600260066101000a81548161ffff021916908361ffff16021790555050565b600260049054906101000a900461ffff1681565b6018602052805f5260405f205f915090505481565b600660099054906101000a900461ffff1681565b60015f9054906101000a900473ffffffffffffffffffffffffffffffffffffffff1673ffffffffffffffffffffffffffffffffffffffff163373ffffffffffffffffffffffffffffffffffffffff1614611da1576040517f08c379a0000000000000000000000000000000000000000000000000000000008152600401611d9890614ab3565b60405180910390fd5b5f805f9054906101000a900473ffffffffffffffffffffffffffffffffffffffff169050335f806101000a81548173ffffffffffffffffffffffffffffffffffffffff021916908373ffffffffffffffffffffffffffffffffffffffff1602179055505f60015f6101000a81548173ffffffffffffffffffffffffffffffffffffffff021916908373ffffffffffffffffffffffffffffffffffffffff1602179055503373ffffffffffffffffffffffffffffffffffffffff168173ffffffffffffffffffffffffffffffffffffffff167f8be0079c531659141344cd1fd0a4f28419497f9722a3daafe3b4186f6b6457e060405160405180910390a350565b6006600b9054906101000a900461ffff1681565b34600660019054906101000a900461ffff1661ffff165f611ed5826133cd565b905080831015611f1a576040517f08c379a0000000000000000000000000000000000000000000000000000000008152600401611f1190614b41565b60405180910390fd5b600660019054906101000a900461ffff1661ffff165f611f39826133cd565b905080471015611f7e576040517f08c379a0000000000000000000000000000000000000000000000000000000008152600401611f7590614bcf565b60405180910390fd5b5f339050611f9c816001601b9054906101000a900461ffff16613628565b600160135f8373ffffffffffffffffffffffffffffffffffffffff1673ffffffffffffffffffffffffffffffffffffffff1681526020019081526020015f205f6101000a81548160ff021916908315150217905550611ff96137c6565b60165f8373ffffffffffffffffffffffffffffffffffffffff1673ffffffffffffffffffffffffffffffffffffffff1681526020019081526020015f20819055505f60145f8373ffffffffffffffffffffffffffffffffffffffff1673ffffffffffffffffffffffffffffffffffffffff1681526020019081526020015f205f6101000a81548160ff021916908315150217905550600660099054906101000a900461ffff1661ffff1660195f8373ffffffffffffffffffffffffffffffffffffffff1673ffffffffffffffffffffffffffffffffffffffff1681526020019081526020015f20819055508073ffffffffffffffffffffffffffffffffffffffff167f45450848915028ec05d575d78d2a6467f9299374383bbf4bed539b7d8c0e93213460405161212a9190614c5d565b60405180910390a2505050505050565b6121426134d9565b80600660036101000a81548161ffff021916908361ffff16021790555050565b5f805f9054906101000a900473ffffffffffffffffffffffffffffffffffffffff16905090565b6001601a9054906101000a900460ff1681565b34600660059054906101000a900461ffff1661ffff165f6121bc826133cd565b905080831015612201576040517f08c379a00000000000000000000000000000000000000000000000000000000081526004016121f890614b41565b60405180910390fd5b600660059054906101000a900461ffff1661ffff165f612220826133cd565b905080471015612265576040517f08c379a000000000000000000000000000000000000000000000000000000000815260040161225c90614bcf565b60405180910390fd5b5f3390506122828160025f9054906101000a900461ffff16613628565b600160135f8373ffffffffffffffffffffffffffffffffffffffff1673ffffffffffffffffffffffffffffffffffffffff1681526020019081526020015f205f6101000a81548160ff0219169083151502179055505f60145f8373ffffffffffffffffffffffffffffffffffffffff1673ffffffffffffffffffffffffffffffffffffffff1681526020019081526020015f205f6101000a81548160ff0219169083151502179055506123336137c6565b60165f8373ffffffffffffffffffffffffffffffffffffffff1673ffffffffffffffffffffffffffffffffffffffff1681526020019081526020015f20819055506006600d9054906101000a900461ffff1661ffff1660195f8373ffffffffffffffffffffffffffffffffffffffff1673ffffffffffffffffffffffffffffffffffffffff1681526020019081526020015f20819055508073ffffffffffffffffffffffffffffffffffffffff167f45450848915028ec05d575d78d2a6467f9299374383bbf4bed539b7d8c0e9321346040516124109190614cf9565b60405180910390a2505050505050565b6006600f9054906101000a900461ffff1681565b34600660079054906101000a900461ffff1661ffff165f612454826133cd565b905080831015612499576040517f08c379a000000000000000000000000000000000000000000000000000000000815260040161249090614b41565b60405180910390fd5b600660079054906101000a900461ffff1661ffff165f6124b8826133cd565b9050804710156124fd576040517f08c379a00000000000000000000000000000000000000000000000000000000081526004016124f490614bcf565b60405180910390fd5b5f3390506125198160028054906101000a900461ffff16613628565b600160135f8373ffffffffffffffffffffffffffffffffffffffff1673ffffffffffffffffffffffffffffffffffffffff1681526020019081526020015f205f6101000a81548160ff0219169083151502179055505f60145f8373ffffffffffffffffffffffffffffffffffffffff1673ffffffffffffffffffffffffffffffffffffffff1681526020019081526020015f205f6101000a81548160ff0219169083151502179055506125ca6137c6565b60165f8373ffffffffffffffffffffffffffffffffffffffff1673ffffffffffffffffffffffffffffffffffffffff1681526020019081526020015f20819055506006600f9054906101000a900461ffff1661ffff1660195f8373ffffffffffffffffffffffffffffffffffffffff1673ffffffffffffffffffffffffffffffffffffffff1681526020019081526020015f20819055508073ffffffffffffffffffffffffffffffffffffffff167f45450848915028ec05d575d78d2a6467f9299374383bbf4bed539b7d8c0e9321346040516126a79190614d95565b60405180910390a2505050505050565b6126bf6134d9565b80600660016101000a81548161ffff021916908361ffff16021790555050565b6001601d9054906101000a900461ffff1681565b600b5f9054906101000a900473ffffffffffffffffffffffffffffffffffffffff1681565b6127206134d9565b80600660056101000a81548161ffff021916908361ffff16021790555050565b600660039054906101000a900461ffff1681565b600660059054906101000a900461ffff1681565b6001601b9054906101000a900461ffff1681565b6127846134d9565b806002806101000a81548161ffff021916908361ffff16021790555050565b60025f9054906101000a900461ffff1681565b6127be6134d9565b806001601a6101000a81548160ff021916908360ff16021790555050565b600660079054906101000a900461ffff1681565b6017602052805f5260405f205f915090505481565b60105f3373ffffffffffffffffffffffffffffffffffffffff1673ffffffffffffffffffffffffffffffffffffffff1681526020019081526020015f205f9054906101000a900460ff161561288f576040517f08c379a0000000000000000000000000000000000000000000000000000000008152600401612886906142d5565b60405180910390fd5b600160105f3373ffffffffffffffffffffffffffffffffffffffff1673ffffffffffffffffffffffffffffffffffffffff1681526020019081526020015f205f6101000a81548160ff021916908315150217905550600660139054906101000a900460ff1660ff1660175f3373ffffffffffffffffffffffffffffffffffffffff1673ffffffffffffffffffffffffffffffffffffffff1681526020019081526020015f205414612975576040517f08c379a000000000000000000000000000000000000000000000000000000000815260040161296c90614e0b565b60405180910390fd5b34476129819190614e29565b60185f3373ffffffffffffffffffffffffffffffffffffffff1673ffffffffffffffffffffffffffffffffffffffff1681526020019081526020015f20819055503460175f3373ffffffffffffffffffffffffffffffffffffffff1673ffffffffffffffffffffffffffffffffffffffff1681526020019081526020015f2081905550600f33908060018154018082558091505060019003905f5260205f20015f9091909190916101000a81548173ffffffffffffffffffffffffffffffffffffffff021916908373ffffffffffffffffffffffffffffffffffffffff1602179055503373ffffffffffffffffffffffffffffffffffffffff167feb1d29659fe1e458a59d47ceab90b84b14e2eb79da4602088f9e9a8bcc228ca43447604051612aac929190614ecc565b60405180910390a25f60105f3373ffffffffffffffffffffffffffffffffffffffff1673ffffffffffffffffffffffffffffffffffffffff1681526020019081526020015f205f6101000a81548160ff021916908315150217905550565b34600660039054906101000a900461ffff1661ffff165f612b2a826133cd565b905080831015612b6f576040517f08c379a0000000000000000000000000000000000000000000000000000000008152600401612b6690614b41565b60405180910390fd5b600660039054906101000a900461ffff1661ffff165f612b8e826133cd565b905080471015612bd3576040517f08c379a0000000000000000000000000000000000000000000000000000000008152600401612bca90614bcf565b60405180910390fd5b5f339050612bf1816001601d9054906101000a900461ffff16613628565b600160135f8373ffffffffffffffffffffffffffffffffffffffff1673ffffffffffffffffffffffffffffffffffffffff1681526020019081526020015f205f6101000a81548160ff0219169083151502179055505f60145f8373ffffffffffffffffffffffffffffffffffffffff1673ffffffffffffffffffffffffffffffffffffffff1681526020019081526020015f205f6101000a81548160ff021916908315150217905550612ca26137c6565b60165f8373ffffffffffffffffffffffffffffffffffffffff1673ffffffffffffffffffffffffffffffffffffffff1681526020019081526020015f20819055506006600b9054906101000a900461ffff1661ffff1660195f8373ffffffffffffffffffffffffffffffffffffffff1673ffffffffffffffffffffffffffffffffffffffff1681526020019081526020015f20819055508073ffffffffffffffffffffffffffffffffffffffff167f45450848915028ec05d575d78d2a6467f9299374383bbf4bed539b7d8c0e932134604051612d7f9190614f76565b60405180910390a2505050505050565b612d976134d9565b806001601b6101000a81548161ffff021916908361ffff16021790555050565b600260069054906101000a900461ffff1681565b6006600d9054906101000a900461ffff1681565b600260089054906101000a900461ffff1681565b612dfb6134d9565b612e0481613a57565b50565b612e0f6134d9565b80600660076101000a81548161ffff021916908361ffff16021790555050565b612e376134d9565b80600660116101000a81548161ffff021916908361ffff16021790555050565b60028054906101000a900461ffff1681565b600354600660119054906101000a900461ffff1661ffff16612e8b91906144d8565b80601b5f9054906101000a900473ffffffffffffffffffffffffffffffffffffffff1673ffffffffffffffffffffffffffffffffffffffff1663dd62ed3e33306040518363ffffffff1660e01b8152600401612ee8929190614519565b602060405180830381865afa158015612f03573d5f803e3d5ffd5b505050506040513d601f19601f82011682018060405250810190612f279190614554565b1015612f68576040517f08c379a0000000000000000000000000000000000000000000000000000000008152600401612f5f90614fec565b60405180910390fd5b601b5f9054906101000a900473ffffffffffffffffffffffffffffffffffffffff1673ffffffffffffffffffffffffffffffffffffffff166323b872dd3330600354600660119054906101000a900461ffff1661ffff16612fc991906144d8565b6040518463ffffffff1660e01b8152600401612fe79392919061464f565b6020604051808303815f875af1158015613003573d5f803e3d5ffd5b505050506040513d601f19601f8201168201806040525081019061302791906146b9565b50600160155f3373ffffffffffffffffffffffffffffffffffffffff1673ffffffffffffffffffffffffffffffffffffffff1681526020019081526020015f205f6101000a81548160ff02191690831515021790555050565b5f803390505f4790505f805f805f80805f80600f8054905090505f5b8181101561333e5760175f600f83815481106130bb576130ba614911565b5b905f5260205f20015f9054906101000a900473ffffffffffffffffffffffffffffffffffffffff1673ffffffffffffffffffffffffffffffffffffffff1673ffffffffffffffffffffffffffffffffffffffff1681526020019081526020015f2054975060185f600f838154811061313657613135614911565b5b905f5260205f20015f9054906101000a900473ffffffffffffffffffffffffffffffffffffffff1673ffffffffffffffffffffffffffffffffffffffff1673ffffffffffffffffffffffffffffffffffffffff1681526020019081526020015f20549650868b6131a69190614e29565b886131b191906144d8565b985088866131bf919061500a565b9550600f81815481106131d5576131d4614911565b5b905f5260205f20015f9054906101000a900473ffffffffffffffffffffffffffffffffffffffff1673ffffffffffffffffffffffffffffffffffffffff168c73ffffffffffffffffffffffffffffffffffffffff1603613331578899505f6001600f805490506132459190614e29565b9050600f818154811061325b5761325a614911565b5b905f5260205f20015f9054906101000a900473ffffffffffffffffffffffffffffffffffffffff16600f838154811061329757613296614911565b5b905f5260205f20015f6101000a81548173ffffffffffffffffffffffffffffffffffffffff021916908373ffffffffffffffffffffffffffffffffffffffff160217905550600f8054806132ee576132ed61503d565b5b600190038181905f5260205f20015f6101000a81549073ffffffffffffffffffffffffffffffffffffffff0219169055905560018361332d9190614e29565b9250505b808060010191505061309c565b5089600454866004548c61335291906144d8565b61335c9190614711565b6133669190614711565b61337091906144d8565b935060065f9054906101000a900460ff1660ff16846001601a9054906101000a900460ff1660ff166133a291906144d8565b6133ac9190614711565b915081846133ba9190614e29565b9250829b50505050505050505050505090565b5f806133d7613b81565b90505f600454600554836133eb9190614711565b600354866133f991906144d8565b6134039190614711565b61340d91906144d8565b90508092505050919050565b600660139054906101000a900460ff1660ff1660115f8481526020019081526020015f205f015411613480576040517f08c379a00000000000000000000000000000000000000000000000000000000081526004016134779061485b565b60405180910390fd5b600160115f8481526020019081526020015f206001015f6101000a81548160ff0219169083151502179055508060115f8481526020019081526020015f2060020190805190602001906134d4929190613e3f565b505050565b5f8054906101000a900473ffffffffffffffffffffffffffffffffffffffff1673ffffffffffffffffffffffffffffffffffffffff163373ffffffffffffffffffffffffffffffffffffffff1614613566576040517f08c379a000000000000000000000000000000000000000000000000000000000815260040161355d906150b4565b60405180910390fd5b565b5f8060115f8481526020019081526020015f206040518060600160405290815f8201548152602001600182015f9054906101000a900460ff16151515158152602001600282018054806020026020016040519081016040528092919081815260200182805480156135f657602002820191905f5260205f20905b8154815260200190600101908083116135e2575b505050505081525050905080604001515f8151811061361857613617614911565b5b6020026020010151915050919050565b600660139054906101000a900460ff1660ff16601c5f9054906101000a900473ffffffffffffffffffffffffffffffffffffffff1673ffffffffffffffffffffffffffffffffffffffff166370a08231306040518263ffffffff1660e01b815260040161369591906141d9565b602060405180830381865afa1580156136b0573d5f803e3d5ffd5b505050506040513d601f19601f820116820180604052508101906136d49190614554565b11613714576040517f08c379a000000000000000000000000000000000000000000000000000000000815260040161370b90615142565b60405180910390fd5b601c5f9054906101000a900473ffffffffffffffffffffffffffffffffffffffff1673ffffffffffffffffffffffffffffffffffffffff1663a9059cbb836003548461ffff1661376491906144d8565b6040518363ffffffff1660e01b8152600401613781929190614a42565b6020604051808303815f875af115801561379d573d5f803e3d5ffd5b505050506040513d601f19601f820116820180604052508101906137c191906146b9565b505050565b5f80151560145f3373ffffffffffffffffffffffffffffffffffffffff1673ffffffffffffffffffffffffffffffffffffffff1681526020019081526020015f205f9054906101000a900460ff16151514613856576040517f08c379a000000000000000000000000000000000000000000000000000000000815260040161384d906151d0565b60405180910390fd5b613897600160149054906101000a900463ffffffff16600160189054906101000a900460ff1660ff16600160199054906101000a900460ff1660ff16613c30565b905060405180606001604052807f000000000000000000000000000000000000000000000000000000000000000073ffffffffffffffffffffffffffffffffffffffff16634306d354600160149054906101000a900463ffffffff166040518263ffffffff1660e01b815260040161390f919061520c565b602060405180830381865afa15801561392a573d5f803e3d5ffd5b505050506040513d601f19601f8201168201806040525081019061394e9190614554565b81526020015f151581526020015f67ffffffffffffffff81111561397557613974613f5f565b5b6040519080825280602002602001820160405280156139a35781602001602082028036833780820191505090505b5081525060115f8381526020019081526020015f205f820151815f01556020820151816001015f6101000a81548160ff02191690831515021790555060408201518160020190805190602001906139fb929190613e3f565b50905050600160145f3373ffffffffffffffffffffffffffffffffffffffff1673ffffffffffffffffffffffffffffffffffffffff1681526020019081526020015f205f6101000a81548160ff02191690831515021790555090565b3373ffffffffffffffffffffffffffffffffffffffff168173ffffffffffffffffffffffffffffffffffffffff1603613ac5576040517f08c379a0000000000000000000000000000000000000000000000000000000008152600401613abc9061526f565b60405180910390fd5b8060015f6101000a81548173ffffffffffffffffffffffffffffffffffffffff021916908373ffffffffffffffffffffffffffffffffffffffff1602179055508073ffffffffffffffffffffffffffffffffffffffff165f8054906101000a900473ffffffffffffffffffffffffffffffffffffffff1673ffffffffffffffffffffffffffffffffffffffff167fed8889f560326eb138920d842192f0eb3dd22b4f139c87a2c57538e05bae127860405160405180910390a350565b5f80601a5f9054906101000a900473ffffffffffffffffffffffffffffffffffffffff1673ffffffffffffffffffffffffffffffffffffffff1663feaf968c6040518163ffffffff1660e01b815260040160a060405180830381865afa158015613bed573d5f803e3d5ffd5b505050506040513d601f19601f82011682018060405250810190613c1191906152ff565b5050509150505f60055482613c2691906144d8565b9050809250505090565b5f7f000000000000000000000000000000000000000000000000000000000000000073ffffffffffffffffffffffffffffffffffffffff16634000aea07f00000000000000000000000000000000000000000000000000000000000000007f000000000000000000000000000000000000000000000000000000000000000073ffffffffffffffffffffffffffffffffffffffff16634306d354886040518263ffffffff1660e01b8152600401613ce7919061520c565b602060405180830381865afa158015613d02573d5f803e3d5ffd5b505050506040513d601f19601f82011682018060405250810190613d269190614554565b878787604051602001613d3b93929190615376565b6040516020818303038152906040526040518463ffffffff1660e01b8152600401613d6893929190615425565b6020604051808303815f875af1158015613d84573d5f803e3d5ffd5b505050506040513d601f19601f82011682018060405250810190613da891906146b9565b507f000000000000000000000000000000000000000000000000000000000000000073ffffffffffffffffffffffffffffffffffffffff1663fc2a88c36040518163ffffffff1660e01b8152600401602060405180830381865afa158015613e12573d5f803e3d5ffd5b505050506040513d601f19601f82011682018060405250810190613e369190614554565b90509392505050565b828054828255905f5260205f20908101928215613e79579160200282015b82811115613e78578251825591602001919060010190613e5d565b5b509050613e869190613e8a565b5090565b5b80821115613ea1575f815f905550600101613e8b565b5090565b5f604051905090565b5f80fd5b5f80fd5b5f61ffff82169050919050565b613ecc81613eb6565b8114613ed6575f80fd5b50565b5f81359050613ee781613ec3565b92915050565b5f60208284031215613f0257613f01613eae565b5b5f613f0f84828501613ed9565b91505092915050565b5f819050919050565b613f2a81613f18565b8114613f34575f80fd5b50565b5f81359050613f4581613f21565b92915050565b5f80fd5b5f601f19601f8301169050919050565b7f4e487b71000000000000000000000000000000000000000000000000000000005f52604160045260245ffd5b613f9582613f4f565b810181811067ffffffffffffffff82111715613fb457613fb3613f5f565b5b80604052505050565b5f613fc6613ea5565b9050613fd28282613f8c565b919050565b5f67ffffffffffffffff821115613ff157613ff0613f5f565b5b602082029050602081019050919050565b5f80fd5b5f61401861401384613fd7565b613fbd565b9050808382526020820190506020840283018581111561403b5761403a614002565b5b835b8181101561406457806140508882613f37565b84526020840193505060208101905061403d565b5050509392505050565b5f82601f83011261408257614081613f4b565b5b8135614092848260208601614006565b91505092915050565b5f80604083850312156140b1576140b0613eae565b5b5f6140be85828601613f37565b925050602083013567ffffffffffffffff8111156140df576140de613eb2565b5b6140eb8582860161406e565b9150509250929050565b5f73ffffffffffffffffffffffffffffffffffffffff82169050919050565b5f61411e826140f5565b9050919050565b61412e81614114565b8114614138575f80fd5b50565b5f8135905061414981614125565b92915050565b5f6020828403121561416457614163613eae565b5b5f6141718482850161413b565b91505092915050565b61418381613eb6565b82525050565b5f60208201905061419c5f83018461417a565b92915050565b6141ab81613f18565b82525050565b5f6020820190506141c45f8301846141a2565b92915050565b6141d381614114565b82525050565b5f6020820190506141ec5f8301846141ca565b92915050565b5f60ff82169050919050565b614207816141f2565b82525050565b5f6020820190506142205f8301846141fe565b92915050565b61422f816141f2565b8114614239575f80fd5b50565b5f8135905061424a81614226565b92915050565b5f6020828403121561426557614264613eae565b5b5f6142728482850161423c565b91505092915050565b5f82825260208201905092915050565b7f5265656e7472616e63792067756172643a206c6f636b656400000000000000005f82015250565b5f6142bf60188361427b565b91506142ca8261428b565b602082019050919050565b5f6020820190508181035f8301526142ec816142b3565b9050919050565b7f436f6e7472696275746f722063757272656e746c7920646f6573206e6f7420685f8201527f61766520616e792066756e64732077697468696e2074686520636f6e7472616360208201527f7400000000000000000000000000000000000000000000000000000000000000604082015250565b5f61437360418361427b565b915061437e826142f3565b606082019050919050565b5f6020820190508181035f8301526143a081614367565b9050919050565b7f596f7520617265206e6f7420656c696769626c6520746f2077697468647261775f82015250565b5f6143db60208361427b565b91506143e6826143a7565b602082019050919050565b5f6020820190508181035f830152614408816143cf565b9050919050565b7f5769746864726177696e672045544820636f6e74726962757465642066726f6d5f8201527f20536d61727420436f6e747261637420546f74616c2046756e64732e00000000602082015250565b5f614469603c8361427b565b91506144748261440f565b604082019050919050565b5f6040820190506144925f8301846141a2565b81810360208301526144a38161445d565b905092915050565b7f4e487b71000000000000000000000000000000000000000000000000000000005f52601160045260245ffd5b5f6144e282613f18565b91506144ed83613f18565b92508282026144fb81613f18565b91508282048414831517614512576145116144ab565b5b5092915050565b5f60408201905061452c5f8301856141ca565b61453960208301846141ca565b9392505050565b5f8151905061454e81613f21565b92915050565b5f6020828403121561456957614568613eae565b5b5f61457684828501614540565b91505092915050565b7f496e73756666696369656e7420534c5420616c6c6f77616e63650000000000005f82015250565b5f6145b3601a8361427b565b91506145be8261457f565b602082019050919050565b5f6020820190508181035f8301526145e0816145a7565b9050919050565b7f496e73756666696369656e7420534c542062616c616e636500000000000000005f82015250565b5f61461b60188361427b565b9150614626826145e7565b602082019050919050565b5f6020820190508181035f8301526146488161460f565b9050919050565b5f6060820190506146625f8301866141ca565b61466f60208301856141ca565b61467c60408301846141a2565b949350505050565b5f8115159050919050565b61469881614684565b81146146a2575f80fd5b50565b5f815190506146b38161468f565b92915050565b5f602082840312156146ce576146cd613eae565b5b5f6146db848285016146a5565b91505092915050565b7f4e487b71000000000000000000000000000000000000000000000000000000005f52601260045260245ffd5b5f61471b82613f18565b915061472683613f18565b925082614736576147356146e4565b5b828204905092915050565b7f6f6e6c792056524620563220777261707065722063616e2066756c66696c6c005f82015250565b5f614775601f8361427b565b915061478082614741565b602082019050919050565b5f6020820190508181035f8301526147a281614769565b9050919050565b7f4e6f742061207061727469636970616e742e2043686f6f7365206120647261775f82015250565b5f6147dd60208361427b565b91506147e8826147a9565b602082019050919050565b5f6020820190508181035f83015261480a816147d1565b9050919050565b7f72657175657374206e6f7420666f756e640000000000000000000000000000005f82015250565b5f61484560118361427b565b915061485082614811565b602082019050919050565b5f6020820190508181035f83015261487281614839565b9050919050565b7f4c696e6b20746f6b656e20666565206e6f7420706169640000000000000000005f82015250565b5f6148ad60178361427b565b91506148b882614879565b602082019050919050565b5f6020820190508181035f8301526148da816148a1565b9050919050565b5f6148eb82613f18565b91506148f683613f18565b925082614906576149056146e4565b5b828206905092915050565b7f4e487b71000000000000000000000000000000000000000000000000000000005f52603260045260245ffd5b7f416d6f756e7420576f6e2046726f6d2050617274696369706174696f6e0000005f82015250565b5f614972601d8361427b565b915061497d8261493e565b602082019050919050565b5f60408201905061499b5f8301846141a2565b81810360208301526149ac81614966565b905092915050565b7f4e6f7420656e6f756768204c696e6b20746f6b656e7320696e20636f6e7472615f8201527f6374000000000000000000000000000000000000000000000000000000000000602082015250565b5f614a0e60228361427b565b9150614a19826149b4565b604082019050919050565b5f6020820190508181035f830152614a3b81614a02565b9050919050565b5f604082019050614a555f8301856141ca565b614a6260208301846141a2565b9392505050565b7f4d7573742062652070726f706f736564206f776e6572000000000000000000005f82015250565b5f614a9d60168361427b565b9150614aa882614a69565b602082019050919050565b5f6020820190508181035f830152614aca81614a91565b9050919050565b7f416d6f756e742050616964206973206c657373207468616e20456e74727920705f8201527f7269636500000000000000000000000000000000000000000000000000000000602082015250565b5f614b2b60248361427b565b9150614b3682614ad1565b604082019050919050565b5f6020820190508181035f830152614b5881614b1f565b9050919050565b7f4e6f7420656e6f7567682056616c756520696e20636f6e747261637420746f205f8201527f656e746572207468697320647261770000000000000000000000000000000000602082015250565b5f614bb9602f8361427b565b9150614bc482614b5f565b604082019050919050565b5f6020820190508181035f830152614be681614bad565b9050919050565b7f5061696420746f20506172746963697061746520696e204472617720576f72745f8201527f682054656e000000000000000000000000000000000000000000000000000000602082015250565b5f614c4760258361427b565b9150614c5282614bed565b604082019050919050565b5f604082019050614c705f8301846141a2565b8181036020830152614c8181614c3b565b905092915050565b7f5061696420746f20506172746963697061746520696e204472617720576f72745f8201527f682054686f7573616e6400000000000000000000000000000000000000000000602082015250565b5f614ce3602a8361427b565b9150614cee82614c89565b604082019050919050565b5f604082019050614d0c5f8301846141a2565b8181036020830152614d1d81614cd7565b905092915050565b7f5061696420746f20506172746963697061746520696e204472617720576f72745f8201527f682054656e54686f7573616e6400000000000000000000000000000000000000602082015250565b5f614d7f602d8361427b565b9150614d8a82614d25565b604082019050919050565b5f604082019050614da85f8301846141a2565b8181036020830152614db981614d73565b905092915050565b7f436f6e7472696275746f7220616c7265616479206578697374730000000000005f82015250565b5f614df5601a8361427b565b9150614e0082614dc1565b602082019050919050565b5f6020820190508181035f830152614e2281614de9565b9050919050565b5f614e3382613f18565b9150614e3e83613f18565b9250828203905081811115614e5657614e556144ab565b5b92915050565b7f436f6e747269627574696e672045544820746f2074686520536d61727420436f5f8201527f6e747261637420546f74616c2046756e64732e00000000000000000000000000602082015250565b5f614eb660338361427b565b9150614ec182614e5c565b604082019050919050565b5f606082019050614edf5f8301856141a2565b614eec60208301846141a2565b8181036040830152614efd81614eaa565b90509392505050565b7f5061696420746f20506172746963697061746520696e204472617720576f72745f8201527f682048756e647265640000000000000000000000000000000000000000000000602082015250565b5f614f6060298361427b565b9150614f6b82614f06565b604082019050919050565b5f604082019050614f895f8301846141a2565b8181036020830152614f9a81614f54565b905092915050565b7f496e73756666696369656e74204c696e6b20616c6c6f77616e636500000000005f82015250565b5f614fd6601b8361427b565b9150614fe182614fa2565b602082019050919050565b5f6020820190508181035f83015261500381614fca565b9050919050565b5f61501482613f18565b915061501f83613f18565b9250828201905080821115615037576150366144ab565b5b92915050565b7f4e487b71000000000000000000000000000000000000000000000000000000005f52603160045260245ffd5b7f4f6e6c792063616c6c61626c65206279206f776e6572000000000000000000005f82015250565b5f61509e60168361427b565b91506150a98261506a565b602082019050919050565b5f6020820190508181035f8301526150cb81615092565b9050919050565b7f4e6f7420656e6f75676820534c5420746f6b656e7320696e20636f6e747261635f8201527f7400000000000000000000000000000000000000000000000000000000000000602082015250565b5f61512c60218361427b565b9150615137826150d2565b604082019050919050565b5f6020820190508181035f83015261515981615120565b9050919050565b7f596f75206861766520616c72656164792072657175657374656420666f7220615f8201527f2052616e646f6d204e756d626572000000000000000000000000000000000000602082015250565b5f6151ba602e8361427b565b91506151c582615160565b604082019050919050565b5f6020820190508181035f8301526151e7816151ae565b9050919050565b5f63ffffffff82169050919050565b615206816151ee565b82525050565b5f60208201905061521f5f8301846151fd565b92915050565b7f43616e6e6f74207472616e7366657220746f2073656c660000000000000000005f82015250565b5f61525960178361427b565b915061526482615225565b602082019050919050565b5f6020820190508181035f8301526152868161524d565b9050919050565b5f69ffffffffffffffffffff82169050919050565b6152ab8161528d565b81146152b5575f80fd5b50565b5f815190506152c6816152a2565b92915050565b5f819050919050565b6152de816152cc565b81146152e8575f80fd5b50565b5f815190506152f9816152d5565b92915050565b5f805f805f60a0868803121561531857615317613eae565b5b5f615325888289016152b8565b9550506020615336888289016152eb565b945050604061534788828901614540565b935050606061535888828901614540565b9250506080615369888289016152b8565b9150509295509295909350565b5f6060820190506153895f8301866151fd565b615396602083018561417a565b6153a360408301846151fd565b949350505050565b5f81519050919050565b5f82825260208201905092915050565b5f5b838110156153e25780820151818401526020810190506153c7565b5f8484015250505050565b5f6153f7826153ab565b61540181856153b5565b93506154118185602086016153c5565b61541a81613f4f565b840191505092915050565b5f6060820190506154385f8301866141ca565b61544560208301856141a2565b818103604083015261545781846153ed565b905094935050505056fea2646970667358221220ccd7e5c26e4bc2d18fb2a20729032b641383dfe872a525d1445ee79e2ed139eb64736f6c63430008170033",
			"opcodes": "PUSH1 0xC0 PUSH1 0x40 MSTORE PUSH3 0x186A0 PUSH1 0x1 PUSH1 0x14 PUSH2 0x100 EXP DUP2 SLOAD DUP2 PUSH4 0xFFFFFFFF MUL NOT AND SWAP1 DUP4 PUSH4 0xFFFFFFFF AND MUL OR SWAP1 SSTORE POP PUSH1 0x3 PUSH1 0x1 PUSH1 0x18 PUSH2 0x100 EXP DUP2 SLOAD DUP2 PUSH1 0xFF MUL NOT AND SWAP1 DUP4 PUSH1 0xFF AND MUL OR SWAP1 SSTORE POP PUSH1 0x1 DUP1 PUSH1 0x19 PUSH2 0x100 EXP DUP2 SLOAD DUP2 PUSH1 0xFF MUL NOT AND SWAP1 DUP4 PUSH1 0xFF AND MUL OR SWAP1 SSTORE POP PUSH1 0x5 PUSH1 0x1 PUSH1 0x1A PUSH2 0x100 EXP DUP2 SLOAD DUP2 PUSH1 0xFF MUL NOT AND SWAP1 DUP4 PUSH1 0xFF AND MUL OR SWAP1 SSTORE POP PUSH1 0x1 DUP1 PUSH1 0x1B PUSH2 0x100 EXP DUP2 SLOAD DUP2 PUSH2 0xFFFF MUL NOT AND SWAP1 DUP4 PUSH2 0xFFFF AND MUL OR SWAP1 SSTORE POP PUSH1 0xA PUSH1 0x1 PUSH1 0x1D PUSH2 0x100 EXP DUP2 SLOAD DUP2 PUSH2 0xFFFF MUL NOT AND SWAP1 DUP4 PUSH2 0xFFFF AND MUL OR SWAP1 SSTORE POP PUSH1 0x19 PUSH1 0x2 PUSH0 PUSH2 0x100 EXP DUP2 SLOAD DUP2 PUSH2 0xFFFF MUL NOT AND SWAP1 DUP4 PUSH2 0xFFFF AND MUL OR SWAP1 SSTORE POP PUSH1 0xFA PUSH1 0x2 DUP1 PUSH2 0x100 EXP DUP2 SLOAD DUP2 PUSH2 0xFFFF MUL NOT AND SWAP1 DUP4 PUSH2 0xFFFF AND MUL OR SWAP1 SSTORE POP PUSH1 0x5 PUSH1 0x2 PUSH1 0x4 PUSH2 0x100 EXP DUP2 SLOAD DUP2 PUSH2 0xFFFF MUL NOT AND SWAP1 DUP4 PUSH2 0xFFFF AND MUL OR SWAP1 SSTORE POP PUSH1 0x1 PUSH1 0x2 PUSH1 0x6 PUSH2 0x100 EXP DUP2 SLOAD DUP2 PUSH2 0xFFFF MUL NOT AND SWAP1 DUP4 PUSH2 0xFFFF AND MUL OR SWAP1 SSTORE POP PUSH1 0x1 PUSH1 0x2 PUSH1 0x8 PUSH2 0x100 EXP DUP2 SLOAD DUP2 PUSH2 0xFFFF MUL NOT AND SWAP1 DUP4 PUSH2 0xFFFF AND MUL OR SWAP1 SSTORE POP PUSH8 0xDE0B6B3A7640000 PUSH1 0x3 SSTORE PUSH4 0x5F5E100 PUSH1 0x4 SSTORE PUSH5 0x2540BE400 PUSH1 0x5 SSTORE PUSH1 0x64 PUSH1 0x6 PUSH0 PUSH2 0x100 EXP DUP2 SLOAD DUP2 PUSH1 0xFF MUL NOT AND SWAP1 DUP4 PUSH1 0xFF AND MUL OR SWAP1 SSTORE POP PUSH1 0x1 PUSH1 0x6 PUSH1 0x1 PUSH2 0x100 EXP DUP2 SLOAD DUP2 PUSH2 0xFFFF MUL NOT AND SWAP1 DUP4 PUSH2 0xFFFF AND MUL OR SWAP1 SSTORE POP PUSH1 0xA PUSH1 0x6 PUSH1 0x3 PUSH2 0x100 EXP DUP2 SLOAD DUP2 PUSH2 0xFFFF MUL NOT AND SWAP1 DUP4 PUSH2 0xFFFF AND MUL OR SWAP1 SSTORE POP PUSH1 0x19 PUSH1 0x6 PUSH1 0x5 PUSH2 0x100 EXP DUP2 SLOAD DUP2 PUSH2 0xFFFF MUL NOT AND SWAP1 DUP4 PUSH2 0xFFFF AND MUL OR SWAP1 SSTORE POP PUSH1 0xC8 PUSH1 0x6 PUSH1 0x7 PUSH2 0x100 EXP DUP2 SLOAD DUP2 PUSH2 0xFFFF MUL NOT AND SWAP1 DUP4 PUSH2 0xFFFF AND MUL OR SWAP1 SSTORE POP PUSH1 0xA PUSH1 0x6 PUSH1 0x9 PUSH2 0x100 EXP DUP2 SLOAD DUP2 PUSH2 0xFFFF MUL NOT AND SWAP1 DUP4 PUSH2 0xFFFF AND MUL OR SWAP1 SSTORE POP PUSH1 0x64 PUSH1 0x6 PUSH1 0xB PUSH2 0x100 EXP DUP2 SLOAD DUP2 PUSH2 0xFFFF MUL NOT AND SWAP1 DUP4 PUSH2 0xFFFF AND MUL OR SWAP1 SSTORE POP PUSH2 0x3E8 PUSH1 0x6 PUSH1 0xD PUSH2 0x100 EXP DUP2 SLOAD DUP2 PUSH2 0xFFFF MUL NOT AND SWAP1 DUP4 PUSH2 0xFFFF AND MUL OR SWAP1 SSTORE POP PUSH2 0x2710 PUSH1 0x6 PUSH1 0xF PUSH2 0x100 EXP DUP2 SLOAD DUP2 PUSH2 0xFFFF MUL NOT AND SWAP1 DUP4 PUSH2 0xFFFF AND MUL OR SWAP1 SSTORE POP PUSH1 0x2 PUSH1 0x6 PUSH1 0x11 PUSH2 0x100 EXP DUP2 SLOAD DUP2 PUSH2 0xFFFF MUL NOT AND SWAP1 DUP4 PUSH2 0xFFFF AND MUL OR SWAP1 SSTORE POP PUSH0 PUSH1 0x6 PUSH1 0x13 PUSH2 0x100 EXP DUP2 SLOAD DUP2 PUSH1 0xFF MUL NOT AND SWAP1 DUP4 PUSH1 0xFF AND MUL OR SWAP1 SSTORE POP PUSH1 0x40 MLOAD DUP1 PUSH2 0x280 ADD PUSH1 0x40 MSTORE DUP1 PUSH0 PUSH1 0xFF AND DUP2 MSTORE PUSH1 0x20 ADD PUSH0 PUSH1 0xFF AND DUP2 MSTORE PUSH1 0x20 ADD PUSH0 PUSH1 0xFF AND DUP2 MSTORE PUSH1 0x20 ADD PUSH0 PUSH1 0xFF AND DUP2 MSTORE PUSH1 0x20 ADD PUSH0 PUSH1 0xFF AND DUP2 MSTORE PUSH1 0x20 ADD PUSH0 PUSH1 0xFF AND DUP2 MSTORE PUSH1 0x20 ADD PUSH1 0xA PUSH1 0xFF AND DUP2 MSTORE PUSH1 0x20 ADD PUSH0 PUSH1 0xFF AND DUP2 MSTORE PUSH1 0x20 ADD PUSH0 PUSH1 0xFF AND DUP2 MSTORE PUSH1 0x20 ADD PUSH0 PUSH1 0xFF AND DUP2 MSTORE PUSH1 0x20 ADD PUSH0 PUSH1 0xFF AND DUP2 MSTORE PUSH1 0x20 ADD PUSH0 PUSH1 0xFF AND DUP2 MSTORE PUSH1 0x20 ADD PUSH0 PUSH1 0xFF AND DUP2 MSTORE PUSH1 0x20 ADD PUSH0 PUSH1 0xFF AND DUP2 MSTORE PUSH1 0x20 ADD PUSH0 PUSH1 0xFF AND DUP2 MSTORE PUSH1 0x20 ADD PUSH0 PUSH1 0xFF AND DUP2 MSTORE PUSH1 0x20 ADD PUSH0 PUSH1 0xFF AND DUP2 MSTORE PUSH1 0x20 ADD PUSH0 PUSH1 0xFF AND DUP2 MSTORE PUSH1 0x20 ADD PUSH0 PUSH1 0xFF AND DUP2 MSTORE PUSH1 0x20 ADD PUSH0 PUSH1 0xFF AND DUP2 MSTORE POP PUSH1 0x7 SWAP1 PUSH1 0x14 PUSH3 0x37E SWAP3 SWAP2 SWAP1 PUSH3 0x11A7 JUMP JUMPDEST POP PUSH1 0x40 MLOAD DUP1 PUSH2 0x780 ADD PUSH1 0x40 MSTORE DUP1 PUSH0 PUSH1 0xFF AND DUP2 MSTORE PUSH1 0x20 ADD PUSH0 PUSH1 0xFF AND DUP2 MSTORE PUSH1 0x20 ADD PUSH0 PUSH1 0xFF AND DUP2 MSTORE PUSH1 0x20 ADD PUSH0 PUSH1 0xFF AND DUP2 MSTORE PUSH1 0x20 ADD PUSH0 PUSH1 0xFF AND DUP2 MSTORE PUSH1 0x20 ADD PUSH0 PUSH1 0xFF AND DUP2 MSTORE PUSH1 0x20 ADD PUSH0 PUSH1 0xFF AND DUP2 MSTORE PUSH1 0x20 ADD PUSH0 PUSH1 0xFF AND DUP2 MSTORE PUSH1 0x20 ADD PUSH0 PUSH1 0xFF AND DUP2 MSTORE PUSH1 0x20 ADD PUSH0 PUSH1 0xFF AND DUP2 MSTORE PUSH1 0x20 ADD PUSH0 PUSH1 0xFF AND DUP2 MSTORE PUSH1 0x20 ADD PUSH0 PUSH1 0xFF AND DUP2 MSTORE PUSH1 0x20 ADD PUSH0 PUSH1 0xFF AND DUP2 MSTORE PUSH1 0x20 ADD PUSH0 PUSH1 0xFF AND DUP2 MSTORE PUSH1 0x20 ADD PUSH0 PUSH1 0xFF AND DUP2 MSTORE PUSH1 0x20 ADD PUSH0 PUSH1 0xFF AND DUP2 MSTORE PUSH1 0x20 ADD PUSH0 PUSH1 0xFF AND DUP2 MSTORE PUSH1 0x20 ADD PUSH0 PUSH1 0xFF AND DUP2 MSTORE PUSH1 0x20 ADD PUSH0 PUSH1 0xFF AND DUP2 MSTORE PUSH1 0x20 ADD PUSH0 PUSH1 0xFF AND DUP2 MSTORE PUSH1 0x20 ADD PUSH0 PUSH1 0xFF AND DUP2 MSTORE PUSH1 0x20 ADD PUSH0 PUSH1 0xFF AND DUP2 MSTORE PUSH1 0x20 ADD PUSH0 PUSH1 0xFF AND DUP2 MSTORE PUSH1 0x20 ADD PUSH0 PUSH1 0xFF AND DUP2 MSTORE PUSH1 0x20 ADD PUSH0 PUSH1 0xFF AND DUP2 MSTORE PUSH1 0x20 ADD PUSH0 PUSH1 0xFF AND DUP2 MSTORE PUSH1 0x20 ADD PUSH0 PUSH1 0xFF AND DUP2 MSTORE PUSH1 0x20 ADD PUSH0 PUSH1 0xFF AND DUP2 MSTORE PUSH1 0x20 ADD PUSH0 PUSH1 0xFF AND DUP2 MSTORE PUSH1 0x20 ADD PUSH0 PUSH1 0xFF AND DUP2 MSTORE PUSH1 0x20 ADD PUSH1 0x64 PUSH1 0xFF AND DUP2 MSTORE PUSH1 0x20 ADD PUSH0 PUSH1 0xFF AND DUP2 MSTORE PUSH1 0x20 ADD PUSH0 PUSH1 0xFF AND DUP2 MSTORE PUSH1 0x20 ADD PUSH0 PUSH1 0xFF AND DUP2 MSTORE PUSH1 0x20 ADD PUSH0 PUSH1 0xFF AND DUP2 MSTORE PUSH1 0x20 ADD PUSH0 PUSH1 0xFF AND DUP2 MSTORE PUSH1 0x20 ADD PUSH0 PUSH1 0xFF AND DUP2 MSTORE PUSH1 0x20 ADD PUSH0 PUSH1 0xFF AND DUP2 MSTORE PUSH1 0x20 ADD PUSH0 PUSH1 0xFF AND DUP2 MSTORE PUSH1 0x20 ADD PUSH0 PUSH1 0xFF AND DUP2 MSTORE PUSH1 0x20 ADD PUSH0 PUSH1 0xFF AND DUP2 MSTORE PUSH1 0x20 ADD PUSH0 PUSH1 0xFF AND DUP2 MSTORE PUSH1 0x20 ADD PUSH0 PUSH1 0xFF AND DUP2 MSTORE PUSH1 0x20 ADD PUSH0 PUSH1 0xFF AND DUP2 MSTORE PUSH1 0x20 ADD PUSH0 PUSH1 0xFF AND DUP2 MSTORE PUSH1 0x20 ADD PUSH0 PUSH1 0xFF AND DUP2 MSTORE PUSH1 0x20 ADD PUSH0 PUSH1 0xFF AND DUP2 MSTORE PUSH1 0x20 ADD PUSH0 PUSH1 0xFF AND DUP2 MSTORE PUSH1 0x20 ADD PUSH0 PUSH1 0xFF AND DUP2 MSTORE PUSH1 0x20 ADD PUSH0 PUSH1 0xFF AND DUP2 MSTORE PUSH1 0x20 ADD PUSH0 PUSH1 0xFF AND DUP2 MSTORE PUSH1 0x20 ADD PUSH0 PUSH1 0xFF AND DUP2 MSTORE PUSH1 0x20 ADD PUSH0 PUSH1 0xFF AND DUP2 MSTORE PUSH1 0x20 ADD PUSH0 PUSH1 0xFF AND DUP2 MSTORE PUSH1 0x20 ADD PUSH0 PUSH1 0xFF AND DUP2 MSTORE PUSH1 0x20 ADD PUSH0 PUSH1 0xFF AND DUP2 MSTORE PUSH1 0x20 ADD PUSH0 PUSH1 0xFF AND DUP2 MSTORE PUSH1 0x20 ADD PUSH0 PUSH1 0xFF AND DUP2 MSTORE PUSH1 0x20 ADD PUSH0 PUSH1 0xFF AND DUP2 MSTORE PUSH1 0x20 ADD PUSH0 PUSH1 0xFF AND DUP2 MSTORE POP PUSH1 0x8 SWAP1 PUSH1 0x3C PUSH3 0x5B8 SWAP3 SWAP2 SWAP1 PUSH3 0x11FC JUMP JUMPDEST POP PUSH1 0x40 MLOAD DUP1 PUSH2 0xA00 ADD PUSH1 0x40 MSTORE DUP1 PUSH0 PUSH2 0xFFFF AND DUP2 MSTORE PUSH1 0x20 ADD PUSH0 PUSH2 0xFFFF AND DUP2 MSTORE PUSH1 0x20 ADD PUSH0 PUSH2 0xFFFF AND DUP2 MSTORE PUSH1 0x20 ADD PUSH0 PUSH2 0xFFFF AND DUP2 MSTORE PUSH1 0x20 ADD PUSH0 PUSH2 0xFFFF AND DUP2 MSTORE PUSH1 0x20 ADD PUSH0 PUSH2 0xFFFF AND DUP2 MSTORE PUSH1 0x20 ADD PUSH0 PUSH2 0xFFFF AND DUP2 MSTORE PUSH1 0x20 ADD PUSH0 PUSH2 0xFFFF AND DUP2 MSTORE PUSH1 0x20 ADD PUSH0 PUSH2 0xFFFF AND DUP2 MSTORE PUSH1 0x20 ADD PUSH0 PUSH2 0xFFFF AND DUP2 MSTORE PUSH1 0x20 ADD PUSH0 PUSH2 0xFFFF AND DUP2 MSTORE PUSH1 0x20 ADD PUSH0 PUSH2 0xFFFF AND DUP2 MSTORE PUSH1 0x20 ADD PUSH0 PUSH2 0xFFFF AND DUP2 MSTORE PUSH1 0x20 ADD PUSH0 PUSH2 0xFFFF AND DUP2 MSTORE PUSH1 0x20 ADD PUSH0 PUSH2 0xFFFF AND DUP2 MSTORE PUSH1 0x20 ADD PUSH0 PUSH2 0xFFFF AND DUP2 MSTORE PUSH1 0x20 ADD PUSH0 PUSH2 0xFFFF AND DUP2 MSTORE PUSH1 0x20 ADD PUSH0 PUSH2 0xFFFF AND DUP2 MSTORE PUSH1 0x20 ADD PUSH0 PUSH2 0xFFFF AND DUP2 MSTORE PUSH1 0x20 ADD PUSH0 PUSH2 0xFFFF AND DUP2 MSTORE PUSH1 0x20 ADD PUSH0 PUSH2 0xFFFF AND DUP2 MSTORE PUSH1 0x20 ADD PUSH0 PUSH2 0xFFFF AND DUP2 MSTORE PUSH1 0x20 ADD PUSH0 PUSH2 0xFFFF AND DUP2 MSTORE PUSH1 0x20 ADD PUSH0 PUSH2 0xFFFF AND DUP2 MSTORE PUSH1 0x20 ADD PUSH0 PUSH2 0xFFFF AND DUP2 MSTORE PUSH1 0x20 ADD PUSH0 PUSH2 0xFFFF AND DUP2 MSTORE PUSH1 0x20 ADD PUSH0 PUSH2 0xFFFF AND DUP2 MSTORE PUSH1 0x20 ADD PUSH0 PUSH2 0xFFFF AND DUP2 MSTORE PUSH1 0x20 ADD PUSH0 PUSH2 0xFFFF AND DUP2 MSTORE PUSH1 0x20 ADD PUSH0 PUSH2 0xFFFF AND DUP2 MSTORE PUSH1 0x20 ADD PUSH0 PUSH2 0xFFFF AND DUP2 MSTORE PUSH1 0x20 ADD PUSH0 PUSH2 0xFFFF AND DUP2 MSTORE PUSH1 0x20 ADD PUSH0 PUSH2 0xFFFF AND DUP2 MSTORE PUSH1 0x20 ADD PUSH0 PUSH2 0xFFFF AND DUP2 MSTORE PUSH1 0x20 ADD PUSH2 0x3E8 PUSH2 0xFFFF AND DUP2 MSTORE PUSH1 0x20 ADD PUSH0 PUSH2 0xFFFF AND DUP2 MSTORE PUSH1 0x20 ADD PUSH0 PUSH2 0xFFFF AND DUP2 MSTORE PUSH1 0x20 ADD PUSH0 PUSH2 0xFFFF AND DUP2 MSTORE PUSH1 0x20 ADD PUSH0 PUSH2 0xFFFF AND DUP2 MSTORE PUSH1 0x20 ADD PUSH0 PUSH2 0xFFFF AND DUP2 MSTORE PUSH1 0x20 ADD PUSH0 PUSH2 0xFFFF AND DUP2 MSTORE PUSH1 0x20 ADD PUSH0 PUSH2 0xFFFF AND DUP2 MSTORE PUSH1 0x20 ADD PUSH0 PUSH2 0xFFFF AND DUP2 MSTORE PUSH1 0x20 ADD PUSH0 PUSH2 0xFFFF AND DUP2 MSTORE PUSH1 0x20 ADD PUSH0 PUSH2 0xFFFF AND DUP2 MSTORE PUSH1 0x20 ADD PUSH0 PUSH2 0xFFFF AND DUP2 MSTORE PUSH1 0x20 ADD PUSH0 PUSH2 0xFFFF AND DUP2 MSTORE PUSH1 0x20 ADD PUSH0 PUSH2 0xFFFF AND DUP2 MSTORE PUSH1 0x20 ADD PUSH0 PUSH2 0xFFFF AND DUP2 MSTORE PUSH1 0x20 ADD PUSH0 PUSH2 0xFFFF AND DUP2 MSTORE PUSH1 0x20 ADD PUSH0 PUSH2 0xFFFF AND DUP2 MSTORE PUSH1 0x20 ADD PUSH0 PUSH2 0xFFFF AND DUP2 MSTORE PUSH1 0x20 ADD PUSH0 PUSH2 0xFFFF AND DUP2 MSTORE PUSH1 0x20 ADD PUSH0 PUSH2 0xFFFF AND DUP2 MSTORE PUSH1 0x20 ADD PUSH0 PUSH2 0xFFFF AND DUP2 MSTORE PUSH1 0x20 ADD PUSH0 PUSH2 0xFFFF AND DUP2 MSTORE PUSH1 0x20 ADD PUSH0 PUSH2 0xFFFF AND DUP2 MSTORE PUSH1 0x20 ADD PUSH0 PUSH2 0xFFFF AND DUP2 MSTORE PUSH1 0x20 ADD PUSH0 PUSH2 0xFFFF AND DUP2 MSTORE PUSH1 0x20 ADD PUSH0 PUSH2 0xFFFF AND DUP2 MSTORE PUSH1 0x20 ADD PUSH0 PUSH2 0xFFFF AND DUP2 MSTORE PUSH1 0x20 ADD PUSH0 PUSH2 0xFFFF AND DUP2 MSTORE PUSH1 0x20 ADD PUSH0 PUSH2 0xFFFF AND DUP2 MSTORE PUSH1 0x20 ADD PUSH0 PUSH2 0xFFFF AND DUP2 MSTORE PUSH1 0x20 ADD PUSH0 PUSH2 0xFFFF AND DUP2 MSTORE PUSH1 0x20 ADD PUSH0 PUSH2 0xFFFF AND DUP2 MSTORE PUSH1 0x20 ADD PUSH0 PUSH2 0xFFFF AND DUP2 MSTORE PUSH1 0x20 ADD PUSH0 PUSH2 0xFFFF AND DUP2 MSTORE PUSH1 0x20 ADD PUSH0 PUSH2 0xFFFF AND DUP2 MSTORE PUSH1 0x20 ADD PUSH0 PUSH2 0xFFFF AND DUP2 MSTORE PUSH1 0x20 ADD PUSH0 PUSH2 0xFFFF AND DUP2 MSTORE PUSH1 0x20 ADD PUSH0 PUSH2 0xFFFF AND DUP2 MSTORE PUSH1 0x20 ADD PUSH0 PUSH2 0xFFFF AND DUP2 MSTORE PUSH1 0x20 ADD PUSH0 PUSH2 0xFFFF AND DUP2 MSTORE PUSH1 0x20 ADD PUSH0 PUSH2 0xFFFF AND DUP2 MSTORE PUSH1 0x20 ADD PUSH0 PUSH2 0xFFFF AND DUP2 MSTORE PUSH1 0x20 ADD PUSH0 PUSH2 0xFFFF AND DUP2 MSTORE PUSH1 0x20 ADD PUSH0 PUSH2 0xFFFF AND DUP2 MSTORE PUSH1 0x20 ADD PUSH0 PUSH2 0xFFFF AND DUP2 MSTORE PUSH1 0x20 ADD PUSH0 PUSH2 0xFFFF AND DUP2 MSTORE POP PUSH1 0x9 SWAP1 PUSH1 0x50 PUSH3 0x8F7 SWAP3 SWAP2 SWAP1 PUSH3 0x1251 JUMP JUMPDEST POP PUSH1 0x40 MLOAD DUP1 PUSH2 0xC80 ADD PUSH1 0x40 MSTORE DUP1 PUSH0 PUSH2 0xFFFF AND DUP2 MSTORE PUSH1 0x20 ADD PUSH0 PUSH2 0xFFFF AND DUP2 MSTORE PUSH1 0x20 ADD PUSH0 PUSH2 0xFFFF AND DUP2 MSTORE PUSH1 0x20 ADD PUSH0 PUSH2 0xFFFF AND DUP2 MSTORE PUSH1 0x20 ADD PUSH0 PUSH2 0xFFFF AND DUP2 MSTORE PUSH1 0x20 ADD PUSH0 PUSH2 0xFFFF AND DUP2 MSTORE PUSH1 0x20 ADD PUSH0 PUSH2 0xFFFF AND DUP2 MSTORE PUSH1 0x20 ADD PUSH0 PUSH2 0xFFFF AND DUP2 MSTORE PUSH1 0x20 ADD PUSH0 PUSH2 0xFFFF AND DUP2 MSTORE PUSH1 0x20 ADD PUSH0 PUSH2 0xFFFF AND DUP2 MSTORE PUSH1 0x20 ADD PUSH0 PUSH2 0xFFFF AND DUP2 MSTORE PUSH1 0x20 ADD PUSH0 PUSH2 0xFFFF AND DUP2 MSTORE PUSH1 0x20 ADD PUSH0 PUSH2 0xFFFF AND DUP2 MSTORE PUSH1 0x20 ADD PUSH0 PUSH2 0xFFFF AND DUP2 MSTORE PUSH1 0x20 ADD PUSH0 PUSH2 0xFFFF AND DUP2 MSTORE PUSH1 0x20 ADD PUSH0 PUSH2 0xFFFF AND DUP2 MSTORE PUSH1 0x20 ADD PUSH0 PUSH2 0xFFFF AND DUP2 MSTORE PUSH1 0x20 ADD PUSH0 PUSH2 0xFFFF AND DUP2 MSTORE PUSH1 0x20 ADD PUSH0 PUSH2 0xFFFF AND DUP2 MSTORE PUSH1 0x20 ADD PUSH0 PUSH2 0xFFFF AND DUP2 MSTORE PUSH1 0x20 ADD PUSH0 PUSH2 0xFFFF AND DUP2 MSTORE PUSH1 0x20 ADD PUSH0 PUSH2 0xFFFF AND DUP2 MSTORE PUSH1 0x20 ADD PUSH0 PUSH2 0xFFFF AND DUP2 MSTORE PUSH1 0x20 ADD PUSH0 PUSH2 0xFFFF AND DUP2 MSTORE PUSH1 0x20 ADD PUSH0 PUSH2 0xFFFF AND DUP2 MSTORE PUSH1 0x20 ADD PUSH0 PUSH2 0xFFFF AND DUP2 MSTORE PUSH1 0x20 ADD PUSH0 PUSH2 0xFFFF AND DUP2 MSTORE PUSH1 0x20 ADD PUSH0 PUSH2 0xFFFF AND DUP2 MSTORE PUSH1 0x20 ADD PUSH0 PUSH2 0xFFFF AND DUP2 MSTORE PUSH1 0x20 ADD PUSH0 PUSH2 0xFFFF AND DUP2 MSTORE PUSH1 0x20 ADD PUSH0 PUSH2 0xFFFF AND DUP2 MSTORE PUSH1 0x20 ADD PUSH0 PUSH2 0xFFFF AND DUP2 MSTORE PUSH1 0x20 ADD PUSH0 PUSH2 0xFFFF AND DUP2 MSTORE PUSH1 0x20 ADD PUSH0 PUSH2 0xFFFF AND DUP2 MSTORE PUSH1 0x20 ADD PUSH0 PUSH2 0xFFFF AND DUP2 MSTORE PUSH1 0x20 ADD PUSH0 PUSH2 0xFFFF AND DUP2 MSTORE PUSH1 0x20 ADD PUSH0 PUSH2 0xFFFF AND DUP2 MSTORE PUSH1 0x20 ADD PUSH0 PUSH2 0xFFFF AND DUP2 MSTORE PUSH1 0x20 ADD PUSH0 PUSH2 0xFFFF AND DUP2 MSTORE PUSH1 0x20 ADD PUSH0 PUSH2 0xFFFF AND DUP2 MSTORE PUSH1 0x20 ADD PUSH0 PUSH2 0xFFFF AND DUP2 MSTORE PUSH1 0x20 ADD PUSH0 PUSH2 0xFFFF AND DUP2 MSTORE PUSH1 0x20 ADD PUSH0 PUSH2 0xFFFF AND DUP2 MSTORE PUSH1 0x20 ADD PUSH0 PUSH2 0xFFFF AND DUP2 MSTORE PUSH1 0x20 ADD PUSH0 PUSH2 0xFFFF AND DUP2 MSTORE PUSH1 0x20 ADD PUSH0 PUSH2 0xFFFF AND DUP2 MSTORE PUSH1 0x20 ADD PUSH0 PUSH2 0xFFFF AND DUP2 MSTORE PUSH1 0x20 ADD PUSH0 PUSH2 0xFFFF AND DUP2 MSTORE PUSH1 0x20 ADD PUSH0 PUSH2 0xFFFF AND DUP2 MSTORE PUSH1 0x20 ADD PUSH0 PUSH2 0xFFFF AND DUP2 MSTORE PUSH1 0x20 ADD PUSH0 PUSH2 0xFFFF AND DUP2 MSTORE PUSH1 0x20 ADD PUSH0 PUSH2 0xFFFF AND DUP2 MSTORE PUSH1 0x20 ADD PUSH0 PUSH2 0xFFFF AND DUP2 MSTORE PUSH1 0x20 ADD PUSH0 PUSH2 0xFFFF AND DUP2 MSTORE PUSH1 0x20 ADD PUSH0 PUSH2 0xFFFF AND DUP2 MSTORE PUSH1 0x20 ADD PUSH0 PUSH2 0xFFFF AND DUP2 MSTORE PUSH1 0x20 ADD PUSH0 PUSH2 0xFFFF AND DUP2 MSTORE PUSH1 0x20 ADD PUSH0 PUSH2 0xFFFF AND DUP2 MSTORE PUSH1 0x20 ADD PUSH0 PUSH2 0xFFFF AND DUP2 MSTORE PUSH1 0x20 ADD PUSH0 PUSH2 0xFFFF AND DUP2 MSTORE PUSH1 0x20 ADD PUSH0 PUSH2 0xFFFF AND DUP2 MSTORE PUSH1 0x20 ADD PUSH0 PUSH2 0xFFFF AND DUP2 MSTORE PUSH1 0x20 ADD PUSH0 PUSH2 0xFFFF AND DUP2 MSTORE PUSH1 0x20 ADD PUSH0 PUSH2 0xFFFF AND DUP2 MSTORE PUSH1 0x20 ADD PUSH0 PUSH2 0xFFFF AND DUP2 MSTORE PUSH1 0x20 ADD PUSH0 PUSH2 0xFFFF AND DUP2 MSTORE PUSH1 0x20 ADD PUSH0 PUSH2 0xFFFF AND DUP2 MSTORE PUSH1 0x20 ADD PUSH0 PUSH2 0xFFFF AND DUP2 MSTORE PUSH1 0x20 ADD PUSH0 PUSH2 0xFFFF AND DUP2 MSTORE PUSH1 0x20 ADD PUSH0 PUSH2 0xFFFF AND DUP2 MSTORE PUSH1 0x20 ADD PUSH0 PUSH2 0xFFFF AND DUP2 MSTORE PUSH1 0x20 ADD PUSH0 PUSH2 0xFFFF AND DUP2 MSTORE PUSH1 0x20 ADD PUSH0 PUSH2 0xFFFF AND DUP2 MSTORE PUSH1 0x20 ADD PUSH0 PUSH2 0xFFFF AND DUP2 MSTORE PUSH1 0x20 ADD PUSH0 PUSH2 0xFFFF AND DUP2 MSTORE PUSH1 0x20 ADD PUSH0 PUSH2 0xFFFF AND DUP2 MSTORE PUSH1 0x20 ADD PUSH2 0x2710 PUSH2 0xFFFF AND DUP2 MSTORE PUSH1 0x20 ADD PUSH0 PUSH2 0xFFFF AND DUP2 MSTORE PUSH1 0x20 ADD PUSH0 PUSH2 0xFFFF AND DUP2 MSTORE PUSH1 0x20 ADD PUSH0 PUSH2 0xFFFF AND DUP2 MSTORE PUSH1 0x20 ADD PUSH0 PUSH2 0xFFFF AND DUP2 MSTORE PUSH1 0x20 ADD PUSH0 PUSH2 0xFFFF AND DUP2 MSTORE PUSH1 0x20 ADD PUSH0 PUSH2 0xFFFF AND DUP2 MSTORE PUSH1 0x20 ADD PUSH0 PUSH2 0xFFFF AND DUP2 MSTORE PUSH1 0x20 ADD PUSH0 PUSH2 0xFFFF AND DUP2 MSTORE PUSH1 0x20 ADD PUSH0 PUSH2 0xFFFF AND DUP2 MSTORE PUSH1 0x20 ADD PUSH0 PUSH2 0xFFFF AND DUP2 MSTORE PUSH1 0x20 ADD PUSH0 PUSH2 0xFFFF AND DUP2 MSTORE PUSH1 0x20 ADD PUSH0 PUSH2 0xFFFF AND DUP2 MSTORE PUSH1 0x20 ADD PUSH0 PUSH2 0xFFFF AND DUP2 MSTORE PUSH1 0x20 ADD PUSH0 PUSH2 0xFFFF AND DUP2 MSTORE PUSH1 0x20 ADD PUSH0 PUSH2 0xFFFF AND DUP2 MSTORE PUSH1 0x20 ADD PUSH0 PUSH2 0xFFFF AND DUP2 MSTORE PUSH1 0x20 ADD PUSH0 PUSH2 0xFFFF AND DUP2 MSTORE PUSH1 0x20 ADD PUSH0 PUSH2 0xFFFF AND DUP2 MSTORE PUSH1 0x20 ADD PUSH0 PUSH2 0xFFFF AND DUP2 MSTORE PUSH1 0x20 ADD PUSH0 PUSH2 0xFFFF AND DUP2 MSTORE PUSH1 0x20 ADD PUSH0 PUSH2 0xFFFF AND DUP2 MSTORE PUSH1 0x20 ADD PUSH0 PUSH2 0xFFFF AND DUP2 MSTORE PUSH1 0x20 ADD PUSH0 PUSH2 0xFFFF AND DUP2 MSTORE POP PUSH1 0xA SWAP1 PUSH1 0x64 PUSH3 0xCFE SWAP3 SWAP2 SWAP1 PUSH3 0x12A7 JUMP JUMPDEST POP PUSH20 0xAB18414CD93297B0D12AC29E63CA20F515B3DB46 PUSH1 0xC PUSH0 PUSH2 0x100 EXP DUP2 SLOAD DUP2 PUSH20 0xFFFFFFFFFFFFFFFFFFFFFFFFFFFFFFFFFFFFFFFF MUL NOT AND SWAP1 DUP4 PUSH20 0xFFFFFFFFFFFFFFFFFFFFFFFFFFFFFFFFFFFFFFFF AND MUL OR SWAP1 SSTORE POP PUSH20 0x779877A7B0D9E8603169DDBD7836E478B4624789 PUSH1 0xD PUSH0 PUSH2 0x100 EXP DUP2 SLOAD DUP2 PUSH20 0xFFFFFFFFFFFFFFFFFFFFFFFFFFFFFFFFFFFFFFFF MUL NOT AND SWAP1 DUP4 PUSH20 0xFFFFFFFFFFFFFFFFFFFFFFFFFFFFFFFFFFFFFFFF AND MUL OR SWAP1 SSTORE POP PUSH20 0x694AA1769357215DE4FAC081BF1F309ADC325306 PUSH1 0xE PUSH0 PUSH2 0x100 EXP DUP2 SLOAD DUP2 PUSH20 0xFFFFFFFFFFFFFFFFFFFFFFFFFFFFFFFFFFFFFFFF MUL NOT AND SWAP1 DUP4 PUSH20 0xFFFFFFFFFFFFFFFFFFFFFFFFFFFFFFFFFFFFFFFF AND MUL OR SWAP1 SSTORE POP PUSH1 0xE PUSH0 SWAP1 SLOAD SWAP1 PUSH2 0x100 EXP SWAP1 DIV PUSH20 0xFFFFFFFFFFFFFFFFFFFFFFFFFFFFFFFFFFFFFFFF AND PUSH1 0x1A PUSH0 PUSH2 0x100 EXP DUP2 SLOAD DUP2 PUSH20 0xFFFFFFFFFFFFFFFFFFFFFFFFFFFFFFFFFFFFFFFF MUL NOT AND SWAP1 DUP4 PUSH20 0xFFFFFFFFFFFFFFFFFFFFFFFFFFFFFFFFFFFFFFFF AND MUL OR SWAP1 SSTORE POP PUSH1 0xD PUSH0 SWAP1 SLOAD SWAP1 PUSH2 0x100 EXP SWAP1 DIV PUSH20 0xFFFFFFFFFFFFFFFFFFFFFFFFFFFFFFFFFFFFFFFF AND PUSH1 0x1B PUSH0 PUSH2 0x100 EXP DUP2 SLOAD DUP2 PUSH20 0xFFFFFFFFFFFFFFFFFFFFFFFFFFFFFFFFFFFFFFFF MUL NOT AND SWAP1 DUP4 PUSH20 0xFFFFFFFFFFFFFFFFFFFFFFFFFFFFFFFFFFFFFFFF AND MUL OR SWAP1 SSTORE POP CALLVALUE DUP1 ISZERO PUSH3 0xEC9 JUMPI PUSH0 DUP1 REVERT JUMPDEST POP CALLER DUP1 PUSH0 PUSH1 0xD PUSH0 SWAP1 SLOAD SWAP1 PUSH2 0x100 EXP SWAP1 DIV PUSH20 0xFFFFFFFFFFFFFFFFFFFFFFFFFFFFFFFFFFFFFFFF AND PUSH1 0xC PUSH0 SWAP1 SLOAD SWAP1 PUSH2 0x100 EXP SWAP1 DIV PUSH20 0xFFFFFFFFFFFFFFFFFFFFFFFFFFFFFFFFFFFFFFFF AND DUP2 PUSH20 0xFFFFFFFFFFFFFFFFFFFFFFFFFFFFFFFFFFFFFFFF AND PUSH1 0x80 DUP2 PUSH20 0xFFFFFFFFFFFFFFFFFFFFFFFFFFFFFFFFFFFFFFFF AND DUP2 MSTORE POP POP DUP1 PUSH20 0xFFFFFFFFFFFFFFFFFFFFFFFFFFFFFFFFFFFFFFFF AND PUSH1 0xA0 DUP2 PUSH20 0xFFFFFFFFFFFFFFFFFFFFFFFFFFFFFFFFFFFFFFFF AND DUP2 MSTORE POP POP POP POP PUSH0 PUSH20 0xFFFFFFFFFFFFFFFFFFFFFFFFFFFFFFFFFFFFFFFF AND DUP3 PUSH20 0xFFFFFFFFFFFFFFFFFFFFFFFFFFFFFFFFFFFFFFFF AND SUB PUSH3 0xFEC JUMPI PUSH1 0x40 MLOAD PUSH32 0x8C379A000000000000000000000000000000000000000000000000000000000 DUP2 MSTORE PUSH1 0x4 ADD PUSH3 0xFE3 SWAP1 PUSH3 0x1378 JUMP JUMPDEST PUSH1 0x40 MLOAD DUP1 SWAP2 SUB SWAP1 REVERT JUMPDEST DUP2 PUSH0 DUP1 PUSH2 0x100 EXP DUP2 SLOAD DUP2 PUSH20 0xFFFFFFFFFFFFFFFFFFFFFFFFFFFFFFFFFFFFFFFF MUL NOT AND SWAP1 DUP4 PUSH20 0xFFFFFFFFFFFFFFFFFFFFFFFFFFFFFFFFFFFFFFFF AND MUL OR SWAP1 SSTORE POP PUSH0 PUSH20 0xFFFFFFFFFFFFFFFFFFFFFFFFFFFFFFFFFFFFFFFF AND DUP2 PUSH20 0xFFFFFFFFFFFFFFFFFFFFFFFFFFFFFFFFFFFFFFFF AND EQ PUSH3 0x1071 JUMPI PUSH3 0x1070 DUP2 PUSH3 0x107A PUSH1 0x20 SHL PUSH1 0x20 SHR JUMP JUMPDEST JUMPDEST POP POP POP PUSH3 0x1406 JUMP JUMPDEST CALLER PUSH20 0xFFFFFFFFFFFFFFFFFFFFFFFFFFFFFFFFFFFFFFFF AND DUP2 PUSH20 0xFFFFFFFFFFFFFFFFFFFFFFFFFFFFFFFFFFFFFFFF AND SUB PUSH3 0x10EB JUMPI PUSH1 0x40 MLOAD PUSH32 0x8C379A000000000000000000000000000000000000000000000000000000000 DUP2 MSTORE PUSH1 0x4 ADD PUSH3 0x10E2 SWAP1 PUSH3 0x13E6 JUMP JUMPDEST PUSH1 0x40 MLOAD DUP1 SWAP2 SUB SWAP1 REVERT JUMPDEST DUP1 PUSH1 0x1 PUSH0 PUSH2 0x100 EXP DUP2 SLOAD DUP2 PUSH20 0xFFFFFFFFFFFFFFFFFFFFFFFFFFFFFFFFFFFFFFFF MUL NOT AND SWAP1 DUP4 PUSH20 0xFFFFFFFFFFFFFFFFFFFFFFFFFFFFFFFFFFFFFFFF AND MUL OR SWAP1 SSTORE POP DUP1 PUSH20 0xFFFFFFFFFFFFFFFFFFFFFFFFFFFFFFFFFFFFFFFF AND PUSH0 DUP1 SLOAD SWAP1 PUSH2 0x100 EXP SWAP1 DIV PUSH20 0xFFFFFFFFFFFFFFFFFFFFFFFFFFFFFFFFFFFFFFFF AND PUSH20 0xFFFFFFFFFFFFFFFFFFFFFFFFFFFFFFFFFFFFFFFF AND PUSH32 0xED8889F560326EB138920D842192F0EB3DD22B4F139C87A2C57538E05BAE1278 PUSH1 0x40 MLOAD PUSH1 0x40 MLOAD DUP1 SWAP2 SUB SWAP1 LOG3 POP JUMP JUMPDEST DUP3 DUP1 SLOAD DUP3 DUP3 SSTORE SWAP1 PUSH0 MSTORE PUSH1 0x20 PUSH0 KECCAK256 SWAP1 DUP2 ADD SWAP3 DUP3 ISZERO PUSH3 0x11E9 JUMPI SWAP2 PUSH1 0x20 MUL DUP3 ADD JUMPDEST DUP3 DUP2 GT ISZERO PUSH3 0x11E8 JUMPI DUP3 MLOAD DUP3 SWAP1 PUSH1 0xFF AND SWAP1 SSTORE SWAP2 PUSH1 0x20 ADD SWAP2 SWAP1 PUSH1 0x1 ADD SWAP1 PUSH3 0x11C6 JUMP JUMPDEST JUMPDEST POP SWAP1 POP PUSH3 0x11F8 SWAP2 SWAP1 PUSH3 0x12FD JUMP JUMPDEST POP SWAP1 JUMP JUMPDEST DUP3 DUP1 SLOAD DUP3 DUP3 SSTORE SWAP1 PUSH0 MSTORE PUSH1 0x20 PUSH0 KECCAK256 SWAP1 DUP2 ADD SWAP3 DUP3 ISZERO PUSH3 0x123E JUMPI SWAP2 PUSH1 0x20 MUL DUP3 ADD JUMPDEST DUP3 DUP2 GT ISZERO PUSH3 0x123D JUMPI DUP3 MLOAD DUP3 SWAP1 PUSH1 0xFF AND SWAP1 SSTORE SWAP2 PUSH1 0x20 ADD SWAP2 SWAP1 PUSH1 0x1 ADD SWAP1 PUSH3 0x121B JUMP JUMPDEST JUMPDEST POP SWAP1 POP PUSH3 0x124D SWAP2 SWAP1 PUSH3 0x12FD JUMP JUMPDEST POP SWAP1 JUMP JUMPDEST DUP3 DUP1 SLOAD DUP3 DUP3 SSTORE SWAP1 PUSH0 MSTORE PUSH1 0x20 PUSH0 KECCAK256 SWAP1 DUP2 ADD SWAP3 DUP3 ISZERO PUSH3 0x1294 JUMPI SWAP2 PUSH1 0x20 MUL DUP3 ADD JUMPDEST DUP3 DUP2 GT ISZERO PUSH3 0x1293 JUMPI DUP3 MLOAD DUP3 SWAP1 PUSH2 0xFFFF AND SWAP1 SSTORE SWAP2 PUSH1 0x20 ADD SWAP2 SWAP1 PUSH1 0x1 ADD SWAP1 PUSH3 0x1270 JUMP JUMPDEST JUMPDEST POP SWAP1 POP PUSH3 0x12A3 SWAP2 SWAP1 PUSH3 0x12FD JUMP JUMPDEST POP SWAP1 JUMP JUMPDEST DUP3 DUP1 SLOAD DUP3 DUP3 SSTORE SWAP1 PUSH0 MSTORE PUSH1 0x20 PUSH0 KECCAK256 SWAP1 DUP2 ADD SWAP3 DUP3 ISZERO PUSH3 0x12EA JUMPI SWAP2 PUSH1 0x20 MUL DUP3 ADD JUMPDEST DUP3 DUP2 GT ISZERO PUSH3 0x12E9 JUMPI DUP3 MLOAD DUP3 SWAP1 PUSH2 0xFFFF AND SWAP1 SSTORE SWAP2 PUSH1 0x20 ADD SWAP2 SWAP1 PUSH1 0x1 ADD SWAP1 PUSH3 0x12C6 JUMP JUMPDEST JUMPDEST POP SWAP1 POP PUSH3 0x12F9 SWAP2 SWAP1 PUSH3 0x12FD JUMP JUMPDEST POP SWAP1 JUMP JUMPDEST JUMPDEST DUP1 DUP3 GT ISZERO PUSH3 0x1316 JUMPI PUSH0 DUP2 PUSH0 SWAP1 SSTORE POP PUSH1 0x1 ADD PUSH3 0x12FE JUMP JUMPDEST POP SWAP1 JUMP JUMPDEST PUSH0 DUP3 DUP3 MSTORE PUSH1 0x20 DUP3 ADD SWAP1 POP SWAP3 SWAP2 POP POP JUMP JUMPDEST PUSH32 0x43616E6E6F7420736574206F776E657220746F207A65726F0000000000000000 PUSH0 DUP3 ADD MSTORE POP JUMP JUMPDEST PUSH0 PUSH3 0x1360 PUSH1 0x18 DUP4 PUSH3 0x131A JUMP JUMPDEST SWAP2 POP PUSH3 0x136D DUP3 PUSH3 0x132A JUMP JUMPDEST PUSH1 0x20 DUP3 ADD SWAP1 POP SWAP2 SWAP1 POP JUMP JUMPDEST PUSH0 PUSH1 0x20 DUP3 ADD SWAP1 POP DUP2 DUP2 SUB PUSH0 DUP4 ADD MSTORE PUSH3 0x1391 DUP2 PUSH3 0x1352 JUMP JUMPDEST SWAP1 POP SWAP2 SWAP1 POP JUMP JUMPDEST PUSH32 0x43616E6E6F74207472616E7366657220746F2073656C66000000000000000000 PUSH0 DUP3 ADD MSTORE POP JUMP JUMPDEST PUSH0 PUSH3 0x13CE PUSH1 0x17 DUP4 PUSH3 0x131A JUMP JUMPDEST SWAP2 POP PUSH3 0x13DB DUP3 PUSH3 0x1398 JUMP JUMPDEST PUSH1 0x20 DUP3 ADD SWAP1 POP SWAP2 SWAP1 POP JUMP JUMPDEST PUSH0 PUSH1 0x20 DUP3 ADD SWAP1 POP DUP2 DUP2 SUB PUSH0 DUP4 ADD MSTORE PUSH3 0x13FF DUP2 PUSH3 0x13C0 JUMP JUMPDEST SWAP1 POP SWAP2 SWAP1 POP JUMP JUMPDEST PUSH1 0x80 MLOAD PUSH1 0xA0 MLOAD PUSH2 0x5497 PUSH3 0x1444 PUSH0 CODECOPY PUSH0 DUP2 DUP2 PUSH2 0x10CF ADD MSTORE DUP2 DUP2 PUSH2 0x38A6 ADD MSTORE DUP2 DUP2 PUSH2 0x3C6F ADD MSTORE DUP2 DUP2 PUSH2 0x3C90 ADD MSTORE PUSH2 0x3DAB ADD MSTORE PUSH0 PUSH2 0x3C33 ADD MSTORE PUSH2 0x5497 PUSH0 RETURN INVALID PUSH1 0x80 PUSH1 0x40 MSTORE PUSH1 0x4 CALLDATASIZE LT PUSH2 0x2AD JUMPI PUSH0 CALLDATALOAD PUSH1 0xE0 SHR DUP1 PUSH4 0x99D794F3 GT PUSH2 0x174 JUMPI DUP1 PUSH4 0xCAA0487C GT PUSH2 0xDB JUMPI DUP1 PUSH4 0xEB2A0472 GT PUSH2 0x94 JUMPI DUP1 PUSH4 0xF59F822D GT PUSH2 0x6E JUMPI DUP1 PUSH4 0xF59F822D EQ PUSH2 0x927 JUMPI DUP1 PUSH4 0xFD5C6B6E EQ PUSH2 0x94F JUMPI DUP1 PUSH4 0xFE40DA03 EQ PUSH2 0x977 JUMPI DUP1 PUSH4 0xFE6B690C EQ PUSH2 0x9A1 JUMPI PUSH2 0x2AD JUMP JUMPDEST DUP1 PUSH4 0xEB2A0472 EQ PUSH2 0x8AB JUMPI DUP1 PUSH4 0xF10CFF96 EQ PUSH2 0x8D5 JUMPI DUP1 PUSH4 0xF2FDE38B EQ PUSH2 0x8FF JUMPI PUSH2 0x2AD JUMP JUMPDEST DUP1 PUSH4 0xCAA0487C EQ PUSH2 0x7DF JUMPI DUP1 PUSH4 0xCAA7D83A EQ PUSH2 0x809 JUMPI DUP1 PUSH4 0xD7BB99BA EQ PUSH2 0x845 JUMPI DUP1 PUSH4 0xDEDDA019 EQ PUSH2 0x84F JUMPI DUP1 PUSH4 0xE2076D11 EQ PUSH2 0x859 JUMPI DUP1 PUSH4 0xE33FE993 EQ PUSH2 0x881 JUMPI PUSH2 0x2AD JUMP JUMPDEST DUP1 PUSH4 0xAD8A8260 GT PUSH2 0x12D JUMPI DUP1 PUSH4 0xAD8A8260 EQ PUSH2 0x6E7 JUMPI DUP1 PUSH4 0xB062A203 EQ PUSH2 0x711 JUMPI DUP1 PUSH4 0xB2967E95 EQ PUSH2 0x73B JUMPI DUP1 PUSH4 0xB377CB1F EQ PUSH2 0x765 JUMPI DUP1 PUSH4 0xB5AFA603 EQ PUSH2 0x78D JUMPI DUP1 PUSH4 0xC24611E3 EQ PUSH2 0x7B7 JUMPI PUSH2 0x2AD JUMP JUMPDEST DUP1 PUSH4 0x99D794F3 EQ PUSH2 0x60F JUMPI DUP1 PUSH4 0x9EAA8867 EQ PUSH2 0x639 JUMPI DUP1 PUSH4 0xA37E4974 EQ PUSH2 0x643 JUMPI DUP1 PUSH4 0xA82650BD EQ PUSH2 0x66B JUMPI DUP1 PUSH4 0xAAF836FF EQ PUSH2 0x695 JUMPI DUP1 PUSH4 0xABD28B5A EQ PUSH2 0x6BF JUMPI PUSH2 0x2AD JUMP JUMPDEST DUP1 PUSH4 0x563D71F7 GT PUSH2 0x218 JUMPI DUP1 PUSH4 0x7E90FB00 GT PUSH2 0x1D1 JUMPI DUP1 PUSH4 0x7E90FB00 EQ PUSH2 0x555 JUMPI DUP1 PUSH4 0x84542D69 EQ PUSH2 0x57F JUMPI DUP1 PUSH4 0x88E99069 EQ PUSH2 0x589 JUMPI DUP1 PUSH4 0x8DA5CB5B EQ PUSH2 0x5B1 JUMPI DUP1 PUSH4 0x8F69D52C EQ PUSH2 0x5DB JUMPI DUP1 PUSH4 0x9593E8D6 EQ PUSH2 0x605 JUMPI PUSH2 0x2AD JUMP JUMPDEST DUP1 PUSH4 0x563D71F7 EQ PUSH2 0x45D JUMPI DUP1 PUSH4 0x5C7CDC75 EQ PUSH2 0x487 JUMPI DUP1 PUSH4 0x70381729 EQ PUSH2 0x4AF JUMPI DUP1 PUSH4 0x7316A662 EQ PUSH2 0x4D9 JUMPI DUP1 PUSH4 0x7773EA66 EQ PUSH2 0x515 JUMPI DUP1 PUSH4 0x79BA5097 EQ PUSH2 0x53F JUMPI PUSH2 0x2AD JUMP JUMPDEST DUP1 PUSH4 0x3DF7231D GT PUSH2 0x26A JUMPI DUP1 PUSH4 0x3DF7231D EQ PUSH2 0x37D JUMPI DUP1 PUSH4 0x4289A510 EQ PUSH2 0x3A5 JUMPI DUP1 PUSH4 0x4342DA8F EQ PUSH2 0x3BB JUMPI DUP1 PUSH4 0x4EFD1F67 EQ PUSH2 0x3E3 JUMPI DUP1 PUSH4 0x50DFD89A EQ PUSH2 0x40B JUMPI DUP1 PUSH4 0x5521F39D EQ PUSH2 0x435 JUMPI PUSH2 0x2AD JUMP JUMPDEST DUP1 PUSH4 0xD616D20 EQ PUSH2 0x2B1 JUMPI DUP1 PUSH4 0x11D1F45F EQ PUSH2 0x2C7 JUMPI DUP1 PUSH4 0x1FE543E3 EQ PUSH2 0x2EF JUMPI DUP1 PUSH4 0x233EB6C8 EQ PUSH2 0x317 JUMPI DUP1 PUSH4 0x37B5689F EQ PUSH2 0x33F JUMPI DUP1 PUSH4 0x3C6E5310 EQ PUSH2 0x367 JUMPI JUMPDEST PUSH0 DUP1 REVERT JUMPDEST CALLVALUE DUP1 ISZERO PUSH2 0x2BC JUMPI PUSH0 DUP1 REVERT JUMPDEST POP PUSH2 0x2C5 PUSH2 0x9B7 JUMP JUMPDEST STOP JUMPDEST CALLVALUE DUP1 ISZERO PUSH2 0x2D2 JUMPI PUSH0 DUP1 REVERT JUMPDEST POP PUSH2 0x2ED PUSH1 0x4 DUP1 CALLDATASIZE SUB DUP2 ADD SWAP1 PUSH2 0x2E8 SWAP2 SWAP1 PUSH2 0x3EED JUMP JUMPDEST PUSH2 0xD89 JUMP JUMPDEST STOP JUMPDEST CALLVALUE DUP1 ISZERO PUSH2 0x2FA JUMPI PUSH0 DUP1 REVERT JUMPDEST POP PUSH2 0x315 PUSH1 0x4 DUP1 CALLDATASIZE SUB DUP2 ADD SWAP1 PUSH2 0x310 SWAP2 SWAP1 PUSH2 0x409B JUMP JUMPDEST PUSH2 0x10CD JUMP JUMPDEST STOP JUMPDEST CALLVALUE DUP1 ISZERO PUSH2 0x322 JUMPI PUSH0 DUP1 REVERT JUMPDEST POP PUSH2 0x33D PUSH1 0x4 DUP1 CALLDATASIZE SUB DUP2 ADD SWAP1 PUSH2 0x338 SWAP2 SWAP1 PUSH2 0x3EED JUMP JUMPDEST PUSH2 0x1169 JUMP JUMPDEST STOP JUMPDEST CALLVALUE DUP1 ISZERO PUSH2 0x34A JUMPI PUSH0 DUP1 REVERT JUMPDEST POP PUSH2 0x365 PUSH1 0x4 DUP1 CALLDATASIZE SUB DUP2 ADD SWAP1 PUSH2 0x360 SWAP2 SWAP1 PUSH2 0x414F JUMP JUMPDEST PUSH2 0x1190 JUMP JUMPDEST STOP JUMPDEST CALLVALUE DUP1 ISZERO PUSH2 0x372 JUMPI PUSH0 DUP1 REVERT JUMPDEST POP PUSH2 0x37B PUSH2 0x123C JUMP JUMPDEST STOP JUMPDEST CALLVALUE DUP1 ISZERO PUSH2 0x388 JUMPI PUSH0 DUP1 REVERT JUMPDEST POP PUSH2 0x3A3 PUSH1 0x4 DUP1 CALLDATASIZE SUB DUP2 ADD SWAP1 PUSH2 0x39E SWAP2 SWAP1 PUSH2 0x3EED JUMP JUMPDEST PUSH2 0x1919 JUMP JUMPDEST STOP JUMPDEST CALLVALUE DUP1 ISZERO PUSH2 0x3B0 JUMPI PUSH0 DUP1 REVERT JUMPDEST POP PUSH2 0x3B9 PUSH2 0x1941 JUMP JUMPDEST STOP JUMPDEST CALLVALUE DUP1 ISZERO PUSH2 0x3C6 JUMPI PUSH0 DUP1 REVERT JUMPDEST POP PUSH2 0x3E1 PUSH1 0x4 DUP1 CALLDATASIZE SUB DUP2 ADD SWAP1 PUSH2 0x3DC SWAP2 SWAP1 PUSH2 0x414F JUMP JUMPDEST PUSH2 0x1B6C JUMP JUMPDEST STOP JUMPDEST CALLVALUE DUP1 ISZERO PUSH2 0x3EE JUMPI PUSH0 DUP1 REVERT JUMPDEST POP PUSH2 0x409 PUSH1 0x4 DUP1 CALLDATASIZE SUB DUP2 ADD SWAP1 PUSH2 0x404 SWAP2 SWAP1 PUSH2 0x3EED JUMP JUMPDEST PUSH2 0x1C35 JUMP JUMPDEST STOP JUMPDEST CALLVALUE DUP1 ISZERO PUSH2 0x416 JUMPI PUSH0 DUP1 REVERT JUMPDEST POP PUSH2 0x41F PUSH2 0x1C5D JUMP JUMPDEST PUSH1 0x40 MLOAD PUSH2 0x42C SWAP2 SWAP1 PUSH2 0x4189 JUMP JUMPDEST PUSH1 0x40 MLOAD DUP1 SWAP2 SUB SWAP1 RETURN JUMPDEST CALLVALUE DUP1 ISZERO PUSH2 0x440 JUMPI PUSH0 DUP1 REVERT JUMPDEST POP PUSH2 0x45B PUSH1 0x4 DUP1 CALLDATASIZE SUB DUP2 ADD SWAP1 PUSH2 0x456 SWAP2 SWAP1 PUSH2 0x3EED JUMP JUMPDEST PUSH2 0x1C71 JUMP JUMPDEST STOP JUMPDEST CALLVALUE DUP1 ISZERO PUSH2 0x468 JUMPI PUSH0 DUP1 REVERT JUMPDEST POP PUSH2 0x471 PUSH2 0x1C99 JUMP JUMPDEST PUSH1 0x40 MLOAD PUSH2 0x47E SWAP2 SWAP1 PUSH2 0x4189 JUMP JUMPDEST PUSH1 0x40 MLOAD DUP1 SWAP2 SUB SWAP1 RETURN JUMPDEST CALLVALUE DUP1 ISZERO PUSH2 0x492 JUMPI PUSH0 DUP1 REVERT JUMPDEST POP PUSH2 0x4AD PUSH1 0x4 DUP1 CALLDATASIZE SUB DUP2 ADD SWAP1 PUSH2 0x4A8 SWAP2 SWAP1 PUSH2 0x3EED JUMP JUMPDEST PUSH2 0x1CAD JUMP JUMPDEST STOP JUMPDEST CALLVALUE DUP1 ISZERO PUSH2 0x4BA JUMPI PUSH0 DUP1 REVERT JUMPDEST POP PUSH2 0x4C3 PUSH2 0x1CD5 JUMP JUMPDEST PUSH1 0x40 MLOAD PUSH2 0x4D0 SWAP2 SWAP1 PUSH2 0x4189 JUMP JUMPDEST PUSH1 0x40 MLOAD DUP1 SWAP2 SUB SWAP1 RETURN JUMPDEST CALLVALUE DUP1 ISZERO PUSH2 0x4E4 JUMPI PUSH0 DUP1 REVERT JUMPDEST POP PUSH2 0x4FF PUSH1 0x4 DUP1 CALLDATASIZE SUB DUP2 ADD SWAP1 PUSH2 0x4FA SWAP2 SWAP1 PUSH2 0x414F JUMP JUMPDEST PUSH2 0x1CE9 JUMP JUMPDEST PUSH1 0x40 MLOAD PUSH2 0x50C SWAP2 SWAP1 PUSH2 0x41B1 JUMP JUMPDEST PUSH1 0x40 MLOAD DUP1 SWAP2 SUB SWAP1 RETURN JUMPDEST CALLVALUE DUP1 ISZERO PUSH2 0x520 JUMPI PUSH0 DUP1 REVERT JUMPDEST POP PUSH2 0x529 PUSH2 0x1CFE JUMP JUMPDEST PUSH1 0x40 MLOAD PUSH2 0x536 SWAP2 SWAP1 PUSH2 0x4189 JUMP JUMPDEST PUSH1 0x40 MLOAD DUP1 SWAP2 SUB SWAP1 RETURN JUMPDEST CALLVALUE DUP1 ISZERO PUSH2 0x54A JUMPI PUSH0 DUP1 REVERT JUMPDEST POP PUSH2 0x553 PUSH2 0x1D12 JUMP JUMPDEST STOP JUMPDEST CALLVALUE DUP1 ISZERO PUSH2 0x560 JUMPI PUSH0 DUP1 REVERT JUMPDEST POP PUSH2 0x569 PUSH2 0x1EA1 JUMP JUMPDEST PUSH1 0x40 MLOAD PUSH2 0x576 SWAP2 SWAP1 PUSH2 0x4189 JUMP JUMPDEST PUSH1 0x40 MLOAD DUP1 SWAP2 SUB SWAP1 RETURN JUMPDEST PUSH2 0x587 PUSH2 0x1EB5 JUMP JUMPDEST STOP JUMPDEST CALLVALUE DUP1 ISZERO PUSH2 0x594 JUMPI PUSH0 DUP1 REVERT JUMPDEST POP PUSH2 0x5AF PUSH1 0x4 DUP1 CALLDATASIZE SUB DUP2 ADD SWAP1 PUSH2 0x5AA SWAP2 SWAP1 PUSH2 0x3EED JUMP JUMPDEST PUSH2 0x213A JUMP JUMPDEST STOP JUMPDEST CALLVALUE DUP1 ISZERO PUSH2 0x5BC JUMPI PUSH0 DUP1 REVERT JUMPDEST POP PUSH2 0x5C5 PUSH2 0x2162 JUMP JUMPDEST PUSH1 0x40 MLOAD PUSH2 0x5D2 SWAP2 SWAP1 PUSH2 0x41D9 JUMP JUMPDEST PUSH1 0x40 MLOAD DUP1 SWAP2 SUB SWAP1 RETURN JUMPDEST CALLVALUE DUP1 ISZERO PUSH2 0x5E6 JUMPI PUSH0 DUP1 REVERT JUMPDEST POP PUSH2 0x5EF PUSH2 0x2189 JUMP JUMPDEST PUSH1 0x40 MLOAD PUSH2 0x5FC SWAP2 SWAP1 PUSH2 0x420D JUMP JUMPDEST PUSH1 0x40 MLOAD DUP1 SWAP2 SUB SWAP1 RETURN JUMPDEST PUSH2 0x60D PUSH2 0x219C JUMP JUMPDEST STOP JUMPDEST CALLVALUE DUP1 ISZERO PUSH2 0x61A JUMPI PUSH0 DUP1 REVERT JUMPDEST POP PUSH2 0x623 PUSH2 0x2420 JUMP JUMPDEST PUSH1 0x40 MLOAD PUSH2 0x630 SWAP2 SWAP1 PUSH2 0x4189 JUMP JUMPDEST PUSH1 0x40 MLOAD DUP1 SWAP2 SUB SWAP1 RETURN JUMPDEST PUSH2 0x641 PUSH2 0x2434 JUMP JUMPDEST STOP JUMPDEST CALLVALUE DUP1 ISZERO PUSH2 0x64E JUMPI PUSH0 DUP1 REVERT JUMPDEST POP PUSH2 0x669 PUSH1 0x4 DUP1 CALLDATASIZE SUB DUP2 ADD SWAP1 PUSH2 0x664 SWAP2 SWAP1 PUSH2 0x3EED JUMP JUMPDEST PUSH2 0x26B7 JUMP JUMPDEST STOP JUMPDEST CALLVALUE DUP1 ISZERO PUSH2 0x676 JUMPI PUSH0 DUP1 REVERT JUMPDEST POP PUSH2 0x67F PUSH2 0x26DF JUMP JUMPDEST PUSH1 0x40 MLOAD PUSH2 0x68C SWAP2 SWAP1 PUSH2 0x4189 JUMP JUMPDEST PUSH1 0x40 MLOAD DUP1 SWAP2 SUB SWAP1 RETURN JUMPDEST CALLVALUE DUP1 ISZERO PUSH2 0x6A0 JUMPI PUSH0 DUP1 REVERT JUMPDEST POP PUSH2 0x6A9 PUSH2 0x26F3 JUMP JUMPDEST PUSH1 0x40 MLOAD PUSH2 0x6B6 SWAP2 SWAP1 PUSH2 0x41D9 JUMP JUMPDEST PUSH1 0x40 MLOAD DUP1 SWAP2 SUB SWAP1 RETURN JUMPDEST CALLVALUE DUP1 ISZERO PUSH2 0x6CA JUMPI PUSH0 DUP1 REVERT JUMPDEST POP PUSH2 0x6E5 PUSH1 0x4 DUP1 CALLDATASIZE SUB DUP2 ADD SWAP1 PUSH2 0x6E0 SWAP2 SWAP1 PUSH2 0x3EED JUMP JUMPDEST PUSH2 0x2718 JUMP JUMPDEST STOP JUMPDEST CALLVALUE DUP1 ISZERO PUSH2 0x6F2 JUMPI PUSH0 DUP1 REVERT JUMPDEST POP PUSH2 0x6FB PUSH2 0x2740 JUMP JUMPDEST PUSH1 0x40 MLOAD PUSH2 0x708 SWAP2 SWAP1 PUSH2 0x4189 JUMP JUMPDEST PUSH1 0x40 MLOAD DUP1 SWAP2 SUB SWAP1 RETURN JUMPDEST CALLVALUE DUP1 ISZERO PUSH2 0x71C JUMPI PUSH0 DUP1 REVERT JUMPDEST POP PUSH2 0x725 PUSH2 0x2754 JUMP JUMPDEST PUSH1 0x40 MLOAD PUSH2 0x732 SWAP2 SWAP1 PUSH2 0x4189 JUMP JUMPDEST PUSH1 0x40 MLOAD DUP1 SWAP2 SUB SWAP1 RETURN JUMPDEST CALLVALUE DUP1 ISZERO PUSH2 0x746 JUMPI PUSH0 DUP1 REVERT JUMPDEST POP PUSH2 0x74F PUSH2 0x2768 JUMP JUMPDEST PUSH1 0x40 MLOAD PUSH2 0x75C SWAP2 SWAP1 PUSH2 0x4189 JUMP JUMPDEST PUSH1 0x40 MLOAD DUP1 SWAP2 SUB SWAP1 RETURN JUMPDEST CALLVALUE DUP1 ISZERO PUSH2 0x770 JUMPI PUSH0 DUP1 REVERT JUMPDEST POP PUSH2 0x78B PUSH1 0x4 DUP1 CALLDATASIZE SUB DUP2 ADD SWAP1 PUSH2 0x786 SWAP2 SWAP1 PUSH2 0x3EED JUMP JUMPDEST PUSH2 0x277C JUMP JUMPDEST STOP JUMPDEST CALLVALUE DUP1 ISZERO PUSH2 0x798 JUMPI PUSH0 DUP1 REVERT JUMPDEST POP PUSH2 0x7A1 PUSH2 0x27A3 JUMP JUMPDEST PUSH1 0x40 MLOAD PUSH2 0x7AE SWAP2 SWAP1 PUSH2 0x4189 JUMP JUMPDEST PUSH1 0x40 MLOAD DUP1 SWAP2 SUB SWAP1 RETURN JUMPDEST CALLVALUE DUP1 ISZERO PUSH2 0x7C2 JUMPI PUSH0 DUP1 REVERT JUMPDEST POP PUSH2 0x7DD PUSH1 0x4 DUP1 CALLDATASIZE SUB DUP2 ADD SWAP1 PUSH2 0x7D8 SWAP2 SWAP1 PUSH2 0x4250 JUMP JUMPDEST PUSH2 0x27B6 JUMP JUMPDEST STOP JUMPDEST CALLVALUE DUP1 ISZERO PUSH2 0x7EA JUMPI PUSH0 DUP1 REVERT JUMPDEST POP PUSH2 0x7F3 PUSH2 0x27DC JUMP JUMPDEST PUSH1 0x40 MLOAD PUSH2 0x800 SWAP2 SWAP1 PUSH2 0x4189 JUMP JUMPDEST PUSH1 0x40 MLOAD DUP1 SWAP2 SUB SWAP1 RETURN JUMPDEST CALLVALUE DUP1 ISZERO PUSH2 0x814 JUMPI PUSH0 DUP1 REVERT JUMPDEST POP PUSH2 0x82F PUSH1 0x4 DUP1 CALLDATASIZE SUB DUP2 ADD SWAP1 PUSH2 0x82A SWAP2 SWAP1 PUSH2 0x414F JUMP JUMPDEST PUSH2 0x27F0 JUMP JUMPDEST PUSH1 0x40 MLOAD PUSH2 0x83C SWAP2 SWAP1 PUSH2 0x41B1 JUMP JUMPDEST PUSH1 0x40 MLOAD DUP1 SWAP2 SUB SWAP1 RETURN JUMPDEST PUSH2 0x84D PUSH2 0x2805 JUMP JUMPDEST STOP JUMPDEST PUSH2 0x857 PUSH2 0x2B0A JUMP JUMPDEST STOP JUMPDEST CALLVALUE DUP1 ISZERO PUSH2 0x864 JUMPI PUSH0 DUP1 REVERT JUMPDEST POP PUSH2 0x87F PUSH1 0x4 DUP1 CALLDATASIZE SUB DUP2 ADD SWAP1 PUSH2 0x87A SWAP2 SWAP1 PUSH2 0x3EED JUMP JUMPDEST PUSH2 0x2D8F JUMP JUMPDEST STOP JUMPDEST CALLVALUE DUP1 ISZERO PUSH2 0x88C JUMPI PUSH0 DUP1 REVERT JUMPDEST POP PUSH2 0x895 PUSH2 0x2DB7 JUMP JUMPDEST PUSH1 0x40 MLOAD PUSH2 0x8A2 SWAP2 SWAP1 PUSH2 0x4189 JUMP JUMPDEST PUSH1 0x40 MLOAD DUP1 SWAP2 SUB SWAP1 RETURN JUMPDEST CALLVALUE DUP1 ISZERO PUSH2 0x8B6 JUMPI PUSH0 DUP1 REVERT JUMPDEST POP PUSH2 0x8BF PUSH2 0x2DCB JUMP JUMPDEST PUSH1 0x40 MLOAD PUSH2 0x8CC SWAP2 SWAP1 PUSH2 0x4189 JUMP JUMPDEST PUSH1 0x40 MLOAD DUP1 SWAP2 SUB SWAP1 RETURN JUMPDEST CALLVALUE DUP1 ISZERO PUSH2 0x8E0 JUMPI PUSH0 DUP1 REVERT JUMPDEST POP PUSH2 0x8E9 PUSH2 0x2DDF JUMP JUMPDEST PUSH1 0x40 MLOAD PUSH2 0x8F6 SWAP2 SWAP1 PUSH2 0x4189 JUMP JUMPDEST PUSH1 0x40 MLOAD DUP1 SWAP2 SUB SWAP1 RETURN JUMPDEST CALLVALUE DUP1 ISZERO PUSH2 0x90A JUMPI PUSH0 DUP1 REVERT JUMPDEST POP PUSH2 0x925 PUSH1 0x4 DUP1 CALLDATASIZE SUB DUP2 ADD SWAP1 PUSH2 0x920 SWAP2 SWAP1 PUSH2 0x414F JUMP JUMPDEST PUSH2 0x2DF3 JUMP JUMPDEST STOP JUMPDEST CALLVALUE DUP1 ISZERO PUSH2 0x932 JUMPI PUSH0 DUP1 REVERT JUMPDEST POP PUSH2 0x94D PUSH1 0x4 DUP1 CALLDATASIZE SUB DUP2 ADD SWAP1 PUSH2 0x948 SWAP2 SWAP1 PUSH2 0x3EED JUMP JUMPDEST PUSH2 0x2E07 JUMP JUMPDEST STOP JUMPDEST CALLVALUE DUP1 ISZERO PUSH2 0x95A JUMPI PUSH0 DUP1 REVERT JUMPDEST POP PUSH2 0x975 PUSH1 0x4 DUP1 CALLDATASIZE SUB DUP2 ADD SWAP1 PUSH2 0x970 SWAP2 SWAP1 PUSH2 0x3EED JUMP JUMPDEST PUSH2 0x2E2F JUMP JUMPDEST STOP JUMPDEST CALLVALUE DUP1 ISZERO PUSH2 0x982 JUMPI PUSH0 DUP1 REVERT JUMPDEST POP PUSH2 0x98B PUSH2 0x2E57 JUMP JUMPDEST PUSH1 0x40 MLOAD PUSH2 0x998 SWAP2 SWAP1 PUSH2 0x4189 JUMP JUMPDEST PUSH1 0x40 MLOAD DUP1 SWAP2 SUB SWAP1 RETURN JUMPDEST CALLVALUE DUP1 ISZERO PUSH2 0x9AC JUMPI PUSH0 DUP1 REVERT JUMPDEST POP PUSH2 0x9B5 PUSH2 0x2E69 JUMP JUMPDEST STOP JUMPDEST PUSH1 0x10 PUSH0 CALLER PUSH20 0xFFFFFFFFFFFFFFFFFFFFFFFFFFFFFFFFFFFFFFFF AND PUSH20 0xFFFFFFFFFFFFFFFFFFFFFFFFFFFFFFFFFFFFFFFF AND DUP2 MSTORE PUSH1 0x20 ADD SWAP1 DUP2 MSTORE PUSH1 0x20 ADD PUSH0 KECCAK256 PUSH0 SWAP1 SLOAD SWAP1 PUSH2 0x100 EXP SWAP1 DIV PUSH1 0xFF AND ISZERO PUSH2 0xA41 JUMPI PUSH1 0x40 MLOAD PUSH32 0x8C379A000000000000000000000000000000000000000000000000000000000 DUP2 MSTORE PUSH1 0x4 ADD PUSH2 0xA38 SWAP1 PUSH2 0x42D5 JUMP JUMPDEST PUSH1 0x40 MLOAD DUP1 SWAP2 SUB SWAP1 REVERT JUMPDEST PUSH1 0x1 PUSH1 0x10 PUSH0 CALLER PUSH20 0xFFFFFFFFFFFFFFFFFFFFFFFFFFFFFFFFFFFFFFFF AND PUSH20 0xFFFFFFFFFFFFFFFFFFFFFFFFFFFFFFFFFFFFFFFF AND DUP2 MSTORE PUSH1 0x20 ADD SWAP1 DUP2 MSTORE PUSH1 0x20 ADD PUSH0 KECCAK256 PUSH0 PUSH2 0x100 EXP DUP2 SLOAD DUP2 PUSH1 0xFF MUL NOT AND SWAP1 DUP4 ISZERO ISZERO MUL OR SWAP1 SSTORE POP PUSH1 0x6 PUSH1 0x13 SWAP1 SLOAD SWAP1 PUSH2 0x100 EXP SWAP1 DIV PUSH1 0xFF AND PUSH1 0xFF AND PUSH1 0x17 PUSH0 CALLER PUSH20 0xFFFFFFFFFFFFFFFFFFFFFFFFFFFFFFFFFFFFFFFF AND PUSH20 0xFFFFFFFFFFFFFFFFFFFFFFFFFFFFFFFFFFFFFFFF AND DUP2 MSTORE PUSH1 0x20 ADD SWAP1 DUP2 MSTORE PUSH1 0x20 ADD PUSH0 KECCAK256 SLOAD GT PUSH2 0xB27 JUMPI PUSH1 0x40 MLOAD PUSH32 0x8C379A000000000000000000000000000000000000000000000000000000000 DUP2 MSTORE PUSH1 0x4 ADD PUSH2 0xB1E SWAP1 PUSH2 0x4389 JUMP JUMPDEST PUSH1 0x40 MLOAD DUP1 SWAP2 SUB SWAP1 REVERT JUMPDEST PUSH1 0x18 PUSH0 CALLER PUSH20 0xFFFFFFFFFFFFFFFFFFFFFFFFFFFFFFFFFFFFFFFF AND PUSH20 0xFFFFFFFFFFFFFFFFFFFFFFFFFFFFFFFFFFFFFFFF AND DUP2 MSTORE PUSH1 0x20 ADD SWAP1 DUP2 MSTORE PUSH1 0x20 ADD PUSH0 KECCAK256 SLOAD SELFBALANCE GT PUSH2 0xBA6 JUMPI PUSH1 0x40 MLOAD PUSH32 0x8C379A000000000000000000000000000000000000000000000000000000000 DUP2 MSTORE PUSH1 0x4 ADD PUSH2 0xB9D SWAP1 PUSH2 0x43F1 JUMP JUMPDEST PUSH1 0x40 MLOAD DUP1 SWAP2 SUB SWAP1 REVERT JUMPDEST PUSH0 CALLER SWAP1 POP PUSH0 PUSH2 0xBB3 PUSH2 0x3080 JUMP JUMPDEST SWAP1 POP DUP2 PUSH20 0xFFFFFFFFFFFFFFFFFFFFFFFFFFFFFFFFFFFFFFFF AND PUSH2 0x8FC DUP3 SWAP1 DUP2 ISZERO MUL SWAP1 PUSH1 0x40 MLOAD PUSH0 PUSH1 0x40 MLOAD DUP1 DUP4 SUB DUP2 DUP6 DUP9 DUP9 CALL SWAP4 POP POP POP POP ISZERO DUP1 ISZERO PUSH2 0xBF8 JUMPI RETURNDATASIZE PUSH0 DUP1 RETURNDATACOPY RETURNDATASIZE PUSH0 REVERT JUMPDEST POP PUSH0 PUSH1 0x17 PUSH0 DUP5 PUSH20 0xFFFFFFFFFFFFFFFFFFFFFFFFFFFFFFFFFFFFFFFF AND PUSH20 0xFFFFFFFFFFFFFFFFFFFFFFFFFFFFFFFFFFFFFFFF AND DUP2 MSTORE PUSH1 0x20 ADD SWAP1 DUP2 MSTORE PUSH1 0x20 ADD PUSH0 KECCAK256 SLOAD SWAP1 POP PUSH1 0x6 PUSH1 0x13 SWAP1 SLOAD SWAP1 PUSH2 0x100 EXP SWAP1 DIV PUSH1 0xFF AND PUSH1 0xFF AND PUSH1 0x17 PUSH0 DUP6 PUSH20 0xFFFFFFFFFFFFFFFFFFFFFFFFFFFFFFFFFFFFFFFF AND PUSH20 0xFFFFFFFFFFFFFFFFFFFFFFFFFFFFFFFFFFFFFFFF AND DUP2 MSTORE PUSH1 0x20 ADD SWAP1 DUP2 MSTORE PUSH1 0x20 ADD PUSH0 KECCAK256 DUP2 SWAP1 SSTORE POP PUSH1 0x6 PUSH1 0x13 SWAP1 SLOAD SWAP1 PUSH2 0x100 EXP SWAP1 DIV PUSH1 0xFF AND PUSH1 0xFF AND PUSH1 0x18 PUSH0 DUP6 PUSH20 0xFFFFFFFFFFFFFFFFFFFFFFFFFFFFFFFFFFFFFFFF AND PUSH20 0xFFFFFFFFFFFFFFFFFFFFFFFFFFFFFFFFFFFFFFFF AND DUP2 MSTORE PUSH1 0x20 ADD SWAP1 DUP2 MSTORE PUSH1 0x20 ADD PUSH0 KECCAK256 DUP2 SWAP1 SSTORE POP DUP3 PUSH20 0xFFFFFFFFFFFFFFFFFFFFFFFFFFFFFFFFFFFFFFFF AND PUSH32 0xECB269D89BFDED20A4F5E6E51B509DF1E3309A995946C9BE8D6A8E2DDFA6B89C DUP3 PUSH1 0x40 MLOAD PUSH2 0xD28 SWAP2 SWAP1 PUSH2 0x447F JUMP JUMPDEST PUSH1 0x40 MLOAD DUP1 SWAP2 SUB SWAP1 LOG2 POP POP POP PUSH0 PUSH1 0x10 PUSH0 CALLER PUSH20 0xFFFFFFFFFFFFFFFFFFFFFFFFFFFFFFFFFFFFFFFF AND PUSH20 0xFFFFFFFFFFFFFFFFFFFFFFFFFFFFFFFFFFFFFFFF AND DUP2 MSTORE PUSH1 0x20 ADD SWAP1 DUP2 MSTORE PUSH1 0x20 ADD PUSH0 KECCAK256 PUSH0 PUSH2 0x100 EXP DUP2 SLOAD DUP2 PUSH1 0xFF MUL NOT AND SWAP1 DUP4 ISZERO ISZERO MUL OR SWAP1 SSTORE POP JUMP JUMPDEST PUSH1 0x3 SLOAD DUP2 PUSH2 0xFFFF AND PUSH2 0xD9B SWAP2 SWAP1 PUSH2 0x44D8 JUMP JUMPDEST DUP1 PUSH1 0x1C PUSH0 SWAP1 SLOAD SWAP1 PUSH2 0x100 EXP SWAP1 DIV PUSH20 0xFFFFFFFFFFFFFFFFFFFFFFFFFFFFFFFFFFFFFFFF AND PUSH20 0xFFFFFFFFFFFFFFFFFFFFFFFFFFFFFFFFFFFFFFFF AND PUSH4 0xDD62ED3E CALLER ADDRESS PUSH1 0x40 MLOAD DUP4 PUSH4 0xFFFFFFFF AND PUSH1 0xE0 SHL DUP2 MSTORE PUSH1 0x4 ADD PUSH2 0xDF8 SWAP3 SWAP2 SWAP1 PUSH2 0x4519 JUMP JUMPDEST PUSH1 0x20 PUSH1 0x40 MLOAD DUP1 DUP4 SUB DUP2 DUP7 GAS STATICCALL ISZERO DUP1 ISZERO PUSH2 0xE13 JUMPI RETURNDATASIZE PUSH0 DUP1 RETURNDATACOPY RETURNDATASIZE PUSH0 REVERT JUMPDEST POP POP POP POP PUSH1 0x40 MLOAD RETURNDATASIZE PUSH1 0x1F NOT PUSH1 0x1F DUP3 ADD AND DUP3 ADD DUP1 PUSH1 0x40 MSTORE POP DUP2 ADD SWAP1 PUSH2 0xE37 SWAP2 SWAP1 PUSH2 0x4554 JUMP JUMPDEST LT ISZERO PUSH2 0xE78 JUMPI PUSH1 0x40 MLOAD PUSH32 0x8C379A000000000000000000000000000000000000000000000000000000000 DUP2 MSTORE PUSH1 0x4 ADD PUSH2 0xE6F SWAP1 PUSH2 0x45C9 JUMP JUMPDEST PUSH1 0x40 MLOAD DUP1 SWAP2 SUB SWAP1 REVERT JUMPDEST PUSH1 0x2 PUSH1 0x4 SWAP1 SLOAD SWAP1 PUSH2 0x100 EXP SWAP1 DIV PUSH2 0xFFFF AND PUSH2 0xFFFF AND PUSH1 0x1C PUSH0 SWAP1 SLOAD SWAP1 PUSH2 0x100 EXP SWAP1 DIV PUSH20 0xFFFFFFFFFFFFFFFFFFFFFFFFFFFFFFFFFFFFFFFF AND PUSH20 0xFFFFFFFFFFFFFFFFFFFFFFFFFFFFFFFFFFFFFFFF AND PUSH4 0x70A08231 CALLER PUSH1 0x40 MLOAD DUP3 PUSH4 0xFFFFFFFF AND PUSH1 0xE0 SHL DUP2 MSTORE PUSH1 0x4 ADD PUSH2 0xEE7 SWAP2 SWAP1 PUSH2 0x41D9 JUMP JUMPDEST PUSH1 0x20 PUSH1 0x40 MLOAD DUP1 DUP4 SUB DUP2 DUP7 GAS STATICCALL ISZERO DUP1 ISZERO PUSH2 0xF02 JUMPI RETURNDATASIZE PUSH0 DUP1 RETURNDATACOPY RETURNDATASIZE PUSH0 REVERT JUMPDEST POP POP POP POP PUSH1 0x40 MLOAD RETURNDATASIZE PUSH1 0x1F NOT PUSH1 0x1F DUP3 ADD AND DUP3 ADD DUP1 PUSH1 0x40 MSTORE POP DUP2 ADD SWAP1 PUSH2 0xF26 SWAP2 SWAP1 PUSH2 0x4554 JUMP JUMPDEST LT ISZERO PUSH2 0xF67 JUMPI PUSH1 0x40 MLOAD PUSH32 0x8C379A000000000000000000000000000000000000000000000000000000000 DUP2 MSTORE PUSH1 0x4 ADD PUSH2 0xF5E SWAP1 PUSH2 0x4631 JUMP JUMPDEST PUSH1 0x40 MLOAD DUP1 SWAP2 SUB SWAP1 REVERT JUMPDEST PUSH0 CALLER SWAP1 POP PUSH1 0x1C PUSH0 SWAP1 SLOAD SWAP1 PUSH2 0x100 EXP SWAP1 DIV PUSH20 0xFFFFFFFFFFFFFFFFFFFFFFFFFFFFFFFFFFFFFFFF AND PUSH20 0xFFFFFFFFFFFFFFFFFFFFFFFFFFFFFFFFFFFFFFFF AND PUSH4 0x23B872DD DUP3 ADDRESS PUSH1 0x3 SLOAD DUP8 PUSH2 0xFFFF AND PUSH2 0xFBC SWAP2 SWAP1 PUSH2 0x44D8 JUMP JUMPDEST PUSH1 0x40 MLOAD DUP5 PUSH4 0xFFFFFFFF AND PUSH1 0xE0 SHL DUP2 MSTORE PUSH1 0x4 ADD PUSH2 0xFDA SWAP4 SWAP3 SWAP2 SWAP1 PUSH2 0x464F JUMP JUMPDEST PUSH1 0x20 PUSH1 0x40 MLOAD DUP1 DUP4 SUB DUP2 PUSH0 DUP8 GAS CALL ISZERO DUP1 ISZERO PUSH2 0xFF6 JUMPI RETURNDATASIZE PUSH0 DUP1 RETURNDATACOPY RETURNDATASIZE PUSH0 REVERT JUMPDEST POP POP POP POP PUSH1 0x40 MLOAD RETURNDATASIZE PUSH1 0x1F NOT PUSH1 0x1F DUP3 ADD AND DUP3 ADD DUP1 PUSH1 0x40 MSTORE POP DUP2 ADD SWAP1 PUSH2 0x101A SWAP2 SWAP1 PUSH2 0x46B9 JUMP JUMPDEST POP PUSH0 PUSH2 0x1081 PUSH1 0x2 PUSH1 0x8 SWAP1 SLOAD SWAP1 PUSH2 0x100 EXP SWAP1 DIV PUSH2 0xFFFF AND PUSH2 0xFFFF AND PUSH1 0x4 SLOAD PUSH1 0x2 PUSH1 0x4 SWAP1 SLOAD SWAP1 PUSH2 0x100 EXP SWAP1 DIV PUSH2 0xFFFF AND PUSH2 0xFFFF AND PUSH1 0x4 SLOAD DUP9 PUSH2 0xFFFF AND PUSH2 0x105E SWAP2 SWAP1 PUSH2 0x44D8 JUMP JUMPDEST PUSH2 0x1068 SWAP2 SWAP1 PUSH2 0x4711 JUMP JUMPDEST PUSH2 0x1072 SWAP2 SWAP1 PUSH2 0x4711 JUMP JUMPDEST PUSH2 0x107C SWAP2 SWAP1 PUSH2 0x44D8 JUMP JUMPDEST PUSH2 0x33CD JUMP JUMPDEST SWAP1 POP DUP2 PUSH20 0xFFFFFFFFFFFFFFFFFFFFFFFFFFFFFFFFFFFFFFFF AND PUSH2 0x8FC DUP3 SWAP1 DUP2 ISZERO MUL SWAP1 PUSH1 0x40 MLOAD PUSH0 PUSH1 0x40 MLOAD DUP1 DUP4 SUB DUP2 DUP6 DUP9 DUP9 CALL SWAP4 POP POP POP POP ISZERO DUP1 ISZERO PUSH2 0x10C6 JUMPI RETURNDATASIZE PUSH0 DUP1 RETURNDATACOPY RETURNDATASIZE PUSH0 REVERT JUMPDEST POP POP POP POP POP JUMP JUMPDEST PUSH32 0x0 PUSH20 0xFFFFFFFFFFFFFFFFFFFFFFFFFFFFFFFFFFFFFFFF AND CALLER PUSH20 0xFFFFFFFFFFFFFFFFFFFFFFFFFFFFFFFFFFFFFFFF AND EQ PUSH2 0x115B JUMPI PUSH1 0x40 MLOAD PUSH32 0x8C379A000000000000000000000000000000000000000000000000000000000 DUP2 MSTORE PUSH1 0x4 ADD PUSH2 0x1152 SWAP1 PUSH2 0x478B JUMP JUMPDEST PUSH1 0x40 MLOAD DUP1 SWAP2 SUB SWAP1 REVERT JUMPDEST PUSH2 0x1165 DUP3 DUP3 PUSH2 0x3419 JUMP JUMPDEST POP POP JUMP JUMPDEST PUSH2 0x1171 PUSH2 0x34D9 JUMP JUMPDEST DUP1 PUSH1 0x2 PUSH0 PUSH2 0x100 EXP DUP2 SLOAD DUP2 PUSH2 0xFFFF MUL NOT AND SWAP1 DUP4 PUSH2 0xFFFF AND MUL OR SWAP1 SSTORE POP POP JUMP JUMPDEST PUSH2 0x1198 PUSH2 0x34D9 JUMP JUMPDEST DUP1 PUSH1 0xB PUSH0 PUSH2 0x100 EXP DUP2 SLOAD DUP2 PUSH20 0xFFFFFFFFFFFFFFFFFFFFFFFFFFFFFFFFFFFFFFFF MUL NOT AND SWAP1 DUP4 PUSH20 0xFFFFFFFFFFFFFFFFFFFFFFFFFFFFFFFFFFFFFFFF AND MUL OR SWAP1 SSTORE POP PUSH1 0xB PUSH0 SWAP1 SLOAD SWAP1 PUSH2 0x100 EXP SWAP1 DIV PUSH20 0xFFFFFFFFFFFFFFFFFFFFFFFFFFFFFFFFFFFFFFFF AND PUSH1 0x1C PUSH0 PUSH2 0x100 EXP DUP2 SLOAD DUP2 PUSH20 0xFFFFFFFFFFFFFFFFFFFFFFFFFFFFFFFFFFFFFFFF MUL NOT AND SWAP1 DUP4 PUSH20 0xFFFFFFFFFFFFFFFFFFFFFFFFFFFFFFFFFFFFFFFF AND MUL OR SWAP1 SSTORE POP POP JUMP JUMPDEST PUSH1 0x1 ISZERO ISZERO PUSH1 0x13 PUSH0 CALLER PUSH20 0xFFFFFFFFFFFFFFFFFFFFFFFFFFFFFFFFFFFFFFFF AND PUSH20 0xFFFFFFFFFFFFFFFFFFFFFFFFFFFFFFFFFFFFFFFF AND DUP2 MSTORE PUSH1 0x20 ADD SWAP1 DUP2 MSTORE PUSH1 0x20 ADD PUSH0 KECCAK256 PUSH0 SWAP1 SLOAD SWAP1 PUSH2 0x100 EXP SWAP1 DIV PUSH1 0xFF AND ISZERO ISZERO EQ PUSH2 0x12CC JUMPI PUSH1 0x40 MLOAD PUSH32 0x8C379A000000000000000000000000000000000000000000000000000000000 DUP2 MSTORE PUSH1 0x4 ADD PUSH2 0x12C3 SWAP1 PUSH2 0x47F3 JUMP JUMPDEST PUSH1 0x40 MLOAD DUP1 SWAP2 SUB SWAP1 REVERT JUMPDEST PUSH1 0x16 PUSH0 CALLER PUSH20 0xFFFFFFFFFFFFFFFFFFFFFFFFFFFFFFFFFFFFFFFF AND PUSH20 0xFFFFFFFFFFFFFFFFFFFFFFFFFFFFFFFFFFFFFFFF AND DUP2 MSTORE PUSH1 0x20 ADD SWAP1 DUP2 MSTORE PUSH1 0x20 ADD PUSH0 KECCAK256 SLOAD PUSH1 0x6 PUSH1 0x13 SWAP1 SLOAD SWAP1 PUSH2 0x100 EXP SWAP1 DIV PUSH1 0xFF AND PUSH1 0xFF AND PUSH1 0x11 PUSH0 DUP4 DUP2 MSTORE PUSH1 0x20 ADD SWAP1 DUP2 MSTORE PUSH1 0x20 ADD PUSH0 KECCAK256 PUSH0 ADD SLOAD GT PUSH2 0x1371 JUMPI PUSH1 0x40 MLOAD PUSH32 0x8C379A000000000000000000000000000000000000000000000000000000000 DUP2 MSTORE PUSH1 0x4 ADD PUSH2 0x1368 SWAP1 PUSH2 0x485B JUMP JUMPDEST PUSH1 0x40 MLOAD DUP1 SWAP2 SUB SWAP1 REVERT JUMPDEST PUSH1 0x1 ISZERO ISZERO PUSH1 0x15 PUSH0 CALLER PUSH20 0xFFFFFFFFFFFFFFFFFFFFFFFFFFFFFFFFFFFFFFFF AND PUSH20 0xFFFFFFFFFFFFFFFFFFFFFFFFFFFFFFFFFFFFFFFF AND DUP2 MSTORE PUSH1 0x20 ADD SWAP1 DUP2 MSTORE PUSH1 0x20 ADD PUSH0 KECCAK256 PUSH0 SWAP1 SLOAD SWAP1 PUSH2 0x100 EXP SWAP1 DIV PUSH1 0xFF AND ISZERO ISZERO EQ PUSH2 0x1401 JUMPI PUSH1 0x40 MLOAD PUSH32 0x8C379A000000000000000000000000000000000000000000000000000000000 DUP2 MSTORE PUSH1 0x4 ADD PUSH2 0x13F8 SWAP1 PUSH2 0x48C3 JUMP JUMPDEST PUSH1 0x40 MLOAD DUP1 SWAP2 SUB SWAP1 REVERT JUMPDEST PUSH0 DUP1 PUSH0 DUP1 CALLER SWAP1 POP PUSH0 PUSH1 0x16 PUSH0 DUP4 PUSH20 0xFFFFFFFFFFFFFFFFFFFFFFFFFFFFFFFFFFFFFFFF AND PUSH20 0xFFFFFFFFFFFFFFFFFFFFFFFFFFFFFFFFFFFFFFFF AND DUP2 MSTORE PUSH1 0x20 ADD SWAP1 DUP2 MSTORE PUSH1 0x20 ADD PUSH0 KECCAK256 SLOAD SWAP1 POP PUSH0 PUSH2 0x1453 DUP3 PUSH2 0x3568 JUMP JUMPDEST SWAP1 POP PUSH0 PUSH1 0x19 PUSH0 DUP6 PUSH20 0xFFFFFFFFFFFFFFFFFFFFFFFFFFFFFFFFFFFFFFFF AND PUSH20 0xFFFFFFFFFFFFFFFFFFFFFFFFFFFFFFFFFFFFFFFF AND DUP2 MSTORE PUSH1 0x20 ADD SWAP1 DUP2 MSTORE PUSH1 0x20 ADD PUSH0 KECCAK256 SLOAD SWAP1 POP PUSH1 0x6 PUSH1 0x9 SWAP1 SLOAD SWAP1 PUSH2 0x100 EXP SWAP1 DIV PUSH2 0xFFFF AND PUSH2 0xFFFF AND DUP2 SUB PUSH2 0x154D JUMPI PUSH1 0x7 DUP1 SLOAD SWAP1 POP DUP3 PUSH2 0x14C2 SWAP2 SWAP1 PUSH2 0x48E1 JUMP JUMPDEST SWAP5 POP DUP5 PUSH1 0x12 PUSH0 DUP6 DUP2 MSTORE PUSH1 0x20 ADD SWAP1 DUP2 MSTORE PUSH1 0x20 ADD PUSH0 KECCAK256 DUP2 SWAP1 SSTORE POP PUSH1 0x7 DUP6 DUP2 SLOAD DUP2 LT PUSH2 0x14EE JUMPI PUSH2 0x14ED PUSH2 0x4911 JUMP JUMPDEST JUMPDEST SWAP1 PUSH0 MSTORE PUSH1 0x20 PUSH0 KECCAK256 ADD SLOAD SWAP7 POP PUSH2 0x1502 DUP8 PUSH2 0x33CD JUMP JUMPDEST SWAP6 POP DUP4 PUSH20 0xFFFFFFFFFFFFFFFFFFFFFFFFFFFFFFFFFFFFFFFF AND PUSH2 0x8FC DUP8 SWAP1 DUP2 ISZERO MUL SWAP1 PUSH1 0x40 MLOAD PUSH0 PUSH1 0x40 MLOAD DUP1 DUP4 SUB DUP2 DUP6 DUP9 DUP9 CALL SWAP4 POP POP POP POP ISZERO DUP1 ISZERO PUSH2 0x1547 JUMPI RETURNDATASIZE PUSH0 DUP1 RETURNDATACOPY RETURNDATASIZE PUSH0 REVERT JUMPDEST POP PUSH2 0x1771 JUMP JUMPDEST PUSH1 0x6 PUSH1 0xB SWAP1 SLOAD SWAP1 PUSH2 0x100 EXP SWAP1 DIV PUSH2 0xFFFF AND PUSH2 0xFFFF AND DUP2 SUB PUSH2 0x1604 JUMPI PUSH1 0x8 DUP1 SLOAD SWAP1 POP DUP3 PUSH2 0x1579 SWAP2 SWAP1 PUSH2 0x48E1 JUMP JUMPDEST SWAP5 POP DUP5 PUSH1 0x12 PUSH0 DUP6 DUP2 MSTORE PUSH1 0x20 ADD SWAP1 DUP2 MSTORE PUSH1 0x20 ADD PUSH0 KECCAK256 DUP2 SWAP1 SSTORE POP PUSH1 0x8 DUP6 DUP2 SLOAD DUP2 LT PUSH2 0x15A5 JUMPI PUSH2 0x15A4 PUSH2 0x4911 JUMP JUMPDEST JUMPDEST SWAP1 PUSH0 MSTORE PUSH1 0x20 PUSH0 KECCAK256 ADD SLOAD SWAP7 POP PUSH2 0x15B9 DUP8 PUSH2 0x33CD JUMP JUMPDEST SWAP6 POP DUP4 PUSH20 0xFFFFFFFFFFFFFFFFFFFFFFFFFFFFFFFFFFFFFFFF AND PUSH2 0x8FC DUP8 SWAP1 DUP2 ISZERO MUL SWAP1 PUSH1 0x40 MLOAD PUSH0 PUSH1 0x40 MLOAD DUP1 DUP4 SUB DUP2 DUP6 DUP9 DUP9 CALL SWAP4 POP POP POP POP ISZERO DUP1 ISZERO PUSH2 0x15FE JUMPI RETURNDATASIZE PUSH0 DUP1 RETURNDATACOPY RETURNDATASIZE PUSH0 REVERT JUMPDEST POP PUSH2 0x1770 JUMP JUMPDEST PUSH1 0x6 PUSH1 0xD SWAP1 SLOAD SWAP1 PUSH2 0x100 EXP SWAP1 DIV PUSH2 0xFFFF AND PUSH2 0xFFFF AND DUP2 SUB PUSH2 0x16BB JUMPI PUSH1 0x9 DUP1 SLOAD SWAP1 POP DUP3 PUSH2 0x1630 SWAP2 SWAP1 PUSH2 0x48E1 JUMP JUMPDEST SWAP5 POP DUP5 PUSH1 0x12 PUSH0 DUP6 DUP2 MSTORE PUSH1 0x20 ADD SWAP1 DUP2 MSTORE PUSH1 0x20 ADD PUSH0 KECCAK256 DUP2 SWAP1 SSTORE POP PUSH1 0x9 DUP6 DUP2 SLOAD DUP2 LT PUSH2 0x165C JUMPI PUSH2 0x165B PUSH2 0x4911 JUMP JUMPDEST JUMPDEST SWAP1 PUSH0 MSTORE PUSH1 0x20 PUSH0 KECCAK256 ADD SLOAD SWAP7 POP PUSH2 0x1670 DUP8 PUSH2 0x33CD JUMP JUMPDEST SWAP6 POP DUP4 PUSH20 0xFFFFFFFFFFFFFFFFFFFFFFFFFFFFFFFFFFFFFFFF AND PUSH2 0x8FC DUP8 SWAP1 DUP2 ISZERO MUL SWAP1 PUSH1 0x40 MLOAD PUSH0 PUSH1 0x40 MLOAD DUP1 DUP4 SUB DUP2 DUP6 DUP9 DUP9 CALL SWAP4 POP POP POP POP ISZERO DUP1 ISZERO PUSH2 0x16B5 JUMPI RETURNDATASIZE PUSH0 DUP1 RETURNDATACOPY RETURNDATASIZE PUSH0 REVERT JUMPDEST POP PUSH2 0x176F JUMP JUMPDEST PUSH1 0x6 PUSH1 0xF SWAP1 SLOAD SWAP1 PUSH2 0x100 EXP SWAP1 DIV PUSH2 0xFFFF AND PUSH2 0xFFFF AND DUP2 SUB PUSH2 0x176E JUMPI PUSH1 0xA DUP1 SLOAD SWAP1 POP DUP3 PUSH2 0x16E7 SWAP2 SWAP1 PUSH2 0x48E1 JUMP JUMPDEST SWAP5 POP DUP5 PUSH1 0x12 PUSH0 DUP6 DUP2 MSTORE PUSH1 0x20 ADD SWAP1 DUP2 MSTORE PUSH1 0x20 ADD PUSH0 KECCAK256 DUP2 SWAP1 SSTORE POP PUSH1 0xA DUP6 DUP2 SLOAD DUP2 LT PUSH2 0x1713 JUMPI PUSH2 0x1712 PUSH2 0x4911 JUMP JUMPDEST JUMPDEST SWAP1 PUSH0 MSTORE PUSH1 0x20 PUSH0 KECCAK256 ADD SLOAD SWAP7 POP PUSH2 0x1727 DUP8 PUSH2 0x33CD JUMP JUMPDEST SWAP6 POP DUP4 PUSH20 0xFFFFFFFFFFFFFFFFFFFFFFFFFFFFFFFFFFFFFFFF AND PUSH2 0x8FC DUP8 SWAP1 DUP2 ISZERO MUL SWAP1 PUSH1 0x40 MLOAD PUSH0 PUSH1 0x40 MLOAD DUP1 DUP4 SUB DUP2 DUP6 DUP9 DUP9 CALL SWAP4 POP POP POP POP ISZERO DUP1 ISZERO PUSH2 0x176C JUMPI RETURNDATASIZE PUSH0 DUP1 RETURNDATACOPY RETURNDATASIZE PUSH0 REVERT JUMPDEST POP JUMPDEST JUMPDEST JUMPDEST JUMPDEST PUSH1 0x6 PUSH1 0x13 SWAP1 SLOAD SWAP1 PUSH2 0x100 EXP SWAP1 DIV PUSH1 0xFF AND PUSH1 0xFF AND PUSH1 0x19 PUSH0 DUP7 PUSH20 0xFFFFFFFFFFFFFFFFFFFFFFFFFFFFFFFFFFFFFFFF AND PUSH20 0xFFFFFFFFFFFFFFFFFFFFFFFFFFFFFFFFFFFFFFFF AND DUP2 MSTORE PUSH1 0x20 ADD SWAP1 DUP2 MSTORE PUSH1 0x20 ADD PUSH0 KECCAK256 DUP2 SWAP1 SSTORE POP PUSH0 PUSH1 0x13 PUSH0 DUP7 PUSH20 0xFFFFFFFFFFFFFFFFFFFFFFFFFFFFFFFFFFFFFFFF AND PUSH20 0xFFFFFFFFFFFFFFFFFFFFFFFFFFFFFFFFFFFFFFFF AND DUP2 MSTORE PUSH1 0x20 ADD SWAP1 DUP2 MSTORE PUSH1 0x20 ADD PUSH0 KECCAK256 PUSH0 PUSH2 0x100 EXP DUP2 SLOAD DUP2 PUSH1 0xFF MUL NOT AND SWAP1 DUP4 ISZERO ISZERO MUL OR SWAP1 SSTORE POP PUSH0 PUSH1 0x14 PUSH0 DUP7 PUSH20 0xFFFFFFFFFFFFFFFFFFFFFFFFFFFFFFFFFFFFFFFF AND PUSH20 0xFFFFFFFFFFFFFFFFFFFFFFFFFFFFFFFFFFFFFFFF AND DUP2 MSTORE PUSH1 0x20 ADD SWAP1 DUP2 MSTORE PUSH1 0x20 ADD PUSH0 KECCAK256 PUSH0 PUSH2 0x100 EXP DUP2 SLOAD DUP2 PUSH1 0xFF MUL NOT AND SWAP1 DUP4 ISZERO ISZERO MUL OR SWAP1 SSTORE POP DUP4 PUSH20 0xFFFFFFFFFFFFFFFFFFFFFFFFFFFFFFFFFFFFFFFF AND PUSH32 0x8B1A12B574B314559E0375A59D528FBBE8CB9AFBFCBE9BD756F11816F8022738 DUP9 PUSH1 0x40 MLOAD PUSH2 0x18B3 SWAP2 SWAP1 PUSH2 0x4988 JUMP JUMPDEST PUSH1 0x40 MLOAD DUP1 SWAP2 SUB SWAP1 LOG2 POP POP POP POP POP POP POP PUSH0 PUSH1 0x15 PUSH0 CALLER PUSH20 0xFFFFFFFFFFFFFFFFFFFFFFFFFFFFFFFFFFFFFFFF AND PUSH20 0xFFFFFFFFFFFFFFFFFFFFFFFFFFFFFFFFFFFFFFFF AND DUP2 MSTORE PUSH1 0x20 ADD SWAP1 DUP2 MSTORE PUSH1 0x20 ADD PUSH0 KECCAK256 PUSH0 PUSH2 0x100 EXP DUP2 SLOAD DUP2 PUSH1 0xFF MUL NOT AND SWAP1 DUP4 ISZERO ISZERO MUL OR SWAP1 SSTORE POP POP JUMP JUMPDEST PUSH2 0x1921 PUSH2 0x34D9 JUMP JUMPDEST DUP1 PUSH1 0x2 PUSH1 0x4 PUSH2 0x100 EXP DUP2 SLOAD DUP2 PUSH2 0xFFFF MUL NOT AND SWAP1 DUP4 PUSH2 0xFFFF AND MUL OR SWAP1 SSTORE POP POP JUMP JUMPDEST PUSH2 0x1949 PUSH2 0x34D9 JUMP JUMPDEST PUSH1 0x6 PUSH1 0x13 SWAP1 SLOAD SWAP1 PUSH2 0x100 EXP SWAP1 DIV PUSH1 0xFF AND PUSH1 0xFF AND PUSH1 0x1B PUSH0 SWAP1 SLOAD SWAP1 PUSH2 0x100 EXP SWAP1 DIV PUSH20 0xFFFFFFFFFFFFFFFFFFFFFFFFFFFFFFFFFFFFFFFF AND PUSH20 0xFFFFFFFFFFFFFFFFFFFFFFFFFFFFFFFFFFFFFFFF AND PUSH4 0x70A08231 ADDRESS PUSH1 0x40 MLOAD DUP3 PUSH4 0xFFFFFFFF AND PUSH1 0xE0 SHL DUP2 MSTORE PUSH1 0x4 ADD PUSH2 0x19B6 SWAP2 SWAP1 PUSH2 0x41D9 JUMP JUMPDEST PUSH1 0x20 PUSH1 0x40 MLOAD DUP1 DUP4 SUB DUP2 DUP7 GAS STATICCALL ISZERO DUP1 ISZERO PUSH2 0x19D1 JUMPI RETURNDATASIZE PUSH0 DUP1 RETURNDATACOPY RETURNDATASIZE PUSH0 REVERT JUMPDEST POP POP POP POP PUSH1 0x40 MLOAD RETURNDATASIZE PUSH1 0x1F NOT PUSH1 0x1F DUP3 ADD AND DUP3 ADD DUP1 PUSH1 0x40 MSTORE POP DUP2 ADD SWAP1 PUSH2 0x19F5 SWAP2 SWAP1 PUSH2 0x4554 JUMP JUMPDEST GT PUSH2 0x1A35 JUMPI PUSH1 0x40 MLOAD PUSH32 0x8C379A000000000000000000000000000000000000000000000000000000000 DUP2 MSTORE PUSH1 0x4 ADD PUSH2 0x1A2C SWAP1 PUSH2 0x4A24 JUMP JUMPDEST PUSH1 0x40 MLOAD DUP1 SWAP2 SUB SWAP1 REVERT JUMPDEST PUSH1 0x1B PUSH0 SWAP1 SLOAD SWAP1 PUSH2 0x100 EXP SWAP1 DIV PUSH20 0xFFFFFFFFFFFFFFFFFFFFFFFFFFFFFFFFFFFFFFFF AND PUSH20 0xFFFFFFFFFFFFFFFFFFFFFFFFFFFFFFFFFFFFFFFF AND PUSH4 0xA9059CBB CALLER PUSH1 0x1B PUSH0 SWAP1 SLOAD SWAP1 PUSH2 0x100 EXP SWAP1 DIV PUSH20 0xFFFFFFFFFFFFFFFFFFFFFFFFFFFFFFFFFFFFFFFF AND PUSH20 0xFFFFFFFFFFFFFFFFFFFFFFFFFFFFFFFFFFFFFFFF AND PUSH4 0x70A08231 ADDRESS PUSH1 0x40 MLOAD DUP3 PUSH4 0xFFFFFFFF AND PUSH1 0xE0 SHL DUP2 MSTORE PUSH1 0x4 ADD PUSH2 0x1ACD SWAP2 SWAP1 PUSH2 0x41D9 JUMP JUMPDEST PUSH1 0x20 PUSH1 0x40 MLOAD DUP1 DUP4 SUB DUP2 DUP7 GAS STATICCALL ISZERO DUP1 ISZERO PUSH2 0x1AE8 JUMPI RETURNDATASIZE PUSH0 DUP1 RETURNDATACOPY RETURNDATASIZE PUSH0 REVERT JUMPDEST POP POP POP POP PUSH1 0x40 MLOAD RETURNDATASIZE PUSH1 0x1F NOT PUSH1 0x1F DUP3 ADD AND DUP3 ADD DUP1 PUSH1 0x40 MSTORE POP DUP2 ADD SWAP1 PUSH2 0x1B0C SWAP2 SWAP1 PUSH2 0x4554 JUMP JUMPDEST PUSH1 0x40 MLOAD DUP4 PUSH4 0xFFFFFFFF AND PUSH1 0xE0 SHL DUP2 MSTORE PUSH1 0x4 ADD PUSH2 0x1B29 SWAP3 SWAP2 SWAP1 PUSH2 0x4A42 JUMP JUMPDEST PUSH1 0x20 PUSH1 0x40 MLOAD DUP1 DUP4 SUB DUP2 PUSH0 DUP8 GAS CALL ISZERO DUP1 ISZERO PUSH2 0x1B45 JUMPI RETURNDATASIZE PUSH0 DUP1 RETURNDATACOPY RETURNDATASIZE PUSH0 REVERT JUMPDEST POP POP POP POP PUSH1 0x40 MLOAD RETURNDATASIZE PUSH1 0x1F NOT PUSH1 0x1F DUP3 ADD AND DUP3 ADD DUP1 PUSH1 0x40 MSTORE POP DUP2 ADD SWAP1 PUSH2 0x1B69 SWAP2 SWAP1 PUSH2 0x46B9 JUMP JUMPDEST POP JUMP JUMPDEST PUSH2 0x1B74 PUSH2 0x34D9 JUMP JUMPDEST PUSH1 0x1C PUSH0 SWAP1 SLOAD SWAP1 PUSH2 0x100 EXP SWAP1 DIV PUSH20 0xFFFFFFFFFFFFFFFFFFFFFFFFFFFFFFFFFFFFFFFF AND PUSH20 0xFFFFFFFFFFFFFFFFFFFFFFFFFFFFFFFFFFFFFFFF AND PUSH4 0xA9059CBB DUP3 PUSH1 0x3 SLOAD PUSH1 0x2 PUSH1 0x6 SWAP1 SLOAD SWAP1 PUSH2 0x100 EXP SWAP1 DIV PUSH2 0xFFFF AND PUSH2 0xFFFF AND PUSH2 0x1BD4 SWAP2 SWAP1 PUSH2 0x44D8 JUMP JUMPDEST PUSH1 0x40 MLOAD DUP4 PUSH4 0xFFFFFFFF AND PUSH1 0xE0 SHL DUP2 MSTORE PUSH1 0x4 ADD PUSH2 0x1BF1 SWAP3 SWAP2 SWAP1 PUSH2 0x4A42 JUMP JUMPDEST PUSH1 0x20 PUSH1 0x40 MLOAD DUP1 DUP4 SUB DUP2 PUSH0 DUP8 GAS CALL ISZERO DUP1 ISZERO PUSH2 0x1C0D JUMPI RETURNDATASIZE PUSH0 DUP1 RETURNDATACOPY RETURNDATASIZE PUSH0 REVERT JUMPDEST POP POP POP POP PUSH1 0x40 MLOAD RETURNDATASIZE PUSH1 0x1F NOT PUSH1 0x1F DUP3 ADD AND DUP3 ADD DUP1 PUSH1 0x40 MSTORE POP DUP2 ADD SWAP1 PUSH2 0x1C31 SWAP2 SWAP1 PUSH2 0x46B9 JUMP JUMPDEST POP POP JUMP JUMPDEST PUSH2 0x1C3D PUSH2 0x34D9 JUMP JUMPDEST DUP1 PUSH1 0x2 PUSH1 0x8 PUSH2 0x100 EXP DUP2 SLOAD DUP2 PUSH2 0xFFFF MUL NOT AND SWAP1 DUP4 PUSH2 0xFFFF AND MUL OR SWAP1 SSTORE POP POP JUMP JUMPDEST PUSH1 0x6 PUSH1 0x11 SWAP1 SLOAD SWAP1 PUSH2 0x100 EXP SWAP1 DIV PUSH2 0xFFFF AND DUP2 JUMP JUMPDEST PUSH2 0x1C79 PUSH2 0x34D9 JUMP JUMPDEST DUP1 PUSH1 0x1 PUSH1 0x1D PUSH2 0x100 EXP DUP2 SLOAD DUP2 PUSH2 0xFFFF MUL NOT AND SWAP1 DUP4 PUSH2 0xFFFF AND MUL OR SWAP1 SSTORE POP POP JUMP JUMPDEST PUSH1 0x6 PUSH1 0x1 SWAP1 SLOAD SWAP1 PUSH2 0x100 EXP SWAP1 DIV PUSH2 0xFFFF AND DUP2 JUMP JUMPDEST PUSH2 0x1CB5 PUSH2 0x34D9 JUMP JUMPDEST DUP1 PUSH1 0x2 PUSH1 0x6 PUSH2 0x100 EXP DUP2 SLOAD DUP2 PUSH2 0xFFFF MUL NOT AND SWAP1 DUP4 PUSH2 0xFFFF AND MUL OR SWAP1 SSTORE POP POP JUMP JUMPDEST PUSH1 0x2 PUSH1 0x4 SWAP1 SLOAD SWAP1 PUSH2 0x100 EXP SWAP1 DIV PUSH2 0xFFFF AND DUP2 JUMP JUMPDEST PUSH1 0x18 PUSH1 0x20 MSTORE DUP1 PUSH0 MSTORE PUSH1 0x40 PUSH0 KECCAK256 PUSH0 SWAP2 POP SWAP1 POP SLOAD DUP2 JUMP JUMPDEST PUSH1 0x6 PUSH1 0x9 SWAP1 SLOAD SWAP1 PUSH2 0x100 EXP SWAP1 DIV PUSH2 0xFFFF AND DUP2 JUMP JUMPDEST PUSH1 0x1 PUSH0 SWAP1 SLOAD SWAP1 PUSH2 0x100 EXP SWAP1 DIV PUSH20 0xFFFFFFFFFFFFFFFFFFFFFFFFFFFFFFFFFFFFFFFF AND PUSH20 0xFFFFFFFFFFFFFFFFFFFFFFFFFFFFFFFFFFFFFFFF AND CALLER PUSH20 0xFFFFFFFFFFFFFFFFFFFFFFFFFFFFFFFFFFFFFFFF AND EQ PUSH2 0x1DA1 JUMPI PUSH1 0x40 MLOAD PUSH32 0x8C379A000000000000000000000000000000000000000000000000000000000 DUP2 MSTORE PUSH1 0x4 ADD PUSH2 0x1D98 SWAP1 PUSH2 0x4AB3 JUMP JUMPDEST PUSH1 0x40 MLOAD DUP1 SWAP2 SUB SWAP1 REVERT JUMPDEST PUSH0 DUP1 PUSH0 SWAP1 SLOAD SWAP1 PUSH2 0x100 EXP SWAP1 DIV PUSH20 0xFFFFFFFFFFFFFFFFFFFFFFFFFFFFFFFFFFFFFFFF AND SWAP1 POP CALLER PUSH0 DUP1 PUSH2 0x100 EXP DUP2 SLOAD DUP2 PUSH20 0xFFFFFFFFFFFFFFFFFFFFFFFFFFFFFFFFFFFFFFFF MUL NOT AND SWAP1 DUP4 PUSH20 0xFFFFFFFFFFFFFFFFFFFFFFFFFFFFFFFFFFFFFFFF AND MUL OR SWAP1 SSTORE POP PUSH0 PUSH1 0x1 PUSH0 PUSH2 0x100 EXP DUP2 SLOAD DUP2 PUSH20 0xFFFFFFFFFFFFFFFFFFFFFFFFFFFFFFFFFFFFFFFF MUL NOT AND SWAP1 DUP4 PUSH20 0xFFFFFFFFFFFFFFFFFFFFFFFFFFFFFFFFFFFFFFFF AND MUL OR SWAP1 SSTORE POP CALLER PUSH20 0xFFFFFFFFFFFFFFFFFFFFFFFFFFFFFFFFFFFFFFFF AND DUP2 PUSH20 0xFFFFFFFFFFFFFFFFFFFFFFFFFFFFFFFFFFFFFFFF AND PUSH32 0x8BE0079C531659141344CD1FD0A4F28419497F9722A3DAAFE3B4186F6B6457E0 PUSH1 0x40 MLOAD PUSH1 0x40 MLOAD DUP1 SWAP2 SUB SWAP1 LOG3 POP JUMP JUMPDEST PUSH1 0x6 PUSH1 0xB SWAP1 SLOAD SWAP1 PUSH2 0x100 EXP SWAP1 DIV PUSH2 0xFFFF AND DUP2 JUMP JUMPDEST CALLVALUE PUSH1 0x6 PUSH1 0x1 SWAP1 SLOAD SWAP1 PUSH2 0x100 EXP SWAP1 DIV PUSH2 0xFFFF AND PUSH2 0xFFFF AND PUSH0 PUSH2 0x1ED5 DUP3 PUSH2 0x33CD JUMP JUMPDEST SWAP1 POP DUP1 DUP4 LT ISZERO PUSH2 0x1F1A JUMPI PUSH1 0x40 MLOAD PUSH32 0x8C379A000000000000000000000000000000000000000000000000000000000 DUP2 MSTORE PUSH1 0x4 ADD PUSH2 0x1F11 SWAP1 PUSH2 0x4B41 JUMP JUMPDEST PUSH1 0x40 MLOAD DUP1 SWAP2 SUB SWAP1 REVERT JUMPDEST PUSH1 0x6 PUSH1 0x1 SWAP1 SLOAD SWAP1 PUSH2 0x100 EXP SWAP1 DIV PUSH2 0xFFFF AND PUSH2 0xFFFF AND PUSH0 PUSH2 0x1F39 DUP3 PUSH2 0x33CD JUMP JUMPDEST SWAP1 POP DUP1 SELFBALANCE LT ISZERO PUSH2 0x1F7E JUMPI PUSH1 0x40 MLOAD PUSH32 0x8C379A000000000000000000000000000000000000000000000000000000000 DUP2 MSTORE PUSH1 0x4 ADD PUSH2 0x1F75 SWAP1 PUSH2 0x4BCF JUMP JUMPDEST PUSH1 0x40 MLOAD DUP1 SWAP2 SUB SWAP1 REVERT JUMPDEST PUSH0 CALLER SWAP1 POP PUSH2 0x1F9C DUP2 PUSH1 0x1 PUSH1 0x1B SWAP1 SLOAD SWAP1 PUSH2 0x100 EXP SWAP1 DIV PUSH2 0xFFFF AND PUSH2 0x3628 JUMP JUMPDEST PUSH1 0x1 PUSH1 0x13 PUSH0 DUP4 PUSH20 0xFFFFFFFFFFFFFFFFFFFFFFFFFFFFFFFFFFFFFFFF AND PUSH20 0xFFFFFFFFFFFFFFFFFFFFFFFFFFFFFFFFFFFFFFFF AND DUP2 MSTORE PUSH1 0x20 ADD SWAP1 DUP2 MSTORE PUSH1 0x20 ADD PUSH0 KECCAK256 PUSH0 PUSH2 0x100 EXP DUP2 SLOAD DUP2 PUSH1 0xFF MUL NOT AND SWAP1 DUP4 ISZERO ISZERO MUL OR SWAP1 SSTORE POP PUSH2 0x1FF9 PUSH2 0x37C6 JUMP JUMPDEST PUSH1 0x16 PUSH0 DUP4 PUSH20 0xFFFFFFFFFFFFFFFFFFFFFFFFFFFFFFFFFFFFFFFF AND PUSH20 0xFFFFFFFFFFFFFFFFFFFFFFFFFFFFFFFFFFFFFFFF AND DUP2 MSTORE PUSH1 0x20 ADD SWAP1 DUP2 MSTORE PUSH1 0x20 ADD PUSH0 KECCAK256 DUP2 SWAP1 SSTORE POP PUSH0 PUSH1 0x14 PUSH0 DUP4 PUSH20 0xFFFFFFFFFFFFFFFFFFFFFFFFFFFFFFFFFFFFFFFF AND PUSH20 0xFFFFFFFFFFFFFFFFFFFFFFFFFFFFFFFFFFFFFFFF AND DUP2 MSTORE PUSH1 0x20 ADD SWAP1 DUP2 MSTORE PUSH1 0x20 ADD PUSH0 KECCAK256 PUSH0 PUSH2 0x100 EXP DUP2 SLOAD DUP2 PUSH1 0xFF MUL NOT AND SWAP1 DUP4 ISZERO ISZERO MUL OR SWAP1 SSTORE POP PUSH1 0x6 PUSH1 0x9 SWAP1 SLOAD SWAP1 PUSH2 0x100 EXP SWAP1 DIV PUSH2 0xFFFF AND PUSH2 0xFFFF AND PUSH1 0x19 PUSH0 DUP4 PUSH20 0xFFFFFFFFFFFFFFFFFFFFFFFFFFFFFFFFFFFFFFFF AND PUSH20 0xFFFFFFFFFFFFFFFFFFFFFFFFFFFFFFFFFFFFFFFF AND DUP2 MSTORE PUSH1 0x20 ADD SWAP1 DUP2 MSTORE PUSH1 0x20 ADD PUSH0 KECCAK256 DUP2 SWAP1 SSTORE POP DUP1 PUSH20 0xFFFFFFFFFFFFFFFFFFFFFFFFFFFFFFFFFFFFFFFF AND PUSH32 0x45450848915028EC05D575D78D2A6467F9299374383BBF4BED539B7D8C0E9321 CALLVALUE PUSH1 0x40 MLOAD PUSH2 0x212A SWAP2 SWAP1 PUSH2 0x4C5D JUMP JUMPDEST PUSH1 0x40 MLOAD DUP1 SWAP2 SUB SWAP1 LOG2 POP POP POP POP POP POP JUMP JUMPDEST PUSH2 0x2142 PUSH2 0x34D9 JUMP JUMPDEST DUP1 PUSH1 0x6 PUSH1 0x3 PUSH2 0x100 EXP DUP2 SLOAD DUP2 PUSH2 0xFFFF MUL NOT AND SWAP1 DUP4 PUSH2 0xFFFF AND MUL OR SWAP1 SSTORE POP POP JUMP JUMPDEST PUSH0 DUP1 PUSH0 SWAP1 SLOAD SWAP1 PUSH2 0x100 EXP SWAP1 DIV PUSH20 0xFFFFFFFFFFFFFFFFFFFFFFFFFFFFFFFFFFFFFFFF AND SWAP1 POP SWAP1 JUMP JUMPDEST PUSH1 0x1 PUSH1 0x1A SWAP1 SLOAD SWAP1 PUSH2 0x100 EXP SWAP1 DIV PUSH1 0xFF AND DUP2 JUMP JUMPDEST CALLVALUE PUSH1 0x6 PUSH1 0x5 SWAP1 SLOAD SWAP1 PUSH2 0x100 EXP SWAP1 DIV PUSH2 0xFFFF AND PUSH2 0xFFFF AND PUSH0 PUSH2 0x21BC DUP3 PUSH2 0x33CD JUMP JUMPDEST SWAP1 POP DUP1 DUP4 LT ISZERO PUSH2 0x2201 JUMPI PUSH1 0x40 MLOAD PUSH32 0x8C379A000000000000000000000000000000000000000000000000000000000 DUP2 MSTORE PUSH1 0x4 ADD PUSH2 0x21F8 SWAP1 PUSH2 0x4B41 JUMP JUMPDEST PUSH1 0x40 MLOAD DUP1 SWAP2 SUB SWAP1 REVERT JUMPDEST PUSH1 0x6 PUSH1 0x5 SWAP1 SLOAD SWAP1 PUSH2 0x100 EXP SWAP1 DIV PUSH2 0xFFFF AND PUSH2 0xFFFF AND PUSH0 PUSH2 0x2220 DUP3 PUSH2 0x33CD JUMP JUMPDEST SWAP1 POP DUP1 SELFBALANCE LT ISZERO PUSH2 0x2265 JUMPI PUSH1 0x40 MLOAD PUSH32 0x8C379A000000000000000000000000000000000000000000000000000000000 DUP2 MSTORE PUSH1 0x4 ADD PUSH2 0x225C SWAP1 PUSH2 0x4BCF JUMP JUMPDEST PUSH1 0x40 MLOAD DUP1 SWAP2 SUB SWAP1 REVERT JUMPDEST PUSH0 CALLER SWAP1 POP PUSH2 0x2282 DUP2 PUSH1 0x2 PUSH0 SWAP1 SLOAD SWAP1 PUSH2 0x100 EXP SWAP1 DIV PUSH2 0xFFFF AND PUSH2 0x3628 JUMP JUMPDEST PUSH1 0x1 PUSH1 0x13 PUSH0 DUP4 PUSH20 0xFFFFFFFFFFFFFFFFFFFFFFFFFFFFFFFFFFFFFFFF AND PUSH20 0xFFFFFFFFFFFFFFFFFFFFFFFFFFFFFFFFFFFFFFFF AND DUP2 MSTORE PUSH1 0x20 ADD SWAP1 DUP2 MSTORE PUSH1 0x20 ADD PUSH0 KECCAK256 PUSH0 PUSH2 0x100 EXP DUP2 SLOAD DUP2 PUSH1 0xFF MUL NOT AND SWAP1 DUP4 ISZERO ISZERO MUL OR SWAP1 SSTORE POP PUSH0 PUSH1 0x14 PUSH0 DUP4 PUSH20 0xFFFFFFFFFFFFFFFFFFFFFFFFFFFFFFFFFFFFFFFF AND PUSH20 0xFFFFFFFFFFFFFFFFFFFFFFFFFFFFFFFFFFFFFFFF AND DUP2 MSTORE PUSH1 0x20 ADD SWAP1 DUP2 MSTORE PUSH1 0x20 ADD PUSH0 KECCAK256 PUSH0 PUSH2 0x100 EXP DUP2 SLOAD DUP2 PUSH1 0xFF MUL NOT AND SWAP1 DUP4 ISZERO ISZERO MUL OR SWAP1 SSTORE POP PUSH2 0x2333 PUSH2 0x37C6 JUMP JUMPDEST PUSH1 0x16 PUSH0 DUP4 PUSH20 0xFFFFFFFFFFFFFFFFFFFFFFFFFFFFFFFFFFFFFFFF AND PUSH20 0xFFFFFFFFFFFFFFFFFFFFFFFFFFFFFFFFFFFFFFFF AND DUP2 MSTORE PUSH1 0x20 ADD SWAP1 DUP2 MSTORE PUSH1 0x20 ADD PUSH0 KECCAK256 DUP2 SWAP1 SSTORE POP PUSH1 0x6 PUSH1 0xD SWAP1 SLOAD SWAP1 PUSH2 0x100 EXP SWAP1 DIV PUSH2 0xFFFF AND PUSH2 0xFFFF AND PUSH1 0x19 PUSH0 DUP4 PUSH20 0xFFFFFFFFFFFFFFFFFFFFFFFFFFFFFFFFFFFFFFFF AND PUSH20 0xFFFFFFFFFFFFFFFFFFFFFFFFFFFFFFFFFFFFFFFF AND DUP2 MSTORE PUSH1 0x20 ADD SWAP1 DUP2 MSTORE PUSH1 0x20 ADD PUSH0 KECCAK256 DUP2 SWAP1 SSTORE POP DUP1 PUSH20 0xFFFFFFFFFFFFFFFFFFFFFFFFFFFFFFFFFFFFFFFF AND PUSH32 0x45450848915028EC05D575D78D2A6467F9299374383BBF4BED539B7D8C0E9321 CALLVALUE PUSH1 0x40 MLOAD PUSH2 0x2410 SWAP2 SWAP1 PUSH2 0x4CF9 JUMP JUMPDEST PUSH1 0x40 MLOAD DUP1 SWAP2 SUB SWAP1 LOG2 POP POP POP POP POP POP JUMP JUMPDEST PUSH1 0x6 PUSH1 0xF SWAP1 SLOAD SWAP1 PUSH2 0x100 EXP SWAP1 DIV PUSH2 0xFFFF AND DUP2 JUMP JUMPDEST CALLVALUE PUSH1 0x6 PUSH1 0x7 SWAP1 SLOAD SWAP1 PUSH2 0x100 EXP SWAP1 DIV PUSH2 0xFFFF AND PUSH2 0xFFFF AND PUSH0 PUSH2 0x2454 DUP3 PUSH2 0x33CD JUMP JUMPDEST SWAP1 POP DUP1 DUP4 LT ISZERO PUSH2 0x2499 JUMPI PUSH1 0x40 MLOAD PUSH32 0x8C379A000000000000000000000000000000000000000000000000000000000 DUP2 MSTORE PUSH1 0x4 ADD PUSH2 0x2490 SWAP1 PUSH2 0x4B41 JUMP JUMPDEST PUSH1 0x40 MLOAD DUP1 SWAP2 SUB SWAP1 REVERT JUMPDEST PUSH1 0x6 PUSH1 0x7 SWAP1 SLOAD SWAP1 PUSH2 0x100 EXP SWAP1 DIV PUSH2 0xFFFF AND PUSH2 0xFFFF AND PUSH0 PUSH2 0x24B8 DUP3 PUSH2 0x33CD JUMP JUMPDEST SWAP1 POP DUP1 SELFBALANCE LT ISZERO PUSH2 0x24FD JUMPI PUSH1 0x40 MLOAD PUSH32 0x8C379A000000000000000000000000000000000000000000000000000000000 DUP2 MSTORE PUSH1 0x4 ADD PUSH2 0x24F4 SWAP1 PUSH2 0x4BCF JUMP JUMPDEST PUSH1 0x40 MLOAD DUP1 SWAP2 SUB SWAP1 REVERT JUMPDEST PUSH0 CALLER SWAP1 POP PUSH2 0x2519 DUP2 PUSH1 0x2 DUP1 SLOAD SWAP1 PUSH2 0x100 EXP SWAP1 DIV PUSH2 0xFFFF AND PUSH2 0x3628 JUMP JUMPDEST PUSH1 0x1 PUSH1 0x13 PUSH0 DUP4 PUSH20 0xFFFFFFFFFFFFFFFFFFFFFFFFFFFFFFFFFFFFFFFF AND PUSH20 0xFFFFFFFFFFFFFFFFFFFFFFFFFFFFFFFFFFFFFFFF AND DUP2 MSTORE PUSH1 0x20 ADD SWAP1 DUP2 MSTORE PUSH1 0x20 ADD PUSH0 KECCAK256 PUSH0 PUSH2 0x100 EXP DUP2 SLOAD DUP2 PUSH1 0xFF MUL NOT AND SWAP1 DUP4 ISZERO ISZERO MUL OR SWAP1 SSTORE POP PUSH0 PUSH1 0x14 PUSH0 DUP4 PUSH20 0xFFFFFFFFFFFFFFFFFFFFFFFFFFFFFFFFFFFFFFFF AND PUSH20 0xFFFFFFFFFFFFFFFFFFFFFFFFFFFFFFFFFFFFFFFF AND DUP2 MSTORE PUSH1 0x20 ADD SWAP1 DUP2 MSTORE PUSH1 0x20 ADD PUSH0 KECCAK256 PUSH0 PUSH2 0x100 EXP DUP2 SLOAD DUP2 PUSH1 0xFF MUL NOT AND SWAP1 DUP4 ISZERO ISZERO MUL OR SWAP1 SSTORE POP PUSH2 0x25CA PUSH2 0x37C6 JUMP JUMPDEST PUSH1 0x16 PUSH0 DUP4 PUSH20 0xFFFFFFFFFFFFFFFFFFFFFFFFFFFFFFFFFFFFFFFF AND PUSH20 0xFFFFFFFFFFFFFFFFFFFFFFFFFFFFFFFFFFFFFFFF AND DUP2 MSTORE PUSH1 0x20 ADD SWAP1 DUP2 MSTORE PUSH1 0x20 ADD PUSH0 KECCAK256 DUP2 SWAP1 SSTORE POP PUSH1 0x6 PUSH1 0xF SWAP1 SLOAD SWAP1 PUSH2 0x100 EXP SWAP1 DIV PUSH2 0xFFFF AND PUSH2 0xFFFF AND PUSH1 0x19 PUSH0 DUP4 PUSH20 0xFFFFFFFFFFFFFFFFFFFFFFFFFFFFFFFFFFFFFFFF AND PUSH20 0xFFFFFFFFFFFFFFFFFFFFFFFFFFFFFFFFFFFFFFFF AND DUP2 MSTORE PUSH1 0x20 ADD SWAP1 DUP2 MSTORE PUSH1 0x20 ADD PUSH0 KECCAK256 DUP2 SWAP1 SSTORE POP DUP1 PUSH20 0xFFFFFFFFFFFFFFFFFFFFFFFFFFFFFFFFFFFFFFFF AND PUSH32 0x45450848915028EC05D575D78D2A6467F9299374383BBF4BED539B7D8C0E9321 CALLVALUE PUSH1 0x40 MLOAD PUSH2 0x26A7 SWAP2 SWAP1 PUSH2 0x4D95 JUMP JUMPDEST PUSH1 0x40 MLOAD DUP1 SWAP2 SUB SWAP1 LOG2 POP POP POP POP POP POP JUMP JUMPDEST PUSH2 0x26BF PUSH2 0x34D9 JUMP JUMPDEST DUP1 PUSH1 0x6 PUSH1 0x1 PUSH2 0x100 EXP DUP2 SLOAD DUP2 PUSH2 0xFFFF MUL NOT AND SWAP1 DUP4 PUSH2 0xFFFF AND MUL OR SWAP1 SSTORE POP POP JUMP JUMPDEST PUSH1 0x1 PUSH1 0x1D SWAP1 SLOAD SWAP1 PUSH2 0x100 EXP SWAP1 DIV PUSH2 0xFFFF AND DUP2 JUMP JUMPDEST PUSH1 0xB PUSH0 SWAP1 SLOAD SWAP1 PUSH2 0x100 EXP SWAP1 DIV PUSH20 0xFFFFFFFFFFFFFFFFFFFFFFFFFFFFFFFFFFFFFFFF AND DUP2 JUMP JUMPDEST PUSH2 0x2720 PUSH2 0x34D9 JUMP JUMPDEST DUP1 PUSH1 0x6 PUSH1 0x5 PUSH2 0x100 EXP DUP2 SLOAD DUP2 PUSH2 0xFFFF MUL NOT AND SWAP1 DUP4 PUSH2 0xFFFF AND MUL OR SWAP1 SSTORE POP POP JUMP JUMPDEST PUSH1 0x6 PUSH1 0x3 SWAP1 SLOAD SWAP1 PUSH2 0x100 EXP SWAP1 DIV PUSH2 0xFFFF AND DUP2 JUMP JUMPDEST PUSH1 0x6 PUSH1 0x5 SWAP1 SLOAD SWAP1 PUSH2 0x100 EXP SWAP1 DIV PUSH2 0xFFFF AND DUP2 JUMP JUMPDEST PUSH1 0x1 PUSH1 0x1B SWAP1 SLOAD SWAP1 PUSH2 0x100 EXP SWAP1 DIV PUSH2 0xFFFF AND DUP2 JUMP JUMPDEST PUSH2 0x2784 PUSH2 0x34D9 JUMP JUMPDEST DUP1 PUSH1 0x2 DUP1 PUSH2 0x100 EXP DUP2 SLOAD DUP2 PUSH2 0xFFFF MUL NOT AND SWAP1 DUP4 PUSH2 0xFFFF AND MUL OR SWAP1 SSTORE POP POP JUMP JUMPDEST PUSH1 0x2 PUSH0 SWAP1 SLOAD SWAP1 PUSH2 0x100 EXP SWAP1 DIV PUSH2 0xFFFF AND DUP2 JUMP JUMPDEST PUSH2 0x27BE PUSH2 0x34D9 JUMP JUMPDEST DUP1 PUSH1 0x1 PUSH1 0x1A PUSH2 0x100 EXP DUP2 SLOAD DUP2 PUSH1 0xFF MUL NOT AND SWAP1 DUP4 PUSH1 0xFF AND MUL OR SWAP1 SSTORE POP POP JUMP JUMPDEST PUSH1 0x6 PUSH1 0x7 SWAP1 SLOAD SWAP1 PUSH2 0x100 EXP SWAP1 DIV PUSH2 0xFFFF AND DUP2 JUMP JUMPDEST PUSH1 0x17 PUSH1 0x20 MSTORE DUP1 PUSH0 MSTORE PUSH1 0x40 PUSH0 KECCAK256 PUSH0 SWAP2 POP SWAP1 POP SLOAD DUP2 JUMP JUMPDEST PUSH1 0x10 PUSH0 CALLER PUSH20 0xFFFFFFFFFFFFFFFFFFFFFFFFFFFFFFFFFFFFFFFF AND PUSH20 0xFFFFFFFFFFFFFFFFFFFFFFFFFFFFFFFFFFFFFFFF AND DUP2 MSTORE PUSH1 0x20 ADD SWAP1 DUP2 MSTORE PUSH1 0x20 ADD PUSH0 KECCAK256 PUSH0 SWAP1 SLOAD SWAP1 PUSH2 0x100 EXP SWAP1 DIV PUSH1 0xFF AND ISZERO PUSH2 0x288F JUMPI PUSH1 0x40 MLOAD PUSH32 0x8C379A000000000000000000000000000000000000000000000000000000000 DUP2 MSTORE PUSH1 0x4 ADD PUSH2 0x2886 SWAP1 PUSH2 0x42D5 JUMP JUMPDEST PUSH1 0x40 MLOAD DUP1 SWAP2 SUB SWAP1 REVERT JUMPDEST PUSH1 0x1 PUSH1 0x10 PUSH0 CALLER PUSH20 0xFFFFFFFFFFFFFFFFFFFFFFFFFFFFFFFFFFFFFFFF AND PUSH20 0xFFFFFFFFFFFFFFFFFFFFFFFFFFFFFFFFFFFFFFFF AND DUP2 MSTORE PUSH1 0x20 ADD SWAP1 DUP2 MSTORE PUSH1 0x20 ADD PUSH0 KECCAK256 PUSH0 PUSH2 0x100 EXP DUP2 SLOAD DUP2 PUSH1 0xFF MUL NOT AND SWAP1 DUP4 ISZERO ISZERO MUL OR SWAP1 SSTORE POP PUSH1 0x6 PUSH1 0x13 SWAP1 SLOAD SWAP1 PUSH2 0x100 EXP SWAP1 DIV PUSH1 0xFF AND PUSH1 0xFF AND PUSH1 0x17 PUSH0 CALLER PUSH20 0xFFFFFFFFFFFFFFFFFFFFFFFFFFFFFFFFFFFFFFFF AND PUSH20 0xFFFFFFFFFFFFFFFFFFFFFFFFFFFFFFFFFFFFFFFF AND DUP2 MSTORE PUSH1 0x20 ADD SWAP1 DUP2 MSTORE PUSH1 0x20 ADD PUSH0 KECCAK256 SLOAD EQ PUSH2 0x2975 JUMPI PUSH1 0x40 MLOAD PUSH32 0x8C379A000000000000000000000000000000000000000000000000000000000 DUP2 MSTORE PUSH1 0x4 ADD PUSH2 0x296C SWAP1 PUSH2 0x4E0B JUMP JUMPDEST PUSH1 0x40 MLOAD DUP1 SWAP2 SUB SWAP1 REVERT JUMPDEST CALLVALUE SELFBALANCE PUSH2 0x2981 SWAP2 SWAP1 PUSH2 0x4E29 JUMP JUMPDEST PUSH1 0x18 PUSH0 CALLER PUSH20 0xFFFFFFFFFFFFFFFFFFFFFFFFFFFFFFFFFFFFFFFF AND PUSH20 0xFFFFFFFFFFFFFFFFFFFFFFFFFFFFFFFFFFFFFFFF AND DUP2 MSTORE PUSH1 0x20 ADD SWAP1 DUP2 MSTORE PUSH1 0x20 ADD PUSH0 KECCAK256 DUP2 SWAP1 SSTORE POP CALLVALUE PUSH1 0x17 PUSH0 CALLER PUSH20 0xFFFFFFFFFFFFFFFFFFFFFFFFFFFFFFFFFFFFFFFF AND PUSH20 0xFFFFFFFFFFFFFFFFFFFFFFFFFFFFFFFFFFFFFFFF AND DUP2 MSTORE PUSH1 0x20 ADD SWAP1 DUP2 MSTORE PUSH1 0x20 ADD PUSH0 KECCAK256 DUP2 SWAP1 SSTORE POP PUSH1 0xF CALLER SWAP1 DUP1 PUSH1 0x1 DUP2 SLOAD ADD DUP1 DUP3 SSTORE DUP1 SWAP2 POP POP PUSH1 0x1 SWAP1 SUB SWAP1 PUSH0 MSTORE PUSH1 0x20 PUSH0 KECCAK256 ADD PUSH0 SWAP1 SWAP2 SWAP1 SWAP2 SWAP1 SWAP2 PUSH2 0x100 EXP DUP2 SLOAD DUP2 PUSH20 0xFFFFFFFFFFFFFFFFFFFFFFFFFFFFFFFFFFFFFFFF MUL NOT AND SWAP1 DUP4 PUSH20 0xFFFFFFFFFFFFFFFFFFFFFFFFFFFFFFFFFFFFFFFF AND MUL OR SWAP1 SSTORE POP CALLER PUSH20 0xFFFFFFFFFFFFFFFFFFFFFFFFFFFFFFFFFFFFFFFF AND PUSH32 0xEB1D29659FE1E458A59D47CEAB90B84B14E2EB79DA4602088F9E9A8BCC228CA4 CALLVALUE SELFBALANCE PUSH1 0x40 MLOAD PUSH2 0x2AAC SWAP3 SWAP2 SWAP1 PUSH2 0x4ECC JUMP JUMPDEST PUSH1 0x40 MLOAD DUP1 SWAP2 SUB SWAP1 LOG2 PUSH0 PUSH1 0x10 PUSH0 CALLER PUSH20 0xFFFFFFFFFFFFFFFFFFFFFFFFFFFFFFFFFFFFFFFF AND PUSH20 0xFFFFFFFFFFFFFFFFFFFFFFFFFFFFFFFFFFFFFFFF AND DUP2 MSTORE PUSH1 0x20 ADD SWAP1 DUP2 MSTORE PUSH1 0x20 ADD PUSH0 KECCAK256 PUSH0 PUSH2 0x100 EXP DUP2 SLOAD DUP2 PUSH1 0xFF MUL NOT AND SWAP1 DUP4 ISZERO ISZERO MUL OR SWAP1 SSTORE POP JUMP JUMPDEST CALLVALUE PUSH1 0x6 PUSH1 0x3 SWAP1 SLOAD SWAP1 PUSH2 0x100 EXP SWAP1 DIV PUSH2 0xFFFF AND PUSH2 0xFFFF AND PUSH0 PUSH2 0x2B2A DUP3 PUSH2 0x33CD JUMP JUMPDEST SWAP1 POP DUP1 DUP4 LT ISZERO PUSH2 0x2B6F JUMPI PUSH1 0x40 MLOAD PUSH32 0x8C379A000000000000000000000000000000000000000000000000000000000 DUP2 MSTORE PUSH1 0x4 ADD PUSH2 0x2B66 SWAP1 PUSH2 0x4B41 JUMP JUMPDEST PUSH1 0x40 MLOAD DUP1 SWAP2 SUB SWAP1 REVERT JUMPDEST PUSH1 0x6 PUSH1 0x3 SWAP1 SLOAD SWAP1 PUSH2 0x100 EXP SWAP1 DIV PUSH2 0xFFFF AND PUSH2 0xFFFF AND PUSH0 PUSH2 0x2B8E DUP3 PUSH2 0x33CD JUMP JUMPDEST SWAP1 POP DUP1 SELFBALANCE LT ISZERO PUSH2 0x2BD3 JUMPI PUSH1 0x40 MLOAD PUSH32 0x8C379A000000000000000000000000000000000000000000000000000000000 DUP2 MSTORE PUSH1 0x4 ADD PUSH2 0x2BCA SWAP1 PUSH2 0x4BCF JUMP JUMPDEST PUSH1 0x40 MLOAD DUP1 SWAP2 SUB SWAP1 REVERT JUMPDEST PUSH0 CALLER SWAP1 POP PUSH2 0x2BF1 DUP2 PUSH1 0x1 PUSH1 0x1D SWAP1 SLOAD SWAP1 PUSH2 0x100 EXP SWAP1 DIV PUSH2 0xFFFF AND PUSH2 0x3628 JUMP JUMPDEST PUSH1 0x1 PUSH1 0x13 PUSH0 DUP4 PUSH20 0xFFFFFFFFFFFFFFFFFFFFFFFFFFFFFFFFFFFFFFFF AND PUSH20 0xFFFFFFFFFFFFFFFFFFFFFFFFFFFFFFFFFFFFFFFF AND DUP2 MSTORE PUSH1 0x20 ADD SWAP1 DUP2 MSTORE PUSH1 0x20 ADD PUSH0 KECCAK256 PUSH0 PUSH2 0x100 EXP DUP2 SLOAD DUP2 PUSH1 0xFF MUL NOT AND SWAP1 DUP4 ISZERO ISZERO MUL OR SWAP1 SSTORE POP PUSH0 PUSH1 0x14 PUSH0 DUP4 PUSH20 0xFFFFFFFFFFFFFFFFFFFFFFFFFFFFFFFFFFFFFFFF AND PUSH20 0xFFFFFFFFFFFFFFFFFFFFFFFFFFFFFFFFFFFFFFFF AND DUP2 MSTORE PUSH1 0x20 ADD SWAP1 DUP2 MSTORE PUSH1 0x20 ADD PUSH0 KECCAK256 PUSH0 PUSH2 0x100 EXP DUP2 SLOAD DUP2 PUSH1 0xFF MUL NOT AND SWAP1 DUP4 ISZERO ISZERO MUL OR SWAP1 SSTORE POP PUSH2 0x2CA2 PUSH2 0x37C6 JUMP JUMPDEST PUSH1 0x16 PUSH0 DUP4 PUSH20 0xFFFFFFFFFFFFFFFFFFFFFFFFFFFFFFFFFFFFFFFF AND PUSH20 0xFFFFFFFFFFFFFFFFFFFFFFFFFFFFFFFFFFFFFFFF AND DUP2 MSTORE PUSH1 0x20 ADD SWAP1 DUP2 MSTORE PUSH1 0x20 ADD PUSH0 KECCAK256 DUP2 SWAP1 SSTORE POP PUSH1 0x6 PUSH1 0xB SWAP1 SLOAD SWAP1 PUSH2 0x100 EXP SWAP1 DIV PUSH2 0xFFFF AND PUSH2 0xFFFF AND PUSH1 0x19 PUSH0 DUP4 PUSH20 0xFFFFFFFFFFFFFFFFFFFFFFFFFFFFFFFFFFFFFFFF AND PUSH20 0xFFFFFFFFFFFFFFFFFFFFFFFFFFFFFFFFFFFFFFFF AND DUP2 MSTORE PUSH1 0x20 ADD SWAP1 DUP2 MSTORE PUSH1 0x20 ADD PUSH0 KECCAK256 DUP2 SWAP1 SSTORE POP DUP1 PUSH20 0xFFFFFFFFFFFFFFFFFFFFFFFFFFFFFFFFFFFFFFFF AND PUSH32 0x45450848915028EC05D575D78D2A6467F9299374383BBF4BED539B7D8C0E9321 CALLVALUE PUSH1 0x40 MLOAD PUSH2 0x2D7F SWAP2 SWAP1 PUSH2 0x4F76 JUMP JUMPDEST PUSH1 0x40 MLOAD DUP1 SWAP2 SUB SWAP1 LOG2 POP POP POP POP POP POP JUMP JUMPDEST PUSH2 0x2D97 PUSH2 0x34D9 JUMP JUMPDEST DUP1 PUSH1 0x1 PUSH1 0x1B PUSH2 0x100 EXP DUP2 SLOAD DUP2 PUSH2 0xFFFF MUL NOT AND SWAP1 DUP4 PUSH2 0xFFFF AND MUL OR SWAP1 SSTORE POP POP JUMP JUMPDEST PUSH1 0x2 PUSH1 0x6 SWAP1 SLOAD SWAP1 PUSH2 0x100 EXP SWAP1 DIV PUSH2 0xFFFF AND DUP2 JUMP JUMPDEST PUSH1 0x6 PUSH1 0xD SWAP1 SLOAD SWAP1 PUSH2 0x100 EXP SWAP1 DIV PUSH2 0xFFFF AND DUP2 JUMP JUMPDEST PUSH1 0x2 PUSH1 0x8 SWAP1 SLOAD SWAP1 PUSH2 0x100 EXP SWAP1 DIV PUSH2 0xFFFF AND DUP2 JUMP JUMPDEST PUSH2 0x2DFB PUSH2 0x34D9 JUMP JUMPDEST PUSH2 0x2E04 DUP2 PUSH2 0x3A57 JUMP JUMPDEST POP JUMP JUMPDEST PUSH2 0x2E0F PUSH2 0x34D9 JUMP JUMPDEST DUP1 PUSH1 0x6 PUSH1 0x7 PUSH2 0x100 EXP DUP2 SLOAD DUP2 PUSH2 0xFFFF MUL NOT AND SWAP1 DUP4 PUSH2 0xFFFF AND MUL OR SWAP1 SSTORE POP POP JUMP JUMPDEST PUSH2 0x2E37 PUSH2 0x34D9 JUMP JUMPDEST DUP1 PUSH1 0x6 PUSH1 0x11 PUSH2 0x100 EXP DUP2 SLOAD DUP2 PUSH2 0xFFFF MUL NOT AND SWAP1 DUP4 PUSH2 0xFFFF AND MUL OR SWAP1 SSTORE POP POP JUMP JUMPDEST PUSH1 0x2 DUP1 SLOAD SWAP1 PUSH2 0x100 EXP SWAP1 DIV PUSH2 0xFFFF AND DUP2 JUMP JUMPDEST PUSH1 0x3 SLOAD PUSH1 0x6 PUSH1 0x11 SWAP1 SLOAD SWAP1 PUSH2 0x100 EXP SWAP1 DIV PUSH2 0xFFFF AND PUSH2 0xFFFF AND PUSH2 0x2E8B SWAP2 SWAP1 PUSH2 0x44D8 JUMP JUMPDEST DUP1 PUSH1 0x1B PUSH0 SWAP1 SLOAD SWAP1 PUSH2 0x100 EXP SWAP1 DIV PUSH20 0xFFFFFFFFFFFFFFFFFFFFFFFFFFFFFFFFFFFFFFFF AND PUSH20 0xFFFFFFFFFFFFFFFFFFFFFFFFFFFFFFFFFFFFFFFF AND PUSH4 0xDD62ED3E CALLER ADDRESS PUSH1 0x40 MLOAD DUP4 PUSH4 0xFFFFFFFF AND PUSH1 0xE0 SHL DUP2 MSTORE PUSH1 0x4 ADD PUSH2 0x2EE8 SWAP3 SWAP2 SWAP1 PUSH2 0x4519 JUMP JUMPDEST PUSH1 0x20 PUSH1 0x40 MLOAD DUP1 DUP4 SUB DUP2 DUP7 GAS STATICCALL ISZERO DUP1 ISZERO PUSH2 0x2F03 JUMPI RETURNDATASIZE PUSH0 DUP1 RETURNDATACOPY RETURNDATASIZE PUSH0 REVERT JUMPDEST POP POP POP POP PUSH1 0x40 MLOAD RETURNDATASIZE PUSH1 0x1F NOT PUSH1 0x1F DUP3 ADD AND DUP3 ADD DUP1 PUSH1 0x40 MSTORE POP DUP2 ADD SWAP1 PUSH2 0x2F27 SWAP2 SWAP1 PUSH2 0x4554 JUMP JUMPDEST LT ISZERO PUSH2 0x2F68 JUMPI PUSH1 0x40 MLOAD PUSH32 0x8C379A000000000000000000000000000000000000000000000000000000000 DUP2 MSTORE PUSH1 0x4 ADD PUSH2 0x2F5F SWAP1 PUSH2 0x4FEC JUMP JUMPDEST PUSH1 0x40 MLOAD DUP1 SWAP2 SUB SWAP1 REVERT JUMPDEST PUSH1 0x1B PUSH0 SWAP1 SLOAD SWAP1 PUSH2 0x100 EXP SWAP1 DIV PUSH20 0xFFFFFFFFFFFFFFFFFFFFFFFFFFFFFFFFFFFFFFFF AND PUSH20 0xFFFFFFFFFFFFFFFFFFFFFFFFFFFFFFFFFFFFFFFF AND PUSH4 0x23B872DD CALLER ADDRESS PUSH1 0x3 SLOAD PUSH1 0x6 PUSH1 0x11 SWAP1 SLOAD SWAP1 PUSH2 0x100 EXP SWAP1 DIV PUSH2 0xFFFF AND PUSH2 0xFFFF AND PUSH2 0x2FC9 SWAP2 SWAP1 PUSH2 0x44D8 JUMP JUMPDEST PUSH1 0x40 MLOAD DUP5 PUSH4 0xFFFFFFFF AND PUSH1 0xE0 SHL DUP2 MSTORE PUSH1 0x4 ADD PUSH2 0x2FE7 SWAP4 SWAP3 SWAP2 SWAP1 PUSH2 0x464F JUMP JUMPDEST PUSH1 0x20 PUSH1 0x40 MLOAD DUP1 DUP4 SUB DUP2 PUSH0 DUP8 GAS CALL ISZERO DUP1 ISZERO PUSH2 0x3003 JUMPI RETURNDATASIZE PUSH0 DUP1 RETURNDATACOPY RETURNDATASIZE PUSH0 REVERT JUMPDEST POP POP POP POP PUSH1 0x40 MLOAD RETURNDATASIZE PUSH1 0x1F NOT PUSH1 0x1F DUP3 ADD AND DUP3 ADD DUP1 PUSH1 0x40 MSTORE POP DUP2 ADD SWAP1 PUSH2 0x3027 SWAP2 SWAP1 PUSH2 0x46B9 JUMP JUMPDEST POP PUSH1 0x1 PUSH1 0x15 PUSH0 CALLER PUSH20 0xFFFFFFFFFFFFFFFFFFFFFFFFFFFFFFFFFFFFFFFF AND PUSH20 0xFFFFFFFFFFFFFFFFFFFFFFFFFFFFFFFFFFFFFFFF AND DUP2 MSTORE PUSH1 0x20 ADD SWAP1 DUP2 MSTORE PUSH1 0x20 ADD PUSH0 KECCAK256 PUSH0 PUSH2 0x100 EXP DUP2 SLOAD DUP2 PUSH1 0xFF MUL NOT AND SWAP1 DUP4 ISZERO ISZERO MUL OR SWAP1 SSTORE POP POP JUMP JUMPDEST PUSH0 DUP1 CALLER SWAP1 POP PUSH0 SELFBALANCE SWAP1 POP PUSH0 DUP1 PUSH0 DUP1 PUSH0 DUP1 DUP1 PUSH0 DUP1 PUSH1 0xF DUP1 SLOAD SWAP1 POP SWAP1 POP PUSH0 JUMPDEST DUP2 DUP2 LT ISZERO PUSH2 0x333E JUMPI PUSH1 0x17 PUSH0 PUSH1 0xF DUP4 DUP2 SLOAD DUP2 LT PUSH2 0x30BB JUMPI PUSH2 0x30BA PUSH2 0x4911 JUMP JUMPDEST JUMPDEST SWAP1 PUSH0 MSTORE PUSH1 0x20 PUSH0 KECCAK256 ADD PUSH0 SWAP1 SLOAD SWAP1 PUSH2 0x100 EXP SWAP1 DIV PUSH20 0xFFFFFFFFFFFFFFFFFFFFFFFFFFFFFFFFFFFFFFFF AND PUSH20 0xFFFFFFFFFFFFFFFFFFFFFFFFFFFFFFFFFFFFFFFF AND PUSH20 0xFFFFFFFFFFFFFFFFFFFFFFFFFFFFFFFFFFFFFFFF AND DUP2 MSTORE PUSH1 0x20 ADD SWAP1 DUP2 MSTORE PUSH1 0x20 ADD PUSH0 KECCAK256 SLOAD SWAP8 POP PUSH1 0x18 PUSH0 PUSH1 0xF DUP4 DUP2 SLOAD DUP2 LT PUSH2 0x3136 JUMPI PUSH2 0x3135 PUSH2 0x4911 JUMP JUMPDEST JUMPDEST SWAP1 PUSH0 MSTORE PUSH1 0x20 PUSH0 KECCAK256 ADD PUSH0 SWAP1 SLOAD SWAP1 PUSH2 0x100 EXP SWAP1 DIV PUSH20 0xFFFFFFFFFFFFFFFFFFFFFFFFFFFFFFFFFFFFFFFF AND PUSH20 0xFFFFFFFFFFFFFFFFFFFFFFFFFFFFFFFFFFFFFFFF AND PUSH20 0xFFFFFFFFFFFFFFFFFFFFFFFFFFFFFFFFFFFFFFFF AND DUP2 MSTORE PUSH1 0x20 ADD SWAP1 DUP2 MSTORE PUSH1 0x20 ADD PUSH0 KECCAK256 SLOAD SWAP7 POP DUP7 DUP12 PUSH2 0x31A6 SWAP2 SWAP1 PUSH2 0x4E29 JUMP JUMPDEST DUP9 PUSH2 0x31B1 SWAP2 SWAP1 PUSH2 0x44D8 JUMP JUMPDEST SWAP9 POP DUP9 DUP7 PUSH2 0x31BF SWAP2 SWAP1 PUSH2 0x500A JUMP JUMPDEST SWAP6 POP PUSH1 0xF DUP2 DUP2 SLOAD DUP2 LT PUSH2 0x31D5 JUMPI PUSH2 0x31D4 PUSH2 0x4911 JUMP JUMPDEST JUMPDEST SWAP1 PUSH0 MSTORE PUSH1 0x20 PUSH0 KECCAK256 ADD PUSH0 SWAP1 SLOAD SWAP1 PUSH2 0x100 EXP SWAP1 DIV PUSH20 0xFFFFFFFFFFFFFFFFFFFFFFFFFFFFFFFFFFFFFFFF AND PUSH20 0xFFFFFFFFFFFFFFFFFFFFFFFFFFFFFFFFFFFFFFFF AND DUP13 PUSH20 0xFFFFFFFFFFFFFFFFFFFFFFFFFFFFFFFFFFFFFFFF AND SUB PUSH2 0x3331 JUMPI DUP9 SWAP10 POP PUSH0 PUSH1 0x1 PUSH1 0xF DUP1 SLOAD SWAP1 POP PUSH2 0x3245 SWAP2 SWAP1 PUSH2 0x4E29 JUMP JUMPDEST SWAP1 POP PUSH1 0xF DUP2 DUP2 SLOAD DUP2 LT PUSH2 0x325B JUMPI PUSH2 0x325A PUSH2 0x4911 JUMP JUMPDEST JUMPDEST SWAP1 PUSH0 MSTORE PUSH1 0x20 PUSH0 KECCAK256 ADD PUSH0 SWAP1 SLOAD SWAP1 PUSH2 0x100 EXP SWAP1 DIV PUSH20 0xFFFFFFFFFFFFFFFFFFFFFFFFFFFFFFFFFFFFFFFF AND PUSH1 0xF DUP4 DUP2 SLOAD DUP2 LT PUSH2 0x3297 JUMPI PUSH2 0x3296 PUSH2 0x4911 JUMP JUMPDEST JUMPDEST SWAP1 PUSH0 MSTORE PUSH1 0x20 PUSH0 KECCAK256 ADD PUSH0 PUSH2 0x100 EXP DUP2 SLOAD DUP2 PUSH20 0xFFFFFFFFFFFFFFFFFFFFFFFFFFFFFFFFFFFFFFFF MUL NOT AND SWAP1 DUP4 PUSH20 0xFFFFFFFFFFFFFFFFFFFFFFFFFFFFFFFFFFFFFFFF AND MUL OR SWAP1 SSTORE POP PUSH1 0xF DUP1 SLOAD DUP1 PUSH2 0x32EE JUMPI PUSH2 0x32ED PUSH2 0x503D JUMP JUMPDEST JUMPDEST PUSH1 0x1 SWAP1 SUB DUP2 DUP2 SWAP1 PUSH0 MSTORE PUSH1 0x20 PUSH0 KECCAK256 ADD PUSH0 PUSH2 0x100 EXP DUP2 SLOAD SWAP1 PUSH20 0xFFFFFFFFFFFFFFFFFFFFFFFFFFFFFFFFFFFFFFFF MUL NOT AND SWAP1 SSTORE SWAP1 SSTORE PUSH1 0x1 DUP4 PUSH2 0x332D SWAP2 SWAP1 PUSH2 0x4E29 JUMP JUMPDEST SWAP3 POP POP JUMPDEST DUP1 DUP1 PUSH1 0x1 ADD SWAP2 POP POP PUSH2 0x309C JUMP JUMPDEST POP DUP10 PUSH1 0x4 SLOAD DUP7 PUSH1 0x4 SLOAD DUP13 PUSH2 0x3352 SWAP2 SWAP1 PUSH2 0x44D8 JUMP JUMPDEST PUSH2 0x335C SWAP2 SWAP1 PUSH2 0x4711 JUMP JUMPDEST PUSH2 0x3366 SWAP2 SWAP1 PUSH2 0x4711 JUMP JUMPDEST PUSH2 0x3370 SWAP2 SWAP1 PUSH2 0x44D8 JUMP JUMPDEST SWAP4 POP PUSH1 0x6 PUSH0 SWAP1 SLOAD SWAP1 PUSH2 0x100 EXP SWAP1 DIV PUSH1 0xFF AND PUSH1 0xFF AND DUP5 PUSH1 0x1 PUSH1 0x1A SWAP1 SLOAD SWAP1 PUSH2 0x100 EXP SWAP1 DIV PUSH1 0xFF AND PUSH1 0xFF AND PUSH2 0x33A2 SWAP2 SWAP1 PUSH2 0x44D8 JUMP JUMPDEST PUSH2 0x33AC SWAP2 SWAP1 PUSH2 0x4711 JUMP JUMPDEST SWAP2 POP DUP2 DUP5 PUSH2 0x33BA SWAP2 SWAP1 PUSH2 0x4E29 JUMP JUMPDEST SWAP3 POP DUP3 SWAP12 POP POP POP POP POP POP POP POP POP POP POP POP SWAP1 JUMP JUMPDEST PUSH0 DUP1 PUSH2 0x33D7 PUSH2 0x3B81 JUMP JUMPDEST SWAP1 POP PUSH0 PUSH1 0x4 SLOAD PUSH1 0x5 SLOAD DUP4 PUSH2 0x33EB SWAP2 SWAP1 PUSH2 0x4711 JUMP JUMPDEST PUSH1 0x3 SLOAD DUP7 PUSH2 0x33F9 SWAP2 SWAP1 PUSH2 0x44D8 JUMP JUMPDEST PUSH2 0x3403 SWAP2 SWAP1 PUSH2 0x4711 JUMP JUMPDEST PUSH2 0x340D SWAP2 SWAP1 PUSH2 0x44D8 JUMP JUMPDEST SWAP1 POP DUP1 SWAP3 POP POP POP SWAP2 SWAP1 POP JUMP JUMPDEST PUSH1 0x6 PUSH1 0x13 SWAP1 SLOAD SWAP1 PUSH2 0x100 EXP SWAP1 DIV PUSH1 0xFF AND PUSH1 0xFF AND PUSH1 0x11 PUSH0 DUP5 DUP2 MSTORE PUSH1 0x20 ADD SWAP1 DUP2 MSTORE PUSH1 0x20 ADD PUSH0 KECCAK256 PUSH0 ADD SLOAD GT PUSH2 0x3480 JUMPI PUSH1 0x40 MLOAD PUSH32 0x8C379A000000000000000000000000000000000000000000000000000000000 DUP2 MSTORE PUSH1 0x4 ADD PUSH2 0x3477 SWAP1 PUSH2 0x485B JUMP JUMPDEST PUSH1 0x40 MLOAD DUP1 SWAP2 SUB SWAP1 REVERT JUMPDEST PUSH1 0x1 PUSH1 0x11 PUSH0 DUP5 DUP2 MSTORE PUSH1 0x20 ADD SWAP1 DUP2 MSTORE PUSH1 0x20 ADD PUSH0 KECCAK256 PUSH1 0x1 ADD PUSH0 PUSH2 0x100 EXP DUP2 SLOAD DUP2 PUSH1 0xFF MUL NOT AND SWAP1 DUP4 ISZERO ISZERO MUL OR SWAP1 SSTORE POP DUP1 PUSH1 0x11 PUSH0 DUP5 DUP2 MSTORE PUSH1 0x20 ADD SWAP1 DUP2 MSTORE PUSH1 0x20 ADD PUSH0 KECCAK256 PUSH1 0x2 ADD SWAP1 DUP1 MLOAD SWAP1 PUSH1 0x20 ADD SWAP1 PUSH2 0x34D4 SWAP3 SWAP2 SWAP1 PUSH2 0x3E3F JUMP JUMPDEST POP POP POP JUMP JUMPDEST PUSH0 DUP1 SLOAD SWAP1 PUSH2 0x100 EXP SWAP1 DIV PUSH20 0xFFFFFFFFFFFFFFFFFFFFFFFFFFFFFFFFFFFFFFFF AND PUSH20 0xFFFFFFFFFFFFFFFFFFFFFFFFFFFFFFFFFFFFFFFF AND CALLER PUSH20 0xFFFFFFFFFFFFFFFFFFFFFFFFFFFFFFFFFFFFFFFF AND EQ PUSH2 0x3566 JUMPI PUSH1 0x40 MLOAD PUSH32 0x8C379A000000000000000000000000000000000000000000000000000000000 DUP2 MSTORE PUSH1 0x4 ADD PUSH2 0x355D SWAP1 PUSH2 0x50B4 JUMP JUMPDEST PUSH1 0x40 MLOAD DUP1 SWAP2 SUB SWAP1 REVERT JUMPDEST JUMP JUMPDEST PUSH0 DUP1 PUSH1 0x11 PUSH0 DUP5 DUP2 MSTORE PUSH1 0x20 ADD SWAP1 DUP2 MSTORE PUSH1 0x20 ADD PUSH0 KECCAK256 PUSH1 0x40 MLOAD DUP1 PUSH1 0x60 ADD PUSH1 0x40 MSTORE SWAP1 DUP2 PUSH0 DUP3 ADD SLOAD DUP2 MSTORE PUSH1 0x20 ADD PUSH1 0x1 DUP3 ADD PUSH0 SWAP1 SLOAD SWAP1 PUSH2 0x100 EXP SWAP1 DIV PUSH1 0xFF AND ISZERO ISZERO ISZERO ISZERO DUP2 MSTORE PUSH1 0x20 ADD PUSH1 0x2 DUP3 ADD DUP1 SLOAD DUP1 PUSH1 0x20 MUL PUSH1 0x20 ADD PUSH1 0x40 MLOAD SWAP1 DUP2 ADD PUSH1 0x40 MSTORE DUP1 SWAP3 SWAP2 SWAP1 DUP2 DUP2 MSTORE PUSH1 0x20 ADD DUP3 DUP1 SLOAD DUP1 ISZERO PUSH2 0x35F6 JUMPI PUSH1 0x20 MUL DUP3 ADD SWAP2 SWAP1 PUSH0 MSTORE PUSH1 0x20 PUSH0 KECCAK256 SWAP1 JUMPDEST DUP2 SLOAD DUP2 MSTORE PUSH1 0x20 ADD SWAP1 PUSH1 0x1 ADD SWAP1 DUP1 DUP4 GT PUSH2 0x35E2 JUMPI JUMPDEST POP POP POP POP POP DUP2 MSTORE POP POP SWAP1 POP DUP1 PUSH1 0x40 ADD MLOAD PUSH0 DUP2 MLOAD DUP2 LT PUSH2 0x3618 JUMPI PUSH2 0x3617 PUSH2 0x4911 JUMP JUMPDEST JUMPDEST PUSH1 0x20 MUL PUSH1 0x20 ADD ADD MLOAD SWAP2 POP POP SWAP2 SWAP1 POP JUMP JUMPDEST PUSH1 0x6 PUSH1 0x13 SWAP1 SLOAD SWAP1 PUSH2 0x100 EXP SWAP1 DIV PUSH1 0xFF AND PUSH1 0xFF AND PUSH1 0x1C PUSH0 SWAP1 SLOAD SWAP1 PUSH2 0x100 EXP SWAP1 DIV PUSH20 0xFFFFFFFFFFFFFFFFFFFFFFFFFFFFFFFFFFFFFFFF AND PUSH20 0xFFFFFFFFFFFFFFFFFFFFFFFFFFFFFFFFFFFFFFFF AND PUSH4 0x70A08231 ADDRESS PUSH1 0x40 MLOAD DUP3 PUSH4 0xFFFFFFFF AND PUSH1 0xE0 SHL DUP2 MSTORE PUSH1 0x4 ADD PUSH2 0x3695 SWAP2 SWAP1 PUSH2 0x41D9 JUMP JUMPDEST PUSH1 0x20 PUSH1 0x40 MLOAD DUP1 DUP4 SUB DUP2 DUP7 GAS STATICCALL ISZERO DUP1 ISZERO PUSH2 0x36B0 JUMPI RETURNDATASIZE PUSH0 DUP1 RETURNDATACOPY RETURNDATASIZE PUSH0 REVERT JUMPDEST POP POP POP POP PUSH1 0x40 MLOAD RETURNDATASIZE PUSH1 0x1F NOT PUSH1 0x1F DUP3 ADD AND DUP3 ADD DUP1 PUSH1 0x40 MSTORE POP DUP2 ADD SWAP1 PUSH2 0x36D4 SWAP2 SWAP1 PUSH2 0x4554 JUMP JUMPDEST GT PUSH2 0x3714 JUMPI PUSH1 0x40 MLOAD PUSH32 0x8C379A000000000000000000000000000000000000000000000000000000000 DUP2 MSTORE PUSH1 0x4 ADD PUSH2 0x370B SWAP1 PUSH2 0x5142 JUMP JUMPDEST PUSH1 0x40 MLOAD DUP1 SWAP2 SUB SWAP1 REVERT JUMPDEST PUSH1 0x1C PUSH0 SWAP1 SLOAD SWAP1 PUSH2 0x100 EXP SWAP1 DIV PUSH20 0xFFFFFFFFFFFFFFFFFFFFFFFFFFFFFFFFFFFFFFFF AND PUSH20 0xFFFFFFFFFFFFFFFFFFFFFFFFFFFFFFFFFFFFFFFF AND PUSH4 0xA9059CBB DUP4 PUSH1 0x3 SLOAD DUP5 PUSH2 0xFFFF AND PUSH2 0x3764 SWAP2 SWAP1 PUSH2 0x44D8 JUMP JUMPDEST PUSH1 0x40 MLOAD DUP4 PUSH4 0xFFFFFFFF AND PUSH1 0xE0 SHL DUP2 MSTORE PUSH1 0x4 ADD PUSH2 0x3781 SWAP3 SWAP2 SWAP1 PUSH2 0x4A42 JUMP JUMPDEST PUSH1 0x20 PUSH1 0x40 MLOAD DUP1 DUP4 SUB DUP2 PUSH0 DUP8 GAS CALL ISZERO DUP1 ISZERO PUSH2 0x379D JUMPI RETURNDATASIZE PUSH0 DUP1 RETURNDATACOPY RETURNDATASIZE PUSH0 REVERT JUMPDEST POP POP POP POP PUSH1 0x40 MLOAD RETURNDATASIZE PUSH1 0x1F NOT PUSH1 0x1F DUP3 ADD AND DUP3 ADD DUP1 PUSH1 0x40 MSTORE POP DUP2 ADD SWAP1 PUSH2 0x37C1 SWAP2 SWAP1 PUSH2 0x46B9 JUMP JUMPDEST POP POP POP JUMP JUMPDEST PUSH0 DUP1 ISZERO ISZERO PUSH1 0x14 PUSH0 CALLER PUSH20 0xFFFFFFFFFFFFFFFFFFFFFFFFFFFFFFFFFFFFFFFF AND PUSH20 0xFFFFFFFFFFFFFFFFFFFFFFFFFFFFFFFFFFFFFFFF AND DUP2 MSTORE PUSH1 0x20 ADD SWAP1 DUP2 MSTORE PUSH1 0x20 ADD PUSH0 KECCAK256 PUSH0 SWAP1 SLOAD SWAP1 PUSH2 0x100 EXP SWAP1 DIV PUSH1 0xFF AND ISZERO ISZERO EQ PUSH2 0x3856 JUMPI PUSH1 0x40 MLOAD PUSH32 0x8C379A000000000000000000000000000000000000000000000000000000000 DUP2 MSTORE PUSH1 0x4 ADD PUSH2 0x384D SWAP1 PUSH2 0x51D0 JUMP JUMPDEST PUSH1 0x40 MLOAD DUP1 SWAP2 SUB SWAP1 REVERT JUMPDEST PUSH2 0x3897 PUSH1 0x1 PUSH1 0x14 SWAP1 SLOAD SWAP1 PUSH2 0x100 EXP SWAP1 DIV PUSH4 0xFFFFFFFF AND PUSH1 0x1 PUSH1 0x18 SWAP1 SLOAD SWAP1 PUSH2 0x100 EXP SWAP1 DIV PUSH1 0xFF AND PUSH1 0xFF AND PUSH1 0x1 PUSH1 0x19 SWAP1 SLOAD SWAP1 PUSH2 0x100 EXP SWAP1 DIV PUSH1 0xFF AND PUSH1 0xFF AND PUSH2 0x3C30 JUMP JUMPDEST SWAP1 POP PUSH1 0x40 MLOAD DUP1 PUSH1 0x60 ADD PUSH1 0x40 MSTORE DUP1 PUSH32 0x0 PUSH20 0xFFFFFFFFFFFFFFFFFFFFFFFFFFFFFFFFFFFFFFFF AND PUSH4 0x4306D354 PUSH1 0x1 PUSH1 0x14 SWAP1 SLOAD SWAP1 PUSH2 0x100 EXP SWAP1 DIV PUSH4 0xFFFFFFFF AND PUSH1 0x40 MLOAD DUP3 PUSH4 0xFFFFFFFF AND PUSH1 0xE0 SHL DUP2 MSTORE PUSH1 0x4 ADD PUSH2 0x390F SWAP2 SWAP1 PUSH2 0x520C JUMP JUMPDEST PUSH1 0x20 PUSH1 0x40 MLOAD DUP1 DUP4 SUB DUP2 DUP7 GAS STATICCALL ISZERO DUP1 ISZERO PUSH2 0x392A JUMPI RETURNDATASIZE PUSH0 DUP1 RETURNDATACOPY RETURNDATASIZE PUSH0 REVERT JUMPDEST POP POP POP POP PUSH1 0x40 MLOAD RETURNDATASIZE PUSH1 0x1F NOT PUSH1 0x1F DUP3 ADD AND DUP3 ADD DUP1 PUSH1 0x40 MSTORE POP DUP2 ADD SWAP1 PUSH2 0x394E SWAP2 SWAP1 PUSH2 0x4554 JUMP JUMPDEST DUP2 MSTORE PUSH1 0x20 ADD PUSH0 ISZERO ISZERO DUP2 MSTORE PUSH1 0x20 ADD PUSH0 PUSH8 0xFFFFFFFFFFFFFFFF DUP2 GT ISZERO PUSH2 0x3975 JUMPI PUSH2 0x3974 PUSH2 0x3F5F JUMP JUMPDEST JUMPDEST PUSH1 0x40 MLOAD SWAP1 DUP1 DUP3 MSTORE DUP1 PUSH1 0x20 MUL PUSH1 0x20 ADD DUP3 ADD PUSH1 0x40 MSTORE DUP1 ISZERO PUSH2 0x39A3 JUMPI DUP2 PUSH1 0x20 ADD PUSH1 0x20 DUP3 MUL DUP1 CALLDATASIZE DUP4 CALLDATACOPY DUP1 DUP3 ADD SWAP2 POP POP SWAP1 POP JUMPDEST POP DUP2 MSTORE POP PUSH1 0x11 PUSH0 DUP4 DUP2 MSTORE PUSH1 0x20 ADD SWAP1 DUP2 MSTORE PUSH1 0x20 ADD PUSH0 KECCAK256 PUSH0 DUP3 ADD MLOAD DUP2 PUSH0 ADD SSTORE PUSH1 0x20 DUP3 ADD MLOAD DUP2 PUSH1 0x1 ADD PUSH0 PUSH2 0x100 EXP DUP2 SLOAD DUP2 PUSH1 0xFF MUL NOT AND SWAP1 DUP4 ISZERO ISZERO MUL OR SWAP1 SSTORE POP PUSH1 0x40 DUP3 ADD MLOAD DUP2 PUSH1 0x2 ADD SWAP1 DUP1 MLOAD SWAP1 PUSH1 0x20 ADD SWAP1 PUSH2 0x39FB SWAP3 SWAP2 SWAP1 PUSH2 0x3E3F JUMP JUMPDEST POP SWAP1 POP POP PUSH1 0x1 PUSH1 0x14 PUSH0 CALLER PUSH20 0xFFFFFFFFFFFFFFFFFFFFFFFFFFFFFFFFFFFFFFFF AND PUSH20 0xFFFFFFFFFFFFFFFFFFFFFFFFFFFFFFFFFFFFFFFF AND DUP2 MSTORE PUSH1 0x20 ADD SWAP1 DUP2 MSTORE PUSH1 0x20 ADD PUSH0 KECCAK256 PUSH0 PUSH2 0x100 EXP DUP2 SLOAD DUP2 PUSH1 0xFF MUL NOT AND SWAP1 DUP4 ISZERO ISZERO MUL OR SWAP1 SSTORE POP SWAP1 JUMP JUMPDEST CALLER PUSH20 0xFFFFFFFFFFFFFFFFFFFFFFFFFFFFFFFFFFFFFFFF AND DUP2 PUSH20 0xFFFFFFFFFFFFFFFFFFFFFFFFFFFFFFFFFFFFFFFF AND SUB PUSH2 0x3AC5 JUMPI PUSH1 0x40 MLOAD PUSH32 0x8C379A000000000000000000000000000000000000000000000000000000000 DUP2 MSTORE PUSH1 0x4 ADD PUSH2 0x3ABC SWAP1 PUSH2 0x526F JUMP JUMPDEST PUSH1 0x40 MLOAD DUP1 SWAP2 SUB SWAP1 REVERT JUMPDEST DUP1 PUSH1 0x1 PUSH0 PUSH2 0x100 EXP DUP2 SLOAD DUP2 PUSH20 0xFFFFFFFFFFFFFFFFFFFFFFFFFFFFFFFFFFFFFFFF MUL NOT AND SWAP1 DUP4 PUSH20 0xFFFFFFFFFFFFFFFFFFFFFFFFFFFFFFFFFFFFFFFF AND MUL OR SWAP1 SSTORE POP DUP1 PUSH20 0xFFFFFFFFFFFFFFFFFFFFFFFFFFFFFFFFFFFFFFFF AND PUSH0 DUP1 SLOAD SWAP1 PUSH2 0x100 EXP SWAP1 DIV PUSH20 0xFFFFFFFFFFFFFFFFFFFFFFFFFFFFFFFFFFFFFFFF AND PUSH20 0xFFFFFFFFFFFFFFFFFFFFFFFFFFFFFFFFFFFFFFFF AND PUSH32 0xED8889F560326EB138920D842192F0EB3DD22B4F139C87A2C57538E05BAE1278 PUSH1 0x40 MLOAD PUSH1 0x40 MLOAD DUP1 SWAP2 SUB SWAP1 LOG3 POP JUMP JUMPDEST PUSH0 DUP1 PUSH1 0x1A PUSH0 SWAP1 SLOAD SWAP1 PUSH2 0x100 EXP SWAP1 DIV PUSH20 0xFFFFFFFFFFFFFFFFFFFFFFFFFFFFFFFFFFFFFFFF AND PUSH20 0xFFFFFFFFFFFFFFFFFFFFFFFFFFFFFFFFFFFFFFFF AND PUSH4 0xFEAF968C PUSH1 0x40 MLOAD DUP2 PUSH4 0xFFFFFFFF AND PUSH1 0xE0 SHL DUP2 MSTORE PUSH1 0x4 ADD PUSH1 0xA0 PUSH1 0x40 MLOAD DUP1 DUP4 SUB DUP2 DUP7 GAS STATICCALL ISZERO DUP1 ISZERO PUSH2 0x3BED JUMPI RETURNDATASIZE PUSH0 DUP1 RETURNDATACOPY RETURNDATASIZE PUSH0 REVERT JUMPDEST POP POP POP POP PUSH1 0x40 MLOAD RETURNDATASIZE PUSH1 0x1F NOT PUSH1 0x1F DUP3 ADD AND DUP3 ADD DUP1 PUSH1 0x40 MSTORE POP DUP2 ADD SWAP1 PUSH2 0x3C11 SWAP2 SWAP1 PUSH2 0x52FF JUMP JUMPDEST POP POP POP SWAP2 POP POP PUSH0 PUSH1 0x5 SLOAD DUP3 PUSH2 0x3C26 SWAP2 SWAP1 PUSH2 0x44D8 JUMP JUMPDEST SWAP1 POP DUP1 SWAP3 POP POP POP SWAP1 JUMP JUMPDEST PUSH0 PUSH32 0x0 PUSH20 0xFFFFFFFFFFFFFFFFFFFFFFFFFFFFFFFFFFFFFFFF AND PUSH4 0x4000AEA0 PUSH32 0x0 PUSH32 0x0 PUSH20 0xFFFFFFFFFFFFFFFFFFFFFFFFFFFFFFFFFFFFFFFF AND PUSH4 0x4306D354 DUP9 PUSH1 0x40 MLOAD DUP3 PUSH4 0xFFFFFFFF AND PUSH1 0xE0 SHL DUP2 MSTORE PUSH1 0x4 ADD PUSH2 0x3CE7 SWAP2 SWAP1 PUSH2 0x520C JUMP JUMPDEST PUSH1 0x20 PUSH1 0x40 MLOAD DUP1 DUP4 SUB DUP2 DUP7 GAS STATICCALL ISZERO DUP1 ISZERO PUSH2 0x3D02 JUMPI RETURNDATASIZE PUSH0 DUP1 RETURNDATACOPY RETURNDATASIZE PUSH0 REVERT JUMPDEST POP POP POP POP PUSH1 0x40 MLOAD RETURNDATASIZE PUSH1 0x1F NOT PUSH1 0x1F DUP3 ADD AND DUP3 ADD DUP1 PUSH1 0x40 MSTORE POP DUP2 ADD SWAP1 PUSH2 0x3D26 SWAP2 SWAP1 PUSH2 0x4554 JUMP JUMPDEST DUP8 DUP8 DUP8 PUSH1 0x40 MLOAD PUSH1 0x20 ADD PUSH2 0x3D3B SWAP4 SWAP3 SWAP2 SWAP1 PUSH2 0x5376 JUMP JUMPDEST PUSH1 0x40 MLOAD PUSH1 0x20 DUP2 DUP4 SUB SUB DUP2 MSTORE SWAP1 PUSH1 0x40 MSTORE PUSH1 0x40 MLOAD DUP5 PUSH4 0xFFFFFFFF AND PUSH1 0xE0 SHL DUP2 MSTORE PUSH1 0x4 ADD PUSH2 0x3D68 SWAP4 SWAP3 SWAP2 SWAP1 PUSH2 0x5425 JUMP JUMPDEST PUSH1 0x20 PUSH1 0x40 MLOAD DUP1 DUP4 SUB DUP2 PUSH0 DUP8 GAS CALL ISZERO DUP1 ISZERO PUSH2 0x3D84 JUMPI RETURNDATASIZE PUSH0 DUP1 RETURNDATACOPY RETURNDATASIZE PUSH0 REVERT JUMPDEST POP POP POP POP PUSH1 0x40 MLOAD RETURNDATASIZE PUSH1 0x1F NOT PUSH1 0x1F DUP3 ADD AND DUP3 ADD DUP1 PUSH1 0x40 MSTORE POP DUP2 ADD SWAP1 PUSH2 0x3DA8 SWAP2 SWAP1 PUSH2 0x46B9 JUMP JUMPDEST POP PUSH32 0x0 PUSH20 0xFFFFFFFFFFFFFFFFFFFFFFFFFFFFFFFFFFFFFFFF AND PUSH4 0xFC2A88C3 PUSH1 0x40 MLOAD DUP2 PUSH4 0xFFFFFFFF AND PUSH1 0xE0 SHL DUP2 MSTORE PUSH1 0x4 ADD PUSH1 0x20 PUSH1 0x40 MLOAD DUP1 DUP4 SUB DUP2 DUP7 GAS STATICCALL ISZERO DUP1 ISZERO PUSH2 0x3E12 JUMPI RETURNDATASIZE PUSH0 DUP1 RETURNDATACOPY RETURNDATASIZE PUSH0 REVERT JUMPDEST POP POP POP POP PUSH1 0x40 MLOAD RETURNDATASIZE PUSH1 0x1F NOT PUSH1 0x1F DUP3 ADD AND DUP3 ADD DUP1 PUSH1 0x40 MSTORE POP DUP2 ADD SWAP1 PUSH2 0x3E36 SWAP2 SWAP1 PUSH2 0x4554 JUMP JUMPDEST SWAP1 POP SWAP4 SWAP3 POP POP POP JUMP JUMPDEST DUP3 DUP1 SLOAD DUP3 DUP3 SSTORE SWAP1 PUSH0 MSTORE PUSH1 0x20 PUSH0 KECCAK256 SWAP1 DUP2 ADD SWAP3 DUP3 ISZERO PUSH2 0x3E79 JUMPI SWAP2 PUSH1 0x20 MUL DUP3 ADD JUMPDEST DUP3 DUP2 GT ISZERO PUSH2 0x3E78 JUMPI DUP3 MLOAD DUP3 SSTORE SWAP2 PUSH1 0x20 ADD SWAP2 SWAP1 PUSH1 0x1 ADD SWAP1 PUSH2 0x3E5D JUMP JUMPDEST JUMPDEST POP SWAP1 POP PUSH2 0x3E86 SWAP2 SWAP1 PUSH2 0x3E8A JUMP JUMPDEST POP SWAP1 JUMP JUMPDEST JUMPDEST DUP1 DUP3 GT ISZERO PUSH2 0x3EA1 JUMPI PUSH0 DUP2 PUSH0 SWAP1 SSTORE POP PUSH1 0x1 ADD PUSH2 0x3E8B JUMP JUMPDEST POP SWAP1 JUMP JUMPDEST PUSH0 PUSH1 0x40 MLOAD SWAP1 POP SWAP1 JUMP JUMPDEST PUSH0 DUP1 REVERT JUMPDEST PUSH0 DUP1 REVERT JUMPDEST PUSH0 PUSH2 0xFFFF DUP3 AND SWAP1 POP SWAP2 SWAP1 POP JUMP JUMPDEST PUSH2 0x3ECC DUP2 PUSH2 0x3EB6 JUMP JUMPDEST DUP2 EQ PUSH2 0x3ED6 JUMPI PUSH0 DUP1 REVERT JUMPDEST POP JUMP JUMPDEST PUSH0 DUP2 CALLDATALOAD SWAP1 POP PUSH2 0x3EE7 DUP2 PUSH2 0x3EC3 JUMP JUMPDEST SWAP3 SWAP2 POP POP JUMP JUMPDEST PUSH0 PUSH1 0x20 DUP3 DUP5 SUB SLT ISZERO PUSH2 0x3F02 JUMPI PUSH2 0x3F01 PUSH2 0x3EAE JUMP JUMPDEST JUMPDEST PUSH0 PUSH2 0x3F0F DUP5 DUP3 DUP6 ADD PUSH2 0x3ED9 JUMP JUMPDEST SWAP2 POP POP SWAP3 SWAP2 POP POP JUMP JUMPDEST PUSH0 DUP2 SWAP1 POP SWAP2 SWAP1 POP JUMP JUMPDEST PUSH2 0x3F2A DUP2 PUSH2 0x3F18 JUMP JUMPDEST DUP2 EQ PUSH2 0x3F34 JUMPI PUSH0 DUP1 REVERT JUMPDEST POP JUMP JUMPDEST PUSH0 DUP2 CALLDATALOAD SWAP1 POP PUSH2 0x3F45 DUP2 PUSH2 0x3F21 JUMP JUMPDEST SWAP3 SWAP2 POP POP JUMP JUMPDEST PUSH0 DUP1 REVERT JUMPDEST PUSH0 PUSH1 0x1F NOT PUSH1 0x1F DUP4 ADD AND SWAP1 POP SWAP2 SWAP1 POP JUMP JUMPDEST PUSH32 0x4E487B7100000000000000000000000000000000000000000000000000000000 PUSH0 MSTORE PUSH1 0x41 PUSH1 0x4 MSTORE PUSH1 0x24 PUSH0 REVERT JUMPDEST PUSH2 0x3F95 DUP3 PUSH2 0x3F4F JUMP JUMPDEST DUP2 ADD DUP2 DUP2 LT PUSH8 0xFFFFFFFFFFFFFFFF DUP3 GT OR ISZERO PUSH2 0x3FB4 JUMPI PUSH2 0x3FB3 PUSH2 0x3F5F JUMP JUMPDEST JUMPDEST DUP1 PUSH1 0x40 MSTORE POP POP POP JUMP JUMPDEST PUSH0 PUSH2 0x3FC6 PUSH2 0x3EA5 JUMP JUMPDEST SWAP1 POP PUSH2 0x3FD2 DUP3 DUP3 PUSH2 0x3F8C JUMP JUMPDEST SWAP2 SWAP1 POP JUMP JUMPDEST PUSH0 PUSH8 0xFFFFFFFFFFFFFFFF DUP3 GT ISZERO PUSH2 0x3FF1 JUMPI PUSH2 0x3FF0 PUSH2 0x3F5F JUMP JUMPDEST JUMPDEST PUSH1 0x20 DUP3 MUL SWAP1 POP PUSH1 0x20 DUP2 ADD SWAP1 POP SWAP2 SWAP1 POP JUMP JUMPDEST PUSH0 DUP1 REVERT JUMPDEST PUSH0 PUSH2 0x4018 PUSH2 0x4013 DUP5 PUSH2 0x3FD7 JUMP JUMPDEST PUSH2 0x3FBD JUMP JUMPDEST SWAP1 POP DUP1 DUP4 DUP3 MSTORE PUSH1 0x20 DUP3 ADD SWAP1 POP PUSH1 0x20 DUP5 MUL DUP4 ADD DUP6 DUP2 GT ISZERO PUSH2 0x403B JUMPI PUSH2 0x403A PUSH2 0x4002 JUMP JUMPDEST JUMPDEST DUP4 JUMPDEST DUP2 DUP2 LT ISZERO PUSH2 0x4064 JUMPI DUP1 PUSH2 0x4050 DUP9 DUP3 PUSH2 0x3F37 JUMP JUMPDEST DUP5 MSTORE PUSH1 0x20 DUP5 ADD SWAP4 POP POP PUSH1 0x20 DUP2 ADD SWAP1 POP PUSH2 0x403D JUMP JUMPDEST POP POP POP SWAP4 SWAP3 POP POP POP JUMP JUMPDEST PUSH0 DUP3 PUSH1 0x1F DUP4 ADD SLT PUSH2 0x4082 JUMPI PUSH2 0x4081 PUSH2 0x3F4B JUMP JUMPDEST JUMPDEST DUP2 CALLDATALOAD PUSH2 0x4092 DUP5 DUP3 PUSH1 0x20 DUP7 ADD PUSH2 0x4006 JUMP JUMPDEST SWAP2 POP POP SWAP3 SWAP2 POP POP JUMP JUMPDEST PUSH0 DUP1 PUSH1 0x40 DUP4 DUP6 SUB SLT ISZERO PUSH2 0x40B1 JUMPI PUSH2 0x40B0 PUSH2 0x3EAE JUMP JUMPDEST JUMPDEST PUSH0 PUSH2 0x40BE DUP6 DUP3 DUP7 ADD PUSH2 0x3F37 JUMP JUMPDEST SWAP3 POP POP PUSH1 0x20 DUP4 ADD CALLDATALOAD PUSH8 0xFFFFFFFFFFFFFFFF DUP2 GT ISZERO PUSH2 0x40DF JUMPI PUSH2 0x40DE PUSH2 0x3EB2 JUMP JUMPDEST JUMPDEST PUSH2 0x40EB DUP6 DUP3 DUP7 ADD PUSH2 0x406E JUMP JUMPDEST SWAP2 POP POP SWAP3 POP SWAP3 SWAP1 POP JUMP JUMPDEST PUSH0 PUSH20 0xFFFFFFFFFFFFFFFFFFFFFFFFFFFFFFFFFFFFFFFF DUP3 AND SWAP1 POP SWAP2 SWAP1 POP JUMP JUMPDEST PUSH0 PUSH2 0x411E DUP3 PUSH2 0x40F5 JUMP JUMPDEST SWAP1 POP SWAP2 SWAP1 POP JUMP JUMPDEST PUSH2 0x412E DUP2 PUSH2 0x4114 JUMP JUMPDEST DUP2 EQ PUSH2 0x4138 JUMPI PUSH0 DUP1 REVERT JUMPDEST POP JUMP JUMPDEST PUSH0 DUP2 CALLDATALOAD SWAP1 POP PUSH2 0x4149 DUP2 PUSH2 0x4125 JUMP JUMPDEST SWAP3 SWAP2 POP POP JUMP JUMPDEST PUSH0 PUSH1 0x20 DUP3 DUP5 SUB SLT ISZERO PUSH2 0x4164 JUMPI PUSH2 0x4163 PUSH2 0x3EAE JUMP JUMPDEST JUMPDEST PUSH0 PUSH2 0x4171 DUP5 DUP3 DUP6 ADD PUSH2 0x413B JUMP JUMPDEST SWAP2 POP POP SWAP3 SWAP2 POP POP JUMP JUMPDEST PUSH2 0x4183 DUP2 PUSH2 0x3EB6 JUMP JUMPDEST DUP3 MSTORE POP POP JUMP JUMPDEST PUSH0 PUSH1 0x20 DUP3 ADD SWAP1 POP PUSH2 0x419C PUSH0 DUP4 ADD DUP5 PUSH2 0x417A JUMP JUMPDEST SWAP3 SWAP2 POP POP JUMP JUMPDEST PUSH2 0x41AB DUP2 PUSH2 0x3F18 JUMP JUMPDEST DUP3 MSTORE POP POP JUMP JUMPDEST PUSH0 PUSH1 0x20 DUP3 ADD SWAP1 POP PUSH2 0x41C4 PUSH0 DUP4 ADD DUP5 PUSH2 0x41A2 JUMP JUMPDEST SWAP3 SWAP2 POP POP JUMP JUMPDEST PUSH2 0x41D3 DUP2 PUSH2 0x4114 JUMP JUMPDEST DUP3 MSTORE POP POP JUMP JUMPDEST PUSH0 PUSH1 0x20 DUP3 ADD SWAP1 POP PUSH2 0x41EC PUSH0 DUP4 ADD DUP5 PUSH2 0x41CA JUMP JUMPDEST SWAP3 SWAP2 POP POP JUMP JUMPDEST PUSH0 PUSH1 0xFF DUP3 AND SWAP1 POP SWAP2 SWAP1 POP JUMP JUMPDEST PUSH2 0x4207 DUP2 PUSH2 0x41F2 JUMP JUMPDEST DUP3 MSTORE POP POP JUMP JUMPDEST PUSH0 PUSH1 0x20 DUP3 ADD SWAP1 POP PUSH2 0x4220 PUSH0 DUP4 ADD DUP5 PUSH2 0x41FE JUMP JUMPDEST SWAP3 SWAP2 POP POP JUMP JUMPDEST PUSH2 0x422F DUP2 PUSH2 0x41F2 JUMP JUMPDEST DUP2 EQ PUSH2 0x4239 JUMPI PUSH0 DUP1 REVERT JUMPDEST POP JUMP JUMPDEST PUSH0 DUP2 CALLDATALOAD SWAP1 POP PUSH2 0x424A DUP2 PUSH2 0x4226 JUMP JUMPDEST SWAP3 SWAP2 POP POP JUMP JUMPDEST PUSH0 PUSH1 0x20 DUP3 DUP5 SUB SLT ISZERO PUSH2 0x4265 JUMPI PUSH2 0x4264 PUSH2 0x3EAE JUMP JUMPDEST JUMPDEST PUSH0 PUSH2 0x4272 DUP5 DUP3 DUP6 ADD PUSH2 0x423C JUMP JUMPDEST SWAP2 POP POP SWAP3 SWAP2 POP POP JUMP JUMPDEST PUSH0 DUP3 DUP3 MSTORE PUSH1 0x20 DUP3 ADD SWAP1 POP SWAP3 SWAP2 POP POP JUMP JUMPDEST PUSH32 0x5265656E7472616E63792067756172643A206C6F636B65640000000000000000 PUSH0 DUP3 ADD MSTORE POP JUMP JUMPDEST PUSH0 PUSH2 0x42BF PUSH1 0x18 DUP4 PUSH2 0x427B JUMP JUMPDEST SWAP2 POP PUSH2 0x42CA DUP3 PUSH2 0x428B JUMP JUMPDEST PUSH1 0x20 DUP3 ADD SWAP1 POP SWAP2 SWAP1 POP JUMP JUMPDEST PUSH0 PUSH1 0x20 DUP3 ADD SWAP1 POP DUP2 DUP2 SUB PUSH0 DUP4 ADD MSTORE PUSH2 0x42EC DUP2 PUSH2 0x42B3 JUMP JUMPDEST SWAP1 POP SWAP2 SWAP1 POP JUMP JUMPDEST PUSH32 0x436F6E7472696275746F722063757272656E746C7920646F6573206E6F742068 PUSH0 DUP3 ADD MSTORE PUSH32 0x61766520616E792066756E64732077697468696E2074686520636F6E74726163 PUSH1 0x20 DUP3 ADD MSTORE PUSH32 0x7400000000000000000000000000000000000000000000000000000000000000 PUSH1 0x40 DUP3 ADD MSTORE POP JUMP JUMPDEST PUSH0 PUSH2 0x4373 PUSH1 0x41 DUP4 PUSH2 0x427B JUMP JUMPDEST SWAP2 POP PUSH2 0x437E DUP3 PUSH2 0x42F3 JUMP JUMPDEST PUSH1 0x60 DUP3 ADD SWAP1 POP SWAP2 SWAP1 POP JUMP JUMPDEST PUSH0 PUSH1 0x20 DUP3 ADD SWAP1 POP DUP2 DUP2 SUB PUSH0 DUP4 ADD MSTORE PUSH2 0x43A0 DUP2 PUSH2 0x4367 JUMP JUMPDEST SWAP1 POP SWAP2 SWAP1 POP JUMP JUMPDEST PUSH32 0x596F7520617265206E6F7420656C696769626C6520746F207769746864726177 PUSH0 DUP3 ADD MSTORE POP JUMP JUMPDEST PUSH0 PUSH2 0x43DB PUSH1 0x20 DUP4 PUSH2 0x427B JUMP JUMPDEST SWAP2 POP PUSH2 0x43E6 DUP3 PUSH2 0x43A7 JUMP JUMPDEST PUSH1 0x20 DUP3 ADD SWAP1 POP SWAP2 SWAP1 POP JUMP JUMPDEST PUSH0 PUSH1 0x20 DUP3 ADD SWAP1 POP DUP2 DUP2 SUB PUSH0 DUP4 ADD MSTORE PUSH2 0x4408 DUP2 PUSH2 0x43CF JUMP JUMPDEST SWAP1 POP SWAP2 SWAP1 POP JUMP JUMPDEST PUSH32 0x5769746864726177696E672045544820636F6E74726962757465642066726F6D PUSH0 DUP3 ADD MSTORE PUSH32 0x20536D61727420436F6E747261637420546F74616C2046756E64732E00000000 PUSH1 0x20 DUP3 ADD MSTORE POP JUMP JUMPDEST PUSH0 PUSH2 0x4469 PUSH1 0x3C DUP4 PUSH2 0x427B JUMP JUMPDEST SWAP2 POP PUSH2 0x4474 DUP3 PUSH2 0x440F JUMP JUMPDEST PUSH1 0x40 DUP3 ADD SWAP1 POP SWAP2 SWAP1 POP JUMP JUMPDEST PUSH0 PUSH1 0x40 DUP3 ADD SWAP1 POP PUSH2 0x4492 PUSH0 DUP4 ADD DUP5 PUSH2 0x41A2 JUMP JUMPDEST DUP2 DUP2 SUB PUSH1 0x20 DUP4 ADD MSTORE PUSH2 0x44A3 DUP2 PUSH2 0x445D JUMP JUMPDEST SWAP1 POP SWAP3 SWAP2 POP POP JUMP JUMPDEST PUSH32 0x4E487B7100000000000000000000000000000000000000000000000000000000 PUSH0 MSTORE PUSH1 0x11 PUSH1 0x4 MSTORE PUSH1 0x24 PUSH0 REVERT JUMPDEST PUSH0 PUSH2 0x44E2 DUP3 PUSH2 0x3F18 JUMP JUMPDEST SWAP2 POP PUSH2 0x44ED DUP4 PUSH2 0x3F18 JUMP JUMPDEST SWAP3 POP DUP3 DUP3 MUL PUSH2 0x44FB DUP2 PUSH2 0x3F18 JUMP JUMPDEST SWAP2 POP DUP3 DUP3 DIV DUP5 EQ DUP4 ISZERO OR PUSH2 0x4512 JUMPI PUSH2 0x4511 PUSH2 0x44AB JUMP JUMPDEST JUMPDEST POP SWAP3 SWAP2 POP POP JUMP JUMPDEST PUSH0 PUSH1 0x40 DUP3 ADD SWAP1 POP PUSH2 0x452C PUSH0 DUP4 ADD DUP6 PUSH2 0x41CA JUMP JUMPDEST PUSH2 0x4539 PUSH1 0x20 DUP4 ADD DUP5 PUSH2 0x41CA JUMP JUMPDEST SWAP4 SWAP3 POP POP POP JUMP JUMPDEST PUSH0 DUP2 MLOAD SWAP1 POP PUSH2 0x454E DUP2 PUSH2 0x3F21 JUMP JUMPDEST SWAP3 SWAP2 POP POP JUMP JUMPDEST PUSH0 PUSH1 0x20 DUP3 DUP5 SUB SLT ISZERO PUSH2 0x4569 JUMPI PUSH2 0x4568 PUSH2 0x3EAE JUMP JUMPDEST JUMPDEST PUSH0 PUSH2 0x4576 DUP5 DUP3 DUP6 ADD PUSH2 0x4540 JUMP JUMPDEST SWAP2 POP POP SWAP3 SWAP2 POP POP JUMP JUMPDEST PUSH32 0x496E73756666696369656E7420534C5420616C6C6F77616E6365000000000000 PUSH0 DUP3 ADD MSTORE POP JUMP JUMPDEST PUSH0 PUSH2 0x45B3 PUSH1 0x1A DUP4 PUSH2 0x427B JUMP JUMPDEST SWAP2 POP PUSH2 0x45BE DUP3 PUSH2 0x457F JUMP JUMPDEST PUSH1 0x20 DUP3 ADD SWAP1 POP SWAP2 SWAP1 POP JUMP JUMPDEST PUSH0 PUSH1 0x20 DUP3 ADD SWAP1 POP DUP2 DUP2 SUB PUSH0 DUP4 ADD MSTORE PUSH2 0x45E0 DUP2 PUSH2 0x45A7 JUMP JUMPDEST SWAP1 POP SWAP2 SWAP1 POP JUMP JUMPDEST PUSH32 0x496E73756666696369656E7420534C542062616C616E63650000000000000000 PUSH0 DUP3 ADD MSTORE POP JUMP JUMPDEST PUSH0 PUSH2 0x461B PUSH1 0x18 DUP4 PUSH2 0x427B JUMP JUMPDEST SWAP2 POP PUSH2 0x4626 DUP3 PUSH2 0x45E7 JUMP JUMPDEST PUSH1 0x20 DUP3 ADD SWAP1 POP SWAP2 SWAP1 POP JUMP JUMPDEST PUSH0 PUSH1 0x20 DUP3 ADD SWAP1 POP DUP2 DUP2 SUB PUSH0 DUP4 ADD MSTORE PUSH2 0x4648 DUP2 PUSH2 0x460F JUMP JUMPDEST SWAP1 POP SWAP2 SWAP1 POP JUMP JUMPDEST PUSH0 PUSH1 0x60 DUP3 ADD SWAP1 POP PUSH2 0x4662 PUSH0 DUP4 ADD DUP7 PUSH2 0x41CA JUMP JUMPDEST PUSH2 0x466F PUSH1 0x20 DUP4 ADD DUP6 PUSH2 0x41CA JUMP JUMPDEST PUSH2 0x467C PUSH1 0x40 DUP4 ADD DUP5 PUSH2 0x41A2 JUMP JUMPDEST SWAP5 SWAP4 POP POP POP POP JUMP JUMPDEST PUSH0 DUP2 ISZERO ISZERO SWAP1 POP SWAP2 SWAP1 POP JUMP JUMPDEST PUSH2 0x4698 DUP2 PUSH2 0x4684 JUMP JUMPDEST DUP2 EQ PUSH2 0x46A2 JUMPI PUSH0 DUP1 REVERT JUMPDEST POP JUMP JUMPDEST PUSH0 DUP2 MLOAD SWAP1 POP PUSH2 0x46B3 DUP2 PUSH2 0x468F JUMP JUMPDEST SWAP3 SWAP2 POP POP JUMP JUMPDEST PUSH0 PUSH1 0x20 DUP3 DUP5 SUB SLT ISZERO PUSH2 0x46CE JUMPI PUSH2 0x46CD PUSH2 0x3EAE JUMP JUMPDEST JUMPDEST PUSH0 PUSH2 0x46DB DUP5 DUP3 DUP6 ADD PUSH2 0x46A5 JUMP JUMPDEST SWAP2 POP POP SWAP3 SWAP2 POP POP JUMP JUMPDEST PUSH32 0x4E487B7100000000000000000000000000000000000000000000000000000000 PUSH0 MSTORE PUSH1 0x12 PUSH1 0x4 MSTORE PUSH1 0x24 PUSH0 REVERT JUMPDEST PUSH0 PUSH2 0x471B DUP3 PUSH2 0x3F18 JUMP JUMPDEST SWAP2 POP PUSH2 0x4726 DUP4 PUSH2 0x3F18 JUMP JUMPDEST SWAP3 POP DUP3 PUSH2 0x4736 JUMPI PUSH2 0x4735 PUSH2 0x46E4 JUMP JUMPDEST JUMPDEST DUP3 DUP3 DIV SWAP1 POP SWAP3 SWAP2 POP POP JUMP JUMPDEST PUSH32 0x6F6E6C792056524620563220777261707065722063616E2066756C66696C6C00 PUSH0 DUP3 ADD MSTORE POP JUMP JUMPDEST PUSH0 PUSH2 0x4775 PUSH1 0x1F DUP4 PUSH2 0x427B JUMP JUMPDEST SWAP2 POP PUSH2 0x4780 DUP3 PUSH2 0x4741 JUMP JUMPDEST PUSH1 0x20 DUP3 ADD SWAP1 POP SWAP2 SWAP1 POP JUMP JUMPDEST PUSH0 PUSH1 0x20 DUP3 ADD SWAP1 POP DUP2 DUP2 SUB PUSH0 DUP4 ADD MSTORE PUSH2 0x47A2 DUP2 PUSH2 0x4769 JUMP JUMPDEST SWAP1 POP SWAP2 SWAP1 POP JUMP JUMPDEST PUSH32 0x4E6F742061207061727469636970616E742E2043686F6F736520612064726177 PUSH0 DUP3 ADD MSTORE POP JUMP JUMPDEST PUSH0 PUSH2 0x47DD PUSH1 0x20 DUP4 PUSH2 0x427B JUMP JUMPDEST SWAP2 POP PUSH2 0x47E8 DUP3 PUSH2 0x47A9 JUMP JUMPDEST PUSH1 0x20 DUP3 ADD SWAP1 POP SWAP2 SWAP1 POP JUMP JUMPDEST PUSH0 PUSH1 0x20 DUP3 ADD SWAP1 POP DUP2 DUP2 SUB PUSH0 DUP4 ADD MSTORE PUSH2 0x480A DUP2 PUSH2 0x47D1 JUMP JUMPDEST SWAP1 POP SWAP2 SWAP1 POP JUMP JUMPDEST PUSH32 0x72657175657374206E6F7420666F756E64000000000000000000000000000000 PUSH0 DUP3 ADD MSTORE POP JUMP JUMPDEST PUSH0 PUSH2 0x4845 PUSH1 0x11 DUP4 PUSH2 0x427B JUMP JUMPDEST SWAP2 POP PUSH2 0x4850 DUP3 PUSH2 0x4811 JUMP JUMPDEST PUSH1 0x20 DUP3 ADD SWAP1 POP SWAP2 SWAP1 POP JUMP JUMPDEST PUSH0 PUSH1 0x20 DUP3 ADD SWAP1 POP DUP2 DUP2 SUB PUSH0 DUP4 ADD MSTORE PUSH2 0x4872 DUP2 PUSH2 0x4839 JUMP JUMPDEST SWAP1 POP SWAP2 SWAP1 POP JUMP JUMPDEST PUSH32 0x4C696E6B20746F6B656E20666565206E6F742070616964000000000000000000 PUSH0 DUP3 ADD MSTORE POP JUMP JUMPDEST PUSH0 PUSH2 0x48AD PUSH1 0x17 DUP4 PUSH2 0x427B JUMP JUMPDEST SWAP2 POP PUSH2 0x48B8 DUP3 PUSH2 0x4879 JUMP JUMPDEST PUSH1 0x20 DUP3 ADD SWAP1 POP SWAP2 SWAP1 POP JUMP JUMPDEST PUSH0 PUSH1 0x20 DUP3 ADD SWAP1 POP DUP2 DUP2 SUB PUSH0 DUP4 ADD MSTORE PUSH2 0x48DA DUP2 PUSH2 0x48A1 JUMP JUMPDEST SWAP1 POP SWAP2 SWAP1 POP JUMP JUMPDEST PUSH0 PUSH2 0x48EB DUP3 PUSH2 0x3F18 JUMP JUMPDEST SWAP2 POP PUSH2 0x48F6 DUP4 PUSH2 0x3F18 JUMP JUMPDEST SWAP3 POP DUP3 PUSH2 0x4906 JUMPI PUSH2 0x4905 PUSH2 0x46E4 JUMP JUMPDEST JUMPDEST DUP3 DUP3 MOD SWAP1 POP SWAP3 SWAP2 POP POP JUMP JUMPDEST PUSH32 0x4E487B7100000000000000000000000000000000000000000000000000000000 PUSH0 MSTORE PUSH1 0x32 PUSH1 0x4 MSTORE PUSH1 0x24 PUSH0 REVERT JUMPDEST PUSH32 0x416D6F756E7420576F6E2046726F6D2050617274696369706174696F6E000000 PUSH0 DUP3 ADD MSTORE POP JUMP JUMPDEST PUSH0 PUSH2 0x4972 PUSH1 0x1D DUP4 PUSH2 0x427B JUMP JUMPDEST SWAP2 POP PUSH2 0x497D DUP3 PUSH2 0x493E JUMP JUMPDEST PUSH1 0x20 DUP3 ADD SWAP1 POP SWAP2 SWAP1 POP JUMP JUMPDEST PUSH0 PUSH1 0x40 DUP3 ADD SWAP1 POP PUSH2 0x499B PUSH0 DUP4 ADD DUP5 PUSH2 0x41A2 JUMP JUMPDEST DUP2 DUP2 SUB PUSH1 0x20 DUP4 ADD MSTORE PUSH2 0x49AC DUP2 PUSH2 0x4966 JUMP JUMPDEST SWAP1 POP SWAP3 SWAP2 POP POP JUMP JUMPDEST PUSH32 0x4E6F7420656E6F756768204C696E6B20746F6B656E7320696E20636F6E747261 PUSH0 DUP3 ADD MSTORE PUSH32 0x6374000000000000000000000000000000000000000000000000000000000000 PUSH1 0x20 DUP3 ADD MSTORE POP JUMP JUMPDEST PUSH0 PUSH2 0x4A0E PUSH1 0x22 DUP4 PUSH2 0x427B JUMP JUMPDEST SWAP2 POP PUSH2 0x4A19 DUP3 PUSH2 0x49B4 JUMP JUMPDEST PUSH1 0x40 DUP3 ADD SWAP1 POP SWAP2 SWAP1 POP JUMP JUMPDEST PUSH0 PUSH1 0x20 DUP3 ADD SWAP1 POP DUP2 DUP2 SUB PUSH0 DUP4 ADD MSTORE PUSH2 0x4A3B DUP2 PUSH2 0x4A02 JUMP JUMPDEST SWAP1 POP SWAP2 SWAP1 POP JUMP JUMPDEST PUSH0 PUSH1 0x40 DUP3 ADD SWAP1 POP PUSH2 0x4A55 PUSH0 DUP4 ADD DUP6 PUSH2 0x41CA JUMP JUMPDEST PUSH2 0x4A62 PUSH1 0x20 DUP4 ADD DUP5 PUSH2 0x41A2 JUMP JUMPDEST SWAP4 SWAP3 POP POP POP JUMP JUMPDEST PUSH32 0x4D7573742062652070726F706F736564206F776E657200000000000000000000 PUSH0 DUP3 ADD MSTORE POP JUMP JUMPDEST PUSH0 PUSH2 0x4A9D PUSH1 0x16 DUP4 PUSH2 0x427B JUMP JUMPDEST SWAP2 POP PUSH2 0x4AA8 DUP3 PUSH2 0x4A69 JUMP JUMPDEST PUSH1 0x20 DUP3 ADD SWAP1 POP SWAP2 SWAP1 POP JUMP JUMPDEST PUSH0 PUSH1 0x20 DUP3 ADD SWAP1 POP DUP2 DUP2 SUB PUSH0 DUP4 ADD MSTORE PUSH2 0x4ACA DUP2 PUSH2 0x4A91 JUMP JUMPDEST SWAP1 POP SWAP2 SWAP1 POP JUMP JUMPDEST PUSH32 0x416D6F756E742050616964206973206C657373207468616E20456E7472792070 PUSH0 DUP3 ADD MSTORE PUSH32 0x7269636500000000000000000000000000000000000000000000000000000000 PUSH1 0x20 DUP3 ADD MSTORE POP JUMP JUMPDEST PUSH0 PUSH2 0x4B2B PUSH1 0x24 DUP4 PUSH2 0x427B JUMP JUMPDEST SWAP2 POP PUSH2 0x4B36 DUP3 PUSH2 0x4AD1 JUMP JUMPDEST PUSH1 0x40 DUP3 ADD SWAP1 POP SWAP2 SWAP1 POP JUMP JUMPDEST PUSH0 PUSH1 0x20 DUP3 ADD SWAP1 POP DUP2 DUP2 SUB PUSH0 DUP4 ADD MSTORE PUSH2 0x4B58 DUP2 PUSH2 0x4B1F JUMP JUMPDEST SWAP1 POP SWAP2 SWAP1 POP JUMP JUMPDEST PUSH32 0x4E6F7420656E6F7567682056616C756520696E20636F6E747261637420746F20 PUSH0 DUP3 ADD MSTORE PUSH32 0x656E746572207468697320647261770000000000000000000000000000000000 PUSH1 0x20 DUP3 ADD MSTORE POP JUMP JUMPDEST PUSH0 PUSH2 0x4BB9 PUSH1 0x2F DUP4 PUSH2 0x427B JUMP JUMPDEST SWAP2 POP PUSH2 0x4BC4 DUP3 PUSH2 0x4B5F JUMP JUMPDEST PUSH1 0x40 DUP3 ADD SWAP1 POP SWAP2 SWAP1 POP JUMP JUMPDEST PUSH0 PUSH1 0x20 DUP3 ADD SWAP1 POP DUP2 DUP2 SUB PUSH0 DUP4 ADD MSTORE PUSH2 0x4BE6 DUP2 PUSH2 0x4BAD JUMP JUMPDEST SWAP1 POP SWAP2 SWAP1 POP JUMP JUMPDEST PUSH32 0x5061696420746F20506172746963697061746520696E204472617720576F7274 PUSH0 DUP3 ADD MSTORE PUSH32 0x682054656E000000000000000000000000000000000000000000000000000000 PUSH1 0x20 DUP3 ADD MSTORE POP JUMP JUMPDEST PUSH0 PUSH2 0x4C47 PUSH1 0x25 DUP4 PUSH2 0x427B JUMP JUMPDEST SWAP2 POP PUSH2 0x4C52 DUP3 PUSH2 0x4BED JUMP JUMPDEST PUSH1 0x40 DUP3 ADD SWAP1 POP SWAP2 SWAP1 POP JUMP JUMPDEST PUSH0 PUSH1 0x40 DUP3 ADD SWAP1 POP PUSH2 0x4C70 PUSH0 DUP4 ADD DUP5 PUSH2 0x41A2 JUMP JUMPDEST DUP2 DUP2 SUB PUSH1 0x20 DUP4 ADD MSTORE PUSH2 0x4C81 DUP2 PUSH2 0x4C3B JUMP JUMPDEST SWAP1 POP SWAP3 SWAP2 POP POP JUMP JUMPDEST PUSH32 0x5061696420746F20506172746963697061746520696E204472617720576F7274 PUSH0 DUP3 ADD MSTORE PUSH32 0x682054686F7573616E6400000000000000000000000000000000000000000000 PUSH1 0x20 DUP3 ADD MSTORE POP JUMP JUMPDEST PUSH0 PUSH2 0x4CE3 PUSH1 0x2A DUP4 PUSH2 0x427B JUMP JUMPDEST SWAP2 POP PUSH2 0x4CEE DUP3 PUSH2 0x4C89 JUMP JUMPDEST PUSH1 0x40 DUP3 ADD SWAP1 POP SWAP2 SWAP1 POP JUMP JUMPDEST PUSH0 PUSH1 0x40 DUP3 ADD SWAP1 POP PUSH2 0x4D0C PUSH0 DUP4 ADD DUP5 PUSH2 0x41A2 JUMP JUMPDEST DUP2 DUP2 SUB PUSH1 0x20 DUP4 ADD MSTORE PUSH2 0x4D1D DUP2 PUSH2 0x4CD7 JUMP JUMPDEST SWAP1 POP SWAP3 SWAP2 POP POP JUMP JUMPDEST PUSH32 0x5061696420746F20506172746963697061746520696E204472617720576F7274 PUSH0 DUP3 ADD MSTORE PUSH32 0x682054656E54686F7573616E6400000000000000000000000000000000000000 PUSH1 0x20 DUP3 ADD MSTORE POP JUMP JUMPDEST PUSH0 PUSH2 0x4D7F PUSH1 0x2D DUP4 PUSH2 0x427B JUMP JUMPDEST SWAP2 POP PUSH2 0x4D8A DUP3 PUSH2 0x4D25 JUMP JUMPDEST PUSH1 0x40 DUP3 ADD SWAP1 POP SWAP2 SWAP1 POP JUMP JUMPDEST PUSH0 PUSH1 0x40 DUP3 ADD SWAP1 POP PUSH2 0x4DA8 PUSH0 DUP4 ADD DUP5 PUSH2 0x41A2 JUMP JUMPDEST DUP2 DUP2 SUB PUSH1 0x20 DUP4 ADD MSTORE PUSH2 0x4DB9 DUP2 PUSH2 0x4D73 JUMP JUMPDEST SWAP1 POP SWAP3 SWAP2 POP POP JUMP JUMPDEST PUSH32 0x436F6E7472696275746F7220616C726561647920657869737473000000000000 PUSH0 DUP3 ADD MSTORE POP JUMP JUMPDEST PUSH0 PUSH2 0x4DF5 PUSH1 0x1A DUP4 PUSH2 0x427B JUMP JUMPDEST SWAP2 POP PUSH2 0x4E00 DUP3 PUSH2 0x4DC1 JUMP JUMPDEST PUSH1 0x20 DUP3 ADD SWAP1 POP SWAP2 SWAP1 POP JUMP JUMPDEST PUSH0 PUSH1 0x20 DUP3 ADD SWAP1 POP DUP2 DUP2 SUB PUSH0 DUP4 ADD MSTORE PUSH2 0x4E22 DUP2 PUSH2 0x4DE9 JUMP JUMPDEST SWAP1 POP SWAP2 SWAP1 POP JUMP JUMPDEST PUSH0 PUSH2 0x4E33 DUP3 PUSH2 0x3F18 JUMP JUMPDEST SWAP2 POP PUSH2 0x4E3E DUP4 PUSH2 0x3F18 JUMP JUMPDEST SWAP3 POP DUP3 DUP3 SUB SWAP1 POP DUP2 DUP2 GT ISZERO PUSH2 0x4E56 JUMPI PUSH2 0x4E55 PUSH2 0x44AB JUMP JUMPDEST JUMPDEST SWAP3 SWAP2 POP POP JUMP JUMPDEST PUSH32 0x436F6E747269627574696E672045544820746F2074686520536D61727420436F PUSH0 DUP3 ADD MSTORE PUSH32 0x6E747261637420546F74616C2046756E64732E00000000000000000000000000 PUSH1 0x20 DUP3 ADD MSTORE POP JUMP JUMPDEST PUSH0 PUSH2 0x4EB6 PUSH1 0x33 DUP4 PUSH2 0x427B JUMP JUMPDEST SWAP2 POP PUSH2 0x4EC1 DUP3 PUSH2 0x4E5C JUMP JUMPDEST PUSH1 0x40 DUP3 ADD SWAP1 POP SWAP2 SWAP1 POP JUMP JUMPDEST PUSH0 PUSH1 0x60 DUP3 ADD SWAP1 POP PUSH2 0x4EDF PUSH0 DUP4 ADD DUP6 PUSH2 0x41A2 JUMP JUMPDEST PUSH2 0x4EEC PUSH1 0x20 DUP4 ADD DUP5 PUSH2 0x41A2 JUMP JUMPDEST DUP2 DUP2 SUB PUSH1 0x40 DUP4 ADD MSTORE PUSH2 0x4EFD DUP2 PUSH2 0x4EAA JUMP JUMPDEST SWAP1 POP SWAP4 SWAP3 POP POP POP JUMP JUMPDEST PUSH32 0x5061696420746F20506172746963697061746520696E204472617720576F7274 PUSH0 DUP3 ADD MSTORE PUSH32 0x682048756E647265640000000000000000000000000000000000000000000000 PUSH1 0x20 DUP3 ADD MSTORE POP JUMP JUMPDEST PUSH0 PUSH2 0x4F60 PUSH1 0x29 DUP4 PUSH2 0x427B JUMP JUMPDEST SWAP2 POP PUSH2 0x4F6B DUP3 PUSH2 0x4F06 JUMP JUMPDEST PUSH1 0x40 DUP3 ADD SWAP1 POP SWAP2 SWAP1 POP JUMP JUMPDEST PUSH0 PUSH1 0x40 DUP3 ADD SWAP1 POP PUSH2 0x4F89 PUSH0 DUP4 ADD DUP5 PUSH2 0x41A2 JUMP JUMPDEST DUP2 DUP2 SUB PUSH1 0x20 DUP4 ADD MSTORE PUSH2 0x4F9A DUP2 PUSH2 0x4F54 JUMP JUMPDEST SWAP1 POP SWAP3 SWAP2 POP POP JUMP JUMPDEST PUSH32 0x496E73756666696369656E74204C696E6B20616C6C6F77616E63650000000000 PUSH0 DUP3 ADD MSTORE POP JUMP JUMPDEST PUSH0 PUSH2 0x4FD6 PUSH1 0x1B DUP4 PUSH2 0x427B JUMP JUMPDEST SWAP2 POP PUSH2 0x4FE1 DUP3 PUSH2 0x4FA2 JUMP JUMPDEST PUSH1 0x20 DUP3 ADD SWAP1 POP SWAP2 SWAP1 POP JUMP JUMPDEST PUSH0 PUSH1 0x20 DUP3 ADD SWAP1 POP DUP2 DUP2 SUB PUSH0 DUP4 ADD MSTORE PUSH2 0x5003 DUP2 PUSH2 0x4FCA JUMP JUMPDEST SWAP1 POP SWAP2 SWAP1 POP JUMP JUMPDEST PUSH0 PUSH2 0x5014 DUP3 PUSH2 0x3F18 JUMP JUMPDEST SWAP2 POP PUSH2 0x501F DUP4 PUSH2 0x3F18 JUMP JUMPDEST SWAP3 POP DUP3 DUP3 ADD SWAP1 POP DUP1 DUP3 GT ISZERO PUSH2 0x5037 JUMPI PUSH2 0x5036 PUSH2 0x44AB JUMP JUMPDEST JUMPDEST SWAP3 SWAP2 POP POP JUMP JUMPDEST PUSH32 0x4E487B7100000000000000000000000000000000000000000000000000000000 PUSH0 MSTORE PUSH1 0x31 PUSH1 0x4 MSTORE PUSH1 0x24 PUSH0 REVERT JUMPDEST PUSH32 0x4F6E6C792063616C6C61626C65206279206F776E657200000000000000000000 PUSH0 DUP3 ADD MSTORE POP JUMP JUMPDEST PUSH0 PUSH2 0x509E PUSH1 0x16 DUP4 PUSH2 0x427B JUMP JUMPDEST SWAP2 POP PUSH2 0x50A9 DUP3 PUSH2 0x506A JUMP JUMPDEST PUSH1 0x20 DUP3 ADD SWAP1 POP SWAP2 SWAP1 POP JUMP JUMPDEST PUSH0 PUSH1 0x20 DUP3 ADD SWAP1 POP DUP2 DUP2 SUB PUSH0 DUP4 ADD MSTORE PUSH2 0x50CB DUP2 PUSH2 0x5092 JUMP JUMPDEST SWAP1 POP SWAP2 SWAP1 POP JUMP JUMPDEST PUSH32 0x4E6F7420656E6F75676820534C5420746F6B656E7320696E20636F6E74726163 PUSH0 DUP3 ADD MSTORE PUSH32 0x7400000000000000000000000000000000000000000000000000000000000000 PUSH1 0x20 DUP3 ADD MSTORE POP JUMP JUMPDEST PUSH0 PUSH2 0x512C PUSH1 0x21 DUP4 PUSH2 0x427B JUMP JUMPDEST SWAP2 POP PUSH2 0x5137 DUP3 PUSH2 0x50D2 JUMP JUMPDEST PUSH1 0x40 DUP3 ADD SWAP1 POP SWAP2 SWAP1 POP JUMP JUMPDEST PUSH0 PUSH1 0x20 DUP3 ADD SWAP1 POP DUP2 DUP2 SUB PUSH0 DUP4 ADD MSTORE PUSH2 0x5159 DUP2 PUSH2 0x5120 JUMP JUMPDEST SWAP1 POP SWAP2 SWAP1 POP JUMP JUMPDEST PUSH32 0x596F75206861766520616C72656164792072657175657374656420666F722061 PUSH0 DUP3 ADD MSTORE PUSH32 0x2052616E646F6D204E756D626572000000000000000000000000000000000000 PUSH1 0x20 DUP3 ADD MSTORE POP JUMP JUMPDEST PUSH0 PUSH2 0x51BA PUSH1 0x2E DUP4 PUSH2 0x427B JUMP JUMPDEST SWAP2 POP PUSH2 0x51C5 DUP3 PUSH2 0x5160 JUMP JUMPDEST PUSH1 0x40 DUP3 ADD SWAP1 POP SWAP2 SWAP1 POP JUMP JUMPDEST PUSH0 PUSH1 0x20 DUP3 ADD SWAP1 POP DUP2 DUP2 SUB PUSH0 DUP4 ADD MSTORE PUSH2 0x51E7 DUP2 PUSH2 0x51AE JUMP JUMPDEST SWAP1 POP SWAP2 SWAP1 POP JUMP JUMPDEST PUSH0 PUSH4 0xFFFFFFFF DUP3 AND SWAP1 POP SWAP2 SWAP1 POP JUMP JUMPDEST PUSH2 0x5206 DUP2 PUSH2 0x51EE JUMP JUMPDEST DUP3 MSTORE POP POP JUMP JUMPDEST PUSH0 PUSH1 0x20 DUP3 ADD SWAP1 POP PUSH2 0x521F PUSH0 DUP4 ADD DUP5 PUSH2 0x51FD JUMP JUMPDEST SWAP3 SWAP2 POP POP JUMP JUMPDEST PUSH32 0x43616E6E6F74207472616E7366657220746F2073656C66000000000000000000 PUSH0 DUP3 ADD MSTORE POP JUMP JUMPDEST PUSH0 PUSH2 0x5259 PUSH1 0x17 DUP4 PUSH2 0x427B JUMP JUMPDEST SWAP2 POP PUSH2 0x5264 DUP3 PUSH2 0x5225 JUMP JUMPDEST PUSH1 0x20 DUP3 ADD SWAP1 POP SWAP2 SWAP1 POP JUMP JUMPDEST PUSH0 PUSH1 0x20 DUP3 ADD SWAP1 POP DUP2 DUP2 SUB PUSH0 DUP4 ADD MSTORE PUSH2 0x5286 DUP2 PUSH2 0x524D JUMP JUMPDEST SWAP1 POP SWAP2 SWAP1 POP JUMP JUMPDEST PUSH0 PUSH10 0xFFFFFFFFFFFFFFFFFFFF DUP3 AND SWAP1 POP SWAP2 SWAP1 POP JUMP JUMPDEST PUSH2 0x52AB DUP2 PUSH2 0x528D JUMP JUMPDEST DUP2 EQ PUSH2 0x52B5 JUMPI PUSH0 DUP1 REVERT JUMPDEST POP JUMP JUMPDEST PUSH0 DUP2 MLOAD SWAP1 POP PUSH2 0x52C6 DUP2 PUSH2 0x52A2 JUMP JUMPDEST SWAP3 SWAP2 POP POP JUMP JUMPDEST PUSH0 DUP2 SWAP1 POP SWAP2 SWAP1 POP JUMP JUMPDEST PUSH2 0x52DE DUP2 PUSH2 0x52CC JUMP JUMPDEST DUP2 EQ PUSH2 0x52E8 JUMPI PUSH0 DUP1 REVERT JUMPDEST POP JUMP JUMPDEST PUSH0 DUP2 MLOAD SWAP1 POP PUSH2 0x52F9 DUP2 PUSH2 0x52D5 JUMP JUMPDEST SWAP3 SWAP2 POP POP JUMP JUMPDEST PUSH0 DUP1 PUSH0 DUP1 PUSH0 PUSH1 0xA0 DUP7 DUP9 SUB SLT ISZERO PUSH2 0x5318 JUMPI PUSH2 0x5317 PUSH2 0x3EAE JUMP JUMPDEST JUMPDEST PUSH0 PUSH2 0x5325 DUP9 DUP3 DUP10 ADD PUSH2 0x52B8 JUMP JUMPDEST SWAP6 POP POP PUSH1 0x20 PUSH2 0x5336 DUP9 DUP3 DUP10 ADD PUSH2 0x52EB JUMP JUMPDEST SWAP5 POP POP PUSH1 0x40 PUSH2 0x5347 DUP9 DUP3 DUP10 ADD PUSH2 0x4540 JUMP JUMPDEST SWAP4 POP POP PUSH1 0x60 PUSH2 0x5358 DUP9 DUP3 DUP10 ADD PUSH2 0x4540 JUMP JUMPDEST SWAP3 POP POP PUSH1 0x80 PUSH2 0x5369 DUP9 DUP3 DUP10 ADD PUSH2 0x52B8 JUMP JUMPDEST SWAP2 POP POP SWAP3 SWAP6 POP SWAP3 SWAP6 SWAP1 SWAP4 POP JUMP JUMPDEST PUSH0 PUSH1 0x60 DUP3 ADD SWAP1 POP PUSH2 0x5389 PUSH0 DUP4 ADD DUP7 PUSH2 0x51FD JUMP JUMPDEST PUSH2 0x5396 PUSH1 0x20 DUP4 ADD DUP6 PUSH2 0x417A JUMP JUMPDEST PUSH2 0x53A3 PUSH1 0x40 DUP4 ADD DUP5 PUSH2 0x51FD JUMP JUMPDEST SWAP5 SWAP4 POP POP POP POP JUMP JUMPDEST PUSH0 DUP2 MLOAD SWAP1 POP SWAP2 SWAP1 POP JUMP JUMPDEST PUSH0 DUP3 DUP3 MSTORE PUSH1 0x20 DUP3 ADD SWAP1 POP SWAP3 SWAP2 POP POP JUMP JUMPDEST PUSH0 JUMPDEST DUP4 DUP2 LT ISZERO PUSH2 0x53E2 JUMPI DUP1 DUP3 ADD MLOAD DUP2 DUP5 ADD MSTORE PUSH1 0x20 DUP2 ADD SWAP1 POP PUSH2 0x53C7 JUMP JUMPDEST PUSH0 DUP5 DUP5 ADD MSTORE POP POP POP POP JUMP JUMPDEST PUSH0 PUSH2 0x53F7 DUP3 PUSH2 0x53AB JUMP JUMPDEST PUSH2 0x5401 DUP2 DUP6 PUSH2 0x53B5 JUMP JUMPDEST SWAP4 POP PUSH2 0x5411 DUP2 DUP6 PUSH1 0x20 DUP7 ADD PUSH2 0x53C5 JUMP JUMPDEST PUSH2 0x541A DUP2 PUSH2 0x3F4F JUMP JUMPDEST DUP5 ADD SWAP2 POP POP SWAP3 SWAP2 POP POP JUMP JUMPDEST PUSH0 PUSH1 0x60 DUP3 ADD SWAP1 POP PUSH2 0x5438 PUSH0 DUP4 ADD DUP7 PUSH2 0x41CA JUMP JUMPDEST PUSH2 0x5445 PUSH1 0x20 DUP4 ADD DUP6 PUSH2 0x41A2 JUMP JUMPDEST DUP2 DUP2 SUB PUSH1 0x40 DUP4 ADD MSTORE PUSH2 0x5457 DUP2 DUP5 PUSH2 0x53ED JUMP JUMPDEST SWAP1 POP SWAP5 SWAP4 POP POP POP POP JUMP INVALID LOG2 PUSH5 0x6970667358 0x22 SLT KECCAK256 0xCC 0xD7 0xE5 0xC2 PUSH15 0x4BC2D18FB2A20729032B641383DFE8 PUSH19 0xA525D1445EE79E2ED139EB64736F6C63430008 OR STOP CALLER "
		},
		"gasEstimates": {
			"creation": {
				"codeDepositCost": "4331000",
				"executionCost": "infinite",
				"totalCost": "infinite"
			},
			"external": {
				"SLTAddress()": "2642",
				"SLTAirdropAmount()": "2672",
				"SLTPricePerRedemption()": "2606",
				"SLTRedemptionFee()": "2607",
				"SLTRewardAmountHundred()": "2629",
				"SLTRewardAmountTen()": "2606",
				"SLTRewardAmountTenThousand()": "2624",
				"SLTRewardAmountThousand()": "2599",
				"WorthHundredPotential()": "2562",
				"WorthTenPotential()": "2651",
				"WorthTenThousandPotential()": "2563",
				"WorthThousandPotential()": "2584",
				"acceptOwnership()": "54689",
				"addressToAmountContributed(address)": "2869",
				"addressToTotalFundsAtTimeOfContribution(address)": "2914",
				"airdropSLT(address)": "infinite",
				"contribute()": "infinite",
				"entryPriceForWorthHundred()": "2562",
				"entryPriceForWorthTen()": "2563",
				"entryPriceForWorthTenThousand()": "2562",
				"entryPriceForWorthThousand()": "2584",
				"getFinalResult()": "infinite",
				"linkTokenFee()": "2651",
				"owner()": "2626",
				"percentageCharge()": "2650",
				"playLotteryWorthHundred()": "infinite",
				"playLotteryWorthTen()": "infinite",
				"playLotteryWorthTenThousand()": "infinite",
				"playLotteryWorthThousand()": "infinite",
				"rawFulfillRandomWords(uint256,uint256[])": "infinite",
				"receiveLinkTokens()": "infinite",
				"redeemSLT(uint16)": "infinite",
				"transferOwnership(address)": "30756",
				"updateLinkTokenFee(uint16)": "27002",
				"updatePercentage(uint8)": "27069",
				"updatePriceForHundred(uint16)": "27003",
				"updatePriceForTen(uint16)": "27004",
				"updatePriceForTenThousand(uint16)": "26980",
				"updatePriceForThousand(uint16)": "27070",
				"updateSLTAddress(address)": "53441",
				"updateSLTAirdropAmount(uint16)": "26982",
				"updateSLTPricePerRedemption(uint16)": "27026",
				"updateSLTRedemptionFee(uint16)": "26960",
				"updateSLTRewardHundredAmount(uint16)": "27070",
				"updateSLTRewardTenAmount(uint16)": "27047",
				"updateSLTRewardTenThousandAmount(uint16)": "27025",
				"updateSLTRewardThousandAmount(uint16)": "26976",
				"withdrawContribution()": "infinite",
				"withdrawExcessLinkTokens()": "infinite"
			},
			"internal": {
				"checkEthPrice()": "infinite",
				"convertDollarToEth(uint256)": "infinite",
				"convertEthToDollar(uint256)": "infinite",
				"fulfillRandomWords(uint256,uint256[] memory)": "infinite",
				"getAmountToWithdraw()": "infinite",
				"getRandomNumber(uint256)": "infinite",
				"requestRandomWords()": "infinite",
				"rewardSLT(address,uint16)": "infinite"
			}
		},
		"methodIdentifiers": {
			"SLTAddress()": "aaf836ff",
			"SLTAirdropAmount()": "e33fe993",
			"SLTPricePerRedemption()": "f10cff96",
			"SLTRedemptionFee()": "70381729",
			"SLTRewardAmountHundred()": "a82650bd",
			"SLTRewardAmountTen()": "b2967e95",
			"SLTRewardAmountTenThousand()": "fe40da03",
			"SLTRewardAmountThousand()": "b5afa603",
			"WorthHundredPotential()": "7e90fb00",
			"WorthTenPotential()": "7773ea66",
			"WorthTenThousandPotential()": "99d794f3",
			"WorthThousandPotential()": "eb2a0472",
			"acceptOwnership()": "79ba5097",
			"addressToAmountContributed(address)": "caa7d83a",
			"addressToTotalFundsAtTimeOfContribution(address)": "7316a662",
			"airdropSLT(address)": "4342da8f",
			"contribute()": "d7bb99ba",
			"entryPriceForWorthHundred()": "ad8a8260",
			"entryPriceForWorthTen()": "563d71f7",
			"entryPriceForWorthTenThousand()": "caa0487c",
			"entryPriceForWorthThousand()": "b062a203",
			"getFinalResult()": "3c6e5310",
			"linkTokenFee()": "50dfd89a",
			"owner()": "8da5cb5b",
			"percentageCharge()": "8f69d52c",
			"playLotteryWorthHundred()": "dedda019",
			"playLotteryWorthTen()": "84542d69",
			"playLotteryWorthTenThousand()": "9eaa8867",
			"playLotteryWorthThousand()": "9593e8d6",
			"rawFulfillRandomWords(uint256,uint256[])": "1fe543e3",
			"receiveLinkTokens()": "fe6b690c",
			"redeemSLT(uint16)": "11d1f45f",
			"transferOwnership(address)": "f2fde38b",
			"updateLinkTokenFee(uint16)": "fd5c6b6e",
			"updatePercentage(uint8)": "c24611e3",
			"updatePriceForHundred(uint16)": "88e99069",
			"updatePriceForTen(uint16)": "a37e4974",
			"updatePriceForTenThousand(uint16)": "f59f822d",
			"updatePriceForThousand(uint16)": "abd28b5a",
			"updateSLTAddress(address)": "37b5689f",
			"updateSLTAirdropAmount(uint16)": "5c7cdc75",
			"updateSLTPricePerRedemption(uint16)": "4efd1f67",
			"updateSLTRedemptionFee(uint16)": "3df7231d",
			"updateSLTRewardHundredAmount(uint16)": "5521f39d",
			"updateSLTRewardTenAmount(uint16)": "e2076d11",
			"updateSLTRewardTenThousandAmount(uint16)": "b377cb1f",
			"updateSLTRewardThousandAmount(uint16)": "233eb6c8",
			"withdrawContribution()": "0d616d20",
			"withdrawExcessLinkTokens()": "4289a510"
		}
	},
	"abi": [
		{
			"inputs": [],
			"stateMutability": "nonpayable",
			"type": "constructor"
		},
		{
			"anonymous": false,
			"inputs": [
				{
					"indexed": true,
					"internalType": "address",
					"name": "contributor",
					"type": "address"
				},
				{
					"indexed": false,
					"internalType": "uint256",
					"name": "ethAmount",
					"type": "uint256"
				},
				{
					"indexed": false,
					"internalType": "uint256",
					"name": "totalContributions",
					"type": "uint256"
				},
				{
					"indexed": false,
					"internalType": "string",
					"name": "reason",
					"type": "string"
				}
			],
			"name": "Contribution",
			"type": "event"
		},
		{
			"anonymous": false,
			"inputs": [
				{
					"indexed": true,
					"internalType": "address",
					"name": "sender",
					"type": "address"
				},
				{
					"indexed": false,
					"internalType": "uint256",
					"name": "linkTokenAmount",
					"type": "uint256"
				},
				{
					"indexed": false,
					"internalType": "uint256",
					"name": "totalLinkTokensInContract",
					"type": "uint256"
				},
				{
					"indexed": false,
					"internalType": "string",
					"name": "reason",
					"type": "string"
				}
			],
			"name": "LinkTokensReceived",
			"type": "event"
		},
		{
			"anonymous": false,
			"inputs": [
				{
					"indexed": true,
					"internalType": "address",
					"name": "from",
					"type": "address"
				},
				{
					"indexed": true,
					"internalType": "address",
					"name": "to",
					"type": "address"
				}
			],
			"name": "OwnershipTransferRequested",
			"type": "event"
		},
		{
			"anonymous": false,
			"inputs": [
				{
					"indexed": true,
					"internalType": "address",
					"name": "from",
					"type": "address"
				},
				{
					"indexed": true,
					"internalType": "address",
					"name": "to",
					"type": "address"
				}
			],
			"name": "OwnershipTransferred",
			"type": "event"
		},
		{
			"anonymous": false,
			"inputs": [
				{
					"indexed": true,
					"internalType": "address",
					"name": "participant",
					"type": "address"
				},
				{
					"indexed": false,
					"internalType": "uint256",
					"name": "ethAmount",
					"type": "uint256"
				},
				{
					"indexed": false,
					"internalType": "string",
					"name": "reason",
					"type": "string"
				}
			],
			"name": "Participation",
			"type": "event"
		},
		{
			"anonymous": false,
			"inputs": [
				{
					"indexed": true,
					"internalType": "address",
					"name": "participant",
					"type": "address"
				},
				{
					"indexed": false,
					"internalType": "uint256",
					"name": "ethAmount",
					"type": "uint256"
				},
				{
					"indexed": false,
					"internalType": "string",
					"name": "reason",
					"type": "string"
				}
			],
			"name": "ParticipationResult",
			"type": "event"
		},
		{
			"anonymous": false,
			"inputs": [
				{
					"indexed": false,
					"internalType": "uint256",
					"name": "requestId",
					"type": "uint256"
				},
				{
					"indexed": false,
					"internalType": "uint256[]",
					"name": "randomWords",
					"type": "uint256[]"
				},
				{
					"indexed": false,
					"internalType": "uint256",
					"name": "payment",
					"type": "uint256"
				}
			],
			"name": "RequestFulfilled",
			"type": "event"
		},
		{
			"anonymous": false,
			"inputs": [
				{
					"indexed": false,
					"internalType": "uint256",
					"name": "requestId",
					"type": "uint256"
				},
				{
					"indexed": false,
					"internalType": "uint32",
					"name": "numWords",
					"type": "uint32"
				}
			],
			"name": "RequestSent",
			"type": "event"
		},
		{
			"anonymous": false,
			"inputs": [
				{
					"indexed": true,
					"internalType": "address",
					"name": "sender",
					"type": "address"
				},
				{
					"indexed": false,
					"internalType": "string",
					"name": "reason",
					"type": "string"
				}
			],
			"name": "StatusUpdate",
			"type": "event"
		},
		{
			"anonymous": false,
			"inputs": [
				{
					"indexed": true,
					"internalType": "address",
					"name": "contributor",
					"type": "address"
				},
				{
					"indexed": false,
					"internalType": "uint256",
					"name": "ethAmount",
					"type": "uint256"
				},
				{
					"indexed": false,
					"internalType": "string",
					"name": "reason",
					"type": "string"
				}
			],
			"name": "Withdrawal",
			"type": "event"
		},
		{
			"inputs": [],
			"name": "SLTAddress",
			"outputs": [
				{
					"internalType": "address",
					"name": "",
					"type": "address"
				}
			],
			"stateMutability": "view",
			"type": "function"
		},
		{
			"inputs": [],
			"name": "SLTAirdropAmount",
			"outputs": [
				{
					"internalType": "uint16",
					"name": "",
					"type": "uint16"
				}
			],
			"stateMutability": "view",
			"type": "function"
		},
		{
			"inputs": [],
			"name": "SLTPricePerRedemption",
			"outputs": [
				{
					"internalType": "uint16",
					"name": "",
					"type": "uint16"
				}
			],
			"stateMutability": "view",
			"type": "function"
		},
		{
			"inputs": [],
			"name": "SLTRedemptionFee",
			"outputs": [
				{
					"internalType": "uint16",
					"name": "",
					"type": "uint16"
				}
			],
			"stateMutability": "view",
			"type": "function"
		},
		{
			"inputs": [],
			"name": "SLTRewardAmountHundred",
			"outputs": [
				{
					"internalType": "uint16",
					"name": "",
					"type": "uint16"
				}
			],
			"stateMutability": "view",
			"type": "function"
		},
		{
			"inputs": [],
			"name": "SLTRewardAmountTen",
			"outputs": [
				{
					"internalType": "uint16",
					"name": "",
					"type": "uint16"
				}
			],
			"stateMutability": "view",
			"type": "function"
		},
		{
			"inputs": [],
			"name": "SLTRewardAmountTenThousand",
			"outputs": [
				{
					"internalType": "uint16",
					"name": "",
					"type": "uint16"
				}
			],
			"stateMutability": "view",
			"type": "function"
		},
		{
			"inputs": [],
			"name": "SLTRewardAmountThousand",
			"outputs": [
				{
					"internalType": "uint16",
					"name": "",
					"type": "uint16"
				}
			],
			"stateMutability": "view",
			"type": "function"
		},
		{
			"inputs": [],
			"name": "WorthHundredPotential",
			"outputs": [
				{
					"internalType": "uint16",
					"name": "",
					"type": "uint16"
				}
			],
			"stateMutability": "view",
			"type": "function"
		},
		{
			"inputs": [],
			"name": "WorthTenPotential",
			"outputs": [
				{
					"internalType": "uint16",
					"name": "",
					"type": "uint16"
				}
			],
			"stateMutability": "view",
			"type": "function"
		},
		{
			"inputs": [],
			"name": "WorthTenThousandPotential",
			"outputs": [
				{
					"internalType": "uint16",
					"name": "",
					"type": "uint16"
				}
			],
			"stateMutability": "view",
			"type": "function"
		},
		{
			"inputs": [],
			"name": "WorthThousandPotential",
			"outputs": [
				{
					"internalType": "uint16",
					"name": "",
					"type": "uint16"
				}
			],
			"stateMutability": "view",
			"type": "function"
		},
		{
			"inputs": [],
			"name": "acceptOwnership",
			"outputs": [],
			"stateMutability": "nonpayable",
			"type": "function"
		},
		{
			"inputs": [
				{
					"internalType": "address",
					"name": "",
					"type": "address"
				}
			],
			"name": "addressToAmountContributed",
			"outputs": [
				{
					"internalType": "uint256",
					"name": "",
					"type": "uint256"
				}
			],
			"stateMutability": "view",
			"type": "function"
		},
		{
			"inputs": [
				{
					"internalType": "address",
					"name": "",
					"type": "address"
				}
			],
			"name": "addressToTotalFundsAtTimeOfContribution",
			"outputs": [
				{
					"internalType": "uint256",
					"name": "",
					"type": "uint256"
				}
			],
			"stateMutability": "view",
			"type": "function"
		},
		{
			"inputs": [
				{
					"internalType": "address",
					"name": "_recipientAddress",
					"type": "address"
				}
			],
			"name": "airdropSLT",
			"outputs": [],
			"stateMutability": "nonpayable",
			"type": "function"
		},
		{
			"inputs": [],
			"name": "contribute",
			"outputs": [],
			"stateMutability": "payable",
			"type": "function"
		},
		{
			"inputs": [],
			"name": "entryPriceForWorthHundred",
			"outputs": [
				{
					"internalType": "uint16",
					"name": "",
					"type": "uint16"
				}
			],
			"stateMutability": "view",
			"type": "function"
		},
		{
			"inputs": [],
			"name": "entryPriceForWorthTen",
			"outputs": [
				{
					"internalType": "uint16",
					"name": "",
					"type": "uint16"
				}
			],
			"stateMutability": "view",
			"type": "function"
		},
		{
			"inputs": [],
			"name": "entryPriceForWorthTenThousand",
			"outputs": [
				{
					"internalType": "uint16",
					"name": "",
					"type": "uint16"
				}
			],
			"stateMutability": "view",
			"type": "function"
		},
		{
			"inputs": [],
			"name": "entryPriceForWorthThousand",
			"outputs": [
				{
					"internalType": "uint16",
					"name": "",
					"type": "uint16"
				}
			],
			"stateMutability": "view",
			"type": "function"
		},
		{
			"inputs": [],
			"name": "getFinalResult",
			"outputs": [],
			"stateMutability": "nonpayable",
			"type": "function"
		},
		{
			"inputs": [],
			"name": "linkTokenFee",
			"outputs": [
				{
					"internalType": "uint16",
					"name": "",
					"type": "uint16"
				}
			],
			"stateMutability": "view",
			"type": "function"
		},
		{
			"inputs": [],
			"name": "owner",
			"outputs": [
				{
					"internalType": "address",
					"name": "",
					"type": "address"
				}
			],
			"stateMutability": "view",
			"type": "function"
		},
		{
			"inputs": [],
			"name": "percentageCharge",
			"outputs": [
				{
					"internalType": "uint8",
					"name": "",
					"type": "uint8"
				}
			],
			"stateMutability": "view",
			"type": "function"
		},
		{
			"inputs": [],
			"name": "playLotteryWorthHundred",
			"outputs": [],
			"stateMutability": "payable",
			"type": "function"
		},
		{
			"inputs": [],
			"name": "playLotteryWorthTen",
			"outputs": [],
			"stateMutability": "payable",
			"type": "function"
		},
		{
			"inputs": [],
			"name": "playLotteryWorthTenThousand",
			"outputs": [],
			"stateMutability": "payable",
			"type": "function"
		},
		{
			"inputs": [],
			"name": "playLotteryWorthThousand",
			"outputs": [],
			"stateMutability": "payable",
			"type": "function"
		},
		{
			"inputs": [
				{
					"internalType": "uint256",
					"name": "_requestId",
					"type": "uint256"
				},
				{
					"internalType": "uint256[]",
					"name": "_randomWords",
					"type": "uint256[]"
				}
			],
			"name": "rawFulfillRandomWords",
			"outputs": [],
			"stateMutability": "nonpayable",
			"type": "function"
		},
		{
			"inputs": [],
			"name": "receiveLinkTokens",
			"outputs": [],
			"stateMutability": "nonpayable",
			"type": "function"
		},
		{
			"inputs": [
				{
					"internalType": "uint16",
					"name": "_SLTRedemptionAmount",
					"type": "uint16"
				}
			],
			"name": "redeemSLT",
			"outputs": [],
			"stateMutability": "nonpayable",
			"type": "function"
		},
		{
			"inputs": [
				{
					"internalType": "address",
					"name": "to",
					"type": "address"
				}
			],
			"name": "transferOwnership",
			"outputs": [],
			"stateMutability": "nonpayable",
			"type": "function"
		},
		{
			"inputs": [
				{
					"internalType": "uint16",
					"name": "_amountOfLink",
					"type": "uint16"
				}
			],
			"name": "updateLinkTokenFee",
			"outputs": [],
			"stateMutability": "nonpayable",
			"type": "function"
		},
		{
			"inputs": [
				{
					"internalType": "uint8",
					"name": "_percentage",
					"type": "uint8"
				}
			],
			"name": "updatePercentage",
			"outputs": [],
			"stateMutability": "nonpayable",
			"type": "function"
		},
		{
			"inputs": [
				{
					"internalType": "uint16",
					"name": "_newPrice",
					"type": "uint16"
				}
			],
			"name": "updatePriceForHundred",
			"outputs": [],
			"stateMutability": "nonpayable",
			"type": "function"
		},
		{
			"inputs": [
				{
					"internalType": "uint16",
					"name": "_newPrice",
					"type": "uint16"
				}
			],
			"name": "updatePriceForTen",
			"outputs": [],
			"stateMutability": "nonpayable",
			"type": "function"
		},
		{
			"inputs": [
				{
					"internalType": "uint16",
					"name": "_newPrice",
					"type": "uint16"
				}
			],
			"name": "updatePriceForTenThousand",
			"outputs": [],
			"stateMutability": "nonpayable",
			"type": "function"
		},
		{
			"inputs": [
				{
					"internalType": "uint16",
					"name": "_newPrice",
					"type": "uint16"
				}
			],
			"name": "updatePriceForThousand",
			"outputs": [],
			"stateMutability": "nonpayable",
			"type": "function"
		},
		{
			"inputs": [
				{
					"internalType": "address",
					"name": "_SLTAddress",
					"type": "address"
				}
			],
			"name": "updateSLTAddress",
			"outputs": [],
			"stateMutability": "nonpayable",
			"type": "function"
		},
		{
			"inputs": [
				{
					"internalType": "uint16",
					"name": "_newTokenAmount",
					"type": "uint16"
				}
			],
			"name": "updateSLTAirdropAmount",
			"outputs": [],
			"stateMutability": "nonpayable",
			"type": "function"
		},
		{
			"inputs": [
				{
					"internalType": "uint16",
					"name": "_SLTPricePerRedemption",
					"type": "uint16"
				}
			],
			"name": "updateSLTPricePerRedemption",
			"outputs": [],
			"stateMutability": "nonpayable",
			"type": "function"
		},
		{
			"inputs": [
				{
					"internalType": "uint16",
					"name": "_SLTRedemptionFee",
					"type": "uint16"
				}
			],
			"name": "updateSLTRedemptionFee",
			"outputs": [],
			"stateMutability": "nonpayable",
			"type": "function"
		},
		{
			"inputs": [
				{
					"internalType": "uint16",
					"name": "_SLTRewardAmount",
					"type": "uint16"
				}
			],
			"name": "updateSLTRewardHundredAmount",
			"outputs": [],
			"stateMutability": "nonpayable",
			"type": "function"
		},
		{
			"inputs": [
				{
					"internalType": "uint16",
					"name": "_SLTRewardAmount",
					"type": "uint16"
				}
			],
			"name": "updateSLTRewardTenAmount",
			"outputs": [],
			"stateMutability": "nonpayable",
			"type": "function"
		},
		{
			"inputs": [
				{
					"internalType": "uint16",
					"name": "_SLTRewardAmount",
					"type": "uint16"
				}
			],
			"name": "updateSLTRewardTenThousandAmount",
			"outputs": [],
			"stateMutability": "nonpayable",
			"type": "function"
		},
		{
			"inputs": [
				{
					"internalType": "uint16",
					"name": "_SLTRewardAmount",
					"type": "uint16"
				}
			],
			"name": "updateSLTRewardThousandAmount",
			"outputs": [],
			"stateMutability": "nonpayable",
			"type": "function"
		},
		{
			"inputs": [],
			"name": "withdrawContribution",
			"outputs": [],
			"stateMutability": "nonpayable",
			"type": "function"
		},
		{
			"inputs": [],
			"name": "withdrawExcessLinkTokens",
			"outputs": [],
			"stateMutability": "nonpayable",
			"type": "function"
		}
	]
}